:100000000C94B4000C94D3000C94D3000C94D30043
:100010000C94D3000C94D3000C94D3000C94D30014
:100020000C94D3000C94D3000C94FB0D0C94D300CF
:100030000C94D3000C94D3000C94D3000C94D300F4
:100040000C94940B0C94E80B0C94530C0C94D3006C
:100050000C94D10B0C94D3000C94D3000C94D300CB
:100060000C94D3000C94D3000C94D3000C94D300C4
:100070000C94D3000C94D3000C94D3000C94D300B4
:100080000C94D3000C94D3000C94D3000C94D300A4
:100090000C94D3000C94D3006C0B32085B085F09FE
:1000A0005F095F095F090409540959095C095F097F
:1000B0005F09690975097809760B760B760B760B63
:1000C000760B760B760B760B7E09760B760B760B22
:1000D000760B760B760B760B760BB309260A4C0A59
:1000E000600ABC0A120B5E0BBA26785BCE74B81697
:1000F0002AEFF3CC8B4E530AE2D7B73C564CB56689
:10010000DB1E57EEE6F4431A06DFCD9F863E8A7962
:100110003A04097C1FBB12A0779B40FC00AD316FF5
:100120009AA69E150D6C447035F064D67E483D50FD
:10013000622FC630E760F8DC5C5F08C3B913A8BE65
:10014000E97A8165BCD22E55E590F7A77BC2C1EA5A
:100150004AAE93F2FFB3C567399849052C3F388DF5
:10016000D3CA2DE0B200000011241FBECFEFD0E2B1
:10017000DEBFCDBF11E0A0E0B1E0EAE0F8E600E0CC
:100180000BBF02C007900D92A039B107D9F712E159
:10019000A0E9B1E001C01D92AA36B107E1F70E94C3
:1001A0009A010C94D5000C940000F8940C9403343C
:1001B000FB01DC0102C001900D9241505040D8F784
:1001C0000895EF92FF920F93DF93CF93CDB7DEB7F1
:1001D00060970FB6F894DEBF0FBECDBFA82F0023E7
:1001E00009F461C07E010894E11CF11C88E0F7016C
:1001F00011928A95E9F729833A834B835C836D8357
:100200007E83AF83988780E2801BE82FFF27E7FD7E
:10021000F0954D815E816F817885181684F01D867A
:100220001E861F86188A882799278E1B9F0B04C05D
:1002300076956795579547958A95D2F728C0202FD0
:10024000332727FD3095DB01CA01022E04C0B69585
:10025000A795979587950A94D2F78D879E87AF8744
:10026000B88B04C0440F551F661F771FEA95D2F75D
:1002700089819A81AB81BC8104C0B695A795979579
:1002800087952A95D2F7482B592B6A2B7B2B4987C8
:100290005A876B877C8729853A854B855C856D8578
:1002A0007E85AF8598898A2F60960FB6F894DEBF59
:1002B0000FBECDBFCF91DF910F91FF90EF900895CA
:1002C0008DEE8093640089E88093650080B7806834
:1002D00080BF80EF80937E000E942F29882341F108
:1002E0000E941B28882321F18CE991E060E270E0F4
:1002F00045E020E931E00E9423288823C9F088E402
:1003000092E063E970E04FE02CE332E00E942328A2
:10031000882371F00E949032882351F0579A6F9A87
:100320006E9A559A5F98779A769A5D9A81E00895C9
:1003300080E0089588E10FB6F894809360001092F1
:1003400060000FBE0E946001882319F45D98F89444
:10035000FFCF0E947512882329F40E946C125D98C9
:10036000F894FFCF0E945206882329F40E942D069C
:100370005D98F894FFCF0E946C12769878940E9452
:1003800088290E949E330E94900E0E94E5030E94DD
:100390003B05F5CF089583FF26C01092530C1092B1
:1003A000520C289882E88EBD0DB407FEFDCF8EB5A5
:1003B0008EBD0DB407FEFDCF9EB5289A289882EC1D
:1003C0008EBD0DB407FEFDCF8EB5907E93609EBDB1
:1003D0000DB407FEFDCF8EB5289A82E0982F9A952E
:1003E000F1F780930901089580910901883049F45B
:1003F0000E94AA12882329F082E08093090181E0FB
:10040000089580E008951F9380910901823091F54D
:1004100081E06FE140E00E94FD12182F883051F515
:100420008FE768EE70E00E946B1386E36FE00E9436
:10043000E2128DE360E00E94E2122E9A82E06FE108
:1004400040E029E00E94101388E691E00197F1F75F
:1004500081E06FE140E00E94FD12893019F00E94B6
:10046000AA1208C082E062E00E94E2121093090121
:1004700081E001C080E01F9108951F93182F8091A3
:100480000901823041F5812F8B50803120F580E6C3
:1004900099E00197F1F782E06FE140E023E00E94EC
:1004A00010138CEF93E00197F1F781E06FE140E0EA
:1004B0000E94FD12883079F46FE140E0212F0E9404
:1004C000101388E06FE140E00E94FD1290E01817E1
:1004D00019F491E001C090E0892F1F910895DF93F6
:1004E000CF930F92CDB7DEB780910901823009F02A
:1004F00044C06FE140E023E00E9410138CEF93E0D2
:100500000197F1F781E06FE140E00E94FD12883031
:10051000A1F582E06FE140E026E00E94101388E63A
:1005200091E00197F1F781E06FE140E00E94FD1258
:10053000863019F58FB78983F8941092030B1092C7
:10054000040B1092050B8AE08093060B1092070BA8
:100550001092080B10920A0B1092090B1092E60AE7
:100560001092E50A89818FBF88E493E00E94B81356
:1005700084E08093090181E001C080E00F90CF9179
:10058000DF9108951F93CF93DF93182FEB01181677
:1005900014F081E035C06115710511F482E030C0BE
:1005A00080910901823011F083E02AC081E06FE17F
:1005B00040E00E94FD12883011F084E021C082E00A
:1005C0006FE140E029E00E94101388E691E0019776
:1005D000F1F781E06FE140E00E94FD12893011F0F7
:1005E00085E00EC08BEC91E00E94B8132C9A2C98F9
:1005F000812FBE010E94451380E28093090180E0B3
:10060000DF91CF911F910895809109018031C1F44C
:100610000E94DC1382E06FE140E023E00E941013AF
:100620008CEF93E00197F1F781E06FE140E00E94E9
:10063000FD12883029F482E08093090181E0089559
:1006400080E008958AEC91E00E94B8130E94DC13C8
:1006500080E00895809109018430C1F40E94DC1388
:1006600082E06FE140E023E00E9410138CEF93E002
:100670000197F1F781E06FE140E00E94FD128830C0
:1006800029F482E08093090181E0089580E00895D3
:1006900083FF74C09091060B992351F48091E70A6F
:1006A0009091E80A01969093E80A8093E70A0895EA
:1006B000289880E28EBD8091030BE82FF0E0EE0FCA
:1006C000FF1FE151F54F0190F081E02D893019F4C1
:1006D0001092030B03C08F5F8093030B8091050B77
:1006E0008F5F8093050B91509093060B0DB407FE1E
:1006F000FDCF8EB58EBD80E580838091E90A86832B
:100700000DB407FEFDCF2EB52F77265F21832A502B
:1007100020872F5F2EBD21508091EA0A9091EB0A2D
:10072000A091EC0AB091ED0A82839383A483B583F0
:100730000DB407FEFDCFDF01199630E02F5F3F4F6C
:100740002A0F3B1F8EB58EBD8D930DB407FEFDCFD6
:10075000A217B307B9F7289A289886E88EBD0DB47A
:1007600007FEFDCF8EB58EBD0DB407FEFDCF8EB555
:10077000289A881F8827881F8783089582FF1FC0B3
:100780000E94CE3296958795779567956093EA0A91
:100790007093EB0A8093EC0A9093ED0A289886E810
:1007A0008EBD0DB407FEFDCF8EB58EBD0DB407FE18
:1007B000FDCF8EB5289A8F718093E90A08958091B4
:1007C000EE0A8F5F8093EE0A0895DF93CF930F9226
:1007D000CDB7DEB780910901843009F096C0409111
:1007E000050B442309F499C081E08093E9008091CE
:1007F000E80080FF92C08091E8008E7F8093E8003F
:100800008091070B8823A9F58091080B882329F58F
:10081000E091040BF0E0EE0FFF1FE151F54F019066
:10082000F081E02DF0930A0BE093090B8181809316
:10083000070B90E0CF969C0156E0369527955A9588
:10084000E1F7CF97322F2093080B8F739070892B8D
:1008500081F43F5F3093080B0CC0813049F48091E4
:10086000E8008F778093E8008FB78983F8942FC0D2
:100870007698E091090BF0910A0B9091070B91503B
:1008800081918093F100992319F41092070B0AC00B
:100890008091E800292F215085FF02C0922FF0CFD0
:1008A0009093070BF0930A0BE093090B2091080B30
:1008B00021502093080B8091E8008F778093E80007
:1008C000992359F5222349F58FB78983F8948091AC
:1008D000040B893019F41092040B03C08F5F8093CE
:1008E000040B41504093050B8091060B8F5F809362
:1008F000060B8091E50A9091E60A01969093E60A2C
:100900008093E50A89818FBF08C0803131F481E08E
:1009100068E040E051E00E94530D0F90CF91DF91CD
:100920000895CF93DF9380910901813089F0CFEE54
:10093000DAE0888199810E94F028199219928BE05F
:10094000C330D807B1F70E94C11281E0809309013A
:10095000DF91CF9108950F931F93CF93DF93109260
:10096000E60A1092E50A1092E80A1092E70A10923D
:10097000E90A1092EA0A1092EB0A1092EC0A10921D
:10098000ED0A1092EE0A1092030B1092040B1092D3
:10099000050B8AE08093060B1092070B1092080B50
:1009A00010920A0B1092090B0E94AA120CEF13E08E
:1009B000C8010197F1F72E982D982C9880E18A951F
:1009C000F1F72D9A80E699E0FC013197F1F7019754
:1009D000F1F782E06FE140E023E00E941013C801CC
:1009E0000197F1F781E06FE140E00E94FD1288304D
:1009F00071F583E068E043E020E00E94101383E09B
:100A000067E040E020E00E94101385E060E847E0E6
:100A100021E00E9410138EE06CE00E94E2128091AF
:100A20006F00806280936F00CFEEDAE089E890E09B
:100A30000E94B028009759F0899399938BE0C330B6
:100A4000D807A1F782E08093090181E00FC00E94DE
:100A5000C112CFEEDAE0888199810E94F0281992C4
:100A600019928BE0C330D807B1F780E0DF91CF91C6
:100A70001F910F910895DF93CF930F92CDB7DEB7FB
:100A800080910B0B843009F08BC04091220B4423E2
:100A900009F486C081E08093E9008091E80080FF3E
:100AA0007FC08091E8008E7F8093E8008091240BC6
:100AB0008823A1F58091250B882329F5E091210B4E
:100AC000F0E0EE0FFF1FEA5EF44F0190F081E02DA1
:100AD000F093270BE093260B81818093240B90E009
:100AE000CF969C0156E0369527955A95E1F7CF971A
:100AF000322F2093250B8F739070892B79F43F5FF1
:100B00003093250B0BC0813049F48091E8008F773A
:100B10008093E8008FB78983F8942EC0E091260B6C
:100B2000F091270B9091240B915081918093F100CB
:100B3000992319F41092240B0AC08091E800292F00
:100B4000215085FF02C0922FF0CF9093240BF09399
:100B5000270BE093260B2091250B21502093250B8A
:100B60008091E8008F778093E8009923C9F42223CD
:100B7000B9F48FB78983F8948091210B843019F4EC
:100B80001092210B03C08F5F8093210B4150409343
:100B9000220B8091230B8F5F8093230B89818FBF62
:100BA0000F90CF91DF910895FC0184E08093E900DC
:100BB0008091E8008E7F8093E8008081882311F087
:100BC0008BE801C080E88093F1008091E8008F7786
:100BD0008093E80080910C0B90910D0B0E94F028FF
:100BE000089524E02093E9002091E8002E7F2093CF
:100BF000E800FC018085882311F08BE801C080E8C3
:100C00008093F1008091E8008F778093E8008091D5
:100C1000120B9091130B0E94F028089524E020936A
:100C2000E9002091E8002E7F2093E800FC01EF5BB3
:100C3000FF4F8081882311F08BE801C080E880930A
:100C4000F1008091E8008F778093E8008091140B89
:100C50009091150B0E94F0280895CF93DF93809117
:100C60000B0B8823E1F010920B0B80910C0B9091F1
:100C70000D0B0E94F02810920D0B10920C0BC6E188
:100C8000DBE0888199810E94F028199219928BE00B
:100C9000C032D807B1F70E942C0D0E94F30CDF91EF
:100CA000CF910895EF92FF920F931F93DF93CF930D
:100CB00000D00F92CDB7DEB710920D0B10920C0B37
:100CC0000E94641120930A0130930B0140930C01A0
:100CD00050930D0160930E0170930F0180931001EA
:100CE0009093110110920F0B10920E0B76E1E72EEC
:100CF0007BE0F72E870183E990E00E94B0280097FF
:100D000051F1F801819391938F01FBE000321F07AD
:100D100091F720910A0130910B0140910C01509103
:100D20000D0160910E0170910F0180911001909161
:100D300011010E94740C82E0898388EC96E09B8309
:100D40008A83CE0101960E94FE0C882321F481E063
:100D500080930B0B13C0F701808191810E94F028D2
:100D6000F701119211927F01F0E2EF16FBE0FF060E
:100D700091F70E942C0D0E94F30C80E00F900F90D1
:100D80000F90CF91DF911F910F91FF90EF900895F9
:100D9000892B99F484E08093E9008091E8008E7FAC
:100DA0008093E80081E88093F1008091E8008F77DC
:100DB0008093E8000E943C0D089589E098E00E942D
:100DC0005529882391F484E08093E9008091E8001C
:100DD0008E7F8093E80085E98093F1008091E800A0
:100DE0008F778093E8000E943C0D0895DF93CF93A6
:100DF0000F92CDB7DEB7482F3091230B332351F438
:100E000080910E0B90910F0B019690930F0B809396
:100E10000E0B2EC02091200BE22FF0E0EE0FFF1FF3
:100E2000EA5EF44F0190F081E02D8FB78983F8944A
:100E3000243019F41092200B03C02F5F2093200B55
:100E40008091220B8F5F8093220B31503093230BC4
:100E500089818FBF85E580838AE081833296242F44
:100E6000392FC901DC0188E00D9001928150E1F732
:100E70000F90CF91DF910895DF93CF930F92CDB76D
:100E8000DEB7482F3091230B332351F480910E0BA2
:100E900090910F0B019690930F0B80930E0B33C024
:100EA0002091200BE22FF0E0EE0FFF1FEA5EF44FDF
:100EB000A081B1818FB78983F894243019F41092FE
:100EC000200B03C02F5F2093200B8091220B8F5F9C
:100ED0008093220B31503093230B89818FBF84E59F
:100EE0008C938CE011968C931197E42FF92F8191BC
:100EF000919113969C938E931297149688E001908B
:100F00000D928150E1F70F90CF91DF910895DF931B
:100F1000CF930F92CDB7DEB7DC012091230B2223B4
:100F200051F480910E0B90910F0B019690930F0B43
:100F300080930E0B48C09091200BE92FF0E0EE0F4C
:100F4000FF1FEA5EF44F0190F081E02D8FB7898397
:100F5000F894943019F41092200B03C09F5F909383
:100F6000200B8091220B8F5F8093220B21502093C6
:100F7000230B89818FBF83E5808316968C9116970A
:100F8000885F818311968D919C91129793838283C0
:100F900013968D919C9114979583848315968C91CB
:100FA0001597868316968C91169787839F01285FE5
:100FB0003F4F16964C911697FD013796C901BF0118
:100FC00050E00E94D8000F90CF91DF91089524E067
:100FD0002093E9002091E8002E7F2093E800FC0197
:100FE0008481882311F08BE806C081E080931E1174
:100FF0000E94142380E88093F1008091E8008F77AD
:101000008093E8008091100B9091110B0E94F028C2
:1010100008959F92AF92BF92CF92DF92EF92FF928C
:101020000F931F93CF93DF938C0184E08093E900AB
:101030008091E8008E7F8093E8008091E8008460D2
:101040008093E800D8018C91E82FF0E0E832F105B8
:1010500008F04CC3E45BFF4FEE0FFF1F0590F491C7
:10106000E02D099484E08093E9008091E8008E7F70
:101070008093E80084E88093F1008AE08093F10097
:101080008BE48093F10089E48093F1008CE48093F9
:10109000F1008093F10085E48093F10082E5809374
:1010A000F10082E48093F10080E38093F10080936B
:1010B000F10081E324C384E08093E9008091E8009B
:1010C0008E7F8093E800F8016181662341F485E812
:1010D0008093F10081E08093F10089E110C36130D9
:1010E00041F485E88093F1006093F1006093F10092
:1010F00008C3623039F485E88093F10081E0809381
:10110000F100FDC2603C61F485E88093F10082E06B
:101110008093F10081E08093F1001092F100F1C220
:10112000613C09F02CC185E88093F10010910A011F
:10113000F0900B01E0900C01D0900D01C0900E01D9
:10114000B0900F01A0901001909011011093F10048
:10115000212F3F2D4E2D5D2D6C2D7B2D8A2D992D10
:1011600008E00E94E1002093F100212F3F2D4E2D39
:101170005D2D6C2D7B2D8A2D992D00E10E94E100C3
:101180002093F100212F3F2D4E2D5D2D6C2D7B2DB9
:101190008A2D992D08E10E94E1002093F100212F72
:1011A0003F2D4E2D5D2D6C2D7B2D8A2D992D00E22E
:1011B0000E94E1002093F100212F3F2D4E2D5D2D47
:1011C0006C2D7B2D8A2D992D08E20E94E100209341
:1011D000F100212F3F2D4E2D5D2D6C2D7B2D8A2D65
:1011E000992D00E30E94E1002093F100212F3F2D73
:1011F0004E2D5D2D6C2D7B2D8A2D992D08E30E949F
:10120000E1002093F1007DC21092200B1092210B7F
:101210001092220B85E08093230B1092240B1092E6
:10122000250B1092270B1092260B10920F0B109289
:101230000E0B0E9491040E946A2A81E080930B0B9E
:10124000D80111966C91662339F40E94AB0488236F
:1012500009F452C082E024C0633009F025C1209116
:101260000A0130910B0140910C0150910D016091E8
:101270000E0170910F0180911001909111010E9457
:101280008D2A8823C9F187E897E00E94052A8CE31C
:1012900097E00E942E2A86EF96E00E94572A84E06B
:1012A00080930B0B90E801C1F80181810E943D02FF
:1012B000F8C00E946F02F5C00E942A03F2C084E0C9
:1012C0008093E9008091E8008E7F8093E80083E9B5
:1012D00016C2D80111968C910E5F1F4FB8010E9463
:1012E000C202982F8823F1F2E0C00E94030202C0DC
:1012F0000E94F4018823B1F693E8D7C084E080937C
:10130000E9008091E8008E7F8093E80080E8809378
:10131000F1008091E8008F778093E8000E943C0DF7
:1013200084EF91E028EC30E0F9013197F1F7019773
:10133000D9F7F999FECF1FBA8FE090E092BD81BD39
:1013400085E380BD0FB6F894FA9AF99A0FBE28E0AB
:1013500088E190E00FB6F894A895809360000FBEE6
:1013600020936000FFCFF80186818F3550F084E034
:101370008093E9008091E8008E7F8093E80082E806
:10138000BEC187E290E00E94B028FC0190930D0B53
:1013900080930C0B009751F484E08093E9008091D6
:1013A000E8008E7F8093E80080E9A9C11082E09177
:1013B0000C0BF0910D0BD80111968D919C91129709
:1013C0009283818313968C9113978383E0910C0B06
:1013D000F0910D0B14968C9114978483E0910C0B73
:1013E000F0910D0B16968C918683E0910C0BF09189
:1013F0000D0B095F1F4F1087078307501040D8015E
:1014000015968C918583E0910C0BF0910D0B84ED7A
:1014100095E092878187CF010E94562B882309F09F
:1014200075C184E08093E9008091E8008E7F80930D
:10143000E8008BE88093F1008091E8008F7780933B
:10144000E80080910C0B90910D0B35C183E090E08A
:101450000E94B028EC01009711F410E912C0F801C5
:1014600081818883828193819A838983CE010E94BE
:10147000A92D882311F010E801C012E8CE010E94C6
:10148000F02884E08093E9008091E8008E7F8093CB
:10149000E8001093F10035C1D80111968C910E949B
:1014A0008432882309F0FECE92E884E08093E9003C
:1014B0008091E8008E7F8093E8009093F10021C135
:1014C0008FE190E00E94B028FC019093110B809373
:1014D000100B009781F484E08093E9008091E8008C
:1014E0008E7F8093E80080E98093F1008091E8008E
:1014F0008F778093E800D80111968D919C91129777
:1015000091838083E091100BF091110B13968C91D5
:1015100013978283E091100BF091110B14968C912C
:101520001497838315968C9115978483E091100B03
:10153000F091110B16968C91858387EE97E0978337
:101540008683CF010E94902E882309F0DFC084E0BB
:101550008093E9008091E8008E7F8093E8008BE81B
:101560008093F1008091E8008F778093E80080916C
:10157000100B9091110B9FC08FE190E00E94B0285A
:101580009C019093130B8093120B009781F484E0DD
:101590008093E9008091E8008E7F8093E80080E9E5
:1015A0008093F1008091E8008F778093E800D90163
:1015B000F801319688E001900D928150E1F7E091B9
:1015C000120BF091130BD80119968C911997808703
:1015D0001A968C911A9781871B968C911B978287FC
:1015E0001C968C91838781EF95E095878487CF0146
:1015F0000E94882F882309F089C084E08093E90045
:101600008091E8008E7F8093E8008BE88093F10062
:101610008091E8008F778093E8008091120B909181
:10162000130B49C08AE890E00E94B028FC01909317
:10163000150B8093140B009781F484E08093E900EC
:101640008091E8008E7F8093E80080E98093F1002C
:101650008091E8008F778093E800D80111968C91F3
:1016600011978083E091140BF091150B12968C91D9
:101670008183E091140BF091150B8EE096E093833B
:101680008283CF010E94DE2C882309F03FC084E0D2
:101690008093E9008091E8008E7F8093E8008BE8DA
:1016A0008093F1008091E8008F778093E80080912B
:1016B000140B9091150B0E94F02828C00E94C2299B
:1016C000882351F084E08093E9008091E8008E7FC8
:1016D0008093E8008BE813C084E08093E900809158
:1016E000E8008E7F8093E80080E809C084E0809362
:1016F000E9008091E8008E7F8093E8008DE8809378
:10170000F1008091E8008F778093E8000E943C0D03
:10171000DF91CF911F910F91FF90EF90DF90CF90CD
:10172000BF90AF909F9008951F920F920FB60F92A7
:101730000BB60F9211242F933F934F935F936F93A8
:101740007F938F939F93AF93BF93EF93FF9386B352
:10175000856086BB28988FE88EBD0DB407FEFDCF4F
:101760008EB58EBD0DB407FEFDCF8EB5289AE091E3
:10177000520CF091530C309709F00995FF91EF91BD
:10178000BF91AF919F918F917F916F915F914F9199
:101790003F912F910F900BBE0F900FBE0F901F9097
:1017A00018951F920F920FB60F9211248F939F934B
:1017B00080916812909169120196909369128093BA
:1017C00068129F918F910F900FBE0F901F901895E8
:1017D0001F920F920FB60F920BB60F9211242F93F8
:1017E0003F934F935F936F937F938F939F93AF93A9
:1017F000BF93EF93FF93E0910A11F0910B11309793
:1018000031F480916F008D7F80936F0039C080919B
:101810000E1190910F11009779F0019790930F118D
:1018200080930E1180918400909185000197909390
:1018300089008093880024C02091101130911111EB
:101840002115310579F08091840090918500820FF7
:10185000931F909389008093880010921111109229
:1018600010110EC080916F008D7F80936F0080916A
:101870000C1190910D11099510920B1110920A11F3
:10188000FF91EF91BF91AF919F918F917F916F9158
:101890005F914F913F912F910F900BBE0F900FBE14
:1018A0000F901F9018951F920F920FB60F92112450
:1018B0008F939F93809112119091131101969093A1
:1018C00013118093121180918400909185008659A4
:1018D000974E90938B0080938A009F918F910F90E9
:1018E0000FBE0F901F9018957F928F929F92AF928C
:1018F000BF92CF92DF92EF92FF920F931F93CF93FD
:10190000DF93722E832E942EA52EB62EC72ED82EA0
:10191000192F1092280B1092290B10922A0B10925B
:101920004C0C10924B0C10924D0C10921611109200
:101930004E0C1092500C10924F0C809165008F77D6
:1019400080936500CFE6D1E0EE24FF24272D382DCB
:10195000492D5A2D6B2D7C2D8D2D912F0E2D0E94F2
:10196000E100822F82958F708A3010F4805D01C073
:10197000895C888319822F702A3010F4205D01C0A1
:10198000295C2A831B8288E090E0E80EF91E2496E9
:1019900090E3E916F104D1F68091D7008F7B809314
:1019A000D7008091D70080688093D7008091D800BD
:1019B00080698093D8008091D8008F7B8093D80075
:1019C0008091D80081608093D800DF91CF911F91E2
:1019D0000F91FF90EF90DF90CF90BF90AF909F90CE
:1019E0008F907F900895E8EDF0E080818F7680837E
:1019F000E5E6F0E08081806880830895DF93CF93EF
:101A00000F92CDB7DEB7FC01009709F180914D0C24
:101A1000882311F081E01CC090819923C1F08FB719
:101A20008983F89490934E0C818192819093500C0D
:101A300080934F0C10924C0C10924B0C81E08093D1
:101A40004D0C1092161189818FBF80E001C082E099
:101A50000F90CF91DF910895DF93CF930F92CDB781
:101A6000DEB78FB78983F89410924D0C89818FBFB0
:101A70000F90CF91DF910895DF93CF930F92CDB761
:101A8000DEB78FB78983F89481E080934D0C109274
:101A9000161110924C0C10924B0C89818FBF0F9035
:101AA000CF91DF9108958093E9008091E80080FD57
:101AB00002C084E00895262F30E0C901CF9676E079
:101AC000969587957A95E1F7A82F2F733070232B81
:101AD00011F4AF5F04C0613410F4762F01C070E4DC
:101AE0009A018091E8008E7F8093E800F901972F9A
:101AF00004C081918093F10091509923D1F7270F71
:101B0000311D60548091E8008F778093E800603445
:101B100010F4762F01C070E44FEF5FEF08C041155D
:101B2000510519F4769881E0089541505040809114
:101B3000E80080FFF4CFA150A1F680E00895FA01FB
:101B4000662311F481E008958093E9009FEF03C0BC
:101B5000992361F191508091E80080FFF9CF809145
:101B6000E8008E7F8093E800962F81918093F100AA
:101B70009150D9F78091E8008F778093E800603426
:101B800099F49FEF03C0992389F091508091E80068
:101B900080FFF9CF8091E8008E7F8093E8008091EC
:101BA000E8008F778093E80080E0089584E008954E
:101BB0008091D70081608093D7008EE089BD09B401
:101BC00000FEFDCF8091D8008F7D8093D80080915A
:101BD000E20081608093E2008091E200886080935F
:101BE000E2000E943C148091E0008E7F8093E00030
:101BF0001092280B08951F920F920FB60F920BB6FA
:101C00000F9211242F933F934F935F936F937F9382
:101C10008F939F93AF93BF93EF93FF938091DA00DD
:101C200080FF19C08EEF8093DA008091D90080FF89
:101C300010C081E08093280B8091E200886080933F
:101C4000E2000E94D80D8091E0008E7F8093E0003A
:101C500002C01092280B8091DA0081FF05C08DEF41
:101C60008093DA008091D9008091E10082FF03C067
:101C70008BEF8093E1008091E10080FF10C08EEF38
:101C80008093E1008091E20080618093E2008FEE1A
:101C90008093E1008091D80080628093D800809189
:101CA000E10084FF0DC08091D8008F7D8093D80023
:101CB0008FEE8093E1008091E2008F7E8093E200BE
:101CC0008091E10085FF0DC08091E2008F7E8093BE
:101CD000E2008FED8093E1008091E2008F7D8093A0
:101CE000E2008091E10083FF08C087EF8093E1006C
:101CF0000E943C1481E08093290BFF91EF91BF91EA
:101D0000AF919F918F917F916F915F914F913F9193
:101D10002F910F900BBE0F900FBE0F901F90189534
:101D20008091D90080FF11C08091280B882369F42D
:101D300081E08093280B8091E20088608093E2002C
:101D40008091E0008E7F8093E0008091290B8823B2
:101D500049F081E08093EA001092EA0010922A0B89
:101D60001092290B1092E9008091E80083FF02C0D5
:101D70000E94BB1480914D0C882309F44BC08091C4
:101D80004E0C8093E90020914B0C30914C0C3AC0E2
:101D90008091E8008B7F8093E8006091F200A901B8
:101DA000460F511D81E04132580728F4F901E55DE5
:101DB000F44F962F0EC030934C0C20934B0C109286
:101DC0004D0C81E08093161108958091F10081936C
:101DD00091509923D1F78091E8008F778093E800A4
:101DE000603478F440934B0C50934C0C10924D0C93
:101DF000E0914F0CF091500CCA016BE27BE0099529
:101E000008959A018091E80082FDC2CF30934C0C76
:101E100020934B0C0895E4E6F0E080818F77808377
:101E200080E28093B800E9EBF0E08081808381E07C
:101E30000895E4E6F0E08081806880830895282F8B
:101E400084EA8093BC009FEF8091BC0087FD02C0B4
:101E50009150D1F78091B900887F883039F580EAB8
:101E60008093BB008091BC0080688093BC009FEF92
:101E70008091BC0087FD02C09150D1F78091B900DC
:101E8000887F883199F42093BB008091BC008068E2
:101E90008093BC009FEF8091BC0087FD02C09150F1
:101EA000D1F78091B900887F883229F084E9809346
:101EB000BC0090E018C06093BB008091BC008068BB
:101EC0008093BC009FEF8091BC0087FD02C09150C1
:101ED000D1F78091B90090E0887F883209F491E0D1
:101EE00084E98093BC00892F089580E00895282F0D
:101EF000FB016115710511F490E085C084EA8093BF
:101F0000BC009FEF91508091BC0087FD02C09923D7
:101F1000C9F78091B900887F883009F06DC0992396
:101F200009F46AC080EA8093BB0084E88093BC0017
:101F30009FEF91508091BC0087FD02C09923C9F7A3
:101F40008091B900887F883109F056C0992309F43F
:101F500053C02093BB0084E88093BC009FEF915056
:101F60008091BC0087FD02C09923C9F78091B90018
:101F7000887F883209F040C09923F1F184EA809388
:101F8000BC009FEF91508091BC0087FD02C0992357
:101F9000C9F78091B900887F803171F5992361F18B
:101FA00081EA8093BB0084E88093BC009FEF91504E
:101FB0008091BC0087FD02C09923C9F78091B900C8
:101FC000887F8034C9F49923B9F084E88093BC00F9
:101FD0009FEF91508091BC0087FD02C09923C9F703
:101FE0008091B900887F883511F0992329F4809178
:101FF000BB00808391E001C090E084E98093BC0045
:1020000080E88093BC00892F0895282FFA0161157C
:10201000710509F48CC04115510509F488C084EAA2
:102020008093BC009FEF91508091BC0087FD02C05F
:102030009923C9F78091B900887F883009F071C071
:10204000992309F46EC080EA8093BB0084E88093F2
:10205000BC009FEF91508091BC0087FD02C0992386
:10206000C9F78091B900887F883109F05AC0992357
:1020700009F457C02093BB0084E88093BC009FEF15
:1020800091508091BC0087FD02C09923C9F78091CF
:10209000B900887F883209F044C0992309F441C00F
:1020A00084EA8093BC009FEF91508091BC0087FD33
:1020B00002C09923C9F78091B900887F803189F5E2
:1020C000992379F181EA8093BB0084E88093BC0076
:1020D0009FEF91508091BC0087FD02C09923C9F702
:1020E0008091B900887F8034E1F49923D1F024EC09
:1020F0002093BC009FEF91508091BC0087FD02C0EF
:102100009923C9F78091B900887F803551F49923CC
:1021100041F08091BB0080836150704011F0319696
:10212000E7CF84E98093BC0080E88093BC0080E026
:102130000895FB012091510C222339F1611571059D
:1021400021F14115510509F1223029F4BA01AF01FD
:102150000E94750F089520E030E0D901A80FB91F43
:102160006081F999FECF1FBAB2BDA1BD60BD0FB6A7
:10217000F894FA9AF99A0FBE2F5F3F4F4217530710
:1021800011F481E008953196E8CF80E008959C0134
:10219000FB018091510C8823F1F061157105D9F094
:1021A00041155105C1F0823031F4822FBA01AF01DF
:1021B0000E9405100895F999FECF32BD21BDF89A0D
:1021C00080B580834150504011F481E008953196EC
:1021D0002F5F3F4FF0CF80E00895DF93CF930F92B2
:1021E000CDB7DEB78FEF89838091510C823039F4FF
:1021F0008EE0BE016F5F7F4F0E94770F0BC0813072
:1022000049F4F999FECF8EE090E092BD81BDF89A35
:1022100080B5898389810F90CF91DF910895DF93F5
:10222000CF9300D0CDB7DEB71A8219828091510CBE
:10223000823069F48DE0BE016F5F7F4F0E94770F9F
:102240008CE0BE016E5F7F4F0E94770F14C081301B
:1022500091F4F999FECF8DE090E092BD81BDF89A9E
:1022600020B5F999FECF8CE090E092BD81BDF89A3F
:1022700080B529838A8389819A810F900F90CF91AD
:10228000DF910895DF93CF930F92CDB7DEB78FEF35
:1022900089838091510C823039F48CE0BE016F5FEC
:1022A0007F4F0E94770F0BC0813049F4F999FECF20
:1022B0008CE090E092BD81BDF89A80B589838981D8
:1022C0000F90CF91DF910895DF93CF93CDB7DEB715
:1022D00028970FB6F894DEBF0FBECDBF19821A82C1
:1022E0001B821C821D821E821F8218868091510CC7
:1022F000823089F584E0BE01685F7F4F0E94770FCE
:1023000085E0BE01695F7F4F0E94770F86E0BE01C6
:102310006A5F7F4F0E94770F87E0BE016B5F7F4F40
:102320000E94770F88E0BE016C5F7F4F0E94770F9D
:1023300089E0BE016D5F7F4F0E94770F8AE0BE018A
:102340006E5F7F4F0E94770F8BE0BE016F5F7F4F04
:102350000E94770F4BC0813009F048C0F999FECF39
:1023600084E090E092BD81BDF89AE0B5F999FECF86
:1023700085E090E092BD81BDF89A70B5F999FECFE5
:1023800086E090E092BD81BDF89A60B5F999FECFE4
:1023900087E090E092BD81BDF89A50B5F999FECFE3
:1023A00088E090E092BD81BDF89A40B5F999FECFE2
:1023B00089E090E092BD81BDF89A30B5F999FECFE1
:1023C0008AE090E092BD81BDF89A20B5F999FECFE0
:1023D0008BE090E092BD81BDF89A80B5E8877F835D
:1023E0006E835D834C833B832A83898329813A8171
:1023F0004B815C816D817E818F81988528960FB697
:10240000F894DEBF0FBECDBFCF91DF910895DF936B
:10241000CF930F92CDB7DEB78FEF89838091510CA8
:10242000823039F483E0BE016F5F7F4F0E94770FE7
:102430000BC0813049F4F999FECF83E090E092BD62
:1024400081BDF89A80B5898389810F90CF91DF9102
:102450000895DF93CF930F92CDB7DEB78FEF8983C7
:102460008091510C823031F4BE016F5F7F4F0E942A
:10247000770F0BC0813049F4F999FECF82E090E0EC
:1024800092BD81BDF89A80B5898389810F90CF91E3
:10249000DF910895DF93CF930F92CDB7DEB78FEF23
:1024A00089838091510C823039F481E0BE016F5FE5
:1024B0007F4F0E94770F0BC0813049F4F999FECF0E
:1024C00081E090E092BD81BDF89A80B589838981D1
:1024D0000F90CF91DF9108958091510C823011F4CB
:1024E0000E94190F1092510C08951F93DF93CF9300
:1024F0000F92CDB7DEB70E940B0F882319F40E940C
:10250000190F22C0F999FECF12BC11BCF89A10B570
:102510008FEF898380E0BE016F5F7F4F0E94770F4E
:102520008981823429F482E08093510C81E00DC0CE
:10253000123431F40E94190F81E08093510C05C0D0
:102540000E94190F1092510C80E00F90CF91DF91F3
:102550001F9108951092530C1092520C249A259AB0
:10256000269AE4E6F0E080818B7F808384B18760E7
:1025700084B985B1836085B980E58CBD81E08DBD6E
:102580000895E4E6F0E08081846080830895DF931D
:10259000CF930F92CDB7DEB780689FB79983F89439
:1025A00028988EBD0DB407FEFDCF8EB51EBC0DB4B0
:1025B00007FEFDCF8EB5289A99819FBF0F90CF91CE
:1025C000DF910895DF93CF930F92CDB7DEB7806C84
:1025D0009FB79983F89428988EBD0DB407FEFDCF60
:1025E0008EB56EBD0DB407FEFDCF8EB5289A8981DC
:1025F0008FBF0F90CF91DF910895FF920F931F939C
:10260000062FF42E0E94C712082310E002C0159571
:102610000795FA94E2F7802F1F910F91FF9008958C
:10262000EF92FF920F931F93DF93CF930F92CDB74B
:10263000DEB7182F062FE42EF22E0E94C712282F85
:10264000106C8FB78983F89428981EBD0DB407FECF
:10265000FDCF8EB58F2D90E002C0880F991FEA94B0
:10266000E2F7802300950223802B8EBD0DB407FE78
:10267000FDCF8EB5289A89818FBF0F90CF91DF91C2
:102680001F910F91FF90EF900895DF93CF930F92DA
:10269000CDB7DEB7982FFB018FB78983F8942898C0
:1026A00080E68EBD0DB407FEFDCF8EB59EBD0DB488
:1026B00007FEFDCF8EB581918EBD91500DB407FE02
:1026C000FDCF8EB59923B9F7289A89818FBF0F90D6
:1026D000CF91DF910895DF93CF930F92CDB7DEB7FF
:1026E000282F8FB78983F894289880E68EBD0DB483
:1026F00007FEFDCF8EB52EBD0DB407FEFDCF8EB506
:1027000080E090E0FB01E80FF91FE491EEBD0DB40D
:1027100007FEFDCF3EB501962817A1F7289A8981BB
:102720008FBF0F90CF91DF910895DF93CF930F92DA
:10273000CDB7DEB7982FFB018FB78983F89428981F
:1027400080E28EBD0DB407FEFDCF8EB580831EBC2A
:102750000DB407FEFDCF8EB58083915011F03196F8
:10276000F6CF289A89818FBF0F90CF91DF9108957E
:10277000DF93CF930F92CDB7DEB72FB72983F894AD
:102780009093530C8093520C89818FBF0F90CF91FF
:10279000DF910895DF93CF930F92CDB7DEB78FB758
:1027A0008983F89489818FBF8091520C9091530C4A
:1027B0000F90CF91DF910895DF93CF930F92CDB714
:1027C000DEB78FB78983F8941092530C1092520C95
:1027D00089818FBF0F90CF91DF9108959091EB0089
:1027E00091609093EB008093EC008091ED008270FB
:1027F000862B8093ED008091ED0082608093ED0048
:102800008091EE00881F8827881F08958091F4002A
:10281000811181E0982F80E090FD05C08F5F90E0EE
:102820008930D1F780E00895FB018093E90004C06E
:1028300081918093F10041508091E80085FF02C0B2
:102840004423B1F7842F0895FB018093E90004C06D
:102850008091F100819341508091E80085FF02C092
:102860004423B1F7842F08958093E900EBEEF0E064
:1028700080818062808308958091D8008F7B8093CF
:10288000D8008091D90081FF21C01092E900809189
:10289000EB0080FD1BC01092E9008091EB0081608D
:1028A0008093EB0082E08093EC008091ED008270D9
:1028B00080638093ED008091ED0082608093ED0055
:1028C0008091EE00881F8827881F089580E0089572
:1028D00080E00895833031F5613069F0613028F08F
:1028E000623079F06330F1F412C084E080931A1101
:1028F00089E891E011C08CE080931A118BE491E09B
:102900000BC086E180931A1187E591E005C08CE148
:1029100080931A118DE691E090931C1180931B1106
:1029200081E0089580E008950F931F9309EE10E071
:1029300084E0F801808381E860E30E94EE1382E086
:10294000F801808380E860E30E94EE1381E0F801E3
:10295000808381E864E30E94EE131F910F91089534
:102960001092550C1092560C1092570C1092590C54
:102970001092191108959091F1009093580C609164
:10298000F100653009F4C5C0663050F4613009F4D7
:10299000FBC0613008F460C1633009F0BDC12CC1D7
:1029A000683009F499C0693020F4663009F0B4C188
:1029B00007C0693009F4CFC06A3009F0ADC189C1E0
:1029C000903809F086C01092540C6091F10080910B
:1029D000F100813019F0823089F406C082E18093E1
:1029E0001A1182E191E005C087E280931A1184E216
:1029F00091E090931C1180931B1105C00E946A14F2
:102A0000882309F479C18091F1008091F10030911F
:102A1000F1002091F100922F80E0232F30E0282B4D
:102A2000392B8091E800877F8093E80080911A110C
:102A300090E08217930758F48F739070892B21F4DC
:102A400081E08093540C26C01092540C23C0209334
:102A50001A1120C08091E80080FFFCCF20E011C057
:102A6000203499F02F5FE0911B11F0911C1181919E
:102A70008093F100F0931C11E0931B1191509093FF
:102A80001A1190911A11992359F78091E8008E7FBD
:102A90008093E80080911A11882321F08091E8004A
:102AA00082FFD8CF8091E8008E7F8093E8008091EC
:102AB000E80082FD02C18091540C882329F08091A6
:102AC000E8008E7F8093E8008091E80082FFFCCFD1
:102AD000F4C0892F66E01DC19038C1F48091E800F0
:102AE000877F8093E800809119118093F100809195
:102AF000E8008E7F8093E8008091E8008F778093D4
:102B0000E8008091E80082FFFCCFD7C0892F68E001
:102B100000C19923E9F49091F1008091E3009F773F
:102B20008078982B9093E3008091E800877F8093D2
:102B3000E8008091E8008E7F8093E8008091E800B3
:102B400080FFFCCF8091E30080688093E3000895CC
:102B5000892F65E0DEC09923A1F49091F1009230B5
:102B600008F0CAC08091E800877F8093E8009093C6
:102B700019118091E8008E7F8093E8000E949414E0
:102B80000895892F69E0C5C0933098F5992309F419
:102B9000B3C0913009F4B0C08091F100882309F0EE
:102BA000ABC0E091F100EF77E093E9008091EB009A
:102BB00080FFA2C0EE23B1F08091EB008061809392
:102BC000EB0081E090E00E2E02C0880F991F0A945E
:102BD000E2F78093EA001092EA008091EB008860AF
:102BE0008093EB001092E900F0E0EB5AF34F108273
:102BF00027C0892F61E08DC0933058F5913009F4DA
:102C00007BC0923009F097C08091F100882309F0D1
:102C100073C0E091F100EF7709F46EC0E093E90032
:102C20008091EB0080FF68C08091EB008062809310
:102C3000EB001092E900F0E0EB5AF34F81E0808363
:102C40008091E800877F8093E8008091E8008E7F84
:102C50005BC0892F63E05DC0892F80588330B0F559
:102C60008091F1008091F100E091F100913829F01C
:102C7000923859F0903809F03FC08091E800877F82
:102C80008093E8001092F1000DC08091E800877FEA
:102C90008093E800F0E0EF77F070EB5AF34F80811B
:102CA0008093F1001092F1008091E8008E7F809374
:102CB000E8008091E80082FFFCCF8091E8008B7FE4
:102CC0008093E8008091E8008F771EC0892F60E034
:102CD00020C09138E1F48091F1008091F1002091C1
:102CE000F1004091F100942F80E030E0822B932B93
:102CF00090931811809317118091EB00806280935C
:102D0000EB008091E800877F8093E8000895892F89
:102D10006AE00E9468140895892F0E94681488232D
:102D200051F48091EB0080628093EB008091E80089
:102D3000877F8093E800089510923011109231112E
:102D400010923211109233111092341110923511E9
:102D500010923611109237118FEF9FEF909325113B
:102D600080932411209128112093201190932711F2
:102D700080932611909339118093381110921E116F
:102D800084EF91E090932211809321118BE0809346
:102D9000231110921D1110921F1108951F93182FC7
:102DA0000E94D526882349F0812F0E944F26882330
:102DB00021F01093231180E001C088EE1F91089547
:102DC000CF93DF93EC010E94D526882311F488EE7F
:102DD00008C0D0933911C0933811CE010E949427B6
:102DE00080E0DF91CF910895CF93DF93EC010E94B3
:102DF000D526882311F488EE08C0D0932711C093FC
:102E00002611CE010E94A02780E0DF91CF91089586
:102E10000F931F93DF93CF930F92CDB7DEB79C0133
:102E2000162F042F80918D01843011F0882321F515
:102E30008FEF2F3F380701F1812F8B508031E0F465
:102E4000C9010E94F4168823B9F4812F0E944F26ED
:102E5000882391F000931F11802F0E94412681E06A
:102E600080931E118FB78983F89485E080938D013C
:102E700089818FBF80E003C00E94E92688EE0F9011
:102E8000CF91DF911F910F91089580915A0C9091ED
:102E90005B0C0895DF93CF930F92CDB7DEB78FB75A
:102EA0008983F89410925B0C10925A0C89818FBF21
:102EB0000F90CF91DF910895DF93CF930F92CDB70D
:102EC000DEB72FB72983F89490935B0C80935A0C4C
:102ED00089818FBF0F90CF91DF91089580915C0C15
:102EE00090915D0C0895DF93CF930F92CDB7DEB72D
:102EF0008FB78983F89410925D0C10925C0C8981D5
:102F00008FBF0F90CF91DF910895DF93CF930F92F2
:102F1000CDB7DEB72FB72983F89490935D0C8093DB
:102F20005C0C89818FBF0F90CF91DF9108958091C4
:102F30005E0C90915F0C0895DF93CF930F92CDB705
:102F4000DEB78FB78983F89410925F0C10925E0CF5
:102F500089818FBF0F90CF91DF910895DF93CF9339
:102F60000F92CDB7DEB72FB72983F89490935F0CFB
:102F700080935E0C89818FBF0F90CF91DF91089570
:102F80008091600C9091610C0895DF93CF930F9224
:102F9000CDB7DEB78FB78983F8941092610C109289
:102FA000600C89818FBF0F90CF91DF910895DF93DF
:102FB000CF930F92CDB7DEB72FB72983F8949093B4
:102FC000610C8093600C89818FBF0F90CF91DF914E
:102FD00008958091620C9091630C0895DF93CF93D4
:102FE0000F92CDB7DEB78FB78983F8941092630C38
:102FF0001092620C89818FBF0F90CF91DF9108955D
:10300000DF93CF930F92CDB7DEB72FB72983F89414
:103010009093630C8093620C89818FBF0F90CF9146
:10302000DF9108958091640C9091650C0895DF9371
:10303000CF930F92CDB7DEB78FB78983F8941092F4
:10304000650C1092640C89818FBF0F90CF91DF9136
:103050000895DF93CF930F92CDB7DEB72FB72983B3
:10306000F8949093650C8093640C89818FBF0F90C6
:10307000CF91DF9108950E94012786E10E94682682
:10308000089520918D012830C1F0293038F4233083
:1030900089F0263091F0223011F51BC02D3099F0C7
:1030A0002E3018F42B30D9F40BC02E3079F02F309D
:1030B000B1F412C00E94B71F08950E945F1B0895CB
:1030C0000E94FD1908950E941A2108950E94182255
:1030D00008950E948C2308950E94821C0895809177
:1030E0001E11882319F00E943B1808950E94E926BA
:1030F00008951F93CF93DF93182FEB010E94D526DD
:10310000882359F089E10E946826882331F0812FB5
:10311000BE010E94202781E001C080E0DF91CF91B5
:103120001F9108951F93FC011081812F8E5F66E629
:103130007CE00E941527882309F4D8C0E12FF0E035
:10314000EA59F34F81818093030D8091670C482FDA
:1031500050E09091680C80E0482B592B43FDC6C08D
:10316000842F8770813029F0833019F0882309F08B
:10317000BDC08093E70C952F96959695937090938C
:10318000E90C852F82958695869583708093F40C43
:10319000992319F4882309F4A9C08091690C8093BC
:1031A000E80C1092EC0C1092ED0C1092EE0C1092B8
:1031B000EF0C1092F00C1092F10C1092F20C109295
:1031C000F30C992351F1923091F480916A0C909113
:1031D0006B0C9093EB0C8093EA0C80916C0C9091AB
:1031E0006D0C9093ED0C8093EC0C28E017C093309D
:1031F00009F07CC080916A0C90916B0C9093EB0C61
:103200008093EA0CACEEBCE0ECE6FCE088E00190D8
:103210000D928150E1F72EE001C024E01092F70CEE
:103220001092F80C1092F90C1092FA0C1092FB0C00
:103230001092FC0C1092FD0C1092FE0C8091F40C7C
:10324000882339F146FD0BC0E22FF0E0EA59F34F35
:10325000808191819093F60C8093F50C2E5F809184
:10326000F40CE22FF0E0823051F4EA59F34F808100
:1032700091819093F80C8093F70C2E5F0AC0A7EF12
:10328000BCE0EA59F34F88E001900D928150E1F7DC
:10329000285F3091E70C333049F4E22FF0E0EA592F
:1032A000F34F80818093FF0C2F5F02C01092FF0CC0
:1032B000822F90E08A59934F9093010D8093000DD7
:1032C0001150121B1093020D313029F0333031F4BC
:1032D00088ED9DE105C083E39FE102C081EF9CE1A1
:1032E00067EE7CE00E945529882311F40E943B1868
:1032F0001F9108950E94AC2710925B0C10925A0CFB
:1033000010925D0C10925C0C10925F0C10925E0C8F
:103310001092610C1092600C1092630C1092620C6F
:1033200081E080938D010895DF93CF930F92CDB705
:10333000DEB7EFB7E983F894E1E0E0938D01E9812E
:10334000EFBF209328113093291140932A115093F5
:103350002B1160932C1170932D1180932E1190934B
:103360002F1110925B0C10925A0C10925D0C10925F
:103370005C0C10925F0C10925E0C1092610C10921B
:10338000600C1092630C1092620C1092650C1092FB
:10339000640C81E00E94B722882341F08FB78983B3
:1033A000F89410928D0189818FBF81E00F90CF91A9
:1033B000DF9108951F93DF93CF930F92CDB7DEB7C0
:1033C000182F0E94E917FC01009791F01093370D18
:1033D00083E29DE009950E94012786E10E9468260C
:1033E0008FB78983F89485E080938D0189818FBFA1
:1033F0000F90CF91DF911F910895FC018081882368
:1034000049F0853011F489EE05C0833011F08BEE60
:1034100001C081EE0E94DA1908950F931F93DF9384
:10342000CF930F92CDB7DEB71FEF05E3802F8A95BC
:10343000F1F711500E94CF26893019F01123B1F70E
:1034400009C0112339F08BE168E07DE00E94791812
:10345000882321F481EE0E94DA1908C08FB789838E
:10346000F8948BE080938D0189818FBF0F90CF916D
:10347000DF911F910F910895FF920F931F93DF9398
:10348000CF930F92CDB7DEB7F82E8B01882331F0A2
:103490008FB78983F89410928D0106C08FB7898306
:1034A000F89484E080938D0189818FBF0E94E92682
:1034B000E091060DF091070DF282118300832091B7
:1034C000040D3091050DCF01F90109950F90CF91B1
:1034D000DF911F910F91FF900895DF93CF930F928B
:1034E000CDB7DEB780918D01873089F583E2809377
:1034F000621180EC8093631180912011809364119C
:103500008F5F8093201180912611909127118093D5
:10351000651190936611A7E6B1E1E8E2F1E188E078
:1035200001900D928150E1F784E080936F1180E16A
:1035300062E671E10E947918882311F481EF0AC0D4
:103540008FB78983F89488E080938D0115C0893006
:1035500031F489EE6FEF7FEF0E943C1A0FC08C3080
:1035600021F480EF0E94DA1909C00E94E9268FB782
:103570008983F89410928D0189818FBF0F90CF912C
:10358000DF910895DF93CF930F92CDB7DEB7FC01A3
:1035900080918D01853009F08DC0309709F48AC083
:1035A00083E68093080D8CEC8093090D80912011A7
:1035B00080930A0D8F5F8093201180912611909146
:1035C000271190930C0D80930B0DBF014DE05DE032
:1035D0009F0188E0D9010D909D01DA010D92AD01A6
:1035E0008150C1F725E13DE048E251E188E0DA0190
:1035F0000D90AD01D9010D929D018150C1F782E07E
:1036000080931D0D8085918590931F0D80931E0DD5
:1036100082858093200D809126119091271190939F
:10362000240D8093230D93E09093250D8091281114
:103630008093260D809129118093270D80912A1166
:103640008093280D80912B118093290D80912C114E
:1036500080932A0D80912D1180932B0D80912E1136
:1036600080932C0D80912F1180932D0D90932E0D12
:10367000AFE2BDE0FB0188E001900D928150E1F7DF
:103680008FB78983F8948CE080938D0189818FBFF7
:1036900060E070EE81E090E04DE65AE120E030E03D
:1036A0000E94F732882311F081E005C080E090E0AD
:1036B0000E946D1A80E00F90CF91DF9108951F93C3
:1036C000DF93CF930F92CDB7DEB7FC01E081E230FC
:1036D00018F580918D01883051F486E10E946826AA
:1036E000882311F18FB78983F89489E004C08FB7DC
:1036F0008983F89487E080938D0189818FBF60E092
:1037000070EF80E090E04DE65AE120E030E00E946A
:10371000F732882349F010C0E53011F419EE05C0E6
:10372000E33011F01BEE01C011EE0E945133812FE6
:103730006FEF7FEF0E943C1A0F90CF91DF911F91A6
:103740000895FF920F931F93DF93CF930F92CDB7FE
:10375000DEB78C0180918D01882309F0BBC0011573
:10376000110509F4B7C0D8011D968D919C911E9743
:10377000009709F4AFC0015F1F4F1093070D00932E
:10378000060D0F5010409093050D8093040DF80125
:1037900080818B50803108F09DC0828193818F5F42
:1037A0009F4F09F497C0D80111962C911197822F41
:1037B0008250823008F08EC0223059F414968D91D8
:1037C0009C911597909325118093241183E298EC96
:1037D0000BC0A0E3B1E1F801349688E001900D92AE
:1037E0008150E1F783E29CEC809362119093631126
:1037F00080912011809364118F5F80932011F801D4
:10380000828193819093661180936511C80104961B
:10381000223041F4848195819093681180936711DF
:1038200087E009C0A7E6B1E1FC0188E001900D92B4
:103830008150E1F78DE0E82FF0E0EE59FE4E9FEF6A
:1038400090838F5FE82FF0E0EE59FE4E9083F82EC4
:10385000F394EF2DF0E0EE59FE4EA8E2B1E188E0DE
:103860000D9001928150E1F7F8E0FF0EEF2DF0E0AE
:10387000EE59FE4E81E08083F394EF2DF0E027EFC8
:10388000F20EEE59FE4ED8011C968C911C97808347
:1038900012968D919C9113970E94F4168823C1F47F
:1038A000F80180810E944F26882391F08F2D845F3C
:1038B00062E671E10E947918882351F08FB78983FD
:1038C000F89486E080938D0189818FBF81E003C0E9
:1038D0000E94E92680E00F90CF91DF911F910F9118
:1038E000FF900895CF93DF93EC010E941218FC0122
:1038F000009711F0CE010995CE010E94F028DF91CA
:10390000CF910895DF93CF930F92CDB7DEB786E1C5
:103910000E9468268FB78983F89485E080938D0193
:1039200089818FBF0F90CF91DF910895DF93CF935F
:1039300000D00F92CDB7DEB72091381130913911F8
:103940008FEF2F3F380709F446C01092621180E8CC
:103950008093631180912011809364118F5F809315
:1039600020118091261190912711809365119093D9
:10397000661120936711309368118FEF9FE29B834C
:103980008A8380911F11882321F08FEF9FE69B830C
:103990008A8380911D11882329F08A819B819068F8
:1039A0009B838A838A819B8190936A11809369119A
:1039B00010926B1110926C118DE062E671E10E9421
:1039C0007918882341F08FB78983F8948FE080932A
:1039D0008D0189818FBF0F900F900F90CF91DF9154
:1039E00008950F931F93CF93DF938C01DC011D96F5
:1039F0008C911D97809362111E968D919C911F97BB
:103A00009093641180936311109265111092661166
:103A100010926711109268111092691110926A1138
:103A200010926B1110926C11A5E6B1E1F80170963D
:103A300088E001900D928150E1F7809123118093ED
:103A40006D11D8015996ED91FC915A9710926F1112
:103A500010926E11318120E030936F1120936E111E
:103A6000808190E0282B392B30936F1120936E11B9
:103A70005C968C918093701180918D01823009F059
:103A800054C0C0914211D0914311FE0133965A8126
:103A900040E03DC020916311309164118181928199
:103AA0002817390791F5909162118081981769F56F
:103AB000909165118381981741F5909166118481E9
:103AC000981719F59091671185819817F1F49091E5
:103AD000681186819817C9F49091691187819817A8
:103AE000A1F490916A118085981779F490916B11E7
:103AF0008185981751F490916C118285981729F45B
:103B000090916D118385981781F04F5F3F9645170F
:103B100008F238C0DF01E2E6F1E18FE001900D929A
:103B20008150E1F78A818F5F8A83F801838D882332
:103B3000E9F080E190E00E94B028EC010097B1F03C
:103B4000D80111968C91FE018193A2E6B1E18FE03C
:103B50000D9001928150E1F782E79CE1BE010E9445
:103B60005529882319F4CE010E94F02880911E1156
:103B7000882321F480918D01823039F486E10E94FE
:103B8000682603C0543088F6C5CFDF91CF911F91CE
:103B90000F9108951F9315E3812F8A95F1F70E94E5
:103BA000CF268930C9F786E10E9468261F910895C3
:103BB000DF92EF92FF920F931F93DF93CF930F92B9
:103BC000CDB7DEB77C01DC0158968C91813031F5A0
:103BD00080918D01853009F017C180911D118823D6
:103BE00009F412C10E946E179C01009709F40CC1E0
:103BF000A4E4B1E1F701709688E001900D92815044
:103C0000E1F7D7015996ED91FC915A978081809305
:103C10004C1184E491E1F9010995F6C0833009F073
:103C200046C080918D018450823008F0EDC00E9422
:103C300097179C01009709F4E7C0A4E4B1E1F701EC
:103C4000709688E001900D928150E1F7D701599666
:103C5000ED91FC915A97808180934C1184E491E11D
:103C6000F901099580918D01843009F0CFC00E943F
:103C7000E9261092301110923111109232111092E7
:103C80003311109234111092351110923611109296
:103C900037118FEF9FEF90932511809324118FB7E9
:103CA0008983F89410928D0189818FBFAFC08430D1
:103CB00051F480918D018C3009F0A6C00E945133DF
:103CC0000E940D1AA3C08630C9F480918D01853001
:103CD00009F09AC00E94C0179C01009709F494C093
:103CE000A4E4B1E1F701709688E001900D92815053
:103CF000E1F784E491E1F901099588C0873041F446
:103D000080918D01853009F07FC00E94961C7EC095
:103D1000883009F053C080918D01823009F074C061
:103D20000E94513382E06FE140E028E00E941013CE
:103D3000F701838D873011F4DD2402C088EED82E80
:103D4000D70159960D911C915A97F801918180E005
:103D5000208130E0822B932B0E94F416D801139619
:103D60009C91139780E012962C91129730E0822B51
:103D7000932B909325118093241116969C9116975E
:103D800080E015962C9130E0282B392BBFEF2F3F88
:103D90003B0719F0C9010E94F416F80184810E94C2
:103DA000CE16E0914211F0914311D0828EE293E25F
:103DB000BF010E945529882349F526C0823021F58C
:103DC00080918D01893001F50E945133D7015996B8
:103DD000ED91FC915A97918180E02081022F10E0B3
:103DE000082B192BD280C8010E94E016A0E3B1E194
:103DF000F701709688E001900D928150E1F78D2DCA
:103E0000B8010E943C1A02C00E94CA1D0F90CF91B7
:103E1000DF911F910F91FF90EF90DF900895FF9237
:103E20000F931F93CF93DF938C010E944517EC01F2
:103E300085E3F82E8F2D8A95F1F70E94CF268930E1
:103E4000C9F7209721F486E10E94682606C0C801C0
:103E5000FE010995C8010E94F028DF91CF911F91C2
:103E60000F91FF9008950F931F93CF93DF938C01D1
:103E7000FC01838D90E046960E94B028EC010097EB
:103E800049F415E3812F8A95F1F70E94CF268930F6
:103E9000C9F765C0F8018585888319821A821B825B
:103EA0001C821D821E821F8218869E012F5F3F4F3B
:103EB000A801405F5F4F833041F4D901FA0188E0E7
:103EC00001900D928150E1F705C0F8018089918938
:103ED0009A8389838A859B85F80194838383828171
:103EE00089871C861D861E861F86188A198A1A8A4B
:103EF0001B8A9E01245F3F4FA8014B5F5F4F8330B9
:103F000041F4D901FA0188E001900D928150E1F766
:103F100005C0F801858196819D878C87F801848D85
:103F20008C8B838D8D8B9E012A5E3F4F438D618DDF
:103F3000728DC90150E00E94D8008FE09FE1BE0160
:103F40000E945529882371F4CE010E94F02815E3C0
:103F5000812F8A95F1F70E94CF268930C9F786E133
:103F60000E946826DF91CF911F910F910895DF93F2
:103F7000CF930F92CDB7DEB7FC01E081E23010F4B1
:103F800080E005C0E53011F081EE01C089EEE091DE
:103F90003B0DF0913C0D80832091380D3091390D0F
:103FA000CF01F901099580911E11882319F40E940F
:103FB000E92605C00E94012786E10E9468268FB786
:103FC0008983F89480913A0D80938D0189818FBF08
:103FD0000F90CF91DF910895FF920F931F93DF937E
:103FE000CF930F92CDB7DEB78C01E0918D018E2F6C
:103FF0008450823008F016C10115110509F412C170
:10400000D80156968D919C915797892B09F40AC136
:1040100058962D913C9159972115310509F402C10B
:104020007C91772329F0723019F0733009F0FAC0CF
:10403000D80119966C91662329F0623019F063302B
:1040400009F0F0C0772319F4662309F4EBC0D80116
:1040500054968C91549790E0AC014170507080FF61
:104060002AC0623041F51C968C911C978F3F19F540
:104070001D968C911D978F3FF1F41E968C911E9783
:104080008823C9F41F968C911F978823A1F450961A
:104090008C915097882379F451968C91519788236D
:1040A00051F452968C915297882329F453968C910F
:1040B000882309F4B7C0713009F4B4C0613009F441
:1040C000B1C03093390D2093380D065E1F4F109309
:1040D0003C0D00933B0D0A511040E0933A0DF8015E
:1040E0008589882309F49EC0873608F09BC0452B3C
:1040F00019F041E250E002C041E050E0372F329524
:10410000330F330F307C20E0962F990F990F80E00A
:10411000282B392B2064242B352B209362113093CC
:10412000631180912011809364118F5F809320111F
:10413000D80119968C91882319F433E0F32E23C00B
:10414000F80182858093651183858093661181854E
:104150009801245F3F4F833059F4A7E6B1E1F9019C
:1041600088E001900D928150E1F72DE0F22E0BC016
:10417000D8011C968D919C911D9790936811809306
:10418000671197E0F92EF80120812223E9F0EF2D45
:10419000F0E0C8010196233061F4DF01AE59BE4E54
:1041A000FC0188E001900D928150E1F7F8E0FF0EEC
:1041B0000BC0EE59FE4ED80111968D919C9112972D
:1041C00091838083B2E0FB0E2F2D30E02E593E4EBE
:1041D000F801458966897789C90150E00E94D800B5
:1041E000D80155968C918E5F8F0D62E671E10E9429
:1041F0007918882369F40E94012780911E11882371
:1042000019F40E94E9260EC086E10E9468260AC0C1
:104210008FB78983F89483E080938D0189818FBF64
:1042200081E001C080E00F90CF91DF911F910F914D
:10423000FF900895DF93CF930F92CDB7DEB7FC01C7
:10424000E081E23030F4E0913C11F0913D111082B8
:104250000AC0A0913C11B0913D11E53011F489EEF6
:1042600001C081EE8C93E0913A11F0913B11809165
:104270003C1190913D11099580911F11882351F4B3
:104280000E94E9268FB78983F89410928D01898165
:104290008FBF0BC08FB78983F89485E080938D0121
:1042A00089818FBF86E10E9468260F90CF91DF91B0
:1042B00008950F931F93DF93CF930F92CDB7DEB77F
:1042C0008C0180918D018450823008F0AAC0F801E1
:1042D00081859285009709F4A4C090933B11809347
:1042E0003A11055F1F4F10933D1100933C110B5085
:1042F000104083E2809362118CEC80936311809173
:104300002011809364118F5F80932011809126117A
:10431000909127118093651190936611F801908117
:1043200080913011981719F591818091311198176A
:10433000F1F49281809132119817C9F493818091A0
:1043400033119817A1F4948180913411981779F45E
:10435000958180913511981751F49681809136118D
:10436000981729F4978180913711981749F0A7E69B
:10437000B1E1F80188E001900D928150E1F71DC094
:10438000A7E6B1E1E0E3F1E188E001900D92815010
:10439000E1F71092301110923111109232111092F7
:1043A000331110923411109235111092361110926F
:1043B00037118FEF9FEF0E94E016809126119091A8
:1043C000271180936F1190937011A1E7B1E1E8E29A
:1043D000F1E188E001900D928150E1F783E0809354
:1043E0007911F801808580937A118BE162E671E1A1
:1043F0000E947918882359F480911E11882319F49A
:104400000E94E9260EC086E10E9468260AC08FB786
:104410008983F8948DE080938D0189818FBF81E03D
:1044200001C080E00F90CF91DF911F910F9108950F
:104430000F931F93DF93CF930F92CDB7DEB78C010D
:104440000E94E917FC010097E9F0D8018C918823BC
:1044500049F0853011F489EE05C0833011F08BEE00
:1044600001C081EE8093510D8DE39DE009958FB7DA
:104470008983F89485E080938D0189818FBF86E1DF
:104480000E9468260F90CF91DF911F910F910895A0
:10449000DF93CF930F92CDB7DEB79C0180918D0152
:1044A000853009F055C083E2809362118CEC8093D3
:1044B000631180912011809364118F5F809320118C
:1044C0008FEF8093651180936611A7E6B1E1F90142
:1044D00088E001900D928150E1F780912611909132
:1044E000271180936F1190937011A1E7B1E1E8E279
:1044F000F1E188E001900D928150E1F788E080932E
:104500007911809126119091271180937A119093BF
:104510007B11809138119091391180937C11909387
:104520007D118091231180937E11F9018085809304
:104530007F1181858093801181E262E671E10E94A2
:104540007918882339F40E94012786E10E946826A1
:1045500080E009C08FB78983F8948EE080938D0145
:1045600089818FBF81E00F90CF91DF9108951F93D4
:10457000DF93CF930F92CDB7DEB7182F8FB7898314
:10458000F89410928D0189818FBF0E94B3278823F0
:1045900021F40E94AC2780E035C0112311F00E9465
:1045A0009C1681E498E10E94102582E998E10E941E
:1045B00046258EE260EC46E023E00E9410138CE278
:1045C0006EE041E024E00E9410138CE260EF44E0D2
:1045D00023E00E94101388E291E10E944527809118
:1045E0003811909139110E94942780912611909151
:1045F00027110E94A02780911E11882311F40E9488
:10460000E92681E0811181E00F90CF91DF911F9128
:10461000089580911E11882319F40E94E92602C092
:104620000E94012780E0089580918D01845082309E
:1046300098F40E94D526882379F086E10E946826A6
:10464000882311F080E0089580911E11882321F4C1
:104650000E94E92688EE089588EE08950F931F932F
:10466000DF93CF930F92CDB7DEB78C0180913E11CF
:1046700090913F110E94F4160115110569F0E09127
:104680004011F0914111C80109958FB78983F894C1
:1046900010928D0189818FBF0F90CF91DF911F9173
:1046A0000F9108950E94E92630913412332331F49A
:1046B000809133128F5F809333120895A09142113D
:1046C000B091431112968C911297882319F48AEEB7
:1046D0008C9301C01C922091E211E22FF0E0EE0FCA
:1046E000FF1FEE0FFF1FED51FE4E8EE293E291830E
:1046F0008083B383A283233119F41092E21103C0A3
:104700002F5F2093E2113150309334128091E111E8
:104710008F5F8093E1110895FC0180818823A9F4C3
:1047200086E10E946826882381F060913A11709199
:104730003B1180913C1190913D1142E553E220E004
:1047400030E00E94F732882321F480E090E00E945C
:1047500052230895DF92EF92FF920F931F93DF93FE
:10476000CF930F92CDB7DEB78C0180918D01882356
:1047700009F03BC10115110509F437C1F801838126
:104780009481892B09F431C1F080E280D180FEE070
:10479000FE1508F42AC10E94D526882309F423C1F6
:1047A0008D2D0E94CE16882309F01DC1F80183814A
:1047B000948190934111809340110B5F1F4F109390
:1047C000431100934211FF2009F40FC1F1E0FF16DD
:1047D00009F05FC061E070E002C0660F771FEA94E5
:1047E000E2F76F5F7F4F882777FD8095982F20EC49
:1047F00033E040E050E00E94D03360933A11709370
:104800003B1180933C1190933D1180912611909122
:10481000271190933F1180933E1183E080936211A2
:1048200088E08093631180912011809364118F5FE1
:10483000809320118FEF8093651180936611809390
:1048400067118093681187E0809369118FEF9FEF64
:104850000E94F416882309F0C6C08AE062E671E17E
:104860000E947918882309F4BEC08FB78983F89411
:1048700082E080938D0189818FBFE0914211F09198
:1048800043111282E0914211F091431181E0818342
:10489000ADC082E0F81609F054C061E070E002C0DB
:1048A000660F771FEA94E2F76F5F7F4F882777FDE7
:1048B0008095982F20EC33E040E050E00E94D03308
:1048C00060933A1170933B1180933C1190933D118A
:1048D000809126119091271190933F1180933E1162
:1048E0008FEF9FEF0E94F416882309F07CC086E1C9
:1048F0000E946826882309F476C060913A1170916D
:104900003B1180913C1190913D1142E553E220E032
:1049100030E00E94F732882309F465C08FB789839D
:10492000F89492E090938D0189818FBFE0914211BC
:10493000F09143111282E0914211F0914311918361
:1049400050C0E3E0FE1609F04EC080E098E7A0E01A
:10495000B0E080933A1190933B11A0933C11B09337
:104960003D1183E08093621188EC80936311809104
:104970002011809364118F5F809320118FEF8093BB
:1049800065118093661180936711809368118093FD
:10499000691180936A11ABE6B1E1E8E2F1E188E0E8
:1049A00001900D928150E1F786E08093731184E1CC
:1049B00062E671E10E9479188823A9F08FB7898394
:1049C000F89482E080938D0189818FBFE09142113C
:1049D000F09143111282E0914211F091431183E072
:1049E000818381E003C00E94E92680E00F90CF918F
:1049F000DF911F910F91FF90EF90DF90089580E07D
:104A000090E0089580E090E0089520E030E040E0FC
:104A100050E060E070E080E090E0089580E008956C
:104A2000DF93CF930F92CDB7DEB72FB72983F894DA
:104A30009093550D8093540D89818FBF0F90CF9126
:104A4000DF910895DF93CF930F92CDB7DEB78FB785
:104A50008983F89489818FBF8091540D9091550D71
:104A60000F90CF91DF910895DF93CF930F92CDB741
:104A7000DEB78FB78983F8941092550D1092540DBC
:104A800089818FBF0F90CF91DF910895DF93CF93EE
:104A90000F92CDB7DEB72FB72983F8949093530DBB
:104AA0008093520D89818FBF0F90CF91DF91089530
:104AB000DF93CF930F92CDB7DEB78FB78983F8948A
:104AC00089818FBF8091520D9091530D0F90CF919E
:104AD000DF910895DF93CF930F92CDB7DEB78FB7F5
:104AE0008983F8941092530D1092520D89818FBFD3
:104AF0000F90CF91DF91089583FFC2C08091560D32
:104B0000882309F05DC04091520D5091530D41151D
:104B1000510509F4B5C0289880E28EBD0DB407FE9A
:104B2000FDCF8EB58EBD0DB407FEFDCF8EB58F7750
:104B30008093570D289A883008F4A2C0289882E8FC
:104B40008EBD0DB407FEFDCF8EB58EBD0DB407FE34
:104B5000FDCF9EB5289A289882EC8EBD0DB407FE35
:104B6000FDCF8EB5907E99609EBD0DB407FEFDCF42
:104B70008EB5289A30913412332309F45BC020910A
:104B8000E211E22FF0E0EE0FFF1FEE0FFF1FED51DD
:104B9000FE4E5183408387E59DE0938382832331DA
:104BA00019F41092E21103C02F5F2093E2113150EB
:104BB000309334128091E1118F5F8093E111089559
:104BC0001092560D289882E88EBD0DB407FEFDCFD9
:104BD0008EB58EBD0DB407FEFDCF8EB5289A829599
:104BE0008695877080938E01289882E88EBD0DB4DB
:104BF00007FEFDCF8EB58EBD0DB407FEFDCF9EB571
:104C0000289A289882EC8EBD0DB407FEFDCF8EB594
:104C1000907E93609EBD0DB407FEFDCF8EB5289AA1
:104C20008091540D9091550D009751F130913412AF
:104C3000332331F4809133128F5F809333120895C0
:104C40002091E211E22FF0E0EE0FFF1FEE0FFF1FA9
:104C5000ED51FE4E918380838EE891E093838283B1
:104C6000233119F41092E21103C02F5F2093E21157
:104C70003150309334128091E1118F5F8093E111B4
:104C80000895882329F48EE268E043E020E004C020
:104C90008EE268E043E021E00E94101308951F9324
:104CA000182F8B50803110F090E00FC088E06FE13A
:104CB00040E0212F0E94101388E06FE140E00E9445
:104CC000FD1290E0181709F491E0892F1F910895C3
:104CD0000F931F93082F1092560D883049F086309D
:104CE00039F0893029F0863119F0893109F052C044
:104CF0001C9950C081E06FE140E00E94FD12182F26
:104D00008150823008F446C0113109F443C0123199
:104D100009F440C0011709F43BC0083059F42C983D
:104D200080E18A95F1F782E06FE140E023E00E94A4
:104D3000101323C0093139F4163191F482E06FE188
:104D400040E029E008C0063159F4193149F482E005
:104D50006FE140E026E00E94101382E08A95F1F7AF
:104D600082E06FE140E0202F0E941013183029F4F8
:104D700088E691E00197F1F703C082E08A95F1F7A8
:104D800081E06FE140E00E94FD1290E0801719F48D
:104D900091E001C090E0892F1F910F91089581E06B
:104DA0006FE140E00E94FD1208951092560D1C9B89
:104DB0000DC02C9880EA9FE00197F1F781E06FE148
:104DC00040E00E94FD1290E0883009F491E0892FC4
:104DD00008951092560D1C9913C081E06FE140E0D8
:104DE0000E94FD12883039F082E06FE140E028E057
:104DF0000E941013F2CF2C9A80E699E00197F1F708
:104E000008950E94D52682E06FE140E023E00E94F1
:104E1000101381E06FE140E00E94FD12883099F7A5
:104E20001092570D1092560D0895882339F0611590
:104E3000710521F00E94951381E0089580E00895A6
:104E4000DF93CF930F92CDB7DEB7982F8823C1F0B1
:104E500061157105A9F08FB78983F8948091560D7B
:104E6000882319F089818FBF0BC02C9A2C988981D7
:104E70008FBF892F0E94451381E08093560D01C09A
:104E800080E00F90CF91DF910895AF92BF92CF92C3
:104E9000DF92EF92FF920F931F938C017C01089495
:104EA000E11CF11C84E2F80160810E94E2126701BA
:104EB0000894C11CD11C85E2F80161810E94E212B4
:104EC00056010894A11CB11C86E2F70161810E9481
:104ED000E21275010894E11CF11C87E2F601618180
:104EE0000E94E21287010F5F1F4F88E2F501618186
:104EF0000E94E21289E2F70161810E94E2128AE2D5
:104F0000F80161810E94E2128BE20F5F1F4FF801EE
:104F100061810E94E2121F910F91FF90EF90DF904C
:104F2000CF90BF90AF9008951F93682F192F80E204
:104F30000E94E21281E2612F0E94E2121F91089505
:104F40001F93682F192F82E20E94E21283E2612FE1
:104F50000E94E2121F9108950E94DC130E94E9262C
:104F60000E94C11208950F931F938FEF80938E01BB
:104F70001092570D1092560D1092550D1092540D1F
:104F80001092530D1092520D0E94AA12882309F418
:104F90004EC00CEF13E0C8010197F1F72E982D9841
:104FA0002C9880E18A95F1F72D9A80E699E0FC0132
:104FB0003197F1F70197F1F782E06FE140E023E0EC
:104FC0000E941013C8010197F1F781E06FE140E002
:104FD0000E94FD12883059F58DE10E94C71282307F
:104FE00031F58EE10E94C7128F3109F58CE795E209
:104FF0000E94B81383E068E043E020E00E941013B1
:1050000083E067E040E020E00E94101385E060E864
:1050100047E021E00E9410138EE06CE00E94E21253
:1050200080916F00806280936F0081E001C080E01A
:105030001F910F9108951092580D10925A0D1092D1
:10504000590D81E00895CF92DF92EF92FF920F9376
:105050001F93DF93CF930F92CDB7DEB78C01D901A9
:10506000009709F472C0423008F46FC062307105D5
:1050700008F46BC08FB78983F894F8019801260F64
:10508000371F50E0C42EDD2476010894E108F108B2
:1050900006C031832083F901260F371F5F5F852FFC
:1050A00090E08E159F05ACF31182108211967C93CF
:1050B0006E9312964C93129713964C9313971596E2
:1050C0001C930E931497C69EC001C79E900DD69E4A
:1050D000900D11240197800F911F17969C938E932A
:1050E000169719961C930E9318975091580D5523A7
:1050F00049F41B961C921E921A97B0935A0DA093D6
:10510000590D1CC0E091590DF0915A0D8F01452F9A
:10511000808191818617970740F42285338541501D
:105120008F0121F0C901FC01F3CF9F01F801B38782
:10513000A2871A962C931A971B963C935F5F509305
:10514000580D89818FBF81E001C080E00F90CF9121
:10515000DF911F910F91FF90EF90DF90CF90089516
:10516000DF93CF930F92CDB7DEB7AC01009789F1F3
:105170002091580D222369F18FB78983F894E0912B
:10518000590DF0915A0D808191818417950728F06F
:105190008381882311F081E005C00284F385E02D2E
:1051A000215080E0222319F0882369F305C0882369
:1051B00019F4A0E0B0E00AC0A085B1858D919C9162
:1051C00011979187808783818150838389818FBFE5
:1051D00002C0A0E0B0E0CD010F90CF91DF91089523
:1051E000DF93CF930F92CDB7DEB7DC01009799F133
:1051F0004091580D442379F18FB78983F894E09159
:10520000590DF0915A0D2681378184819581A81717
:10521000B90728F02A173B0710F081E005C0028487
:10522000F385E02D415080E0442319F0882359F3A1
:1052300002C0882371F093818281981760F4808581
:10524000918511969C938E93B187A08783818F5F00
:10525000838389818FBF0F90CF91DF910895109242
:10526000E21183E180935B0D1092E11184E1809360
:1052700034121092331281E00895DF93CF930F928E
:10528000CDB7DEB78FB78983F8941092E21183E12E
:1052900080935B0D1092E11184E180933412898137
:1052A0008FBF0F90CF91DF910895DF93CF930F922F
:1052B000CDB7DEB730913412332311F480E024C02F
:1052C0002091E211E22FF0E0EE0FFF1FEE0FFF1F23
:1052D000ED51FE4E91838083738362838FB7898300
:1052E000F894233119F41092E21103C02F5F209338
:1052F000E2118091E1118F5F8093E1113150309381
:10530000341289818FBF81E00F90CF91DF91089592
:10531000DF93CF930F92CDB7DEB78FB78983F89421
:105320009091E111992319F489818FBF27C0809151
:105330005B0D833119F410925B0D03C08F5F809376
:105340005B0D91509093E111809134128F5F8093A7
:10535000341289818FBF80915B0DE82FF0E0EE0F52
:10536000FF1FEE0FFF1FED51FE4E208131812115F1
:10537000310521F082819381F90109950F90CF9138
:10538000DF91089580918F01853031F5809126114C
:10539000909127116091231141E00E940817882302
:1053A000D9F40E9414238823B9F4609138117091C4
:1053B000391180912411909125110E9425320E946B
:1053C000703290934E1280934D1284E080938F013F
:1053D00081E080934F12089580E0089580915C0DE4
:1053E00090915D0D0895DF93CF930F92CDB7DEB707
:1053F0008FB78983F89410925D0D10925C0D8981AE
:105400008FBF0F90CF91DF910895DF93CF930F92CD
:10541000CDB7DEB72FB72983F89490935D0D8093B5
:105420005C0D89818FBF0F90CF91DF91089580919E
:105430005E0D90915F0D0895DF93CF930F92CDB7DE
:10544000DEB78FB78983F89410925F0D10925E0DCE
:1054500089818FBF0F90CF91DF910895DF93CF9314
:105460000F92CDB7DEB72FB72983F89490935F0DD5
:1054700080935E0D89818FBF0F90CF91DF9108954A
:105480008091600D9091610D0895DF93CF930F92FD
:10549000CDB7DEB78FB78983F8941092610D109263
:1054A000600D89818FBF0F90CF91DF910895DF93B9
:1054B000CF930F92CDB7DEB72FB72983F89490938F
:1054C000610D8093600D89818FBF0F90CF91DF9127
:1054D00008950895DF93CF930F92CDB7DEB78091F3
:1054E0008F018130B1F00E947A198FB78983F894C7
:1054F00010925D0D10925C0D10925F0D10925E0D7A
:105500001092610D1092600D89818FBF81E08093B0
:105510008F010F90CF91DF910895AF92BF92CF92FC
:10552000DF92EF92FF920F931F93DF93CF930F922F
:10553000CDB7DEB7122F032FF42EE52ED62EC72EB1
:10554000B82EA92E8FB78983F89410925D0D109212
:105550005C0D10925F0D10925E0D1092610D109215
:10556000600D89818FBF0E942B320E942430212F31
:10557000302F4F2D5E2D6D2D7C2D8B2D9A2D0E9461
:1055800094198823B9F081E09CE20E945C1789E2BB
:105590009EE20E94851789E49FE20E94AE1789E689
:1055A0009AE20E94D7178AED9DE20E94001810929D
:1055B0008F0181E00F90CF91DF911F910F91FF90AC
:1055C000EF90DF90CF90BF90AF900895DC010097EF
:1055D00091F02091620D3091630D2115310559F044
:1055E000E091640DF091650D309729F08C918083E6
:1055F000CF01F90109950895CF93DF93BC01E091A4
:105600003811F09139113097A9F4E0914D12F091D1
:105610004E12E817F907E0F10197BF010E94EF333E
:105620006E9F90016F9F300D7E9F300D11242F5F74
:105630003F4F2FC0E817F90730F580914B1290913A
:105640004C128E0F9F1F68177907E8F4C0914D1216
:10565000D0914E12CE018E0F9F1F86179707C0F074
:10566000CF0180959095860F971FBE010E94EF3362
:105670006C9F90016D9F300D7C9F300D11243196F1
:105680002E0F3F1F06C0209124113091251101C01B
:105690009B01C901DF91CF9108958091660D909192
:1056A000670D0E94F0280E9414230895FF920F9323
:1056B0001F93CF93DF93EC0180918F018350833050
:1056C00008F097C0209709F494C08F819885892BA2
:1056D00009F48FC089859A85892B09F48AC02091A5
:1056E00038113091391189819A812817390709F4C5
:1056F00080C08E81882309F47CC08F3508F079C082
:1057000090E008960E94B0288C01009709F471C0BF
:1057100084E0F8018083118289819A819383828356
:105720008091381190913911958384838B818823DE
:1057300011F482E001C0F801868380916612F801BD
:1057400087838F5F809366129801285F3F4F4E8159
:105750006F817885C90150E00E94D800FE80898160
:105760009A810E94FC2ADC01FFEF8F3F9F0721F402
:10577000C8010E94F0283DC0E2E0EC87209138117A
:10578000309139112D873E871F86188A198A1A8A07
:105790001B8A1C8AED8B80912611909127119F8B7B
:1057A0008E8B9D01A88F398F1A8E1B8E1C8E1D8E9D
:1057B0001E8E1F8E81E088A388E0F80EF9A21BA33D
:1057C0000AA386EE9AE29DA38CA389859A8590937D
:1057D000630D8093620D2B96D093650DC093640D7D
:1057E000CE0101960E94EC1FF82EC8010E94F028FD
:1057F00001C0FF248F2DDF91CF911F910F91FF905A
:105800000895BF92CF92DF92EF92FF920F931F9372
:10581000DF93CF9300D000D0CDB7DEB77C01FC0181
:105820004589483008F4A2C096E1C92ED12CCE0C8F
:10583000DF1C918D80E0208D30E0282B392B3A83BE
:10584000298380913811909139112817390709F46B
:105850004DC08BE190E00E94B0288C019093670DC1
:105860008093660D009709F47FC089819A810E9418
:10587000FC2ADC01FFEF8F3F9F0709F472C082E032
:10588000B82EF801B082209138113091391121835E
:105890003283138214821582168217821086B18693
:1058A0008091261190912711938782879D01A4876B
:1058B000358716861786108A118A128A138A81E024
:1058C000848BF7018589F801858BD78AC68A8DE498
:1058D0009BE2918F808FC8010E94EC1F882309F002
:1058E00043C08091660D9091670D3CC0842F90E07D
:1058F00001970E94B0288C010097C1F181E0F80166
:10590000808389819A8192838183F701338D20E09E
:10591000828D90E0822B932B9C838B83F801948360
:105920008383F7018489F8018583F701858988508D
:10593000F8018683B801695F7F4FF701258930E060
:1059400028503040A701425E5F4FCB01BA01A90148
:105950000E94D80084EC9CE2B8010E94552988235B
:1059600019F4C8010E94F0280E9414230F900F9090
:105970000F900F90CF91DF911F910F91FF90EF90BB
:10598000DF90CF90BF900895CF93DF93EC01009705
:1059900051F00E94EE29FC01009711F0CE0109950B
:1059A000CE010E94F028DF91CF91089510928F01CF
:1059B000E0913512F0913612099508950F931F93D7
:1059C000FC0180918F01882399F5309789F18281BC
:1059D0009381009769F19093361280933512349633
:1059E000F0933812E093371234978F010A5B1F4F00
:1059F00081E0D8018C938081E95BFF4F8083E7547D
:105A0000F0408181E85BFF4F8083319680E79DE223
:105A1000918380838CE19DE20E942918C8010E9435
:105A2000AA23882329F082E080938F0181E001C0BE
:105A300080E01F910F910895CF93DF93EC0189814E
:105A4000823009F04AC08C819D810E941C31892BD3
:105A500009F043C00E944830FC01009729F480E01F
:105A600090E00E946D3039C08A819B819583848348
:105A70001682178210861186128613861486158662
:105A80008C8586871786108A8D859E85282F2F7096
:105A9000218B282F22952F70228B97FD02C0138A0D
:105AA00002C081E0838B148A158A168A178A108EA9
:105AB000118E128E138E8C819D81958F848F83E041
:105AC000868F178E80A38FE081A312A281E083A32B
:105AD0008F8584A3CF010E948F30DF91CF910895ED
