:020000021000EC
:10E000000C9457F00C9476F00C9476F00C9476F017
:10E010000C9476F00C9476F00C9476F00C9476F0E8
:10E020000C9476F00C9476F00C94C4F60C9476F084
:10E030000C9476F00C9476F00C9476F00C9476F0C8
:10E040000C9476F00C9476F00C9476F00C9476F0B8
:10E050000C9476F00C9476F00C9476F00C9476F0A8
:10E060000C9476F00C9476F00C9476F00C9476F098
:10E070000C9476F00C9476F00C9476F00C9476F088
:10E080000C9476F00C9476F00C9476F00C9476F078
:10E090000C9476F00C9476F003F5A0F44FF5D5F4DB
:10E0A0004FF568F4BFF34FF54CF489F43BF51124B8
:10E0B0001FBECFEFD0E2DEBFCDBF11E0A0E0B1E0E8
:10E0C000ECE6F5EF01E00BBF02C007900D92A4381B
:10E0D000B107D9F723E0A4E8B1E001C01D92A23155
:10E0E000B207E1F70E94BEF20C9474FA0C9400F0AF
:10E0F000779876985D985F9A5D985F9A779876980A
:10E1000081E08093E0001092C9001DBA109268006F
:10E110001CBC10BE1FBA10927A0010926E001092B2
:10E120006F0010927000109271001092BC0011B834
:10E1300014B817B81AB81DB810BA12B815B818B86C
:10E140001BB81EB811BA0C940000089584E08093A7
:10E15000E900E8EEF0E080818E7F8083A1EFB0E0FF
:10E1600086E98C9381E08C938C9380818F77808378
:10E170000C94ADF684E08093E900E8EEF0E0808155
:10E180008E7F808380E88093F10080818F77808309
:10E190000E94ADF60C9478F084E08093E900A8EE3C
:10E1A000B0E08C918E7F8C93E1EFF0E084E8808387
:10E1B00085E1808392E590838AE5808385E580838D
:10E1C00023E5208382E48083208324E5208339E4CF
:10E1D000308333E430833BE4308330E23083808328
:10E1E0008FE48083808320832CE42083808381E4F8
:10E1F000808384E4808385E4808390838C918F770F
:10E200008C930C94ADF6892B09F465C0FB018081D9
:10E21000813021F1882329F1823B31F1803B39F1B2
:10E22000813B41F1833B49F1843B51F1853B59F1FD
:10E23000873B61F1893B69F18A3B71F18B3B79F155
:10E24000863B81F1883B89F184E08093E9008091ED
:10E25000E8008E7F8093E8008DE836C08CEC90EF6C
:10E2600026C08AEB90EF23C089E692EF20C088E4B5
:10E2700092EF1DC086EA90EF1AC086E392EF17C0B6
:10E2800084E292EF14C08BEF91EF11C085EE91EF15
:10E290000EC081ED91EF0BC08DEB91EF08C08CE9C2
:10E2A00091EF05C085E891EF02C08EE691EF0E94E4
:10E2B00040F3811112C084E08093E9008091E8006E
:10E2C0008E7F8093E80085E98093F1008091E800DB
:10E2D0008F778093E8000C94ADF60895FC0181815E
:10E2E00092810E948CF994E09093E900E8EEF0E0CE
:10E2F00090819E7F9083A1EFB0E096E99C938C93F0
:10E3000080818F7780830C94ADF6FC0181819281AE
:10E310000E941DF994E09093E900E8EEF0E090810E
:10E320009E7F9083A1EFB0E096E99C938C938081CF
:10E330008F7780830C94ADF6CF93DF930E94CAF958
:10E34000D82F0E94E1F9C82F0E94F8F9282F84E005
:10E350008093E900E8EEF0E090819E7F9083A1EF4A
:10E36000B0E086E98C93DC93CC932C9380818F77FB
:10E370008083DF91CF910C94ADF6FC0181810E94E6
:10E3800026FA84E08093E900E8EEF0E080818E7F59
:10E39000808380E88093F10080818F7780830C9464
:10E3A000ADF60E940FFA94E09093E900E8EEF0E0F9
:10E3B00090819E7F9083A1EFB0E096E99C938C932F
:10E3C00080818F7780830C94ADF6FC01638181811D
:10E3D00092810E949CF984E08093E900E8EEF0E0ED
:10E3E00080818E7F808380E88093F10080818F77A9
:10E3F00080830C94ADF6BC016B5F7F4FFC01818183
:10E4000092810E9420F981110AC084E08093E90082
:10E410008091E8008E7F8093E80081E80CC08EB187
:10E4200080588EB984E08093E9008091E8008E7F67
:10E430008093E80080E88093F1008091E8008F7776
:10E440008093E8000C94ADF60E94ACF984E08093D0
:10E45000E900E8EEF0E080818E7F808380E88093A1
:10E46000F10080818F7780830C94ADF60E9473F960
:10E4700084E08093E900E8EEF0E080818E7F808385
:10E4800080E88093F10080818F7780830C94ADF6D3
:10E49000CF93DF930E943EFAD82F0E9450FAC82FE4
:10E4A0000E9462FA282F84E08093E900E8EEF0E011
:10E4B00090819E7F9083A1EFB0E086E98C93DC93FE
:10E4C000CC932C9380818F778083DF91CF910C94B4
:10E4D000ADF6CF93DF931F92CDB7DEB784E0809384
:10E4E000E900E8EEF0E080818E7F808380E8809311
:10E4F000F10080818F7780830E94ADF62FE788E35B
:10E5000091E0215080409040E1F700C000008FB7BB
:10E510008983F89485B78C7F95B7916095BF85BF47
:10E5200089818FBF0E9478F00F90DF91CF9108957D
:10E530000E942CF8209300013093010140930201C6
:10E5400050930301609304017093050180930601C9
:10E55000909307010E945FF582E08093840183E03D
:10E5600091EF909386018093850184E891E00E9469
:10E570007EF691E0811190E0892F0895CF93DF938B
:10E5800000D0CDB7DEB70FB6F894A89580916000A3
:10E59000886180936000109260000FBE8DEE8093C2
:10E5A000640089E88093650080B7806880BF80EF51
:10E5B00080937E00579A6F9A6E9A559A5F98779AD1
:10E5C000769A5D9A5298539A5A9A5B980000000086
:10E5D0000000000000000000000000004A990BC08D
:10E5E0005B9A00000000000000004A9911C0E0E0C2
:10E5F000F0E009950DC08AEA8A838FE090E00E94DE
:10E600009EFA8A838A81853319F08A818F3F79F750
:10E610008FB78983F89485B791E095BF92E095BF55
:10E6200085BF89818FBF579A6F9A6E9A559A5F9866
:10E63000779A769A5D9A0E9432F30E94F7F78111D9
:10E6400003C05D98F894FFCF0E9498F2811103C037
:10E650005D98F894FFCF769878940E9475F30E94A5
:10E6600008F6FBCF1092B80283E1809387011092E5
:10E67000B70284E180930A031092090381E00895B0
:10E68000CF93DF931F92CDB7DEB720910A032223E9
:10E6900039F1E091B80224E0E29FF0011124E7543F
:10E6A000FD4F91838083738362838FB78983F8944E
:10E6B0008091B802833119F41092B80203C08F5FC1
:10E6C0008093B8028091B7028F5F8093B7028091E8
:10E6D0000A03815080930A0389818FBF81E001C0C2
:10E6E00080E00F90DF91CF910895CF93DF931F9239
:10E6F000CDB7DEB78FB78983F8948091B7028111C7
:10E7000003C089818FBF26C090918701933119F48E
:10E710001092870103C09F5F90938701815080937F
:10E72000B70280910A038F5F80930A0389818FBFAC
:10E73000A091870184E0A89FD0011124A754BD4F68
:10E74000ED91FC911197309729F012968D919C9143
:10E75000139709950F90DF91CF9108958091F10063
:10E76000809388019091F100492F50E04B30510582
:10E7700008F095C1FA01E45BFF400C9477FA803809
:10E7800009F088C010928C016091F1008091F10035
:10E79000813041F0823081F487E280930E038AE475
:10E7A00091E005C082E180930E0381E791E09093B0
:10E7B000100380930F0305C00E94F5F8882309F425
:10E7C00073C18091F1008091F1008091F10020915E
:10E7D000F10090E0922B2091E800277F2093E80041
:10E7E00020910E03422F50E04817590748F42F7329
:10E7F00021F481E080938C0118C010928C0115C027
:10E8000080930E0312C08091E80082FD2CC080919D
:10E81000E80080FFFCCF81E490910E0391110AC0C3
:10E820008091E8008E7F8093E80080910E03811133
:10E83000EACF19C08150A1F3E0910F03F0911003CA
:10E8400090819093F10020910F03309110032F5F7E
:10E850003F4F3093100320930F0390910E0391507C
:10E8600090930E03D9CF8091E8008E7F8093E800CB
:10E870008091E80082FDF4C080918C01882329F00A
:10E880008091E8008E7F8093E8008091E80082FF0D
:10E89000FCCFE6C066E001C18038C1F48091E80099
:10E8A000877F8093E80080910D038093F100809131
:10E8B000E8008E7F8093E8008091E8008F77809356
:10E8C000E8008091E80082FFFCCFCAC068E0E5C0A4
:10E8D00081111DC09091F1008091E3009F778078B5
:10E8E000892B8093E3008091E800877F8093E80084
:10E8F0008091E8008E7F8093E8008091E80080FF9F
:10E90000FCCF8091E30080688093E300089565E088
:10E91000C4C0811113C09091F100923008F0C4C0BE
:10E920008091E800877F8093E80090930D038091A9
:10E93000E8008E7F8093E8000C94DDF869E0ADC0BC
:10E94000833088F5882309F4AFC0813009F4ACC066
:10E950008091F1008111A8C0E091F100EF77E09380
:10E96000E9008091EB0080FF9FC0EE23A9F0809129
:10E97000EB0080618093EB0081E090E00E2E01C0FF
:10E98000880F0A94EAF78093EA001092EA008091D7
:10E99000EB0088608093EB001092E900F0E0E7570D
:10E9A000FE4F108225C061E078C0833050F5813081
:10E9B00009F47AC0823009F081C08091F1008111A0
:10E9C00073C0E091F100EF7709F46EC0E093E900C5
:10E9D0008091EB0080FF68C08091EB0080628093A3
:10E9E000EB001092E900F0E0E757FE4F81E08083F2
:10E9F0008091E800877F8093E8008091E8008E7F17
:10EA00005BC063E04AC090E8980F933090F5909116
:10EA1000F1009091F100E091F100813811F082381D
:10EA200041F08091E800877F8093E8001092F10028
:10EA30000CC08091E800877F8093E800EF77F0E0DA
:10EA4000E757FE4F80818093F1001092F100809192
:10EA5000E8008E7F8093E8008091E80082FFFCCF81
:10EA60008091E8008B7F8093E8008091E8008F77A9
:10EA700023C060E012C0813879F48091F100809168
:10EA8000F1008091F1002091F10090E0922B9093A1
:10EA90000C0380930B0308C06AE00C94DBF8692F29
:10EAA0000E94DBF881110AC08091EB0080628093A4
:10EAB000EB008091E800877F8093E80008957F92C3
:10EAC0008F929F92AF92BF92CF92DF92EF92FF927E
:10EAD0000F931F93CF93DF93122FD32EC42EB52EF7
:10EAE000A62E972E882E792E1092B5021092B4027F
:10EAF0001092B30210929201109291011092900123
:10EB00001092110310928F0110928E0110928D01BC
:10EB1000809165008F77809365008CE0E82E81E01E
:10EB2000F82EC0E0D0E0212F3D2D4C2D5B2D6A2D1D
:10EB3000792D882D972D0C2F0E9482FAA22FA29555
:10EB4000AF70AA3010F4A05D01C0A95CB0E0F7017D
:10EB5000B383A283E22FEF70EA3010F4E05D01C0CE
:10EB6000E95CF0E0D7011596FC93EE931497289694
:10EB7000B4E0EB0EF11CC033D105A9F68091D700AB
:10EB80008F7B8093D7008091D70080688093D700D7
:10EB90008091D80080698093D8008091D8008F7BC5
:10EBA0008093D8008091D80081608093D800DF9155
:10EBB000CF911F910F91FF90EF90DF90CF90BF907A
:10EBC000AF909F908F907F9008958091D700816043
:10EBD0008093D7008EE089BD09B400FEFDCF8091FF
:10EBE000D8008F7D8093D8008091E200816080936F
:10EBF000E2008091E20088608093E2000E94C4F805
:10EC00008091E0008E7F8093E0001092B50208951D
:10EC10008091D90080FF11C08091B50281110DC093
:10EC200081E08093B5028091E20088608093E200E9
:10EC30008091E0008E7F8093E0008091B402882371
:10EC400049F081E08093EA001092EA001092B3024A
:10EC50001092B4021092E9008091E80083FD0E94B6
:10EC6000AEF380919001882309F447C080918F0111
:10EC70008093E9008091E80082FF3FC08091E80026
:10EC80008B7F8093E8002091F20080919101909118
:10EC90009201820F911D8132914010F4322F06C0F3
:10ECA0001092900181E0809311030895332389F03D
:10ECB00080919101909192014091F100FC01ED56FB
:10ECC000FE4F4083019690939201809391013150C1
:10ECD000EDCF8091E8008F778093E800203450F6E4
:10ECE00010929001E0918D01F0918E0163E971E045
:10ECF000809191019091920109940895CF93DF93AF
:10ED00001F92CDB7DEB7FC01892B11F180919001E4
:10ED100081111CC080818823D9F08FB78983F89432
:10ED2000808180938F018181928190938E01809365
:10ED30008D01109292011092910181E080939001D7
:10ED40001092110389818FBF80E003C081E001C070
:10ED500082E00F90DF91CF910895CF93DF931F92C0
:10ED6000CDB7DEB78FB78983F89481E080939001A7
:10ED700010921103109292011092910189818FBF1C
:10ED80000F90DF91CF9108951F920F920FB60F92BF
:10ED900011240BB60F922F933F934F935F936F9372
:10EDA0007F938F939F93AF93BF93EF93FF93809144
:10EDB000DA0080FF19C08EEF8093DA008091D900CD
:10EDC00080FF10C081E08093B5028091E2008860EE
:10EDD0008093E2000E94E5F58091E0008E7F8093B1
:10EDE000E00002C01092B5028091DA0081FF05C0F8
:10EDF0008DEF8093DA008091D9008091E10082FF4D
:10EE000003C08BEF8093E1008091E10080FF10C090
:10EE10008EEF8093E1008091E20080618093E200B8
:10EE20008FEE8093E1008091D80080628093D800BB
:10EE30008091E10084FF0DC08091D8008F7D809388
:10EE4000D8008FEE8093E1008091E2008F7E809366
:10EE5000E2008091E10085FF0DC08091E2008F7E8D
:10EE60008093E2008FED8093E1008091E2008F7D3E
:10EE70008093E2008091E10083FF08C087EF8093D8
:10EE8000E1000E94C4F881E08093B402FF91EF9109
:10EE9000BF91AF919F918F917F916F915F914F91B2
:10EEA0003F912F910F900BBE0F900FBE0F901F90B0
:10EEB0001895E4E6F0E080818F77808380E280938C
:10EEC000B800E9EBF0E08081808381E00895E4E61A
:10EED000F0E080818068808308956115710509F4F0
:10EEE00084C094EA9093BC009FEF91502091BC00A5
:10EEF00027FD02C09111F9CF2091B900287F283059
:10EF000011F080E06BC09923E1F390EA9093BB008D
:10EF100094E89093BC009FEF91502091BC0027FD96
:10EF200002C09111F9CF2091B900287F283149F70B
:10EF3000992339F38093BB0084E88093BC008FEF62
:10EF400081509091BC0097FD02C08111F9CF909142
:10EF5000B900987F9832A9F6882399F284EA8093C1
:10EF6000BC008FEF81509091BC0097FD02C08111D1
:10EF7000F9CF9091B900987F903119F6882309F262
:10EF800081EA8093BB0084E88093BC008FEF8150BE
:10EF90009091BC0097FD02C08111F9CF9091B9000A
:10EFA000987F903409F0ADCF882309F4AACF84E884
:10EFB0008093BC008FEF81509091BC0097FD02C000
:10EFC0008111F9CF9091B900987F983511F0811196
:10EFD00098CF8091BB00FB01808381E094E99093FE
:10EFE000BC0090E89093BC00089580E008950F93D2
:10EFF0001F93CF93DF931F92CDB7DEB70E9459F7CF
:10F00000182F811103C00E9467F71FC080E090E0B5
:10F010000E949EFA082F8FEF8983BE016F5F7F4F9A
:10F0200080E00E946DF789818F3F11F482E005C076
:10F030000F3F31F40E9467F781E08093B60205C06C
:10F040000E9467F71092B60210E0812F0F90DF91B7
:10F05000CF911F910F910895CF93DF93CDB7DEB776
:10F0600028970FB6F894DEBF0FBECDBF19821A8263
:10F070001B821C821D821E821F8218868091B6020E
:10F08000823089F5BE01685F7F4F84E00E946DF792
:10F09000BE01695F7F4F85E00E946DF7BE016A5F28
:10F0A0007F4F86E00E946DF7BE016B5F7F4F87E068
:10F0B0000E946DF7BE016C5F7F4F88E00E946DF784
:10F0C000BE016D5F7F4F89E00E946DF7BE016E5FEC
:10F0D0007F4F8AE00E946DF7BE016F5F7F4F8BE02C
:10F0E0000E946DF72AC0813041F584E090E00E94D3
:10F0F0009EFA888785E090E00E949EFA8F8386E0E2
:10F1000090E00E949EFA8E8387E090E00E949EFA33
:10F110008D8388E090E00E949EFA8C8389E090E0E5
:10F120000E949EFA8B838AE090E00E949EFA8A8376
:10F130008BE090E00E949EFA898329813A814B817D
:10F140005C816D817E818F81988528960FB6F894B9
:10F15000DEBF0FBECDBFDF91CF910895EBEEF0E0A3
:10F160009081916090838093EC00EDEEF0E08081DF
:10F170008270682B60838081826080838091EE0042
:10F18000881F8827881F08958091D8008F7B8093DF
:10F19000D8008091D90081FF0CC01092E9008091C5
:10F1A000EB0080FD06C01092E90060E382E00C9461
:10F1B000AEF880E0089580E00895CF93DF93C9EE24
:10F1C000D0E084E0888360E381E80E94AEF882E0CA
:10F1D000888360E380E80E94AEF881E0888364E37E
:10F1E00081E8DF91CF910C94AEF8833021F5613046
:10F1F00089F050F06230A1F06330E9F48CE1809343
:10F200000E038CE091E011C084E080930E0388E04F
:10F2100091E00BC08CE080930E038EE391E005C07B
:10F2200086E180930E0388E291E09093100380932F
:10F230000F0381E0089580E00895FC018491089512
:10F24000CF92DF92EF92FF92DB01109709F445C055
:10F2500007B600FCFDCF6C01E12CF12C83E0F60138
:10F26000E0925B0080935700E89507B600FCFDCF65
:10F2700040E050E0BA0181E0FD01E40FF51F21817B
:10F2800030E0322F22279081292B0901FA01609367
:10F290005B0080935700E89511244E5F5F4F6F4FDE
:10F2A0007F4F411591E059076105710529F707B6B0
:10F2B00000FCFDCF85E0F601E0925B0080935700F3
:10F2C000E89507B600FCFDCF81E180935700E895F3
:10F2D00007B600FCFDCF81E001C080E0FF90EF9019
:10F2E000DF90CF900895CF93DF931F92CDB7DEB715
:10F2F0008FB78983F89480E090E023E007B600FCA4
:10F30000FDCFAC0160E070E0FA0160935B002093F8
:10F310005700E8959395F2CFCF93DF931F92CDB727
:10F32000DEB72FB72983F8940E949EFA99819FBF78
:10F330000F90DF91CF910895CF93DF931F92CDB7B8
:10F34000DEB72FB72983F8940E94A6FA89818FBF70
:10F350000F90DF91CF9108950F931F93CF93DF9379
:10F360001F92CDB7DEB78FB78983F89400E010E025
:10F370006FEFC8010E94A6FA0F5F1F4F011580E1D1
:10F380001807B1F789818FBF0F90DF91CF911F913F
:10F390000F910895CF93DF931F92CDB7DEB78FB74C
:10F3A0008983F89407B600FCFDCFE0E0F0E089E047
:10F3B00080935700849199819FBF0F90DF91CF91E7
:10F3C0000895CF93DF931F92CDB7DEB78FB78983B0
:10F3D000F89407B600FCFDCFE3E0F0E089E080930D
:10F3E0005700849199819FBF0F90DF91CF9108952D
:10F3F000CF93DF931F92CDB7DEB78FB78983F89491
:10F4000007B600FCFDCFE2E0F0E089E08093570012
:10F41000849199819FBF0F90DF91CF910895CF93F1
:10F42000DF931F92CDB7DEB78FB78983F89407B605
:10F4300000FCFDCFE1E0F0E089E08093570084918B
:10F4400099819FBF0F90DF91CF910895CF93DF9364
:10F450001F92CDB7DEB79FB79983F89407B600FC2B
:10F46000FDCF99E0E1E0F0E0082E90935700E89599
:10F4700089818FBF0F90DF91CF910895CF93DF9354
:10F480001F92CDB7DEB78FB78983F89407B600FC1B
:10F49000FDCF89818FBF8FEF0F90DF91CF910895BE
:10F4A000CF93DF931F92CDB7DEB78FB78983F894E0
:10F4B00007B600FCFDCF89818FBF8FEF0F90DF91E2
:10F4C000CF910895CF93DF931F92CDB7DEB78FB75B
:10F4D0008983F89407B600FCFDCF89818FBF8FEF39
:10F4E0000F90DF91CF910895F8940C94B4FAEE0F39
:10F4F000FF1F0024001C0BBE0790F691E02D09941D
:10F5000097FB10F8169400080F93083098F00850F5
:10F51000232F342F452F562F672F782F892F902D8B
:10F52000F4CF059497958795779567955795479567
:10F53000379527950A95AAF70F910895F999FECF67
:10F5400092BD81BDF89A992780B50895262FF99923
:10F55000FECF1FBA92BD81BD20BD0FB6F894FA9AB6
:0CF56000F99A0FBE01960895F894FFCFB1
:10F56C007856341200000000040309041C03300018
:10F57C0030003000300030003000300030003000FF
:10F58C00300030004300000016034B0049004C00D3
:10F59C004C004500520042003000300054000C0377
:10F5AC00410054004D0045004C00090227000101A8
:10F5BC000080FA0904000003FF0000000705840224
:10F5CC0040000007050202400000070581024000D0
:10F5DC00001201000200000040EB030A21000201AE
:04F5EC000203010015
:040000031000E00009
:00000001FF
