:100000000C9490000C94AF000C94AF000C94AF00D3
:100010000C94AF000C94AF000C94AF000C94AF00A4
:100020000C94AF000C94AF000C94AF000C94AF0094
:100030000C94AF000C94AF000C94AF000C94AF0084
:100040000C94AF000C94AF000C94AF000C94AF0074
:100050000C94AF000C94AF000C94AF000C94AF0064
:100060000C94AF000C94AF000C94AF000C94AF0054
:100070000C94AF000C94AF000C94AF000C94AF0044
:100080000C94AF000C94AF000C94AF000C94AF0034
:100090000C94AF000C94AF000C94AF000C94AF0024
:1000A0000C94AF000C94AF000C94AF000C94AF0014
:1000B0000C94AF000C94AF000C94AF000C94AF0004
:1000C0000C94AF000C94AF000C94AF000C94AF00F4
:1000D0000C94AF000C94AF000C94AF000C94AF00E4
:1000E0000C94AF000C94AF000C94AF000C94AF00D4
:1000F0000C94AF000C94AF000C94AF000C94AF00C4
:100100000C94AF000C94AF000C94AF000C94AF00B3
:100110000C94AF000C94AF000C94AF000C94AF00A3
:1001200011241FBECFEFD1E4DEBFCDBF14E0A0E0AD
:10013000B2E0E2EFFDE000E00BBF02C007900D92DD
:10014000AE3CB107D9F716E0AEECB4E001C01D92A9
:10015000A43DB107E1F70E9413060C94F7060C9436
:1001600000000E9442010895FF920F931F93CF93C6
:10017000DF93F82E0091420210914302A4E4B2E012
:10018000E0E0F0E00BC0CD91DD9188818F1105C0DA
:10019000E981FA818F2D099513C03196E017F10797
:1001A00094F388E592E00E94D0028F2D90E00E94A7
:1001B000820220E030E0A9016EE78F2D0E94130239
:1001C000CDB7DEB7E5E00C94E0068091C00087FF74
:1001D000FCCF8091C60008959091C00095FFFCCFA0
:1001E0008093C60008951092C1008150843058F465
:1001F000E82FF0E0EE0FFF1FE050FE4F808191816D
:10020000A0E0B0E004C080E092ECA1E0B0E028E122
:100210002093C10022E02093C00026E02093C2007A
:100220009C01AD0183E0220F331F441F551F8A95A7
:10023000D1F760E074E284EF90E00E949506822F8F
:1002400081508093C400DA01C9010197A109B10965
:10025000892F9A2FAB2FBB278093C500089580E08C
:100260000E94F3002FEF89E698E1215080409040F2
:10027000E1F700C000000895219A0895299A089591
:1002800029980895F89485B78D7F95B7916095BFAB
:1002900085BF84B7877F84BF88E10FB6F8948093C9
:1002A0006000109260000FBE0E942F010E943C016E
:1002B0006898709A7894089584B7877F84BF28E0FF
:1002C00088E190E00FB6F894A895809360000FBE87
:1002D000209360002FE783E396E021508040904018
:1002E000E1F700C00000F6CF80E090E408950E949E
:1002F0003E012FEF86E791E0215080409040E1F7EA
:1003000000C000000E94400108958F929F92AF921A
:10031000BF92CF92DF92EF92FF920F931F930E94B2
:10032000E500882E912CA12CB12C0E94E500C82E4E
:100330000E94E500D12CE12CF12CFE2CED2CDC2CC4
:10034000CC24E82A0E94E50095018401382B0C2971
:100350001D292E293F29B801C9011F910F91FF9036
:10036000EF90DF90CF90BF90AF909F908F900895C7
:10037000CF92DF92EF92FF920E94E500C82ED12C1F
:10038000E12CF12C0E94E500B701A601582BCA010F
:10039000FF90EF90DF90CF900895A2E0B0E0E3ED02
:1003A000F1E00C94C606182F862F79839A830E9459
:1003B000EC007981872F0E94EC00812F0E94EC00D5
:1003C0009A81892F0E94EC002296E3E00C94E206C9
:1003D000A1E0B0E0EEEEF1E00C94C70699830E9434
:1003E000EC009981892F0E94EC002196E2E00C94A8
:1003F000E306A5E0B0E0EFEFF1E00C94C7062A8336
:100400003B834C835D8369830E94EC006981862F66
:100410000E94EC002A813B81C9010E94E8012596D7
:10042000E2E00C94E3068F929F92AF92BF92CF923C
:10043000DF92EF92FF92CF93DF9349015A0190919F
:10044000CE04911115C00E94F901CFECD4E0C12C6B
:10045000D12C760108C089910E94EC008FEFC81A58
:10046000D80AE80AF80AC814D904EA04FB0499F780
:10047000DF91CF91FF90EF90DF90CF90BF90AF9042
:100480009F908F900895CF92DF92FF920F931F93CA
:10049000CF93DF931F92CDB7DEB7F82E8B019B0170
:1004A00040E050E06EEF8FEF99830E94F901CF2C6E
:1004B0009981D92E0C0D1D1D05C0F60181916F018A
:1004C0000E94EC00C016D106C1F70F90DF91CF91CA
:1004D0001F910F91FF90DF90CF900895A4E0B0E0BE
:1004E000E4E7F2E00C94C70669837A838B839C83EC
:1004F00064E070E0CE0101960E9443022496E2E09F
:100500000C94E306A2E0B0E0E8E8F2E00C94C70641
:100510009A83898362E070E0CE0101960E944302D3
:100520002296E2E00C94E3068F929F92AF92BF92E4
:10053000CF92DF92EF92FF92CF93DF93EA01EC2FFD
:10054000FD2FDF010D900020E9F71197AE1BBF0BC7
:100550004D01A12CB12CA50194010E94F901C12CDF
:10056000D12C760108C089910E94EC0081E0C81A64
:10057000D108E108F108D701C601880D991DAA1D0F
:10058000BB1D892B8A2B8B2B71F7DF91CF91FF90AD
:10059000EF90DF90CF90BF90AF909F908F90089595
:1005A000AC016FEF8FEF0E9494020895A2E0B0E0DB
:1005B000ECEDF2E00C94C7069A83898301C0000039
:1005C00089819A819C01215031093A832983892BA1
:1005D000B1F72296E2E00C94E306A4E0B0E0E3EF8A
:1005E000F2E00C94C70624E630E03C832B830DC078
:1005F0009A83898301C0000029813A81A901415071
:1006000051095A834983232BB1F72B813C81A901DE
:10061000415051095C834B83232B51F72496E2E030
:100620000C94E30608958EEB92E00E94D0020895A8
:1006300085ED92E00E94D00208958CEE92E00E9437
:10064000D0020895E0E0F1E18FEE9EEB819391936B
:10065000E11525E2F207D1F720E030E0A90160E9D9
:1006600080E00E9413020895E0E0F1E120E030E034
:10067000819191918F3E9E4B11F42E5F3F4FE1157A
:1006800085E2F807A9F7C90108958F929F92BF925A
:10069000CF92DF92EF92FF920F931F93CF93DF934E
:1006A0001F92CDB7DEB7B82E603909F4B1C0A0F4FF
:1006B000613309F48EC048F4633009F46AC06033D2
:1006C00009F479C06230E9F452C06138F9F0623857
:1006D000F9F06038B1F497C0603B09F4B3C040F45E
:1006E000613909F498C0862F805A833050F49FC036
:1006F000623C09F47CC0603D09F4B3C0613B09F47D
:10070000ABC086E093E00E94D002C0C061E8BBC0ED
:1007100043E353E062E80E94940204E412E0812C77
:10072000912CC0904202D090430219C0F801E19090
:10073000F1908F01F7014381548162E88B2D0E9473
:1007400094028091CF04882339F0F70145815681C6
:1007500062E88B2D0E949402FFEF8F1A9F0A8C147F
:100760009D0424F320E030E0A90162E88CC084E419
:1007700093E00E94D0028091CF049091D0040E9417
:1007800082021092CF0421E030E040E050E062E0CD
:100790007AC084E793E00E94D0028091CF049091C8
:1007A000D0040E9482021092CF0421E030E040E0A9
:1007B00050E063E068C084EA93E00E94D0021092A7
:1007C000D0041092CF0422E030E040E050E060E33B
:1007D0005AC084EA93E00E94D0021092D004109292
:1007E000CF0422E030E040E050E061E34CC020E084
:1007F00031E03093D0042093CF0422E030E040E099
:1008000050E062EC40C08091CF040E94F3003EC0F3
:100810000E9422033BC00E9434039093D004809333
:10082000CF0422E030E040E050E061E92CC08DECE4
:1008300093E069830E94D00221E030E040E050E084
:10084000698121C08091CF048093CE0421E030E003
:1008500040E050E060EB17C020E030E0A90161EB20
:1008600012C00E943C010E943E0188E893E10E9470
:10087000ED020E94400181E08093CF0421E030E04E
:1008800040E050E060ED8B2D0E9413020F90DF914D
:10089000CF911F910F91FF90EF90DF90CF90BF907D
:1008A0009F908F90089584EA93E00E94D00208956B
:1008B000805C9E4FFC0160830895805C9E4FFC012C
:1008C00080810895FC01E05CFE4F21E030E0062EBF
:1008D00001C0220F0A94EAF780818223062E01C00C
:1008E000440F0A94EAF7842B8083089510928001C4
:1008F0000895909142019F719F31D9F3883029F07A
:10090000893071F0823029F402C098E00CC092E086
:100910000AC09091D306992329F096E186E103C09D
:1009200099E001C096E09093420194EB209141013F
:100930002823821308C090914101982389130FC086
:1009400020E030E010C02FEF3FE841E02150304080
:100950004040E1F700C00000915041F7ECCF2091FA
:100960004101282330E0C9010895E9E3F1E08081E5
:100970008E7F808380818D7F808380E28A95F1F7EE
:1009800080818160808310924E0180914F0188E0C8
:100990000E947904EEE6F1E080818F7E8083E7E5B6
:1009A000F1E080818F7D808380818F7E8083808154
:1009B00082608083ECE4F1E080818F778083E4E4DF
:1009C000F1E080818F7D8083109280011092D306A8
:1009D00086E00E9479040895805C9E4FFC0160834C
:1009E0000895805C9E4FFC0180810895FB01DC012D
:1009F000A05CBE4F460F571F02C081918D93E41734
:100A0000F507D9F70895FC01E05CFE4F460F571F2C
:100A100004C08191DB018D93BD0164177507C9F78F
:100A20000895A1E0B0E0E7E1F5E00C94C006B82E2F
:100A300069017A01613809F46DC068F4633061F1CD
:100A400020F4623009F0D5C015C06031C1F16038C2
:100A500009F0CFC03BC0653809F492C020F4643877
:100A600009F0C7C07BC0663809F49BC0673809F03D
:100A7000C0C0ABC00091D1041091D204A8016FECAA
:100A800074E08091CF049091D0040E9403059801F6
:100A900040E050E062E0B6C0A9014250510961ED6A
:100AA00074E08091CF049091D0040E94F604A701D5
:100AB0009601225031094109510963E0A3C00E9407
:100AC000B5049C0140E050E060E19CC086E00E94DB
:100AD000790489E00E94790480918001882381F063
:100AE00010917B0117FD1FE7EFECF4E0412F50E080
:100AF00060E871E0CF010E94EE061092800101C013
:100B000010E086E00E947904212F30E040E050E0C0
:100B100060E878C089E00E9479048091CF04803831
:100B200018F08FE78093CF048FEC94E0A601BC010E
:100B300080E891E00E94EE0682E00E9479048091B4
:100B4000410189708930D9F71092800186E00E94B6
:100B5000790420E030E0A90161E854C08091D30617
:100B6000811109C081E08093D30689E00E94790455
:100B700086E00E94790420E030E0A90164E842C0E8
:100B80008091D306882341F01092D30689E00E9419
:100B9000790486E00E94790420E030E0A90165E84C
:100BA00031C08091440185FD0BC088E00E9479042A
:100BB0008091440180628093440186E00E94790420
:100BC00020E030E0A90166E81DC08091440185FF66
:100BD0000BC088E00E947904809144018F7D80934E
:100BE000440186E00E94790420E030E0A90167E832
:100BF00009C085E794E069830E94D0022FEF3FEFA0
:100C0000A90169818B2D0E9413022196E9E00C94C1
:100C1000DC068091800121E030E0882311F020E0A3
:100C200030E0C9010895A8E0B0E0E9E1F6E00C94F5
:100C3000BF061A8219821092CE040E94420145E634
:100C400052E06FE780E00E9494020E94E500B82E17
:100C500080E8B81210C089819A8101969A838983AD
:100C600089819A81059788F30E945C018CE792E064
:100C70000E94D002EACF1A8219820E94E500A82EB3
:100C80000E94B8019C0140E050E01C821B8225308C
:100C900082E038074105510598F515C00B811C818C
:100CA0002D833E834F8358870E94E500F801E1536E
:100CB000FB4F8083EB81FC813196FC83EB8358856D
:100CC0004F813E812D81CB80DC80E12CF12CC2163E
:100CD000D306E406F50610F36A2D8B2D0E94B400AE
:100CE000B4CF2D833E834F8358870E94E5008B81CC
:100CF0009C8101969C838B8358854F813E812D81F9
:100D00008B819C81A0E0B0E082179307A407B50710
:100D100040F386EA92E00E94D00220E030E0A90190
:100D20006EE780E00E94130290CFA1E21A2EAA1B68
:100D3000BB1BFD010DC0AA1FBB1FEE1FFF1FA2178B
:100D4000B307E407F50720F0A21BB30BE40BF50B88
:100D5000661F771F881F991F1A9469F76095709511
:100D6000809590959B01AC01BD01CF0108952F9214
:100D70003F924F925F926F927F928F929F92AF922B
:100D8000BF92CF92DF92EF92FF920F931F93CF9378
:100D9000DF93CDB7DEB7CA1BDB0B0FB6F894DEBF0F
:100DA0000FBECDBF09942A88398848885F846E8435
:100DB0007D848C849B84AA84B984C884DF80EE807F
:100DC000FD800C811B81AA81B981CE0FD11D0FB688
:100DD000F894DEBF0FBECDBFED010895FB01DC012D
:100DE00002C001900D9241505040D8F70895F894F8
:020DF000FFCF33
:100DF2008025004B009600E1608F688F6C8F748FA6
:100E02007D8F7E8F808F818F848F858F878F898F53
:100E12008A8F958F968F978F9E8F9E8F9F8FA18F90
:100E2200A98FAB8FB28FB58FC38ECC8ED98EDC8E4D
:100E3200E88E020048025102004503E103E9033350
:100E4200035311058A049604417070206D6973730F
:100E5200696E672E00687474703A2F2F676F6F6423
:100E62006665742E73662E6E65742F005265626F0E
:100E72006F74696E67206E6F7420737570706F7215
:100E8200746564206F6E207468697320706C61747D
:100E9200666F726D2E00427566666572206C656EB5
:100EA2006774682065786365656465642E006465AF
:100EB2006C61795F6D7320756E696D706C656D65BF
:100EC2006E7465640064656C61795F757320756E1C
:100ED200696D706C656D656E7465640064656C61E6
:100EE200795F7469636B7320756E696D706C656D83
:100EF200656E746564004552524F523A20436F6DDD
:100F02006D616E6420756E737570706F7274656456
:100F1200206279206465627567206D6F6E69746FF7
:100F2200722E00323031332D30332D3239203130B0
:100F32003A3436004D6F6E69746F72207065656B5E
:100F4200732061726520756E737570706F7274654F
:100F520064206F6E207468697320706C6174666FB0
:100F6200726D2E004D6F6E69746F7220706F6B65BB
:100F7200732061726520756E737570706F7274651F
:100F820064206F6E207468697320706C6174666F80
:100F9200726D2E00666E63616C6C2829206E6F7410
:100FA20020737570706F72746564206F6E20746840
:100FB200697320706C6174666F726D2E00436F6D81
:100FC2006D616E6420646570726563617465642E20
:100FD200004D6F6E69746F720009546865206D6F01
:100FE2006E69746F72206170702068616E646C65E6
:100FF20073206261736963206F7065726174696FD7
:101002006E73206F6E20746865204D5350343330F8
:101012000A0973756368206173207065656B696E78
:101022006720616E6420706F6B696E67206D656DFD
:101032006F72792C2063616C6C696E672066756EC5
:101042006374696F6E7320616E640A096D616E610B
:1010520067696E67207468652062617564207261D9
:1010620074652E0A004E6F74207965742073757052
:10107200706F7274656420696E2041544D454C5FF7
:10108200524144494F00095468652041544D454C32
:101092005F524144494F2061707020616464732043
:1010A200737570706F727420666F72207468652039
:0E10B20061746D656C20726164696F2E0A00B6
:00000001FF
