:100000000C94CD000C94EC000C94EC000C94EC00DF
:100010000C94EC000C94EC000C94EC000C94EC00B0
:100020000C94EC000C94EC000C942C0E0C94EC0052
:100030000C94EC000C94EC000C94EC000C94EC0090
:100040000C94480B0C949C0B0C940A0C0C94EC0034
:100050000C94850B0C94EC000C94EC000C94EC00CC
:100060000C94EC000C94EC000C94EC000C94EC0060
:100070000C94EC000C94EC000C94EC000C94EC0050
:100080000C94EC000C94EC000C94EC000C94EC0040
:100090000C94EC000C94EC00E009D206FB0622085C
:1000A000220822082208C90718081C081F0822086D
:1000B00022082C083E084108EA09EA09EA09EA0987
:1000C000EA09EA09EA09EA094708EA09EA09EA093C
:1000D000EA09EA09EA09EA09EA097208C508EB0827
:1000E000FE0846099209D2095C15F914A8152E15C7
:1000F000A815C1141814A815A514E2149415FA181B
:10010000F018FE18FE18F218FE18F218FE18FE1865
:10011000F418FE18F618F818FC18BA26785BCE7496
:10012000B8162AEFF3CC8B4E530AE2D7B73C564CA5
:10013000B566DB1E57EEE6F4431A06DFCD9F863E1A
:100140008A793A04097C1FBB12A0779B40FC00AD62
:10015000316F9AA69E150D6C447035F064D67E48BA
:100160003D50622FC630E760F8DC5C5F08C3B9130E
:10017000A8BEE97A8165BCD22E55E590F7A77BC26F
:10018000C1EA4AAE93F2FFB3C567399849052C3FDF
:10019000388DD3CA2DE0B200000011241FBECFEF6E
:1001A000D0E2DEBFCDBF11E0A0E0B1E0EEECF7E6BB
:1001B00000E00BBF02C007900D92A039B107D9F73C
:1001C00022E1A0E9B1E001C01D92AD36B207E1F72E
:1001D0000E942A010C945D330C9400005D98F89401
:1001E000FFCF8DEE8093640089E88093650080B72F
:1001F000806880BF80EF80937E000E94E428811198
:1002000002C080E008950E94CF278823D1F32BED10
:100210003AE045E060E270E08BE39AE00E94D72785
:10022000882379F32FE23AE04FE063E970E082E956
:1002300091E00E94D727882321F30E94223288234D
:1002400001F3579A6F9A6E9A559A5F98779A769AB1
:100250005D9A08950FB6F894A89580916000886122
:1002600080936000109260000FBE0E94F10088230E
:1002700031F00E944910811104C00E947E100E943A
:10028000EE000E94000A811103C00E94740AF7CF99
:100290000E947E1078940E943F290E9429330E9478
:1002A000DF0C0E94F3020E949B0A8091E70A8823D8
:1002B00051F080919001909191019F71892B19F4D7
:1002C0008BB180588BB98091E70A811101C05F9A88
:1002D000809190019091910101969093910180936A
:1002E0009001D9CF089583FF74C08091EC0A8111E9
:1002F0000AC080910A0B90910B0B019690930B0B07
:1003000080930A0B64C0289880E28EBD8091EF0A2A
:10031000E82FF0E0EE0FFF1FE051F54F0190F08164
:10032000E02D893019F41092EF0A03C08F5F80939B
:10033000EF0A8091ED0A8F5F8093ED0A8091EC0ABD
:1003400081508093EC0A0DB407FEFDCF8EB58EBDB3
:1003500080E580838091090B86830DB407FEFDCF75
:100360008EB58F779AE0980F91838087DF01199679
:100370008F5F8EBD4091050B5091060B6091070B6E
:100380007091080B42835383648375830DB407FE19
:10039000FDCF9EB59EBD9D9381500DB407FEFDCF50
:1003A0008111F7CF289A289886E88EBD0DB407FEF4
:1003B000FDCF8EB587838EBD0DB407FEFDCF8EB504
:1003C0008783289A8781881F8827881F8783779A41
:1003D000089582FF28C077980E946032DC01CB012B
:1003E000B695A795979587958093050B9093060BE7
:1003F000A093070BB093080B289886E88EBD0DB428
:1004000007FEFDCF8EB58093090B8EBD0DB407FEA0
:10041000FDCF8EB58093090B289A8091090B8F71BF
:100420008093090B08958091040B8F5F8093040BD8
:10043000089583FF28C01092560C1092550C2898EE
:1004400082E88EBD0DB407FEFDCF8EB58EBD0DB416
:1004500007FEFDCF8EB5289A289892EC9EBD807E2F
:1004600083600DB407FEFDCF9EB58EBD0DB407FEB3
:10047000FDCF8EB5289A82E08A95F1F700C082E020
:10048000809300015D9A0895CF93DF9310920D0B36
:1004900010920C0B10920B0B10920A0B1092090B7E
:1004A0001092050B1092060B1092070B1092080B7E
:1004B0001092040B1092EF0A1092EE0A1092ED0ABD
:1004C0008AE08093EC0A1092EB0A1092EA0A1092EA
:1004D000E90A1092E80A0E9431128BEF93E001972B
:1004E000F1F700C000002E982D982C9890E19A9575
:1004F000F1F72D9A8FE599E00197F1F700C0000020
:100500008FE599E00197F1F700C0000023E040E09B
:100510006FE182E00E949B128BEF93E00197F1F76D
:1005200000C0000040E06FE181E00E94841288304A
:1005300071F520E043E068E083E00E949B1220E038
:1005400040E067E083E00E949B1221E047E060E822
:1005500085E00E949B126CE08EE00E9469128091FF
:100560006F00806280936F00C0EFDAE089E890E06E
:100570000E946228009759F0899399939BE0C430B8
:10058000D907A1F782E08093000181E00FC00E94AB
:100590004812C0EFDAE0888199810E94A42819925C
:1005A00019928BE0C430D807B1F780E0DF91CF918A
:1005B0000895CF93DF9380910001813089F0C0EFDF
:1005C000DAE0888199810E94A428199219928BE01F
:1005D000C430D807B1F70E94481281E0809300012F
:1005E000DF91CF910895CF93DF9300D0CDB7DEB7E1
:1005F00080910001843009F0B4C08091ED0A882315
:1006000009F4B7C081E08093E9008091E80080FFA1
:10061000B0C08091E8008E7F8093E8008091EB0A63
:1006200081114FC08091EA0A81111FC0E091EE0A4A
:10063000F0E0EE0FFF1FE051F54F0190F081E02D4B
:10064000F093E90AE093E80A21812093EB0A822FD4
:1006500090E0CF9636E0969587953A95E1F72F731F
:1006600009F48F5F8093EA0A2CC0813049F58091AC
:10067000E8008F778093E8001092EA0A8FB78A83A8
:10068000F8948091EE0A893019F41092EE0A03C0B2
:100690008F5F8093EE0A8091ED0A81508093ED0A7E
:1006A0008091EC0A8F5F8093EC0A80910C0B909103
:1006B0000D0B019690930D0B80930C0B8A814FC00C
:1006C0007698E091E80AF091E90A80818093F10040
:1006D0008091E80A9091E90A01969093E90A809343
:1006E000E80A8091EB0A81508093EB0A882321F07D
:1006F0008091E80085FDE5CF8091EA0A81508093E2
:10070000EA0A8091E8008F778093E8008091EB0AF5
:1007100081112FC08091EA0A81112BC08FB7898384
:10072000F8948091EE0A893019F41092EE0A03C011
:100730008F5F8093EE0A8091ED0A81508093ED0ADD
:100740008091EC0A8F5F8093EC0A80910C0B909162
:100750000D0B019690930D0B80930C0B89818FBF2D
:1007600008C0803131F447E851E068E081E00E9440
:10077000AB0D0F900F90DF91CF910895CF93909193
:100780000001923051F595EF980F903130F5C82F58
:100790008FE599E00197F1F700C0000023E040E009
:1007A0006FE182E00E949B128BEF93E00197F1F7DB
:1007B00000C0000040E06FE181E00E9484128830B8
:1007C00061F42C2F40E06FE10E949B1240E06FE14A
:1007D00088E00E94841291E0C81390E0892FCF91A5
:1007E0000895CF93DF931F92CDB7DEB780910001BC
:1007F000823011F080E04AC023E040E06FE182E007
:100800000E949B128BEF93E00197F1F700C000006C
:1008100040E06FE181E00E948412883059F726E0C1
:1008200040E06FE182E00E949B1287E691E0019731
:10083000F1F700C0000040E06FE181E00E94841207
:100840008630C1F68FB78983F8941092EF0A109220
:10085000EE0A1092ED0A8AE08093EC0A1092EB0AFD
:100860001092EA0A1092E90A1092E80A10920D0B0F
:1008700010920C0B89818FBF83E791E00E942A13AD
:1008800084E08093000181E08093E70A0F90DF917C
:10089000CF91089580910001843011F080E0089597
:1008A0000E944E1323E040E06FE182E00E949B1221
:1008B0008BEF93E00197F1F700C0000040E06FE19B
:1008C00081E00E948412883049F782E08093000121
:1008D0001092E70A81E0089582E791E00E942A13CE
:1008E0000E944E1380E0089580910001803111F044
:1008F00080E008950E944E1323E040E06FE182E023
:100900000E949B128BEF93E00197F1F700C000006B
:1009100040E06FE181E00E948412883049F782E074
:100920008093000181E008950F931F93CF931816D1
:100930009CF56115710591F190910001923081F55E
:100940008B01C82F40E06FE181E00E948412883063
:1009500049F529E040E06FE182E00E949B1287E6C2
:1009600091E00197F1F700C0000040E06FE181E005
:100970000E9484128930C1F489E192E00E942A1316
:100980002C9A2C98B8018C2F0E94BE1280E2809382
:1009900000015D9880E009C081E007C082E005C0E9
:1009A00083E003C084E001C085E0CF911F910F91E7
:1009B0000895CF9380910001823059F540E06FE1B6
:1009C00081E00E948412C82F883019F56AE171E035
:1009D0008FE70E94E3126FE086E30E94691260E0F5
:1009E0008DE30E9469122E9A29E040E06FE182E0D7
:1009F0000E949B1287E691E00197F1F700C000008A
:100A000040E06FE181E00E948412893021F00E9471
:100A1000311280E009C062E082E00E946912C09356
:100A200000015D98779881E0CF9108958091000151
:100A3000883011F080E008950E9431128823D1F3AC
:100A400092E0909300015D9A779A0895FC0184E00A
:100A50008093E9009091E8009E7F9093E800808168
:100A6000882311F08BE801C080E88093F100809129
:100A7000E8008F778093E8008091280B9091290BF4
:100A80000C94A42824E02093E9002091E8002E7F14
:100A90002093E800FC018085882311F08BE801C0D9
:100AA00080E88093F1008091E8008F778093E800E0
:100AB0008091240B9091250B0C94A42824E0209382
:100AC000E9002091E8002E7F2093E800FC01EF5B15
:100AD000FF4F8081882311F08BE801C080E880936C
:100AE000F1008091E8008F778093E8008091220BDD
:100AF0009091230B0C94A42824E02093E9002091EA
:100B0000E8002E7F2093E800FC018481882311F007
:100B10008BE806C081E0809321110E94EE2280E8DC
:100B20008093F1008091E8008F778093E8008091B6
:100B3000260B9091270B0C94A428892B51F484E068
:100B40008093E9008091E8008E7F8093E80081E83F
:100B50000FC084EB96E00E940A29811112C084E044
:100B60008093E9008091E8008E7F8093E80085E91A
:100B70008093F1008091E8008F778093E8000C94D7
:100B8000940D0895CF93DF931F92CDB7DEB7FC018C
:100B90008091140B81110AC080910E0B90910F0B64
:100BA000019690930F0B80930E0B2FC0A091170B03
:100BB000B0E0AA0FBB1FA85EB44F0D90BC91A02D52
:100BC0008FB78983F8949091170B943019F4109291
:100BD000170B03C09F5F9093170B8091150B8F5FCE
:100BE0008093150B9091140B91509093140B898165
:100BF0008FBF85E58C938AE011968C93119712969E
:100C000088E001900D928A95E1F70F90DF91CF91E6
:100C10000895CF93DF931F92CDB7DEB72091140BC9
:100C200021110AC080910E0B90910F0B01969093A9
:100C30000F0B80930E0B35C0E091170BF0E0EE0F19
:100C4000FF1FE85EF44FA081B1812FB72983F8948C
:100C50002091170B243019F41092170B03C02F5F4B
:100C60002093170B2091150B2F5F2093150B2091CC
:100C7000140B21502093140B29812FBF24E52C93B2
:100C80002CE011962C931197FC0181919191139670
:100C90009C938E931297149688E001900D928A95FA
:100CA000E1F70F90DF91CF910895CF93DF931F92DB
:100CB000CDB7DEB7FC018091140B81110AC0809181
:100CC0000E0B90910F0B019690930F0B80930E0BD0
:100CD00047C0A091170BB0E0AA0FBB1FA85EB44F8E
:100CE0000D90BC91A02D8FB78983F8949091170B2C
:100CF000943019F41092170B03C09F5F9093170B59
:100D00008091150B8F5F8093150B8091140B815090
:100D10008093140B89818FBF83E58C938681885FD4
:100D200011968C9311978181928113969C938E9347
:100D300012978381948115969C938E931497858145
:100D400016968C931697868117968C9317974681E3
:100D500050E0BF01695F7F4FCD0108960E9460336C
:100D60000F90DF91CF9108950F931F93CF93DF934F
:100D7000EC0184E08093E9009091E8009E7F9093DD
:100D8000E8009091E80094609093E800E8814E2F8D
:100D900050E04832510508F01DC3FA01E45BFF4FF3
:100DA0000C947D3384E08093E9008091E8008E7F8D
:100DB0008093E80084E88093F1008AE08093F1005A
:100DC0008BE48093F10089E48093F1008CE48093BC
:100DD000F1008093F10085E48093F10082E5809337
:100DE000F10082E48093F10080E38093F10080932E
:100DF000F10081E3F8C284E08093E9008091E8008B
:100E00008E7F8093E8008981811108C085E88093F6
:100E1000F10081E08093F10089E1E5C2813021F4A5
:100E200095E89093F10006C0823039F485E880930C
:100E3000F10081E08093F100D6C2803C61F485E846
:100E40008093F10082E08093F10081E08093F100D3
:100E50001092F100CAC2813C09F04FC185E880932D
:100E6000F100809101018093F10020910101309106
:100E700002014091030150910401609105017091BC
:100E80000601809107019091080108E00E948F33CC
:100E90002093F10020910101309102014091030162
:100EA0005091040160910501709106018091070144
:100EB0009091080100E10E948F332093F10020916E
:100EC00001013091020140910301509104016091B0
:100ED000050170910601809107019091080108E1D8
:100EE0000E948F332093F100209101013091020183
:100EF0004091030150910401609105017091060138
:100F0000809107019091080100E20E948F332093A5
:100F1000F1002091010130910201409103015091B3
:100F20000401609105017091060180910701909183
:100F3000080108E20E948F332093F1002091010103
:100F4000309102014091030150910401609105012B
:100F500070910601809107019091080100E30E94C1
:100F60008F332093F10020910101309102014091D3
:100F70000301509104016091050170910601809177
:100F800007019091080108E30E948F332093F1003C
:100F90002CC21092170B1092160B1092150B85E0B5
:100FA0008093140B1092130B1092120B1092110BD2
:100FB0001092100B10920F0B10920E0B0E94D90280
:100FC0000E94FA2981E080932A0B8981811108C04F
:100FD0000E944402811102C083E847C082E023C01E
:100FE000833021F5209101013091020140910301EC
:100FF00050910401609105017091060180910701F3
:10100000909108010E94A529882331F385E596E097
:101010000E94342A89E096E00E945D2A82EC95E0E5
:101020000E94862A84E080932A0B1EC082E81DC09D
:1010300089810E94BE03D2C00E94F103CFC00E94EA
:101040004A04CCC084E08093E9008091E8008E7F60
:101050008093E80083E9C7C1BE016E5F7F4F89813D
:101060000E949404811101C080E894E09093E9000B
:101070009091E8009E7F9093E800B5C10E94D9044A
:1010800002C00E9416058111ABC093E8ACC084E099
:101090008093E9008091E8008E7F8093E80080E8EB
:1010A0008093F1008091E8008F778093E8000E94A0
:1010B000940D2FE788E391E0215080409040E1F7C4
:1010C00000C0000065E38FE090E00E94D73398E015
:1010D00088E10FB6F894A895809360000FBE9093B6
:1010E0006000FFCF8E818F3550F084E08093E9005F
:1010F0008091E8008E7F8093E80082E874C187E2E7
:1011000090E00E946228FC019093290B8093280BA9
:10111000892B51F484E08093E9008091E8008E7F70
:101120008093E80080E95FC1108289819A8192836F
:1011300081838B8183838C8184838E818683CE019E
:101140000796908787838D81858386E295E09287D5
:101150008187CF010E941B2B81114CC184E08093B9
:10116000E9008091E8008E7F8093E8008BE880930F
:10117000F1008091E8008F778093E8008091280B40
:101180009091290B0E94A42835C183E090E00E9431
:1011900062288C01892B99F08981F80180838A81EA
:1011A0009B8192838183C8010E943F2D882311F087
:1011B000C0E801C0C2E8C8010E94A42801C0C0E97B
:1011C00084E08093E9008091E8008E7F8093E800BE
:1011D000C093F1000AC189810E941732882311F05F
:1011E00090E801C092E884E08093E9008091E800F3
:1011F0008E7F8093E8009093F100F7C08FE190E03C
:101200000E9462289093270B8093260B892B81F4F0
:1012100084E08093E9008091E8008E7F8093E8006D
:1012200080E98093F1008091E8008F778093E80057
:10123000E091260BF091270B89819A81918380831D
:101240008B8182838C8183838D8184838E8185834E
:101250008CE795E097838683CF010E94CE2D811184
:10126000C9C084E08093E9008091E8008E7F80937C
:10127000E8008BE88093F1008091E8008F778093FD
:10128000E8008091260B9091270B7CCF8FE190E0B6
:101290000E9462289093250B8093240B892B81F464
:1012A00084E08093E9008091E8008E7F8093E800DD
:1012B00080E98093F1008091E8008F778093E800C7
:1012C0008091240B9091250BFE01319628E0DC01E2
:1012D00001900D922A95E1F72985FC0120872A8546
:1012E00021872B8522872C85238722E435E03587CB
:1012F00024870E94282F81117DC084E08093E9001B
:101300008091E8008E7F8093E8008BE88093F10065
:101310008091E8008F778093E8008091240B909172
:10132000250B30CF8AE890E00E9462289093230B2F
:101330008093220B892B81F484E08093E9008091D3
:10134000E8008E7F8093E80080E98093F10080912F
:10135000E8008F778093E800E091220BF091230B57
:10136000898180838A8181838EE595E0938382835E
:10137000CF010E940A2D81113DC084E08093E900D5
:101380008091E8008E7F8093E8008BE88093F100E5
:101390008091E8008F778093E8008091220B9091F4
:1013A000230BF0CE0E947829882351F084E08093AB
:1013B000E9008091E8008E7F8093E8008BE813C0FD
:1013C00084E08093E9008091E8008E7F8093E800BC
:1013D00080E809C084E08093E9008091E8008E7F76
:1013E0008093E8008DE88093F1008091E8008F778A
:1013F0008093E800DF91CF911F910F910C94940D91
:10140000EF92FF920F931F93CF93DF9300D01F9221
:10141000CDB7DEB71092290B1092280B0E94E01076
:101420002093010130930201409303015093040182
:101430006093050170930601809307019093080162
:1014400010920F0B10920E0B08E11BE0780183E95C
:1014500090E00E946228009759F1F70181939193DF
:101460007F01F2E2EF16FBE0FF0689F72091010110
:1014700030910201409103015091040160910501F6
:101480007091060180910701909108010E942B0C38
:1014900082E089838DE995E09B838A83CE01019662
:1014A0000E94550D811104C081E080932A0B12C067
:1014B000F801808191810E94A428F8011192119273
:1014C0008F01FBE002321F0799F70E94840D0E94F2
:1014D000B10C80E00F900F900F90DF91CF911F9192
:1014E0000F91FF90EF900895CF93DF9380912A0B97
:1014F0008823F1F010922A0B8091280B9091290BF0
:101500000E94A4281092290B1092280BC8E1DBE05E
:10151000888199810E94A428199219928BE0C23285
:10152000D807B1F70E94840DDF91CF910C94B10CD4
:10153000DF91CF910895CF93DF9300D0CDB7DEB781
:1015400080912A0B843009F09EC08091150B88236E
:1015500009F499C081E08093E9008091E80080FF60
:1015600092C08091E8008E7F8093E8008091130BF9
:10157000811147C08091120B81111FC0E091160BA1
:10158000F0E0EE0FFF1FE85EF44F0190F081E02DD8
:10159000F093110BE093100B21812093130B822FFA
:1015A00090E0CF9636E0969587953A95E1F72F73C0
:1015B00009F48F5F8093120B24C0813011F5809164
:1015C000E8008F778093E8008FB78A83F894809142
:1015D000160B843019F41092160B03C08F5F8093A2
:1015E000160B8091150B81508093150B8091140B75
:1015F0008F5F8093140B8A8145C08091E80085FF3E
:1016000017C0E091100BF091110B80818093F100D5
:101610008091100B9091110B01969093110B809378
:10162000100B8091130B81508093130B8111E5CF28
:101630008091120B81508093120B8091E8008F777C
:101640008093E8008091130B81111DC08091120BD3
:10165000811119C08FB78983F8948091160B84305B
:1016600019F41092160B03C08F5F8093160B8091B4
:10167000150B81508093150B8091140B8F5F809315
:10168000140B89818FBF0F900F90DF91CF91089538
:101690001F920F920FB60F9211240BB60F922F9339
:1016A0003F934F935F936F937F938F939F93AF93EA
:1016B000BF93EF93FF9386B3856086BB28988FE82E
:1016C0008EBD0DB407FEFDCF8EB58EBD0DB407FEE9
:1016D000FDCF8EB5289AE091550CF091560C3097BD
:1016E00009F00995FF91EF91BF91AF919F918F9173
:1016F0007F916F915F914F913F912F910F900BBE12
:101700000F900FBE0F901F9018951F920F920FB65B
:101710000F9211248F939F9380916B1290916C1272
:10172000019690936C1280936B129F918F910F9002
:101730000FBE0F901F9018951F920F920FB60F9229
:1017400011240BB60F922F933F934F935F936F9398
:101750007F938F939F93AF93BF93EF93FF9380916A
:10176000171190911811892B31F480916F008D7FA2
:1017700080936F003CC080911311909114110097D9
:1017800079F0019790931411809313118091840044
:10179000909185000197909389008093880027C0DD
:1017A0008091111190911211009779F0209184008D
:1017B00030918500820F931F909389008093880059
:1017C000109212111092111112C080916F008D7F32
:1017D00080936F00E0911711F0911811809115110D
:1017E0009091161109951092181110921711FF91EE
:1017F000EF91BF91AF919F918F917F916F915F9189
:101800004F913F912F910F900BBE0F900FBE0F90F5
:101810001F9018951F920F920FB60F9211248F935D
:101820009F9380910F119091101101969093101138
:1018300080930F1180918400909185008659974E76
:1018400090938B0080938A009F918F910F900FBE91
:101850000F901F9018957F928F929F92AF92BF9298
:10186000CF92DF92EF92FF920F931F93CF93DF936C
:10187000122FD32EC42EB52EA62E972E882E792E5B
:101880001092530C1092520C1092510C1092300B7B
:1018900010922F0B10922E0B1092191110922D0BEB
:1018A00010922C0B10922B0B809165008F778093F8
:1018B00065008DE0E82E81E0F82EC0E0D0E0212F19
:1018C0003D2D4C2D5B2D6A2D792D882D972D0C2FBC
:1018D0000E948F33A22FA295AF70AA3010F4A05DA2
:1018E00001C0A95CB0E0F701B383A283E22FEF70DF
:1018F000EA3010F4E05D01C0E95CF0E0D701159634
:10190000FC93EE9314972896B4E0EB0EF11CC033D1
:10191000D105A9F68091D7008F7B8093D700809165
:10192000D70080688093D7008091D8008069809329
:10193000D8008091D8008F7B8093D8008091D80008
:1019400081608093D800DF91CF911F910F91FF901C
:10195000EF90DF90CF90BF90AF909F908F907F904F
:101960000895E8EDF0E080818F768083E5E6F0E091
:1019700080818068808308958091D7008160809302
:10198000D7008EE089BD09B400FEFDCF8091D8005C
:101990008F7D8093D8008091E20081608093E20087
:1019A0008091E20088608093E2000E94A4138091FD
:1019B000E0008E7F8093E0001092530C0895809198
:1019C000D90080FF11C08091530C81110DC081E0BE
:1019D0008093530C8091E20088608093E2008091B4
:1019E000E0008E7F8093E0008091520C882349F0C4
:1019F00081E08093EA001092EA001092510C10925C
:101A0000520C1092E9008091E80083FD0E940714B7
:101A100080912E0B882309F447C080912D0B809371
:101A2000E9008091E80082FF3FC08091E8008B7F51
:101A30008093E8002091F20080912F0B9091300B61
:101A4000820F911D8132914010F4322F06C0109206
:101A50002E0B81E0809319110895332389F0809132
:101A60002F0B9091300B4091F100FC01EF5CF44F93
:101A7000408301969093300B80932F0B3150EDCF24
:101A80008091E8008F778093E800203450F6109220
:101A90002E0BE0912B0BF0912C0B61E37BE08091FE
:101AA0002F0B9091300B09940895CF93DF931F92E1
:101AB000CDB7DEB7FC01892B11F180912E0B81117E
:101AC0001CC080818823D9F08FB78983F8948081E6
:101AD00080932D0B8181928190932C0B80932B0B03
:101AE0001092300B10922F0B81E080932E0B1092EE
:101AF000191189818FBF80E003C081E001C082E0BD
:101B00000F90DF91CF910895CF93DF931F92CDB7C0
:101B1000DEB78FB78983F89410922E0B89818FBF1F
:101B20000F90DF91CF910895CF93DF931F92CDB7A0
:101B3000DEB78FB78983F89481E080932E0B1092E3
:101B400019111092300B10922F0B89818FBF0F90BB
:101B5000DF91CF9108958093E9008091E80080FFA4
:101B600040C0862F90E0CF9626E0969587952A95DF
:101B7000E1F7282F362F3F7319F421E0280F03C017
:101B8000862F613408F080E49091E8009E7F909366
:101B9000E800982FFA01992329F031913093F10050
:101BA0009150F9CF480F511D60548091E8008F7714
:101BB0008093E800603410F4862F01C080E4215047
:101BC000EFEFFFEF9091E80090FD07C0309719F418
:101BD000769881E008953197F5CF2111D5CF80E037
:101BE000089584E008956623A9F18093E9008FEFBA
:101BF0009091E80090FD06C0811102C084E0089534
:101C00008150F6CF8091E8008E7F8093E800FA0142
:101C1000460F81918093F1004E13FBCF8091E80035
:101C20008F778093E800603499F48FEF9091E8000B
:101C300090FD04C0882311F38150F8CF8091E80013
:101C40008E7F8093E8008091E8008F778093E80092
:101C500080E0089581E008951F920F920FB60F92D1
:101C600011240BB60F922F933F934F935F936F9373
:101C70007F938F939F93AF93BF93EF93FF93809145
:101C8000DA0080FF19C08EEF8093DA008091D900CE
:101C900080FF10C081E08093530C8091E200886047
:101CA0008093E2000E94BC0C8091E0008E7F8093C4
:101CB000E00002C01092530C8091DA0081FF05C051
:101CC0008DEF8093DA008091D9008091E10082FF4E
:101CD00003C08BEF8093E1008091E10080FF10C092
:101CE0008EEF8093E1008091E20080618093E200BA
:101CF0008FEE8093E1008091D80080628093D800BD
:101D00008091E10084FF0DC08091D8008F7D809389
:101D1000D8008FEE8093E1008091E2008F7E809367
:101D2000E2008091E10085FF0DC08091E2008F7E8E
:101D30008093E2008FED8093E1008091E2008F7D3F
:101D40008093E2008091E10083FF08C087EF8093D9
:101D5000E1000E94A41381E08093520CFF91EF9167
:101D6000BF91AF919F918F917F916F915F914F91B3
:101D70003F912F910F900BBE0F900FBE0F901F90B1
:101D80001895E4E6F0E080818F77808380E280938D
:101D9000B800E9EBF0E08081808381E00895E4E61B
:101DA000F0E0808180688083089594EA9093BC007D
:101DB0009FEF2091BC0027FD02C09150D1F7909178
:101DC000B900987F983039F590EA9093BB009091D4
:101DD000BC0090689093BC009FEF2091BC0027FD51
:101DE00002C09150D1F79091B900987F983199F441
:101DF0008093BB008091BC0080688093BC008FEF13
:101E00009091BC0097FD02C08150D1F78091B9003C
:101E1000887F883229F084E98093BC0080E00895AF
:101E20006093BB008091BC0080688093BC008FEF02
:101E30009091BC0097FD02C08150D1F79091B900FC
:101E4000987F81E0983209F080E094E99093BC009B
:101E5000089580E008956115710509F484C094EA3D
:101E60009093BC009FEF91502091BC0027FD02C0D1
:101E70009111F9CF2091B900287F283011F080E02E
:101E80006BC09923E1F390EA9093BB0094E89093A0
:101E9000BC009FEF91502091BC0027FD02C0911122
:101EA000F9CF2091B900287F283149F7992339F3D8
:101EB0008093BB0084E88093BC008FEF81509091A9
:101EC000BC0097FD02C08111F9CF9091B900987FB5
:101ED0009832A9F6882399F284EA8093BC008FEFA8
:101EE00081509091BC0097FD02C08111F9CF909173
:101EF000B900987F903119F6882309F281EA80931E
:101F0000BB0084E88093BC008FEF81509091BC00AF
:101F100097FD02C08111F9CF9091B900987F90345C
:101F200009F0ADCF882309F4AACF84E88093BC00E0
:101F30008FEF81509091BC0097FD02C08111F9CFC5
:101F40009091B900987F983511F0811198CF8091C8
:101F5000BB00FB01808381E094E99093BC0090E892
:101F60009093BC00089580E008956115710509F40F
:101F70008EC04115510509F48AC094EA9093BC00C3
:101F80009FEF91502091BC0027FD02C09111F9CF25
:101F90002091B900287F283039F084E98093BC0073
:101FA00080E88093BC0073C09923B9F390EA9093C2
:101FB000BB0094E89093BC009FEF91502091BC002F
:101FC00027FD02C09111F9CF2091B900287F283157
:101FD00021F7992311F38093BB0084E88093BC0020
:101FE0008FEF81509091BC0097FD02C08111F9CF15
:101FF0009091B900987F983281F6882371F284EA33
:102000008093BC008FEF81509091BC0097FD02C07F
:102010008111F9CF9091B900987F903109F0BDCF2F
:10202000882309F4BACF81EA8093BB0084E88093C7
:10203000BC008FEF81509091BC0097FD02C08111D0
:10204000F9CF9091B900987F903409F0A6CF8823FA
:1020500009F4A3CF24EC2093BC008FEF8150909122
:10206000BC0097FD02C08111F9CF9091B900987F13
:10207000903509F092CF882309F48FCF8091BB006F
:10208000FA018193AF016150710929F786CF80E091
:1020900008950F931F93CF93DF931F92CDB7DEB7B1
:1020A0000E94C10E182F811103C00E94CF0E1FC0C5
:1020B00080E090E00E94CF33082F8FEF8983BE012C
:1020C0006F5F7F4F80E00E942B0F89818F3F11F45B
:1020D00082E005C00F3F31F40E94CF0E81E0809373
:1020E000540C05C00E94CF0E1092540C10E0812FAA
:1020F0000F90DF91CF911F910F9108958091540C13
:10210000823011F40E94CF0E1092540C0895CF9398
:10211000DF931F92CDB7DEB78FEF89838091540C88
:10212000823039F4BE016F5F7F4F81E00E942B0F38
:1021300007C0813029F481E090E00E94CF33898389
:1021400089810F90DF91CF910895CF93DF931F92F4
:10215000CDB7DEB78FEF89838091540C823031F494
:10216000BE016F5F7F4F0E942B0F07C0813029F4A3
:1021700082E090E00E94CF33898389810F90DF91C4
:10218000CF910895CF93DF931F92CDB7DEB78FEF36
:1021900089838091540C823039F4BE016F5F7F4F88
:1021A00083E00E942B0F07C0813029F483E090E088
:1021B0000E94CF33898389810F90DF91CF91089559
:1021C000CF93DF93CDB7DEB728970FB6F894DEBF75
:1021D0000FBECDBF19821A821B821C821D821E82F5
:1021E0001F8218868091540C823089F5BE01685F89
:1021F0007F4F84E00E942B0FBE01695F7F4F85E017
:102200000E942B0FBE016A5F7F4F86E00E942B0F5A
:10221000BE016B5F7F4F87E00E942B0FBE016C5F9A
:102220007F4F88E00E942B0FBE016D5F7F4F89E0DA
:102230000E942B0FBE016E5F7F4F8AE00E942B0F22
:10224000BE016F5F7F4F8BE00E942B0F2AC0813051
:1022500041F584E090E00E94CF33888785E090E0EC
:102260000E94CF338F8386E090E00E94CF338E832D
:1022700087E090E00E94CF338D8388E090E00E9459
:10228000CF338C8389E090E00E94CF338B838AE048
:1022900090E00E94CF338A838BE090E00E94CF339E
:1022A000898329813A814B815C816D817E818F8117
:1022B000988528960FB6F894DEBF0FBECDBFDF918C
:1022C000CF910895CF93DF931F92CDB7DEB78FEFF5
:1022D00089838091540C823039F4BE016F5F7F4F47
:1022E0008CE00E942B0F07C0813029F48CE090E035
:1022F0000E94CF33898389810F90DF91CF91089518
:10230000CF93DF9300D0CDB7DEB71A8219828091C8
:10231000540C823069F4BE016F5F7F4F8DE00E94E4
:102320002B0FBE016E5F7F4F8CE00E942B0F0CC005
:10233000813051F48DE090E00E94CF3389838CE0AE
:1023400090E00E94CF338A8389819A810F900F9009
:10235000DF91CF910895CF93DF931F92CDB7DEB772
:102360008FEF89838091540C823039F4BE016F5F06
:102370007F4F8EE00E942B0F07C0813029F48EE042
:1023800090E00E94CF33898389810F90DF91CF91B4
:102390000895EF92FF920F931F93CF93DF93EB017A
:1023A000BA012091540C222309F12097F9F041152C
:1023B0005105E1F0223049F4AE01DF91CF911F9138
:1023C0000F91FF90EF900C94B50F8E01040F151F25
:1023D0007C01EC1AFD0ACE018E0D9F1D0E94CF33A9
:1023E0008993C017D107B9F781E001C080E0DF9180
:1023F000CF911F910F91FF90EF900895EF92FF9270
:102400000F931F93CF93DF938A012091540C2223C3
:1024100001F161157105E9F0452BD9F0223051F435
:10242000AB01B801DF91CF911F910F91FF90EF9019
:102430000C94290FEB017C01E61AF70ACE018E0DF0
:102440009F1D69910E94D73301501109B9F781E0AE
:1024500001C080E0DF91CF911F910F91FF90EF902D
:1024600008951092560C1092550C249A259A269A8B
:10247000E4E6F0E080818B7F808384B1876084B95B
:1024800085B1836085B980E58CBD81E08DBD0895FF
:10249000E4E6F0E08081846080830895CF93DF9349
:1024A0001F92CDB7DEB780689FB79983F8942898BC
:1024B0008EBD0DB407FEFDCF8EB51EBC0DB407FE5C
:1024C000FDCF8EB5289A99819FBF0F90DF91CF9154
:1024D0000895CF93DF931F92CDB7DEB7806C9FB77F
:1024E0009983F89428988EBD0DB407FEFDCF8EB564
:1024F0006EBD0DB407FEFDCF8EB5289A89818FBFC2
:102500000F90DF91CF910895CF93DF9300D0CDB797
:10251000DEB74A8369830E944E126981862390E068
:102520004A8102C0959587954A95E2F70F900F90E2
:10253000DF91CF9108951F93CF93DF9300D01F9227
:10254000CDB7DEB7182F2B834A8369830E944E12C2
:102550006981962F909589232B814A8101C0220F92
:102560004A95EAF72623682F622B812F0F900F9050
:102570000F90DF91CF911F910C946912CF93DF934D
:102580001F92CDB7DEB79FB79983F894289890E64D
:102590009EBD0DB407FEFDCF9EB58EBD0DB407FEEA
:1025A000FDCF9EB5FB01680F81918EBD0DB407FE76
:1025B000FDCF8EB56E13F8CF289A89818FBF0F900B
:1025C000DF91CF910895CF93DF931F92CDB7DEB700
:1025D0009FB79983F894289890E69EBD0DB407FEA6
:1025E000FDCF9EB58EBD0DB407FEFDCF9EB5FB01A0
:1025F000680F84918EBD31960DB407FEFDCF8EB568
:102600006E13F7CF289A89818FBF0F90DF91CF91FA
:102610000895CF93DF931F92CDB7DEB79FB799830D
:10262000F894289890E29EBD0DB407FEFDCF9EB5AC
:10263000FB019083860F1EBC0DB407FEFDCF9EB537
:1026400091938E13F8CF289A89818FBF0F90DF91D5
:10265000CF910895CF93DF931F92CDB7DEB72FB7F9
:102660002983F8949093560C8093550C89818FBFE1
:102670000F90DF91CF910895CF93DF931F92CDB745
:10268000DEB78FB78983F8948091550C9091560CE2
:1026900029812FBF0F90DF91CF910895CF93DF93C2
:1026A0001F92CDB7DEB78FB78983F8941092560C7E
:1026B0001092550C89818FBF0F90DF91CF910895B3
:1026C000EBEEF0E09081916090838093EC00EDEE72
:1026D000F0E080818270682B6083808182608083DB
:1026E0008091EE00881F8827881F08958091F4004C
:1026F00080E008958093E9008091E80085FF09C09B
:10270000442339F0FB018191BF018093F1004150D6
:10271000F3CF842F08958093E9008091E80085FF2E
:1027200009C0442339F08091F100FB018193BF017E
:102730004150F3CF842F08958093E900EBEEF0E051
:1027400080818062808308958091D8008F7B809300
:10275000D8008091D90081FF0CC01092E9008091CF
:10276000EB0080FD06C01092E90060E382E00C946B
:10277000601380E0089580E00895CF93DF93C9EE61
:10278000D0E084E0888360E381E80E94601382E007
:10279000888360E380E80E94601381E0888364E3BB
:1027A00081E8DF91CF910C946013833021F5613083
:1027B00089F050F06230A1F06330E9F48CE180934D
:1027C0001D118DE091E011C084E080931D1189E01E
:1027D00091E00BC08CE080931D118FE391E005C068
:1027E00086E180931D1189E291E090931F118093FF
:1027F0001E1181E0089580E00895E9E5FCE0108273
:10280000118212821092570C10921C11089580911F
:10281000F1008093580C9091F100492F50E04B301B
:10282000510508F095C1FA01EC58FF4F0C947D3327
:10283000803809F088C010925C0C6091F1008091A2
:10284000F100813041F0823081F487E280931D11E4
:102850008BE491E005C082E180931D1182E791E055
:1028600090931F1180931E1105C00E94D5138823D9
:1028700009F473C18091F1008091F1008091F10021
:102880002091F10090E0922B2091E800277F209387
:10289000E80020911D11422F50E04817590748F4D5
:1028A0002F7321F481E080935C0C18C010925C0CB3
:1028B00015C080931D1112C08091E80082FD2CC0CC
:1028C0008091E80080FFFCCF81E490911D1191116F
:1028D0000AC08091E8008E7F8093E80080911D11EE
:1028E0008111EACF19C08150A1F3E0911E11F0913E
:1028F0001F1190819093F10020911E1130911F11B2
:102900002F5F3F4F30931F1120931E1190911D1187
:10291000915090931D11D9CF8091E8008E7F8093C4
:10292000E8008091E80082FDF4C080915C0C88236F
:1029300029F08091E8008E7F8093E8008091E80084
:1029400082FFFCCFE6C066E001C18038C1F480910F
:10295000E800877F8093E80080911C118093F1004C
:102960008091E8008E7F8093E8008091E8008F7767
:102970008093E8008091E80082FFFCCFCAC068E045
:10298000E5C081111DC09091F1008091E3009F7717
:102990008078892B8093E3008091E800877F809383
:1029A000E8008091E8008E7F8093E8008091E80045
:1029B00080FFFCCF8091E30080688093E30008955E
:1029C00065E0C4C0811113C09091F100923008F00D
:1029D000C4C08091E800877F8093E80090931C1129
:1029E0008091E8008E7F8093E8000C94BD1369E02D
:1029F000ADC0833088F5882309F4AFC0813009F475
:102A0000ACC08091F1008111A8C0E091F100EF7796
:102A1000E093E9008091EB0080FF9FC0EE23A9F0D6
:102A20008091EB0080618093EB0081E090E00E2EBE
:102A300001C0880F0A94EAF78093EA001092EA0036
:102A40008091EB0088608093EB001092E900F0E049
:102A5000E75AF34F108225C061E078C0833050F50B
:102A6000813009F47AC0823009F081C08091F10090
:102A7000811173C0E091F100EF7709F46EC0E0932B
:102A8000E9008091EB0080FF68C08091EB008062DC
:102A90008093EB001092E900F0E0E75AF34F81E0F9
:102AA00080838091E800877F8093E8008091E80030
:102AB0008E7F5BC063E04AC090E8980F933090F53A
:102AC0009091F1009091F100E091F100813811F0C6
:102AD000823841F08091E800877F8093E80010926F
:102AE000F1000CC08091E800877F8093E800EF77C9
:102AF000F0E0E75AF34F80818093F1001092F100EB
:102B00008091E8008E7F8093E8008091E80082FF4A
:102B1000FCCF8091E8008B7F8093E8008091E800F3
:102B20008F7723C060E012C0813879F48091F10082
:102B30008091F1008091F1002091F10090E0922BC2
:102B400090931B1180931A1108C06AE00C94BB1378
:102B5000692F0E94BB1381110AC08091EB00806233
:102B60008093EB008091E800877F8093E8000895D0
:102B700010922011109233111092341110923511CD
:102B8000109236111092371110923811109239119B
:102B900010923A118FEF9FEF909328118093271195
:102BA00020912B112093231190932A1180932911A6
:102BB00090933C1180933B111092211184EF91E08E
:102BC00090932511809324118BE08093261110920D
:102BD00022110895CF93DF93EC010E941E268823D3
:102BE00049F0D0932A11C0932911CE010E944D269D
:102BF00080E001C088EEDF91CF910895CF93DF93FD
:102C0000EC010E941E26882349F0D0933C11C0930A
:102C10003B11CE010E94622680E001C088EEDF9168
:102C2000CF910895CF93C82F0E941E26811102C014
:102C300088EE08C08C2F0E944C278823C9F3C093CC
:102C4000261180E0CF9108950F931F93CF93DF93C8
:102C500000D0CDB7DEB79C01042F909184019B7FFB
:102C600031F52F3F8FEF380711F185EF860F803157
:102C7000F0F4C9016A830E94EA15182F6A81811154
:102C800016C0862F0E944C27882389F000932211BA
:102C9000802F0E94A22681E0809321118FB7898323
:102CA000F89485E08093840189818FBF03C00E94DE
:102CB000FD2518EE812F0F900F90DF91CF911F917E
:102CC0000F9108950E94362686E10C94DF26CF935B
:102CD000DF9300D0CDB7DEB7EFB7EA83F894E1E039
:102CE000E0938401EA81EFBF20932B1130932C11E4
:102CF00040932D1150932E1160932F11709330112A
:102D000080933111909332111092060D1092050D9F
:102D10001092040D1092030D1092020D1092010DED
:102D20001092000D1092FF0C1092FE0C1092FD0CF0
:102D30001092FC0C1092FB0C81E00E949F228823D1
:102D400049F08FB78983F8941092840189818FBFED
:102D500081E001C080E00F900F90DF91CF91089546
:102D60000E9418261092060D1092050D1092040D67
:102D70001092030D1092020D1092010D1092000D91
:102D80001092FF0C1092FE0C1092FD0C81E08093CB
:102D9000840108958091050D9091060D0895CF93BB
:102DA000DF931F92CDB7DEB78FB78983F894109267
:102DB000060D1092050D89818FBF0F90DF91CF9185
:102DC0000895CF93DF931F92CDB7DEB72FB7298336
:102DD000F8949093060D8093050D89818FBF0F9015
:102DE000DF91CF9108958091030D9091040D089586
:102DF000CF93DF931F92CDB7DEB78FB78983F89457
:102E00001092040D1092030D89818FBF0F90DF91F6
:102E1000CF910895CF93DF931F92CDB7DEB72FB731
:102E20002983F8949093040D8093030D89818FBFBB
:102E30000F90DF91CF9108958091010D9091020D37
:102E40000895CF93DF931F92CDB7DEB78FB78983F5
:102E5000F8941092020D1092010D89818FBF0F908E
:102E6000DF91CF910895CF93DF931F92CDB7DEB757
:102E70002FB72983F8949093020D8093010D8981D7
:102E80008FBF0F90DF91CF9108958091FF0C9091AB
:102E9000000D0895CF93DF931F92CDB7DEB78FB7A4
:102EA0008983F8941092000D1092FF0C89818FBFD6
:102EB0000F90DF91CF910895CF93DF931F92CDB7FD
:102EC000DEB72FB72983F8949093000D8093FF0C01
:102ED00089818FBF0F90DF91CF9108958091FD0C74
:102EE0009091FE0C0895CF93DF931F92CDB7DEB77C
:102EF0008FB78983F8941092FE0C1092FD0C898193
:102F00008FBF0F90DF91CF910895CF93DF931F92E2
:102F1000CDB7DEB72FB72983F8949093FE0C80933A
:102F2000FD0C89818FBF0F90DF91CF910895809123
:102F3000FB0C9091FC0C0895CF93DF931F92CDB7BB
:102F4000DEB78FB78983F8941092FC0C1092FB0CBB
:102F500089818FBF0F90DF91CF910895CF93DF9339
:102F60001F92CDB7DEB72FB72983F8949093FC0C4E
:102F70008093FB0C89818FBF0F90DF91CF910895D3
:102F8000CF93FC01C0816AE77CE082E08C0F0E9455
:102F9000CF26811103C0CF910C946216EC2FF0E084
:102FA000E658F34F81818093790C20917B0C8091BE
:102FB0007C0C30E0382B23FDEECF922F97709330AE
:102FC00011F0923040F790935D0C832F8695869593
:102FD000837080935F0CA90144E0549F412D5527D5
:102FE000112440936A0C811103C04115510599F2D7
:102FF00060917D0C60935E0C1092620C1092630CD9
:103000001092640C1092650C1092660C1092670C72
:103010001092680C1092690C882309F441C0823028
:1030200091F460917E0C70917F0C7093610C6093B1
:10303000600C6091800C7091810C7093630C6093B4
:10304000620C88E02EC0833009F0A5CF60917E0C21
:1030500070917F0C7093610C6093600C8091800C78
:103060008093620C8091810C8093630C8091820C20
:103070008093640C8091830C8093650C8091840C08
:103080008093660C8091850C8093670C8091860CF0
:103090008093680C8091870C8093690C8EE001C04E
:1030A00084E010926D0C10926E0C10926F0C1092C6
:1030B000700C1092710C1092720C1092730C109292
:1030C000740C41155105A9F126FD0BC0E82FF0E065
:1030D000E658F34F2081318130936C0C20936B0CB8
:1030E0008E5FE82FF0E0E658F34F4230510541F48F
:1030F0002081318130936E0C20936D0C8E5F19C04E
:10310000208120936D0C218120936E0C22812093CD
:103110006F0C23812093700C24812093710C2581E6
:103120002093720C26812093730C27812093740CBA
:10313000885F933049F4E82FF0E0E658F34F2081A0
:103140002093750C8F5F02C01092750C282F30E011
:103150002658334F3093770C2093760CC150C81B00
:10316000C093780C913041F0933019F489E89DE1D7
:1031700005C086E09CE102C080E490E26DE57CE061
:103180000E940A29882309F406CFCF9108950F934E
:103190001F93CF93DF93D82F8B010E941E2681119E
:1031A00002C0C0E00AC089E10E94DF26C82F882340
:1031B000C1F3B8018D2F0E94AC268C2FDF91CF91E7
:1031C0001F910F910895E09184014E2F50E0FA0174
:1031D0003297EE30F10590F4E158FF4F0C947D33B7
:1031E0000C940C200C943E1A0C94E81B0C94AD210A
:1031F0000C946F220C94B4240C946A1D80912111BC
:1032000081110C9462160C94FD251F93CF93DF93CC
:103210001F92CDB7DEB7182F0E946E17FC01892BC5
:1032200091F010931B0D87E09DE009950E943626D2
:1032300086E10E94DF268FB78983F89485E080932A
:10324000840189818FBF0F90DF91CF911F910895E5
:103250000F931F93CF93DF9300D0CDB7DEB72091AC
:1032600084012111CEC0009709F4CBC0FC01258553
:1032700036852115310509F4C4C0AC01415F5F4FAB
:1032800050933A0D4093390D3093380D2093370DFC
:1032900020812B50203108F0B4C0228133812F3F90
:1032A0003F4F09F4AEC0FC0121813EEF320F3230B6
:1032B00008F0A7C0223041F4448155815093281171
:1032C0004093271138EC1AC0FC01A481B581168106
:1032D00077816085518542853385A0933311B09302
:1032E0003411109335117093361160933711509348
:1032F00038114093391130933A113CEC43E240933A
:103300006511309366113091231141E0430F4093D2
:10331000231130936711FC0142815381509369114D
:1033200040936811223041F42481358130936B1130
:1033300020936A1127E00AC028E0FC013496AAE62F
:10334000B1E101900D922A95E1F72DE08C01E22F79
:10335000F0E0EB59FE4E8FEF8083E1E0E20FF0E00A
:10336000EB59FE4E8083E2E0E20FF0E0EB59FE4EB7
:1033700080912B11808380912C11818380912D115C
:10338000828380912E11838380912F118483809179
:10339000301185838091311186838091321187832A
:1033A000EAE0E20FF0E0EB59FE4E81E08083F801A5
:1033B0008485EBE0E20FF0E0EB59FE4E8083F801EC
:1033C000828193812A830E94EA15811118C0F80135
:1033D00080810E944C272A81882389F065E671E16B
:1033E0008EE0820F0E94C718882349F09FB7998307
:1033F000F89496E09093840199819FBF03C00E9446
:10340000FD2580E00F900F90DF91CF911F910F91DC
:1034100008950F931F93CF93DF9300D01F92CDB7E2
:10342000DEB78B019FB7882331F09A83F89410920E
:1034300084019A8106C09983F89494E09093840162
:1034400099819FBF8B830E94FD25A091390DB0917A
:103450003A0D8B8112968C93129711961C930E93B2
:10346000E091370DF091380DCD0109950F900F9037
:103470000F90DF91CF911F910F910895CF93DF931C
:1034800000D01F92CDB7DEB7FC018081823040F5BD
:1034900080918401883079F486E10E94DF268111D1
:1034A00002C081EE24C08FB78A83F89489E08093AC
:1034B00084018A8107C08FB78983F89487E080935D
:1034C000840189818FBF20E030E045E85AE160E067
:1034D00070EF80E090E00E948732882311F30FC0E4
:1034E000853021F08330E9F28BEE01C089EE8B83C9
:1034F0000E94DC326FEF7FEF8B810E94091A0F90E0
:103500000F900F90DF91CF910895CF93DF9300D06C
:10351000CDB7DEB780918401873009F04CC083E2DB
:103520008093651180EC809366118091231191E066
:10353000980F909323118093671190912911809196
:103540002A11909368118093691180912B118093B7
:103550006A1180912C1180936B1180912D118093B1
:103560006C1180912E1180936D1180912F11809399
:103570006E118091301180936F1180913111809381
:103580007011809132118093711184E080937211D7
:1035900065E671E180E10E94C718811104C06FEFF8
:1035A0007FEF81EF0DC08FB78983F89488E0809317
:1035B0008401898116C0893031F46FEF7FEF89EE85
:1035C0000E94091A0FC08C3021F480EF0E94051967
:1035D00009C00E94FD258FB78A83F8941092840158
:1035E0008A818FBF0F900F90DF91CF910895DF9266
:1035F000EF92FF920F931F93CF93DF931F92CDB75C
:10360000DEB720918401253009F0AAC0009709F4A3
:10361000A7C023E620931C0D2CEC20931D0D2091B8
:10362000231131E0320F3093231120931E0D0091AE
:10363000291110912A111093200D00931F0D28E0DD
:10364000FC01A1E2BDE001900D922A95E1F7D09036
:103650002B11F0912C11E0912D1170912E11609190
:103660002F11509130114091311130913211D0927F
:10367000290DF0932A0DE0932B0D70932C0D609380
:103680002D0D50932E0D40932F0D3093300D22E0D1
:103690002093310DDC011896ED90FC901997F09273
:1036A000330DE092320D1A962C911A972093340D17
:1036B0001093080D0093070D23E02093090DD0927D
:1036C0000A0DF0930B0DE0930C0D70930D0D6093AC
:1036D0000E0D50930F0D4093100D3093110D20934C
:1036E000120DEC9111967C91119712966C91129794
:1036F00013965C91139714964C91149715963C91E0
:10370000159716962C91169717968C91E093130D9A
:103710007093140D6093150D5093160D4093170D73
:103720003093180D2093190D80931A0D8FB789834C
:10373000F8948CE08093840189818FBF20E030E091
:1037400045E85AE160E070EE81E090E00E94873247
:10375000182F811106C080E090E00E94851A01C0F8
:1037600010E0812F0F90DF91CF911F910F91FF906B
:10377000EF90DF9008951F93CF93DF931F92CDB703
:10378000DEB71FEF85E38A95F1F7000011500E9424
:10379000DA26893019F01111F5CF02C0111104C0D9
:1037A00081EE0E9405190FC06CE17DE08BE10E9463
:1037B000C7188823A9F38FB78983F8948BE0809387
:1037C000840189818FBF0F90DF91CF911F91089560
:1037D000FC018081882349F0853021F0833021F07D
:1037E0008BEE03C089EE01C081EE0C940519CF93D6
:1037F000DF93EC010E949717FC01CE01309711F086
:103800000995CE01DF91CF910C94A4282F923F927D
:103810004F925F926F927F928F929F92AF92BF92E0
:10382000CF92DF92EF92FF920F931F93CF93DF938C
:10383000CDB7DEB729970FB6F894DEBF0FBECDBF68
:1038400099878887FC017584709265114684578436
:103850005092671140926611709688E0A8E6B1E137
:1038600001900D928A95E1F7F0912611FF83F09374
:103870007011E885F985A18DB28D109272111092A8
:10388000711111968C91119790E0982F8827909341
:103890007211809371112C91822B909372118093ED
:1038A0007111848D8093731180918401823009F0AD
:1038B00064C08090451190904611D4011396F40194
:1038C000F281F983E0916811F0916911FB83F09125
:1038D0006A11FC8360906B11F0916C11FD83F09183
:1038E0006D11FE8330906E1120906F11F0E0898190
:1038F000F817B1F111968D919C91129748165906BF
:1039000061F58C91781229C01396AC901397149698
:10391000BC9014971596CC9015971696DC90169738
:103920001796EC9017971896FC90189719960C918B
:1039300019971A961C911A972E2F3B814C81562D60
:103940006D817E81832D922D0E94AB3331F41B96C5
:103950008C911B979F81981781F0FF5F1F96C7CFAF
:10396000F43058F48FE0E5E6F1E101900D928A958C
:10397000E1F7F40182818F5F8283E885F985838D89
:103980008823E9F08F0180E190E00E9462284C01D9
:10399000892BA9F0F8018181D4018D938FE0E5E6B0
:1039A000F1E101900D928A95E1F7B40187EF9BE177
:1039B0000E940A29811103C0C4010E94A428809199
:1039C0002111811104C0809184018230D9F486E1F3
:1039D00029960FB6F894DEBF0FBECDBFDF91CF9111
:1039E0001F910F91FF90EF90DF90CF90BF90AF901D
:1039F0009F908F907F906F905F904F903F902F900F
:103A00000C94DF2629960FB6F894DEBF0FBECDBF0B
:103A1000DF91CF911F910F91FF90EF90DF90CF90AA
:103A2000BF90AF909F908F907F906F905F904F90DE
:103A30003F902F900895CF93DF931F92CDB7DEB7BD
:103A400080913B1190913C118F3F2FEF920709F429
:103A50003DC01092651120E820936611209123113A
:103A600031E0320F309323112093671130912911E7
:103A700020912A11309368112093691180936A1163
:103A800090936B1180912211882319F08FEF9FE69C
:103A900002C08FEF9FE22091201121119068909336
:103AA0006D1180936C1110926E1110926F1165E67A
:103AB00071E18DE00E94C718882341F08FB7898398
:103AC000F8948FE08093840189818FBF0F90DF91FC
:103AD000CF910895CF93DF931F92CDB7DEB786E1E4
:103AE0000E94DF268FB78983F89485E08093840154
:103AF00089818FBF0F90DF91CF91089585E38A95DB
:103B0000F1F700000E94DA268930C1F786E10C94B3
:103B1000DF26DF92EF92FF920F931F93CF93DF93F5
:103B20001F92CDB7DEB78C01DC0158968C918130A5
:103B300029F5809184018530F1F48091201188234A
:103B4000D1F00E94F3169C01892BA9F0F801709620
:103B500088E0A7E4B1E101900D928A95E1F7D801E0
:103B60005996ED91FC915A97808180934F1187E48B
:103B700091E1F90109950E947E1DFEC0833009F094
:103B800044C08091840184508230A8F70E941C17A1
:103B90009C01892B81F3F801709688E0A7E4B1E1DC
:103BA00001900D928A95E1F7D8015996ED91FC911B
:103BB0005A97808180934F1187E491E1F90109952B
:103BC00080918401843009F0D7C00E94FD251092B5
:103BD0003311109234111092351110923611109247
:103BE0003711109238111092391110923A118FEF4B
:103BF0009FEF90932811809327118FB78983F894B2
:103C00001092840189818FBFB7C0843051F48091B4
:103C100084018C3009F0AFCF0E94DC320E94BB1BC4
:103C2000ABC08630C9F480918401853009F0A3CF00
:103C30000E9445179C01892B09F49DCFF8017096CD
:103C400088E0A7E4B1E101900D928A95E1F787E45D
:103C500091E1F901099590C0873041F48091840188
:103C6000853009F088CF0E941B1D86C0883009F07E
:103C70004DC080918401823009F07DCF0E94DC32FA
:103C800028E040E06FE182E00E949B12D8015B9641
:103C90008C91873011F4F12C02C058EEF52EF8010A
:103CA000018D128DD80111968C91119790E0982F6B
:103CB00088272C91822B0E94EA15F801838190E0DD
:103CC000982F88272281822B909328118093271187
:103CD000868190E0982F88272581822B8F3FFFEFE8
:103CE0009F0711F00E94EA15D80114968C910E944A
:103CF00012166091451170914611FB01F08281E12D
:103D000093E20E940A29811137C035CF823009F031
:103D100032CF80918401893009F02DCF0E94DC32AE
:103D2000D8015996ED91FC915A97E180F12CFE2C27
:103D3000EE248081E82AD280C7010E94FE15F80196
:103D40008089809333118189809334118289809393
:103D50003511838980933611848980933711858941
:103D600080933811868980933911878980933A111D
:103D7000B7018D2D0E94091A0F90DF91CF911F91ED
:103D80000F91FF90EF90DF9008950F931F93CF93C3
:103D9000DF93EC010E94CA168C0185E38A95F1F746
:103DA00000000E94DA268930C1F70115110539F4A7
:103DB00086E1DF91CF911F910F910C94DF26CE0108
:103DC000F8010995CE01DF91CF911F910F910C94CD
:103DD000A428CF92DF92EF92FF920F931F93CF937D
:103DE000DF9300D0CDB7DEB78C01D09084018CEF8B
:103DF0008D0D823010F010E003C101151105D9F3CB
:103E0000D80156968D919C915797892BA1F358967E
:103E1000ED90FC905997E114F10469F3EC91EE23D5
:103E200021F08EEF8E0F823030F7D8011996FC9179
:103E3000FF2309F4DDC08EEF8F0F8230E0F6D8014A
:103E400054968C91B82FB170CB2E80FF25C0F230E4
:103E500019F5D8011C962C911C971D963C911D9725
:103E60001E964C911E971F965C911F9750966C91D1
:103E7000509751967C91519752968C9152975396A8
:103E80009C912F3F3F4F410551056105710581050B
:103E9000910509F0B1C0AFCFE13009F4ACCFF130FA
:103EA00009F4A9CFF0923C0DE0923B0DC8014A966F
:103EB00090933E0D80933D0DD0923F0DD8015596C5
:103EC0008C918150863608F096CFCC2019F041E2D3
:103ED00050E002C041E050E08E2F90E090E4899FD6
:103EE000902D882711242F2F30E0322F2227330FD7
:103EF000330F822B932B8064842B952B8093651139
:103F0000909366118091231191E0980F9093231163
:103F100080936711FF2301F1D8011A969C911A979B
:103F20001B968C919093681180936911F33059F42A
:103F300088E0F8013C96AAE6B1E101900D928A95DD
:103F4000E1F72DE00AC0F8018485958590936B1107
:103F500080936A1127E001C023E0D8018C91882367
:103F6000A9F0A22FB0E0AB59BE4E833049F488E0EF
:103F7000F801319601900D928A95E1F7285F06C00D
:103F8000F801818192818D939C932E5F822F90E026
:103F9000D80155964C91559750E056966D917C916D
:103FA00057978B599E4E2A830E946033F80185896A
:103FB0008E5F65E671E12A81820F0E94C718182F73
:103FC00081110DC00E94362680912111811103C0FC
:103FD0000E94FD2515C086E10E94DF2611C08FB723
:103FE0008983F89483E08093840189818FBF08C01E
:103FF000EE2309F400CF23CFE13009F053CFFBCEFD
:10400000812F0F900F90DF91CF911F910F91FF9013
:10401000EF90DF90CF900895CF93DF931F92CDB7AD
:10402000DEB7FC018081823020F0853021F091EEF6
:1040300003C090E001C099EEA0913D0DB0913E0DFE
:104040009C93E0913B0DF0913C0DCD010995809141
:104050002111811103C00E94FD2505C00E94362652
:1040600086E10E94DF268FB78983F89480913F0D07
:104070008093840189818FBF0F90DF91CF91089544
:104080000F931F93CF93DF938C01FC01838D90E0FE
:1040900046960E946228EC01892B79F4F5E3FA95A3
:1040A000F1F700000E94DA268930C1F786E1DF913E
:1040B000CF911F910F910C94DF26F801858588839D
:1040C00019821A821B821C821D821E821F82188600
:1040D000833049F488E07096DE01119601900D92CC
:1040E0008A95E1F705C0F801808991899A838983CF
:1040F0008A859B85F80194838383828189871C86C6
:104100001D861E861F86188A198A1A8A1B8A833082
:1041100049F488E03596DE011C9601900D928A954F
:10412000E1F705C0F801858196819D878C87F801AC
:10413000848D8C8B838D8D8B438D50E0618D728D42
:10414000CE0146960E946033BE0185EC9EE10E943E
:104150000A2981110CC0CE010E94A428F5E3FA952A
:10416000F1F700000E94DA268930C1F79FCFDF9176
:10417000CF911F910F9108952F923F924F925F928E
:104180006F927F928F929F92AF92BF92CF92DF9267
:10419000EF92FF920F931F93CF93DF931F92CDB7B0
:1041A000DEB7FC01909184019450923008F0BFC0BA
:1041B000218532852115310509F4B9C04F013093AD
:1041C0003E1120933D11CF010B96909340118093A7
:1041D0003F1183E2809365118CEC8093661180918E
:1041E000231191E0980F9093231180936711909180
:1041F000291180912A119093681180936911408050
:10420000518062807380B481A58136802780A09020
:104210003311B0903411C0903511D0903611E09028
:104220003711F09038110091391110913A11920123
:10423000A3016B2F7A2F832D922D0E94AB3341F077
:1042400088E0AAE6B1E101900D928A95E1F724C0D9
:1042500040926A1150926B1160926C1170926D11C4
:10426000B0936E11A0936F11309270112092711162
:1042700010923311109234111092351110923611A0
:1042800010923711109238111092391110923A1180
:104290008FEF9FEF0E94FE159091291180912A11B6
:1042A000909372118093731180912B1180937411EC
:1042B00080912C118093751180912D11809376112E
:1042C00080912E118093771180912F118093781116
:1042D00080913011809379118091311180937A11FE
:1042E0008091321180937B1183E080937C11F401E3
:1042F000808580937D1165E671E18BE10E94C7188E
:10430000982E81110BC080912111811103C00E9450
:10431000FD250EC086E10E94DF260AC08FB7898383
:10432000F8948DE08093840189818FBF01C0912C26
:10433000892D0F90DF91CF911F910F91FF90EF90FA
:10434000DF90CF90BF90AF909F908F907F906F90B5
:104350005F904F903F902F900895CF93DF9300D0C0
:10436000CDB7DEB7FC018081E0913F11F0914011A3
:10437000823010F4108206C0853011F489EE01C03D
:1043800081EE8083E0913D11F0913E1180913F11CB
:104390009091401109958091221181110AC00E94CB
:1043A000FD258FB78A83F894109284018A818FBF8C
:1043B0000BC08FB78983F89485E08093840189814D
:1043C0008FBF86E10E94DF260F900F90DF91CF9183
:1043D00008951F93CF93DF931F92CDB7DEB720913F
:1043E0008401253009F074C023E2209365112CEC80
:1043F000209366112091231131E0320F3093231165
:10440000209367112FEF209368112093691128E002
:10441000FC01AAE6B1E101900D922A95E1F73091F5
:10442000291120912A113093721120937311409118
:104430002B114093741140912C11409375114091B0
:104440002D114093761140912E1140937711409198
:104450002F11409378114091301140937911409180
:10446000311140937A114091321140937B1148E011
:1044700040937C1130937D1120937E1130913B113C
:1044800020913C1130937F112093801120912611AF
:1044900020938111FC0120852093821181858093D6
:1044A000831165E671E181E20E94C718182F81111E
:1044B00006C00E94362686E10E94DF260AC08FB71A
:1044C0008983F8948EE08093840189818FBF01C035
:1044D00010E0812F0F90DF91CF911F9108950F93DE
:1044E0001F93CF93DF931F92CDB7DEB78C010E944D
:1044F0006E17FC01892BE9F0D8019C91992349F0B2
:10450000953021F0933021F09BEE03C099EE01C06D
:1045100091EE9093540D80E49DE009958FB78983C7
:10452000F89485E08093840189818FBF86E10E94A1
:10453000DF260F90DF91CF911F910F9108951F9368
:10454000CF93DF931F92CDB7DEB7182F8FB7898334
:10455000F8941092840189818FBF0E948E25811169
:1045600004C00E94182680E034C011110E94B815C2
:1045700083EE98E10E94632780EC97E10E949927DF
:1045800023E046E060EC8EE20E949B1224E041E0D2
:104590006EE08CE20E949B1223E044E060EF8CE22C
:1045A0000E949B128BE291E10E947D2680913B113B
:1045B00090913C110E9462268091291190912A11BC
:1045C0000E944D2680912111811102C00E94FD257B
:1045D00081E00F90DF91CF911F9108958091840128
:1045E0008450823078F40E941E26882359F086E198
:1045F0000E94DF26811108C080912111811102C023
:104600000E94FD2588EE089580E008958091211193
:10461000811103C00E94FD2502C00E94362680E061
:1046200008950F931F93CF93DF931F92CDB7DEB7FB
:104630008C0180914111909142110E94EA1501155F
:10464000110569F0E0914311F0914411C8010995F9
:104650008FB78983F8941092840189818FBF0F905E
:10466000DF91CF911F910F9108950E94FD259091A8
:104670003712911106C0809136128F5F80933612E7
:104680000895A0914511B091461112968C91129700
:10469000811103C08AEE8C9301C01C928091E511B8
:1046A00024E0829FF0011124EA51FE4E21E133E221
:1046B00031832083B383A283833119F41092E511EF
:1046C00003C08F5F8093E5119150909337128091D2
:1046D000E4118F5F8093E4110895DF92EF92FF92CF
:1046E0000F931F93CF93DF9300D01F92CDB7DEB708
:1046F000FC0180918401811113C0309789F083817E
:104700009481892B69F0F080E280D1808EE08E1553
:1047100038F08F010E941E26811104C00E94FD25E1
:1047200080E017C18D2D0E9412168111F7CFF8017C
:104730008381948190934411809343113596F09333
:104740004611E0934511FF2059F3F1E0FF1253C0E9
:10475000A1E0B0E002C0AA0FBB1FEA94E2F71196F5
:1047600020EC33E00E94863360933D1170933E113C
:1047700080933F11909340118091291190912A11BB
:10478000909342118093411183E08093651188E0FA
:10479000809366118091231191E0980F90932311DB
:1047A000809367118FEF80936811809369118093D4
:1047B0006A1180936B1187E080936C118FEF9FEFEC
:1047C0000E94EA158111AACF65E671E18AE00E9494
:1047D000C718882309F4A2CF9FB79B83F89492E06F
:1047E000909384019B819FBFE0914511F091461108
:1047F000128291E049C082E0F81248C0A1E0B0E026
:1048000002C0AA0FBB1FEA94E2F7119620EC33E036
:104810000E94863360933D1170933E1180933F1147
:10482000909340118091291190912A1190934211F7
:10483000809341118FEF9FEF0E94EA1581116ECF97
:1048400086E10E94DF26882309F468CF60913D113C
:1048500070913E1180913F119091401120E030E025
:1048600045E353E20E948732882309F457CF9FB76C
:104870009A83F89492E0909384012A812FBFE0916B
:104880004511F09146111282918363C0E3E0FE125C
:1048900045CF80E098E7A0E0B0E080933D11909391
:1048A0003E11A0933F11B093401113E01093651196
:1048B00088EC809366118091231191E0980F90937A
:1048C0002311809367118FEF809368118093691192
:1048D00080936A1180936B1180936C1180936D119A
:1048E00080912B1180936E1180912C1180936F1108
:1048F00080912D118093701180912E1180937111F0
:1049000080912F11809372118091301180937311D7
:1049100080913111809374118091321180937511BF
:1049200086E08093761165E671E184E10E94C71804
:10493000882309F4F3CE9FB79983F89492E090937B
:10494000840199819FBFE0914511F0914611128237
:1049500011830F900F900F90DF91CF911F910F91C6
:10496000FF90EF90DF900895FC018081882321F073
:1049700080E090E00C94352386E10E94DF268823B6
:10498000B9F360913D1170913E1180913F1190916A
:10499000401120E030E045E353E20E948732882353
:1049A00039F3089583FFB9C08091590D811150C02A
:1049B0008091550D9091560D892B09F4AEC0289821
:1049C00080E28EBD0DB407FEFDCF8EB580935A0DEB
:1049D0008EBD0DB407FEFDCF8EB58F7780935A0D37
:1049E000289A80915A0D883008F497C0289882E858
:1049F0008EBD0DB407FEFDCF8EB58EBD0DB407FE86
:104A0000FDCF8EB5289A289892EC9EBD807E896055
:104A10000DB407FEFDCF9EB58EBD0DB407FEFDCFD4
:104A20008EB5289A90913712992309F452C080913B
:104A3000E51124E0829FF0011124EA51FE4E2091FD
:104A4000550D3091560D318320832AE53DE053C04A
:104A50001092590D289882E88EBD0DB407FEFDCF47
:104A60008EB5809385018EBD0DB407FEFDCF8EB54A
:104A700080938501289A809185018295869587701B
:104A800080938501289882E88EBD0DB407FEFDCF86
:104A90008EB58EBD0DB407FEFDCF8EB5289A289831
:104AA00092EC9EBD807E83600DB407FEFDCF9EB567
:104AB0008EBD0DB407FEFDCF8EB5289A2091570DFF
:104AC0003091580D2115310541F190913712911116
:104AD00006C0809136128F5F8093361208958091C0
:104AE000E51144E0849FF0011124EA51FE4E318328
:104AF000208325E831E033832283833119F4109237
:104B0000E51103C08F5F8093E511915090933712A8
:104B10008091E4118F5F8093E4110895CF938FEF1C
:104B20008093850110925A0D1092590D1092580DD4
:104B30001092570D1092560D1092550D0E94311281
:104B4000C82F811102C0C0E055C08BEF93E00197E0
:104B5000F1F700C000002E982D982C9890E19A95BE
:104B6000F1F72D9A8FE599E00197F1F700C0000069
:104B70008FE599E00197F1F700C0000023E040E0E5
:104B80006FE182E00E949B128BEF93E00197F1F7B7
:104B900000C0000040E06FE181E00E948412883094
:104BA00091F68DE10E944E12823069F68EE10E94EC
:104BB0004E128F3141F682ED94E20E942A1320E0DA
:104BC00043E068E083E00E949B1220E040E067E061
:104BD00083E00E949B1221E047E060E885E00E94AC
:104BE0009B126CE08EE00E94691280916F008062DF
:104BF00080936F008C2FCF9108951092590D1C99BE
:104C000016C040E06FE181E00E948412883041F4D8
:104C10002C9A8FE599E00197F1F700C00000089504
:104C200028E040E06FE182E00E949B12EACF089505
:104C30000E944E130E94FD250C9448121092590DAB
:104C40001C9B11C02C988FE99FE00197F1F700C0E1
:104C5000000040E06FE181E00E94841291E0883022
:104C600019F090E001C091E0892F08950E941E265E
:104C700023E040E06FE182E00E949B1240E06FE1A0
:104C800081E00E948412883099F710925A0D109298
:104C9000590D089580E090E00895CF93DF931F921F
:104CA000CDB7DEB7682F82E299830E94691299819D
:104CB000692F83E20F90DF91CF910C94691280E00D
:104CC00090E00895CF93DF931F92CDB7DEB7682FA2
:104CD00080E299830E9469129981692F81E20F9085
:104CE000DF91CF910C94691220E030E040E050E079
:104CF00060E070E080E090E00895CF93DF93EC01F6
:104D0000688184E20E946912698185E20E946912C9
:104D10006A8186E20E9469126B8187E20E946912B1
:104D20006C8188E20E9469126D8189E20E94691299
:104D30006E818AE20E9469126F818BE2DF91CF91CE
:104D40000C946912811102C020E001C021E043E00F
:104D500068E08EE20C949B12CF93DF931F92CDB745
:104D6000DEB78823B9F061157105A1F09FB799836B
:104D7000F8949091590D992319F089818FBF0AC039
:104D80002C9A2C9899819FBF0E94BE1281E080933B
:104D9000590D01C080E00F90DF91CF9108958823D5
:104DA00039F06115710521F00E94091381E0089521
:104DB00080E0089540E06FE181E00C948412CF938D
:104DC000DF931092590D98EF980F923038F0982F8A
:104DD0009F7E963019F0893109F055C01C9953C057
:104DE000C82F40E06FE181E00E948412D82F8F7EAF
:104DF0008150823008F447C0CD1709F446C0C8304E
:104E000059F42C9880E18A95F1F723E040E06FE1B6
:104E100082E00E949B122BC0C93161F4D631C1F4EB
:104E200029E040E06FE182E00E949B1282E08A95D7
:104E3000F1F70DC0C63161F4D93151F426E040E0FC
:104E40006FE182E00E949B1292E09A95F1F700C018
:104E50002C2F40E06FE182E00E949B12D83039F4A1
:104E600087E691E00197F1F700C0000004C092E0EE
:104E70009A95F1F700C040E06FE181E00E94841252
:104E800091E08C1719F090E001C091E0892FDF913B
:104E9000CF91089580E00895CF9395EF980F9031CA
:104EA00070F4C82F282F40E06FE188E00E949B1229
:104EB00040E06FE188E00E94841291E0C81390E026
:104EC000892FCF910895CF93DF931F92CDB7DEB78F
:104ED0002FB72983F8949093580D8093570D8981AB
:104EE0008FBF0F90DF91CF910895CF93DF931F92E3
:104EF000CDB7DEB78FB78983F8948091570D909125
:104F0000580D29812FBF0F90DF91CF910895CF9336
:104F1000DF931F92CDB7DEB78FB78983F8941092D5
:104F2000580D1092570D89818FBF0F90DF91CF914F
:104F30000895CF93DF931F92CDB7DEB72FB72983A4
:104F4000F8949093560D8093550D89818FBF0F90E3
:104F5000DF91CF910895CF93DF931F92CDB7DEB746
:104F60008FB78983F8948091550D9091560D2981C2
:104F70002FBF0F90DF91CF910895CF93DF931F92B2
:104F8000CDB7DEB78FB78983F8941092560D109283
:104F9000550D89818FBF0F90DF91CF9108951092A9
:104FA0005D0D10925C0D10925B0D81E00895AF9243
:104FB000BF92CF92DF92EF92FF920F931F93CF9306
:104FC000DF931F92CDB7DEB7F901009709F46DC0EA
:104FD000423008F46AC06230710508F466C02FB729
:104FE0002983F8948C01060F171FDC0120E0E42EC2
:104FF000F12C670131E0C31AD108A22EB12CAC14F8
:10500000BD044CF411961C930E93060F171F2F5FCF
:10501000A60FB71FF2CF1D921C927183608342834B
:10502000438395838483E69E9001E79E300DF69E30
:10503000300D112421503109280F391F3783268361
:105040009187808780915D0D811107C0138612863C
:10505000F0935C0DE0935B0D21C040915B0D50918E
:105060005C0D382FDA010D911C9111970617170767
:1050700060F41A962C911A971B969C911B973150AD
:10508000AD0129F0A22FB92FEECF2A2F9B2FDA01E5
:105090001B96FC93EE931A97228793878F5F8093DA
:1050A0005D0D89818FBF81E001C080E00F90DF91AD
:1050B000CF911F910F91FF90EF90DF90CF90BF9015
:1050C000AF900895CF93DF931F92CDB7DEB7AC01B9
:1050D000892BA1F180915D0D882381F18FB78983A0
:1050E000F894E0915B0DF0915C0D20915D0D90E0E6
:1050F0002223E1F091110FC060817181641775075F
:1051000018F08381811105C00284F385E02D2150C0
:10511000EFCF91E0EDCFA085B1858D919C91119756
:105120009187808783818150838304C09111F3CF5D
:10513000A0E0B0E089818FBFCD0102C080E090E0A7
:105140000F90DF91CF910895CF93DF931F92CDB74A
:10515000DEB70097A9F120915D0D222389F12FB7C9
:105160002983F894E0915B0DF0915C0D30915D0D19
:1051700020E0332399F0211113C0468157816481C7
:1051800075818617970718F04817590728F4028485
:10519000F385E02D3150EDCF21E0EBCF222371F0EC
:1051A00033812281321760F420853185DC012D9313
:1051B0003C939187808783818F5F838389818FBFB1
:1051C0000F90DF91CF9108951092E51183E18093C4
:1051D0005E0D1092E41184E1809337121092361222
:1051E00081E00895CF93DF931F92CDB7DEB78FB7DD
:1051F0008983F8941092E51183E180935E0D1092FB
:10520000E41184E18093371289818FBF0F90DF9181
:10521000CF910895CF93DF931F92CDB7DEB7209142
:105220003712222339F1E091E51124E0E29FF001E9
:105230001124EA51FE4E91838083738362838FB77A
:105240008983F8948091E511833119F41092E51166
:1052500003C08F5F8093E5118091E4118F5F80938D
:10526000E4118091371281508093371289818FBF6A
:1052700081E001C080E00F90DF91CF910895CF933E
:10528000DF931F92CDB7DEB78FB78983F8948091F3
:10529000E411811103C089818FBF26C090915E0DFA
:1052A000933119F410925E0D03C09F5F90935E0DD1
:1052B00081508093E411809137128F5F8093371271
:1052C00089818FBFA0915E0D84E0A89FD001112439
:1052D000AA51BE4EED91FC911197309729F012968C
:1052E0008D919C91139709950F90DF91CF9108951F
:1052F00080918601853011F080E0089541E0609151
:1053000026118091291190912A110E942416811151
:10531000F3CF0E94EE228111EFCF60913B1170918B
:105320003C1180912711909128110E94C0310E9458
:105330000B32909351128093501284E08093860137
:1053400081E08093521208950895CF93DF93CDB7F3
:10535000DEB729970FB6F894DEBF0FBECDBFEFB70B
:10536000E983F8941092640D1092630D1092620D0F
:105370001092610D1092600D10925F0DE981EFBFE8
:105380002A833B834C835D836E837F8388879987E1
:105390000E94C6310E9407302A813B814C815D8189
:1053A0006E817F81888599850E9467168823C1F068
:1053B0008DEC9BE20E94E11687E49EE20E940A17B0
:1053C00082EC9FE20E94331784EA99E20E945C1704
:1053D0008BE99EE20E9485171092860181E001C050
:1053E00080E029960FB6F894DEBF0FBECDBFDF91E7
:1053F000CF910895CF93DF931F92CDB7DEB7809101
:1054000086018130B1F00E94B0168FB78983F8947D
:105410001092640D1092630D1092620D1092610D46
:105420001092600D10925F0D89818FBF81E0809393
:1054300086010F90DF91CF9108958091630D909137
:10544000640D0895CF93DF931F92CDB7DEB78FB76A
:105450008983F8941092640D1092630D89818FBF37
:105460000F90DF91CF910895CF93DF931F92CDB727
:10547000DEB72FB72983F8949093640D8093630D62
:1054800089818FBF0F90DF91CF9108958091610D39
:105490009091620D0895CF93DF931F92CDB7DEB741
:1054A0008FB78983F8941092620D1092610D8981F3
:1054B0008FBF0F90DF91CF910895CF93DF931F920D
:1054C000CDB7DEB72FB72983F8949093620D809300
:1054D000610D89818FBF0F90DF91CF9108958091E9
:1054E0005F0D9091600D0895CF93DF931F92CDB71C
:1054F000DEB78FB78983F8941092600D10925F0D1C
:1055000089818FBF0F90DF91CF910895CF93DF9363
:105510001F92CDB7DEB72FB72983F8949093600D13
:1055200080935F0D89818FBF0F90DF91CF91089598
:10553000CF93DF93009799F0E091690DF0916A0D98
:10554000309769F0A091670DB091680D109739F010
:10555000EC0188818C93CD01DF91CF910994DF918B
:10556000CF910895CF93DF93009769F0EC010E94EB
:105570001D2AFC01CE01309711F00995CE01DF9173
:10558000CF910C94A428DF91CF9108958091650D5F
:105590009091660D0E94A4280C94EE22CF93DF9385
:1055A000E0913B11F0913C113097A1F42091501201
:1055B0003091511228173907D8F10197B9010E948B
:1055C0006933629FC001639F900D729F900D1124FB
:1055D00001962EC0E817F90738F520914E12309148
:1055E0004F122E0F3F1F82179307F0F4C0915012F5
:1055F000D09151129E012E0F3F1F28173907C0F07E
:105600009F0120953095820F931FBE010E94693340
:105610006C9F90016D9F300D7C9F300D1124CF0148
:105620000196820F931F04C0809127119091281139
:10563000DF91CF9108957F928F929F92AF92BF9208
:10564000CF92DF92EF92FF920F931F93CF93DF934E
:10565000EC01809186018350833008F057C0209779
:1056600009F454C08F819885892B09F44FC089852E
:105670009A85892B09F44AC020913B1130913C1145
:1056800089819A812817390709F440C08E819FEFDC
:10569000980F9E35D8F590E008960E9462288C01FC
:1056A000892BA1F184E0F8018083118289819A819C
:1056B0009383828380903B1190903C1195828482E9
:1056C0008B81811102C082E001C0F8018683809144
:1056D000691291E0980F90936912F80187834E81C7
:1056E00050E06F817885C80108960E9460338E81F2
:1056F00098E0792E780E89819A810E94CE2A8F3F78
:10570000FFEF9F0729F4C8010E94A428C0E036C01B
:1057100022E02C878D869E861F86188A198A1A8A0F
:105720001B8A1C8A2D8B2091291130912A113F8BC5
:105730002E8B4C01888F998E1A8E1B8E1C8E1D8E7F
:105740001E8E1F8E81E088A379A21BA30AA388E97D
:105750009AE29DA38CA389859A8590936A0D809384
:10576000690DCE010B969093680D8093670D01969D
:105770000E94E91EC82FC8010E94A4288C2FDF9127
:10578000CF911F910F91FF90EF90DF90CF90BF903E
:10579000AF909F908F907F9008958F929F92AF923D
:1057A000BF92CF92DF92EF92FF920F931F93CF930E
:1057B000DF93FC019589983008F494C08F01E18C47
:1057C000F12CFE2CEE24808DE82A20913B113091A3
:1057D0003C11E216F30609F458C08BE190E00E94F8
:1057E0006228EC019093660D8093650D892B51F032
:1057F000C7010E94CE2A8F3F2FEF920789F4CE0176
:105800000E94A428DF91CF911F910F91FF90EF90FC
:10581000DF90CF90BF90AF909F908F900C94EE222E
:1058200022E0288380903B1190903C1189829A82DB
:105830001B821C821D821E821F821886298720914E
:10584000291130912A113B872A874C018C879D862C
:105850001E861F86188A198A1A8A1B8A81E08C8BF9
:10586000F80185898D8B0A5E1F4F1F8B0E8B86EC8E
:105870009AE2998F888FCE010E94E91E8111C2CFD2
:105880008091650D9091660DBBCF892F90E00197B7
:105890000E946228EC01892B29F181E08883FA8239
:1058A000E982F801838D90E0982F8827228D822B42
:1058B0009C838B8384898D83858988508E834589D9
:1058C00050E048505109B801625E7F4FCE01079603
:1058D0000E946033BE0182EB9AE20E940A29811184
:1058E00091CF8DCFDF91CF911F910F91FF90EF90CE
:1058F000DF90CF90BF90AF909F908F9008951092BF
:105900008601E0913812F09139120994CF93DF9318
:10591000EC010E949C1760913A1270913B128881B1
:10592000FB01EF5BFF4F808380914612EB0189936F
:10593000809147129091481220E1009769F0FC0194
:105940003496DE01322F01900D923A95E1F7609680
:10595000FC0180819181F1CF8FE79CE2DF91CF91B3
:105960000C940A29CF93DF93FC012181223009F0A6
:105970004EC0EC01848195810E94EA30892B09F0A8
:1059800046C00E942D30FC01892B31F480E090E06C
:10599000DF91CF910C9452308A819B8195838483CF
:1059A0001682178210861186128613861486158633
:1059B0008C8586871786108A8D859E85282F2F7067
:1059C000218B282F22952F70228B97FD02C0138ADE
:1059D00002C081E0838B148A158A168A178A108E7A
:1059E000118E128E138E8C819D81958F848F83E012
:1059F000868F178E80A38FE081A312A281E083A3FC
:105A00008F8584A3CF01DF91CF910C947430DF9107
:105A1000CF910895CF93DF9320918601222311F037
:105A200080E02AC00097E1F3FC0122813381211537
:105A30003105B1F3309339122093381204969093C4
:105A40003B1280933A12EF01CA5BDF4F81E08883FB
:105A50008081898381818A8386E89CE29C838B8311
:105A600082EB9CE20E94AE17CE010E946D23882338
:105A7000B9F292E090938601DF91CF910895209141
:105A80008601222311F080E008950097E1F3FC01E4
:105A900041E06081818192810E9424168111F3CFBF
:105AA00080E090E00E94FE158111EDCF0E94EE2271
:105AB0008111E9CF10926512109264120E940B328C
:105AC000909351128093501290934F1280934E12E4
:105AD00083E08093860182E08093521281E00895F2
