:100000000C94CD000C94EC000C94EC000C94EC00DF
:100010000C94EC000C94EC000C94EC000C94EC00B0
:100020000C94EC000C94EC000C94200E0C94EC005E
:100030000C94EC000C94EC000C94EC000C94EC0090
:100040000C94750B0C94C90B0C94370C0C94EC00AD
:100050000C94B20B0C94EC000C94EC000C94EC009F
:100060000C94EC000C94EC000C94EC000C94EC0060
:100070000C94EC000C94EC000C94EC000C94EC0050
:100080000C94EC000C94EC000C94EC000C94EC0040
:100090000C94EC000C94EC000D0ADC0605072C080F
:1000A0002C082C082C08D3072208260829082C081D
:1000B0002C08360848084B08170A170A170A170AA7
:1000C000170A170A170A170A5108170A170A170AF0
:1000D000170A170A170A170A170A9F08F2081809B9
:1000E0002B097309BF09FF09F41291124013C612BC
:1000F00040135912B01140133D127A122C133816C6
:100100002E163C163C1630163C1630163C163C1685
:1001100032163C16341636163A167EBA26785BCE60
:1001200074B8162AEFF3CC8B4E530AE2D7B73C567D
:100130004CB566DB1E57EEE6F4431A06DFCD9F860C
:100140003E8A793A04097C1FBB12A0779B40FC00D1
:10015000AD316F9AA69E150D6C447035F064D67E55
:10016000483D50622FC630E760F8DC5C5F08C3B9D9
:1001700013A8BEE97A8165BCD22E55E590F7A77B1E
:10018000C2C1EA4AAE93F2FFB3C567399849052C5C
:100190003F388DD3CA2DE000000011241FBECFEFE1
:1001A000D0E2DEBFCDBF11E0A0E0B1E0ECE5FFE5BD
:1001B00000E00BBF02C007900D92A039B107D9F73C
:1001C00022E1A0E9B1E001C01D92AD36B207E1F72E
:1001D0000E942A010C94242F0C9400005D98F8943E
:1001E000FFCF8DEE8093640089E88093650080B72F
:1001F000806880BF80EF80937E000E943825811147
:1002000002C080E008950E9423248823D1F32BEDBF
:100210003AE045E060E270E08BE39AE00E942B2434
:10022000882379F32FE23AE04FE063E970E082E956
:1002300091E00E942B24882321F30E94282E8823FA
:1002400001F3579A6F9A6E9A559A5F98779A769AB1
:100250005D9A0895CF93DF931F92CDB7DEB70FB6A7
:10026000F894A89580916000886180936000109256
:1002700060000FBE0E94F100882331F00E94530FEE
:10028000811104C00E94880F0E94EE000E942D0A76
:10029000811103C00E94A10AF7CF0E94880F7894B1
:1002A0008FE090E00E94962F89838981882329F02E
:1002B00060E08FE090E00E949E2F0E947B250E94CC
:1002C000F02E0E940C0D0E9412030E94C80A809119
:1002D000E70A882351F080919001909191019F71DC
:1002E000892B19F48EB180588EB98091E70A81115B
:1002F00001C077988091E80A882351F0809190019D
:10030000909191019F71892B19F48BB180588BB911
:100310008091900190919101019690939101809329
:100320009001CBCF83FF74C08091ED0A81110AC088
:1003300080910B0B90910C0B019690930C0B80937A
:100340000B0B64C0289880E28EBD8091F00AE82FE4
:10035000F0E0EE0FFF1FEF50F54F0190F081E02D20
:10036000893019F41092F00A03C08F5F8093F00A6D
:100370008091EE0A8F5F8093EE0A8091ED0A8150A2
:100380008093ED0A0DB407FEFDCF8EB58EBD80E5DE
:10039000808380910A0B86830DB407FEFDCF8EB556
:1003A0008F779AE0980F91838087DF0119968F5F8E
:1003B0008EBD4091060B5091070B6091080B709118
:1003C000090B42835383648375830DB407FEFDCF0D
:1003D0009EB59EBD9D9381500DB407FEFDCF81114A
:1003E000F7CF289A289886E88EBD0DB407FEFDCF7A
:1003F0008EB587838EBD0DB407FEFDCF8EB5878386
:10040000289A8781881F8827881F8783769A08956E
:1004100082FF28C076980E945D2EDC01CB01B69544
:10042000A795979587958093060B9093070BA093BC
:10043000080BB093090B289886E88EBD0DB407FE13
:10044000FDCF8EB580930A0B8EBD0DB407FEFDCF98
:100450008EB580930A0B289A80910A0B8F71809336
:100460000A0B08958091050B8F5F8093050B08950B
:1004700083FF28C01092570C1092560C289882E8DF
:100480008EBD0DB407FEFDCF8EB58EBD0DB407FE3B
:10049000FDCF8EB5289A289892EC9EBD807E836011
:1004A0000DB407FEFDCF9EB58EBD0DB407FEFDCF8A
:1004B0008EB5289A82E08A95F1F700C082E0809399
:1004C00000015D9A0895CF93DF9310920E0B109266
:1004D0000D0B10920C0B10920B0B10920A0B10923A
:1004E000060B1092070B1092080B1092090B10923A
:1004F000050B1092F00A1092EF0A1092EE0A8AE0B1
:100500008093ED0A1092EC0A1092EB0A1092EA0A1C
:100510001092E90A0E9413108BEF93E00197F1F714
:1005200000C000002E982D982C9890E19A95F1F734
:100530002D9A8FE599E00197F1F700C000008FE553
:1005400099E00197F1F700C0000023E040E06FE17F
:1005500082E00E947D108BEF93E00197F1F700C0DD
:10056000000040E06FE181E00E946610883071F584
:1005700020E043E068E083E00E947D1020E040E05E
:1005800067E083E00E947D1021E047E060E885E0BD
:100590000E947D106CE08EE00E944B1080916F00F5
:1005A000806280936F00C1EFDAE089E890E00E94FA
:1005B000B624009759F0899399939BE0C530D907E9
:1005C000A1F782E08093000181E00FC00E942A1011
:1005D000C1EFDAE0888199810E94F824199219927A
:1005E0008BE0C530D807B1F780E0DF91CF91089557
:1005F000CF93DF9380910001813089F0C1EFDAE081
:10060000888199810E94F824199219928BE0C53053
:10061000D807B1F70E942A1081E080930001DF9192
:10062000CF910895CF93DF9300D0CDB7DEB78091FF
:100630000001843009F0B5C08091EE0A882309F4E6
:10064000B8C091E09093E9008091E80080FFB1C0CC
:100650008091E8008E7F8093E8008091EC0A811100
:1006600050C08091EB0A81111FC0E091EF0AF0E0C9
:10067000EE0FFF1FEF50F54F0190F081E02DF0934A
:10068000EA0AE093E90A21812093EC0A822F90E0A4
:10069000CF9636E0969587953A95E1F72F7309F452
:1006A0008F5F8093EB0A2DC0813049F58091E8007F
:1006B0008F778093E8001092EB0A8FB78A83F894C3
:1006C0008091EF0A893019F41092EF0A03C08F5F0E
:1006D0008093EF0A8091EE0A81508093EE0A809118
:1006E000ED0A8F5F8093ED0A80910D0B90910E0BB8
:1006F000019690930E0B80930D0B8A8150C09093BE
:10070000E80AE091E90AF091EA0A80818093F10019
:100710008091E90A9091EA0A01969093EA0A8093FF
:10072000E90A8091EC0A81508093EC0A882321F039
:100730008091E80085FDE5CF8091EB0A81508093A0
:10074000EB0A8091E8008F778093E8008091EC0AB3
:1007500081112FC08091EB0A81112BC08FB7898343
:10076000F8948091EF0A893019F41092EF0A03C0CF
:100770008F5F8093EF0A8091EE0A81508093EE0A9A
:100780008091ED0A8F5F8093ED0A80910D0B90911F
:100790000E0B019690930E0B80930D0B89818FBFEA
:1007A00008C0803131F447E851E068E081E00E9400
:1007B000D80D0F900F90DF91CF910895CF93909126
:1007C0000001923051F595EF980F903130F5C82F18
:1007D0008FE599E00197F1F700C0000023E040E0C9
:1007E0006FE182E00E947D108BEF93E00197F1F7BB
:1007F00000C0000040E06FE181E00E946610883098
:1008000061F42C2F40E06FE10E947D1040E06FE129
:1008100088E00E94661091E0C81390E0892FCF9184
:100820000895CF93DF931F92CDB7DEB7809100017B
:10083000823011F080E04AC023E040E06FE182E0C6
:100840000E947D108BEF93E00197F1F700C000004C
:1008500040E06FE181E00E946610883059F726E0A1
:1008600040E06FE182E00E947D1087E691E0019711
:10087000F1F700C0000040E06FE181E00E946610E7
:100880008630C1F68FB78983F8941092F00A1092DF
:10089000EF0A1092EE0A8AE08093ED0A1092EC0AB9
:1008A0001092EB0A1092EA0A1092E90A10920E0BCB
:1008B00010920D0B89818FBF82E991E00E940C118B
:1008C00084E08093000181E08093E70A0F90DF913C
:1008D000CF91089580910001843011F080E0089557
:1008E0000E941E1123E040E06FE182E00E947D1033
:1008F0008BEF93E00197F1F700C0000040E06FE15B
:1009000081E00E946610883049F782E08093000100
:100910001092E70A81E008950F931F93CF93181662
:100920009CF56115710591F190910001923081F56E
:100930008B01C82F40E06FE181E00E946610883093
:1009400049F529E040E06FE182E00E947D1087E6F2
:1009500091E00197F1F700C0000040E06FE181E015
:100960000E9466108930C1F488E392E00E940C1165
:100970002C9A2C98B8018C2F0E94A01080E28093B2
:1009800000015D9880E009C081E007C082E005C0F9
:1009900083E003C084E001C085E0CF911F910F91F7
:1009A0000895CF93809100018230E9F561E08EE0F7
:1009B0000E944B1063E082E00E944B1060E085E0F3
:1009C0000E944B1060E183E00E944B1040E06FE119
:1009D00081E00E946610C82F883029F56AE171E035
:1009E0008FE70E94C5106FE086E30E944B1060E025
:1009F0008DE30E944B102E9A29E040E06FE182E0E7
:100A00000E947D1087E691E00197F1F700C0000099
:100A100040E06FE181E00E946610893011F41E9978
:100A200004C00E94131080E009C062E082E00E94CE
:100A30004B10C09300015D98779881E0CF910895A5
:100A400080910001883011F080E008950E94131019
:100A50008823D1F392E0909300015D9A779A0895EC
:100A6000FC0184E08093E9009091E8009E7F9093E0
:100A7000E8008081882311F08BE801C080E8809332
:100A8000F1008091E8008F778093E8008091290B36
:100A900090912A0B0C94F82424E02093E9002091F3
:100AA000E8002E7F2093E800FC018085882311F068
:100AB0008BE801C080E88093F1008091E8008F7797
:100AC0008093E8008091250B9091260B0C94F824DC
:100AD00024E02093E9002091E8002E7F2093E80095
:100AE000FC01EF5BFF4F8081882311F08BE801C090
:100AF00080E88093F1008091E8008F778093E80090
:100B00008091230B9091240B0C94F82424E02093E3
:100B1000E9002091E8002E7F2093E800FC01848109
:100B2000882311F08BE806C081E0809321110E9498
:100B3000A61F80E88093F1008091E8008F77809372
:100B4000E8008091270B9091280B0C94F824892BB6
:100B500051F484E08093E9008091E8008E7F8093D7
:100B6000E80081E80FC08EEB96E00E9446258111D7
:100B700012C084E08093E9008091E8008E7F80932A
:100B8000E80085E98093F1008091E8008F778093F9
:100B9000E8000C94C10D0895CF93DF931F92CDB759
:100BA000DEB7FC018091150B81110AC080910F0BFB
:100BB0009091100B01969093100B80930F0B2FC008
:100BC000A091180BB0E0AA0FBB1FA75EB44F0D9009
:100BD000BC91A02D8FB78983F8949091180B943015
:100BE00019F41092180B03C09F5F9093180B80911B
:100BF000160B8F5F8093160B9091150B915090936D
:100C0000150B89818FBF85E58C938AE011968C93B3
:100C10001197129688E001900D928A95E1F70F9056
:100C2000DF91CF910895CF93DF931F92CDB7DEB7B9
:100C30002091150B21110AC080910F0B9091100B80
:100C400001969093100B80930F0B35C0E091180B19
:100C5000F0E0EE0FFF1FE75EF44FA081B1812FB7E8
:100C60002983F8942091180B243019F41092180B52
:100C700003C02F5F2093180B2091160B2F5F20933A
:100C8000160B2091150B21502093150B29812FBF96
:100C900024E52C932CE011962C931197FC01819163
:100CA000919113969C938E931297149688E00190DD
:100CB0000D928A95E1F70F90DF91CF910895CF9330
:100CC000DF931F92CDB7DEB7FC018091150B811128
:100CD0000AC080910F0B9091100B01969093100B0E
:100CE00080930F0B47C0A091180BB0E0AA0FBB1F59
:100CF000A75EB44F0D90BC91A02D8FB78983F89457
:100D00009091180B943019F41092180B03C09F5F48
:100D10009093180B8091160B8F5F8093160B809128
:100D2000150B81508093150B89818FBF83E58C93C0
:100D30008681885F11968C93119781819281139699
:100D40009C938E9312978381948115969C938E9396
:100D50001497858116968C931697868117968C9397
:100D60001797468150E0BF01695F7F4FCD0108961C
:100D70000E94272F0F90DF91CF9108950F931F931B
:100D8000CF93DF93EC0184E08093E9009091E80039
:100D90009E7F9093E8009091E80094609093E80023
:100DA000E8814E2F50E04832510508F040C3FA0167
:100DB000E45BFF4F0C94442F84E08093E900809122
:100DC000E8008E7F8093E80084E88093F1008AE059
:100DD0008093F1008BE48093F10089E48093F1002B
:100DE0008CE48093F1008093F10085E48093F1001E
:100DF00082E58093F10082E48093F10080E38093A8
:100E0000F1008093F10081E31BC384E08093E9004B
:100E10008091E8008E7F8093E8008981811108C06D
:100E200085E88093F10081E08093F10089E108C3B7
:100E3000813021F495E89093F10006C0823039F4B6
:100E400085E88093F10081E08093F100F9C2803C55
:100E500061F485E88093F10082E08093F10081E005
:100E60008093F1001092F100EDC2813C09F072C153
:100E700085E88093F100809101018093F100209139
:100E800001013091020140910301509104016091F0
:100E9000050170910601809107019091080108E019
:100EA0000E94562F2093F100209101013091020100
:100EB0004091030150910401609105017091060178
:100EC000809107019091080100E10E94562F209324
:100ED000F1002091010130910201409103015091F4
:100EE00004016091050170910601809107019091C4
:100EF000080108E10E94562F2093F1002091010182
:100F0000309102014091030150910401609105016B
:100F100070910601809107019091080100E20E9402
:100F2000562F2093F1002091010130910201409150
:100F300003015091040160910501709106018091B7
:100F400007019091080108E20E94562F2093F100BA
:100F5000209101013091020140910301509104015F
:100F6000609105017091060180910701909108013F
:100F700000E30E94562F2093F1002091010130914F
:100F800002014091030150910401609105017091AB
:100F90000601809107019091080108E30E94562FF5
:100FA0002093F1004FC21092180B1092170B109261
:100FB000160B85E08093150B1092140B1092130BF7
:100FC0001092120B1092110B1092100B10920F0B2B
:100FD0000E94F8020E94362681E080932B0B8981C3
:100FE000811108C00E946302811102C083E847C0DA
:100FF00082E023C0833021F520910101309102016C
:101000004091030150910401609105017091060126
:1010100080910701909108010E94E125882331F316
:101020008FE596E00E945E2683E196E00E94752699
:101030008CEC95E00E948C2684E080932B0B1EC0E4
:1010400082E81DC089810E94DE03F5C00E94110460
:10105000F2C00E946A04EFC084E08093E9008091AE
:10106000E8008E7F8093E80083E9EAC1BE016E5FED
:101070007F4F89810E948C04811101C080E894E037
:101080009093E9009091E8009E7F9093E800D8C18A
:101090000E94D10402C00E9420058111CEC093E8B5
:1010A000CFC084E08093E9008091E8008E7F809338
:1010B000E80080E88093F1008091E8008F778093CA
:1010C000E8000E94C10D2FE788E391E021508040A5
:1010D0009040E1F700C0000065E38FE090E00E94DF
:1010E0009E2F5D985F9A7798769881E08093E000D4
:1010F0001092C9001DBA109268001CBC10BE1FBA25
:1011000010927A0010926E0010926F001092700090
:10111000109271001092BC0011B814B817B81AB828
:101120001DB810BA12B815B818B81BB81EB811BA45
:101130000C9400F0DF91CF911F910F9108958E8153
:101140008F3550F084E08093E9008091E8008E7F35
:101150008093E80082E874C187E290E00E94B624A0
:10116000FC0190932A0B8093290B892B51F484E086
:101170008093E9008091E8008E7F8093E80080E909
:101180005FC1108289819A81928381838B8183835D
:101190008C8184838E818683CE0107969087878396
:1011A0008D81858380E395E092878187CF010E94BE
:1011B000212781114CC184E08093E9008091E800EF
:1011C0008E7F8093E8008BE88093F1008091E800A7
:1011D0008F778093E8008091290B90912A0B0E94D1
:1011E000F82435C183E090E00E94B6248C01892B5D
:1011F00099F08981F80180838A819B819283818320
:10120000C8010E944529882311F0C0E801C0C2E846
:10121000C8010E94F82401C0C0E984E08093E9007D
:101220008091E8008E7F8093E800C093F1000AC1AE
:1012300089810E941D2E882311F090E801C092E858
:1012400084E08093E9008091E8008E7F8093E8003D
:101250009093F100F7C08FE190E00E94B624909344
:10126000280B8093270B892B81F484E08093E9007D
:101270008091E8008E7F8093E80080E98093F10000
:101280008091E8008F778093E800E091270BF09140
:10129000280B89819A81918380838B8182838C81C1
:1012A00083838D8184838E81858386E895E097830F
:1012B0008683CF010E94D4298111C9C084E0809324
:1012C000E9008091E8008E7F8093E8008BE88093AE
:1012D000F1008091E8008F778093E8008091270BE0
:1012E0009091280B7CCF8FE190E00E94B6249093E0
:1012F000260B8093250B892B81F484E08093E900F1
:101300008091E8008E7F8093E80080E98093F1006F
:101310008091E8008F778093E8008091250B909171
:10132000260BFE01319628E0DC0101900D922A95F2
:10133000E1F72985FC0120872A8521872B852287D3
:101340002C8523872CE435E0358724870E942E2BBB
:1013500081117DC084E08093E9008091E8008E7F58
:101360008093E8008BE88093F1008091E8008F770C
:101370008093E8008091250B9091260B30CF8AE86E
:1013800090E00E94B6249093240B8093230B892B2A
:1013900081F484E08093E9008091E8008E7F80935F
:1013A000E80080E98093F1008091E8008F778093D6
:1013B000E800E091230BF091240B898180838A81DE
:1013C000818388E695E093838283CF010E94102970
:1013D00081113DC084E08093E9008091E8008E7F18
:1013E0008093E8008BE88093F1008091E8008F778C
:1013F0008093E8008091230B9091240BF0CE0E9403
:10140000B425882351F084E08093E9008091E800BE
:101410008E7F8093E8008BE813C084E08093E9001E
:101420008091E8008E7F8093E80080E809C084E026
:101430008093E9008091E8008E7F8093E8008DE83A
:101440008093F1008091E8008F778093E800DF912E
:10145000CF911F910F910C94C10DEF92FF920F93BA
:101460001F93CF93DF9300D01F92CDB7DEB71092BA
:101470002A0B1092290B0E94910F209301013093A7
:10148000020140930301509304016093050170939E
:10149000060180930701909308011092100B10929F
:1014A0000F0B09E11BE0780183E990E00E94B6246C
:1014B000009759F1F701819391937F01F3E2EF16C1
:1014C000FBE0FF0689F72091010130910201409174
:1014D0000301509104016091050170910601809112
:1014E0000701909108010E94580C82E0898387EAE5
:1014F00095E09B838A83CE0101960E94820D811123
:1015000004C081E080932B0B12C0F801808191818F
:101510000E94F824F801119211928F01FBE003322E
:101520001F0799F70E94B10D0E94DE0C80E00F901A
:101530000F900F90DF91CF911F910F91FF90EF903F
:101540000895CF93DF9380912B0B8823F1F01092B5
:101550002B0B8091290B90912A0B0E94F82410925A
:101560002A0B1092290BC9E1DBE0888199810E9446
:10157000F824199219928BE0C332D807B1F70E9470
:10158000B10DDF91CF910C94DE0CDF91CF910895D6
:10159000CF93DF9300D0CDB7DEB780912B0B843093
:1015A00009F09EC08091160B882309F499C081E050
:1015B0008093E9008091E80080FF92C08091E8006C
:1015C0008E7F8093E8008091140B811147C0809139
:1015D000130B81111FC0E091170BF0E0EE0FFF1FFE
:1015E000E75EF44F0190F081E02DF093120BE09351
:1015F000110B21812093140B822F90E0CF9636E0BF
:10160000969587953A95E1F72F7309F48F5F80934C
:10161000130B24C0813011F58091E8008F778093FF
:10162000E8008FB78A83F8948091170B843019F4FF
:101630001092170B03C08F5F8093170B8091160BCE
:1016400081508093160B8091150B8F5F8093150B43
:101650008A8145C08091E80085FF17C0E091110B99
:10166000F091120B80818093F1008091110B909189
:10167000120B01969093120B8093110B8091140B17
:1016800081508093140B8111E5CF8091130B815011
:101690008093130B8091E8008F778093E80080910E
:1016A000140B81111DC08091130B811119C08FB7CC
:1016B0008983F8948091170B843019F41092170BDA
:1016C00003C08F5F8093170B8091160B815080931E
:1016D000160B8091150B8F5F8093150B89818FBF3F
:1016E0000F900F90DF91CF9108951F920F920FB638
:1016F0000F9211240BB60F922F933F934F935F934A
:101700006F937F938F939F93AF93BF93EF93FF93C9
:1017100086B3856086BB28988FE88EBD0DB407FE22
:10172000FDCF8EB58EBD0DB407FEFDCF8EB5289AC8
:10173000E091560CF091570C309709F00995FF9104
:10174000EF91BF91AF919F918F917F916F915F9139
:101750004F913F912F910F900BBE0F900FBE0F90A6
:101760001F9018951F920F920FB60F9211248F930E
:101770009F9380916B1290916C12019690936C12D2
:1017800080936B129F918F910F900FBE0F901F90BF
:1017900018951F920F920FB60F9211240BB60F924D
:1017A0002F933F934F935F936F937F938F939F9369
:1017B000AF93BF93EF93FF938091171190911811FE
:1017C000892B31F480916F008D7F80936F003CC036
:1017D0008091131190911411009779F001979093D3
:1017E00014118093131180918400909185000197CA
:1017F000909389008093880027C080911111909167
:101800001211009779F02091840030918500820FA9
:10181000931F909389008093880010921211109268
:10182000111112C080916F008D7F80936F00E09145
:101830001711F091181180911511909116110995B9
:101840001092181110921711FF91EF91BF91AF9163
:101850009F918F917F916F915F914F913F912F91C8
:101860000F900BBE0F900FBE0F901F9018951F92F8
:101870000F920FB60F9211248F939F9380910F11A7
:101880009091101101969093101180930F118091F7
:101890008400909185008659974E90938B00809399
:1018A0008A009F918F910F900FBE0F901F901895F7
:1018B0007F928F929F92AF92BF92CF92DF92EF92E0
:1018C000FF920F931F93CF93DF93122FD32EC42E2B
:1018D000B52EA62E972E882E792E1092540C10928B
:1018E000530C1092520C1092310B1092300B10923C
:1018F0002F0B1092191110922E0B10922D0B10928B
:101900002C0B809165008F77809365008DE0E82E29
:1019100081E0F82EC0E0D0E0212F3D2D4C2D5B2D35
:101920006A2D792D882D972D0C2F0E94562FA22FCE
:10193000A295AF70AA3010F4A05D01C0A95CB0E020
:10194000F701B383A283E22FEF70EA3010F4E05D79
:1019500001C0E95CF0E0D7011596FC93EE93149773
:101960002896B4E0EB0EF11CC033D105A9F68091A6
:10197000D7008F7B8093D7008091D70080688093B9
:10198000D7008091D80080698093D8008091D800DA
:101990008F7B8093D8008091D80081608093D8009D
:1019A000DF91CF911F910F91FF90EF90DF90CF903B
:1019B000BF90AF909F908F907F900895E8EDF0E0FA
:1019C00080818F768083E5E6F0E080818068808387
:1019D00008958091D70081608093D7008EE089BD03
:1019E00009B400FEFDCF8091D8008F7D8093D80090
:1019F0008091E20081608093E2008091E200886043
:101A00008093E2000E9446118091E0008E7F8093D7
:101A1000E0001092540C08958091D90080FF11C00D
:101A20008091540C81110DC081E08093540C809101
:101A3000E20088608093E2008091E0008E7F8093D6
:101A4000E0008091530C882349F081E08093EA0004
:101A50001092EA001092520C1092530C1092E9006E
:101A60008091E80083FD0E949F1180912F0B8823B5
:101A700009F447C080912E0B8093E9008091E80023
:101A800082FF3FC08091E8008B7F8093E800209127
:101A9000F2008091300B9091310B820F911D8132B9
:101AA000914010F4322F06C010922F0B81E08093EA
:101AB00019110895332389F08091300B9091310BE7
:101AC0004091F100FC01EE5CF44F4083019690934D
:101AD000310B8093300B3150EDCF8091E8008F7740
:101AE0008093E800203450F610922F0BE0912C0BDD
:101AF000F0912D0B62E37BE08091300B9091310BE4
:101B000009940895CF93DF931F92CDB7DEB7FC0100
:101B1000892B11F180912F0B81111CC080818823AA
:101B2000D9F08FB78983F894808180932E0B8181BF
:101B3000928190932D0B80932C0B1092310B10926D
:101B4000300B81E080932F0B1092191189818FBF88
:101B500080E003C081E001C082E00F90DF91CF916F
:101B60000895CF93DF931F92CDB7DEB78FB78983E8
:101B7000F89410922F0B89818FBF0F90DF91CF9136
:101B80000895CF93DF931F92CDB7DEB78FB78983C8
:101B9000F89481E080932F0B109219111092310B61
:101BA0001092300B89818FBF0F90DF91CF910895F4
:101BB0008093E9008091E80080FF40C0862F90E08C
:101BC000CF9626E0969587952A95E1F7282F362F10
:101BD0003F7319F421E0280F03C0862F613408F009
:101BE00080E49091E8009E7F9093E800982FFA019E
:101BF000992329F031913093F1009150F9CF480F9A
:101C0000511D60548091E8008F778093E800603424
:101C100010F4862F01C080E42150EFEFFFEF909188
:101C2000E80090FD07C0309719F45F9A81E00895AD
:101C30003197F5CF2111D5CF80E0089584E0089544
:101C40001F920F920FB60F9211240BB60F922F9383
:101C50003F934F935F936F937F938F939F93AF9334
:101C6000BF93EF93FF938091DA0080FF19C08EEF4E
:101C70008093DA008091D90080FF10C081E08093CA
:101C8000540C8091E20088608093E2000E94E90C8D
:101C90008091E0008E7F8093E00002C01092540C8F
:101CA0008091DA0081FF05C08DEF8093DA0080918A
:101CB000D9008091E10082FF03C08BEF8093E100A7
:101CC0008091E10080FF10C08EEF8093E100809151
:101CD000E20080618093E2008FEE8093E1008091CA
:101CE000D80080628093D8008091E10084FF0DC00D
:101CF0008091D8008F7D8093D8008FEE8093E10093
:101D00008091E2008F7E8093E2008091E10085FF68
:101D10000DC08091E2008F7E8093E2008FED809372
:101D2000E1008091E2008F7D8093E2008091E100EC
:101D300083FF08C087EF8093E1000E94461181E095
:101D40008093530CFF91EF91BF91AF919F918F9131
:101D50007F916F915F914F913F912F910F900BBEAB
:101D60000F900FBE0F901F901895E4E6F0E0808171
:101D70008F77808380E28093B800E9EBF0E0808188
:101D8000808381E00895E4E6F0E0808180688083CC
:101D900008956115710509F484C094EA9093BC001C
:101DA0009FEF91502091BC0027FD02C09111F9CF07
:101DB0002091B900287F283011F080E06BC0992372
:101DC000E1F390EA9093BB0094E89093BC009FEFFE
:101DD00091502091BC0027FD02C09111F9CF2091B4
:101DE000B900287F283149F7992339F38093BB0044
:101DF00084E88093BC008FEF81509091BC0097FDE8
:101E000002C08111F9CF9091B900987F9832A9F65C
:101E1000882399F284EA8093BC008FEF81509091DF
:101E2000BC0097FD02C08111F9CF9091B900987F55
:101E3000903119F6882309F281EA8093BB0084E887
:101E40008093BC008FEF81509091BC0097FD02C041
:101E50008111F9CF9091B900987F903409F0ADCFFE
:101E6000882309F4AACF84E88093BC008FEF8150C7
:101E70009091BC0097FD02C08111F9CF9091B900FB
:101E8000987F983511F0811198CF8091BB00FB01AC
:101E9000808381E094E99093BC0090E89093BC002B
:101EA000089580E008950F931F93CF93DF931F92BF
:101EB000CDB7DEB70E94B50E182F811103C00E9466
:101EC000C30E1FC080E090E00E94962F082F8FEF76
:101ED0008983BE016F5F7F4F80E00E94C90E8981B8
:101EE0008F3F11F482E005C00F3F31F40E94C30E12
:101EF00081E08093550C05C00E94C30E1092550CD2
:101F000010E0812F0F90DF91CF911F910F910895D5
:101F10008091550C823011F40E94C30E1092550C22
:101F20000895CF93DF93CDB7DEB728970FB6F89417
:101F3000DEBF0FBECDBF19821A821B821C821D829A
:101F40001E821F8218868091550C823089F5BE0151
:101F5000685F7F4F84E00E94C90EBE01695F7F4FBA
:101F600085E00E94C90EBE016A5F7F4F86E00E9435
:101F7000C90EBE016B5F7F4F87E00E94C90EBE0194
:101F80006C5F7F4F88E00E94C90EBE016D5F7F4F7E
:101F900089E00E94C90EBE016E5F7F4F8AE00E94F9
:101FA000C90EBE016F5F7F4F8BE00E94C90E2AC031
:101FB000813041F584E090E00E94962F888785E08B
:101FC00090E00E94962F8F8386E090E00E94962FEB
:101FD0008E8387E090E00E94962F8D8388E090E0CA
:101FE0000E94962F8C8389E090E00E94962F8B832D
:101FF0008AE090E00E94962F8A838BE090E00E9416
:10200000962F898329813A814B815C816D817E8104
:102010008F81988528960FB6F894DEBF0FBECDBF8E
:10202000DF91CF9108951092570C1092560C249A7C
:10203000259A269AE4E6F0E080818B7F808384B144
:10204000876084B985B1836085B980E58CBD81E006
:102050008DBD0895E4E6F0E080818460808308957A
:10206000CF93DF931F92CDB7DEB780689FB7998378
:10207000F89428988EBD0DB407FEFDCF8EB51EBC1A
:102080000DB407FEFDCF8EB5289A99819FBF0F90A2
:10209000DF91CF910895CF93DF931F92CDB7DEB735
:1020A000806C9FB79983F89428988EBD0DB407FE75
:1020B000FDCF8EB56EBD0DB407FEFDCF8EB5289A4F
:1020C00089818FBF0F90DF91CF910895CF93DF93D8
:1020D00000D0CDB7DEB74A8369830E943010698192
:1020E000862390E04A8102C0959587954A95E2F74C
:1020F0000F900F90DF91CF9108951F93CF93DF93AF
:1021000000D01F92CDB7DEB7182F2B834A83698387
:102110000E9430106981962F909589232B814A81E6
:1021200001C0220F4A95EAF72623682F622B812FE0
:102130000F900F900F90DF91CF911F910C944B1047
:10214000CF93DF931F92CDB7DEB79FB79983F894F3
:10215000289890E69EBD0DB407FEFDCF9EB58EBDBE
:102160000DB407FEFDCF9EB5FB01680F81918EBDBA
:102170000DB407FEFDCF8EB56E13F8CF289A898176
:102180008FBF0F90DF91CF910895CF93DF931F9270
:10219000CDB7DEB79FB79983F894289890E69EBD97
:1021A0000DB407FEFDCF9EB58EBD0DB407FEFDCF6D
:1021B0009EB5FB01680F84918EBD31960DB407FE6C
:1021C000FDCF8EB56E13F7CF289A89818FBF0F9000
:1021D000DF91CF910895CF93DF931F92CDB7DEB7F4
:1021E0009FB79983F894289890E29EBD0DB407FE9E
:1021F000FDCF9EB5FB019083860F1EBC0DB407FE7C
:10220000FDCF9EB591938E13F8CF289A89818FBF09
:102210000F90DF91CF910895CF93DF931F92CDB7A9
:10222000DEB72FB72983F8949093570C8093560C00
:1022300089818FBF0F90DF91CF910895CF93DF9366
:102240001F92CDB7DEB78FB78983F8941092570CE1
:102250001092560C89818FBF0F90DF91CF91089516
:10226000EBEEF0E09081916090838093EC00EDEED6
:10227000F0E080818270682B60838081826080833F
:102280008091EE00881F8827881F08958091D800CC
:102290008F7B8093D8008091D90081FF0CC0109271
:1022A000E9008091EB0080FD06C01092E90060E338
:1022B00082E00C94301180E0089580E00895CF937F
:1022C000DF93C9EED0E084E0888360E381E80E9478
:1022D000301182E0888360E380E80E94301181E061
:1022E000888364E381E8DF91CF910C9430118330CF
:1022F00021F5613089F050F06230A1F06330E9F4EB
:102300008CE180931D118DE091E011C084E08093F9
:102310001D1189E091E00BC08CE080931D118FE3CB
:1023200091E005C086E180931D1189E291E09093D0
:102330001F1180931E1181E0089580E0089580911F
:10234000F1008093580C9091F100492F50E04B30F0
:10235000510508F095C1FA01EC58FF4F0C94442F39
:10236000803809F088C010925C0C6091F100809177
:10237000F100813041F0823081F487E280931D11B9
:102380008BE491E005C082E180931D1182E791E02A
:1023900090931F1180931E1105C00E94771188230E
:1023A00009F473C18091F1008091F1008091F100F6
:1023B0002091F10090E0922B2091E800277F20935C
:1023C000E80020911D11422F50E04817590748F4AA
:1023D0002F7321F481E080935C0C18C010925C0C88
:1023E00015C080931D1112C08091E80082FD2CC0A1
:1023F0008091E80080FFFCCF81E490911D11911144
:102400000AC08091E8008E7F8093E80080911D11C2
:102410008111EACF19C08150A1F3E0911E11F09112
:102420001F1190819093F10020911E1130911F1186
:102430002F5F3F4F30931F1120931E1190911D115C
:10244000915090931D11D9CF8091E8008E7F809399
:10245000E8008091E80082FDF4C080915C0C882344
:1024600029F08091E8008E7F8093E8008091E80059
:1024700082FFFCCFE6C066E001C18038C1F48091E4
:10248000E800877F8093E80080911C118093F10021
:102490008091E8008E7F8093E8008091E8008F773C
:1024A0008093E8008091E80082FFFCCFCAC068E01A
:1024B000E5C081111DC09091F1008091E3009F77EC
:1024C0008078892B8093E3008091E800877F809358
:1024D000E8008091E8008E7F8093E8008091E8001A
:1024E00080FFFCCF8091E30080688093E300089533
:1024F00065E0C4C0811113C09091F100923008F0E2
:10250000C4C08091E800877F8093E80090931C11FD
:102510008091E8008E7F8093E8000C945F1169E061
:10252000ADC0833088F5882309F4AFC0813009F449
:10253000ACC08091F1008111A8C0E091F100EF776B
:10254000E093E9008091EB0080FF9FC0EE23A9F0AB
:102550008091EB0080618093EB0081E090E00E2E93
:1025600001C0880F0A94EAF78093EA001092EA000B
:102570008091EB0088608093EB001092E900F0E01E
:10258000E75AF34F108225C061E078C0833050F5E0
:10259000813009F47AC0823009F081C08091F10065
:1025A000811173C0E091F100EF7709F46EC0E09300
:1025B000E9008091EB0080FF68C08091EB008062B1
:1025C0008093EB001092E900F0E0E75AF34F81E0CE
:1025D00080838091E800877F8093E8008091E80005
:1025E0008E7F5BC063E04AC090E8980F933090F50F
:1025F0009091F1009091F100E091F100813811F09B
:10260000823841F08091E800877F8093E800109243
:10261000F1000CC08091E800877F8093E800EF779D
:10262000F0E0E75AF34F80818093F1001092F100BF
:102630008091E8008E7F8093E8008091E80082FF1F
:10264000FCCF8091E8008B7F8093E8008091E800C8
:102650008F7723C060E012C0813879F48091F10057
:102660008091F1008091F1002091F10090E0922B97
:1026700090931B1180931A1108C06AE00C945D11AD
:10268000692F0E945D1181110AC08091EB00806268
:102690008093EB008091E800877F8093E8000895A5
:1026A00010922011109233111092341110923511A2
:1026B0001092361110923711109238111092391170
:1026C00010923A118FEF9FEF90932811809327116A
:1026D00020912B112093231190932A11809329117B
:1026E00090933C1180933B111092211184EF91E063
:1026F00090932511809324118BE0809326111092E2
:1027000022110895CF93DF93EC010E94CB228823FE
:1027100049F0D0932A11C0932911CE010E94F722CB
:1027200080E001C088EEDF91CF910895CF93DF93D1
:10273000EC010E94CB22882349F0D0933C11C09336
:102740003B11CE010E94092380E001C088EEDF9199
:10275000CF910895CF93C82F0E94CB22811102C040
:1027600088EE08C08C2F0E94E8238823C9F3C09309
:10277000261180E0CF9108950F931F93CF93DF939D
:1027800000D0CDB7DEB79C01042F909184019B7FD0
:1027900031F52F3F8FEF380711F185EF860F80312C
:1027A000F0F4C9016A830E948213182F6A81811193
:1027B00016C0862F0E94E823882389F000932211F7
:1027C000802F0E94402381E0809321118FB789835D
:1027D000F89485E08093840189818FBF03C00E94B3
:1027E000AA2218EE812F0F900F90DF91CF911F91A9
:1027F0000F9108950E94E32286E10C947D23CF93EC
:10280000DF9300D0CDB7DEB7EFB7EA83F894E1E00D
:10281000E0938401EA81EFBF20932B1130932C11B8
:1028200040932D1150932E1160932F1170933011FE
:1028300080933111909332111092060D1092050D74
:102840001092040D1092030D1092020D1092010DC2
:102850001092000D1092FF0C1092FE0C1092FD0CC5
:102860001092FC0C1092FB0C81E00E94571F8823F1
:1028700049F08FB78983F8941092840189818FBFC2
:1028800081E001C080E00F900F90DF91CF9108951B
:102890000E94C5221092060D1092050D1092040D93
:1028A0001092030D1092020D1092010D1092000D66
:1028B0001092FF0C1092FE0C1092FD0C81E08093A0
:1028C000840108958091050D9091060D0895CF9390
:1028D000DF931F92CDB7DEB72FB72983F89490937B
:1028E000060D8093050D89818FBF0F90DF91CF91E9
:1028F00008958091030D9091040D0895CF93DF9377
:102900001F92CDB7DEB72FB72983F8949093040DAB
:102910008093030D89818FBF0F90DF91CF91089530
:102920008091010D9091020D0895CF93DF931F9236
:10293000CDB7DEB72FB72983F8949093020D80931B
:10294000010D89818FBF0F90DF91CF910895809104
:10295000FF0C9091000D0895CF93DF931F92CDB798
:10296000DEB72FB72983F8949093000D8093FF0C66
:1029700089818FBF0F90DF91CF9108958091FD0CD9
:102980009091FE0C0895CF93DF931F92CDB7DEB7E1
:102990002FB72983F8949093FE0C8093FD0C8981C6
:1029A0008FBF0F90DF91CF9108958091FB0C909194
:1029B000FC0C0895CF93DF931F92CDB7DEB78FB78E
:1029C0008983F8941092FC0C1092FB0C89818FBFC4
:1029D0000F90DF91CF910895CF93DF931F92CDB7E2
:1029E000DEB72FB72983F8949093FC0C8093FB0CEF
:1029F00089818FBF0F90DF91CF910895CF93FC0114
:102A0000C0816AE77CE082E08C0F0E946D23811117
:102A100003C0CF910C94FA13EC2FF0E0E658F34F7B
:102A200081818093790C20917B0C80917C0C30E02B
:102A3000382B23FDEECF922F9770933011F0923008
:102A400040F790935D0C832F8695869583708093D5
:102A50005F0CA90144E0549F412D55271124409358
:102A60006A0C811103C04115510599F260917D0CEA
:102A700060935E0C1092620C1092630C1092640CC6
:102A80001092650C1092660C1092670C1092680CF4
:102A90001092690C882309F441C0823091F460914E
:102AA0007E0C70917F0C7093610C6093600C609150
:102AB000800C7091810C7093630C6093620C88E0C1
:102AC0002EC0833009F0A5CF60917E0C70917F0CF1
:102AD0007093610C6093600C8091800C8093620C09
:102AE0008091810C8093630C8091820C8093640CA4
:102AF0008091830C8093650C8091840C8093660C8C
:102B00008091850C8093670C8091860C8093680C73
:102B10008091870C8093690C8EE001C084E0109254
:102B20006D0C10926E0C10926F0C1092700C109233
:102B3000710C1092720C1092730C1092740C41155F
:102B40005105A9F126FD0BC0E82FF0E0E658F34F40
:102B50002081318130936C0C20936B0C8E5FE82FB9
:102B6000F0E0E658F34F4230510541F420813181C5
:102B700030936E0C20936D0C8E5F19C020812093D2
:102B80006D0C218120936E0C228120936F0C238188
:102B90002093700C24812093710C25812093720C5A
:102BA00026812093730C27812093740C885F9330C7
:102BB00049F4E82FF0E0E658F34F20812093750C9C
:102BC0008F5F02C01092750C282F30E02658334FCB
:102BD0003093770C2093760CC150C81BC093780CAF
:102BE000913041F0933019F487EC9AE105C084E408
:102BF00099E102C08EE79DE16DE57CE00E944625EB
:102C0000882309F406CFCF9108950F931F93CF9394
:102C1000DF93D82F8B010E94CB22811102C0C0E02C
:102C20000AC089E10E947D23C82F8823C1F3B8011F
:102C30008D2F0E944A238C2FDF91CF911F910F91EE
:102C40000895E09184014E2F50E0FA013297EE3062
:102C5000F10590F4E158FF4F0C94442F0C944A1D59
:102C60000C947C170C9426190C94EB1E0C94271FC3
:102C70000C9461210C94A81A8091211181110C945B
:102C8000FA130C94AA221F93CF93DF931F92CDB710
:102C9000DEB7182F0E94BE14FC01892B91F010930F
:102CA0001B0D87E09DE009950E94E32286E10E94CA
:102CB0007D238FB78983F89485E08093840189818F
:102CC0008FBF0F90DF91CF911F9108950F931F93A6
:102CD000CF93DF9300D0CDB7DEB7209184012111CF
:102CE000CEC0009709F4CBC0FC012585368521159F
:102CF000310509F4C4C0AC01415F5F4F50933A0DF8
:102D00004093390D3093380D2093370D20812B508F
:102D1000203108F0B4C0228133812F3F3F4F09F4A6
:102D2000AEC0FC0121813EEF320F323008F0A7C067
:102D3000223041F44481558150932811409327114A
:102D400038EC1AC0FC01A481B581168177816085B9
:102D5000518542853385A0933311B093341110937C
:102D60003511709336116093371150933811409399
:102D7000391130933A113CEC43E2409365113093A2
:102D800066113091231141E0430F4093231130939A
:102D90006711FC014281538150936911409368117E
:102DA000223041F42481358130936B1120936A11D4
:102DB00027E00AC028E0FC013496AAE6B1E10190C0
:102DC0000D922A95E1F72DE08C01E22FF0E0EB590E
:102DD000FE4E8FEF8083E1E0E20FF0E0EB59FE4E14
:102DE0008083E2E0E20FF0E0EB59FE4E80912B1180
:102DF000808380912C11818380912D118283809119
:102E00002E11838380912F118483809130118583CB
:102E1000809131118683809132118783EAE0E20F3D
:102E2000F0E0EB59FE4E81E08083F8018485EBE011
:102E3000E20FF0E0EB59FE4E8083F801828193812E
:102E40002A830E948213811118C0F80180810E9498
:102E5000E8232A81882389F065E671E18EE0820FFC
:102E60000E940516882349F09FB79983F89496E04D
:102E70009093840199819FBF03C00E94AA2280E0A1
:102E80000F900F90DF91CF911F910F9108950F93A5
:102E90001F93CF93DF9300D01F92CDB7DEB78B0186
:102EA0009FB7882331F09A83F894109284019A8115
:102EB00006C09983F89494E09093840199819FBF10
:102EC0008B830E94AA22A091390DB0913A0D8B817B
:102ED00012968C93129711961C930E93E091370DD6
:102EE000F091380DCD0109950F900F900F90DF9163
:102EF000CF911F910F910895CF93DF9300D01F9230
:102F0000CDB7DEB7FC018081823040F5809184012D
:102F1000883079F486E10E947D23811102C081EE20
:102F200024C08FB78A83F89489E0809384018A81D2
:102F300007C08FB78983F89487E0809384018981E3
:102F40008FBF20E030E043EC57E160E070EF80E0BD
:102F500090E00E94842E882311F30FC0853021F069
:102F60008330E9F28BEE01C089EE8B830E94D92E6B
:102F70006FEF7FEF8B810E9447170F900F900F909C
:102F8000DF91CF910895CF93DF9300D0CDB7DEB717
:102F900080918401873009F04CC083E280936511F1
:102FA00080EC809366118091231191E0980F9093AB
:102FB0002311809367119091291180912A11909388
:102FC00068118093691180912B1180936A1180910F
:102FD0002C1180936B1180912D1180936C11809135
:102FE0002E1180936D1180912F1180936E1180911D
:102FF000301180936F118091311180937011809105
:1030000032118093711184E08093721165E671E151
:1030100080E10E940516811104C06FEF7FEF81EF00
:103020000DC08FB78983F89488E0809384018981EB
:1030300016C0893031F46FEF7FEF89EE0E94471799
:103040000FC08C3021F480EF0E94431609C00E940B
:10305000AA228FB78A83F894109284018A818FBF45
:103060000F900F90DF91CF910895DF92EF92FF9232
:103070000F931F93CF93DF931F92CDB7DEB72091AD
:103080008401253009F0AAC0009709F4A7C023E6FF
:1030900020931C0D2CEC20931D0D2091231131E069
:1030A000320F3093231120931E0D0091291110919E
:1030B0002A111093200D00931F0D28E0FC01A1E2BE
:1030C000BDE001900D922A95E1F7D0902B11F0917F
:1030D0002C11E0912D1170912E1160912F115091B2
:1030E00030114091311130913211D092290DF0936D
:1030F0002A0DE0932B0D70932C0D60932D0D5093A2
:103100002E0D40932F0D3093300D22E02093310D82
:10311000DC011896ED90FC901997F092330DE09237
:10312000320D1A962C911A972093340D1093080D96
:103130000093070D23E02093090DD0920A0DF09320
:103140000B0DE0930C0D70930D0D60930E0D5093CD
:103150000F0D4093100D3093110D2093120DEC9133
:1031600011967C91119712966C91129713965C911F
:10317000139714964C91149715963C9115971696A3
:103180002C91169717968C91E093130D7093140D54
:103190006093150D5093160D4093170D3093180D35
:1031A0002093190D80931A0D8FB78983F8948CE0C2
:1031B0008093840189818FBF20E030E043EC57E1A8
:1031C00060E070EE81E090E00E94842E182F811163
:1031D00006C080E090E00E94C31701C010E0812F7C
:1031E0000F90DF91CF911F910F91FF90EF90DF90A3
:1031F00008951F93CF93DF931F92CDB7DEB71FEFD4
:1032000085E38A95F1F7000011500E9478238930F8
:1032100019F01111F5CF02C0111104C081EE0E9406
:1032200043160FC06CE17DE08BE10E9405168823F8
:10323000A9F38FB78983F8948BE080938401898107
:103240008FBF0F90DF91CF911F910895FC01808176
:10325000882349F0853021F0833021F08BEE03C0C4
:1032600089EE01C081EE0C944316CF93DF93EC01FD
:103270000E94D514FC01CE01309711F00995CE01C2
:10328000DF91CF910C94F8242F923F924F925F924E
:103290006F927F928F929F92AF92BF92CF92DF9266
:1032A000EF92FF920F931F93CF93DF93CDB7DEB7CB
:1032B00029970FB6F894DEBF0FBECDBF99878887D8
:1032C000FC01758470926511468457845092671191
:1032D00040926611709688E0A8E6B1E101900D92E7
:1032E0008A95E1F7F0912611FF83F0937011E8853C
:1032F000F985A18DB28D10927211109271111196F3
:103300008C91119790E0982F882790937211809359
:1033100071112C91822B9093721180937111848D75
:103320008093731180918401823009F064C0809091
:10333000451190904611D4011396F401F281F9835E
:10334000E0916811F0916911FB83F0916A11FC839F
:1033500060906B11F0916C11FD83F0916D11FE8303
:1033600030906E1120906F11F0E08981F817B1F163
:1033700011968D919C9112974816590661F58C9182
:10338000781229C01396AC9013971496BC9014979A
:103390001596CC9015971696DC9016971796EC908C
:1033A00017971896FC90189719960C9119971A96DA
:1033B0001C911A972E2F3B814C81562D6D817E8159
:1033C000832D922D0E94722F31F41B968C911B97A6
:1033D0009F81981781F0FF5F1F96C7CFF43058F494
:1033E0008FE0E5E6F1E101900D928A95E1F7F401B5
:1033F00082818F5F8283E885F985838D8823E9F058
:103400008F0180E190E00E94B6244C01892BA9F045
:10341000F8018181D4018D938FE0E5E6F1E101901F
:103420000D928A95E1F7B40185E399E10E94462562
:10343000811103C0C4010E94F824809121118111DF
:1034400004C0809184018230D9F486E129960FB6B8
:10345000F894DEBF0FBECDBFDF91CF911F910F91CA
:10346000FF90EF90DF90CF90BF90AF909F908F90A4
:103470007F906F905F904F903F902F900C947D23A2
:1034800029960FB6F894DEBF0FBECDBFDF91CF9166
:103490001F910F91FF90EF90DF90CF90BF90AF9072
:1034A0009F908F907F906F905F904F903F902F9064
:1034B0000895CF93DF931F92CDB7DEB780913B1174
:1034C00090913C118F3F2FEF920709F43DC010926D
:1034D000651120E8209366112091231131E0320F0D
:1034E00030932311209367113091291120912A11D3
:1034F000309368112093691180936A1190936B1136
:1035000080912211882319F08FEF9FE602C08FEF80
:103510009FE2209120112111906890936D1180936A
:103520006C1110926E1110926F1165E671E18DE0D1
:103530000E940516882341F08FB78983F8948FE0A5
:103540008093840189818FBF0F90DF91CF9108957F
:10355000CF93DF931F92CDB7DEB786E10E947D2324
:103560008FB78983F89485E08093840189818FBF28
:103570000F90DF91CF91089585E38A95F1F70000D0
:103580000E9478238930C1F786E10C947D23DF9275
:10359000EF92FF920F931F93CF93DF931F92CDB7BC
:1035A000DEB78C01DC0158968C91813029F5809131
:1035B00084018530F1F4809120118823D1F00E949C
:1035C00079149C01892BA9F0F801709688E0A7E492
:1035D000B1E101900D928A95E1F7D8015996ED91EC
:1035E000FC915A97808180934F1187E491E1F90112
:1035F00009950E94BC1AFEC0833009F044C0809136
:10360000840184508230A8F70E9490149C01892B79
:1036100081F3F801709688E0A7E4B1E101900D9282
:103620008A95E1F7D8015996ED91FC915A978081DE
:1036300080934F1187E491E1F9010995809184010C
:10364000843009F0D7C00E94AA2210923311109240
:1036500034111092351110923611109237111092C8
:1036600038111092391110923A118FEF9FEF909309
:103670002811809327118FB78983F89410928401C1
:1036800089818FBFB7C0843051F4809184018C3020
:1036900009F0AFCF0E94D92E0E94F918ABC0863036
:1036A000C9F480918401853009F0A3CF0E94A7144A
:1036B0009C01892B09F49DCFF801709688E0A7E45E
:1036C000B1E101900D928A95E1F787E491E1F9016A
:1036D000099590C0873041F480918401853009F0CC
:1036E00088CF0E94591A86C0883009F04DC0809159
:1036F0008401823009F07DCF0E94D92E28E040E07D
:103700006FE182E00E947D10D8015B968C9187303A
:1037100011F4F12C02C058EEF52EF801018D128D36
:10372000D80111968C91119790E0982F88272C91B1
:10373000822B0E948213F801838190E0982F8827C2
:103740002281822B9093281180932711868190E00B
:10375000982F88272581822B8F3FFFEF9F0711F03D
:103760000E948213D80114968C910E94AA13609132
:10377000451170914611FB01F0828EEB9FE10E9492
:103780004625811137C035CF823009F032CF809184
:103790008401893009F02DCF0E94D92ED801599685
:1037A000ED91FC915A97E180F12CFE2CEE24808162
:1037B000E82AD280C7010E949613F801808980937D
:1037C00033118189809334118289809335118389E3
:1037D00080933611848980933711858980933811BD
:1037E000868980933911878980933A11B7018D2D8D
:1037F0000E9447170F90DF91CF911F910F91FF907B
:10380000EF90DF9008950F931F93CF93DF93EC0118
:103810000E9462148C0185E38A95F1F700000E94F2
:1038200078238930C1F70115110539F486E1DF915C
:10383000CF911F910F910C947D23CE01F801099532
:10384000CE01DF91CF911F910F910C94F824CF926C
:10385000DF92EF92FF920F931F93CF93DF9300D0ED
:10386000CDB7DEB78C01D09084018CEF8D0D823006
:1038700010F010E003C101151105D9F3D8015696D7
:103880008D919C915797892BA1F35896ED90FC90C0
:103890005997E114F10469F3EC91EE2321F08EEFD6
:1038A0008E0F823030F7D8011996FC91FF2309F46E
:1038B000DDC08EEF8F0F8230E0F6D80154968C91E8
:1038C000B82FB170CB2E80FF25C0F23019F5D8018A
:1038D0001C962C911C971D963C911D971E964C9101
:1038E0001E971F965C911F9750966C91509751961A
:1038F0007C91519752968C91529753969C912F3F61
:103900003F4F41055105610571058105910509F09C
:10391000B1C0AFCFE13009F4ACCFF13009F4A9CF99
:10392000F0923C0DE0923B0DC8014A9690933E0DFB
:1039300080933D0DD0923F0DD80155968C918150CA
:10394000863608F096CFCC2019F041E250E002C054
:1039500041E050E08E2F90E090E4899F902D8827E1
:1039600011242F2F30E0322F2227330F330F822BD9
:10397000932B8064842B952B809365119093661113
:103980008091231191E0980F9093231180936711F8
:10399000FF2301F1D8011A969C911A971B968C91DE
:1039A0009093681180936911F33059F488E0F8011D
:1039B0003C96AAE6B1E101900D928A95E1F72DE0DF
:1039C0000AC0F8018485958590936B1180936A11E4
:1039D00027E001C023E0D8018C918823A9F0A22F11
:1039E000B0E0AB59BE4E833049F488E0F80131961F
:1039F00001900D928A95E1F7285F06C0F801818158
:103A000092818D939C932E5F822F90E0D8015596E2
:103A10004C91559750E056966D917C9157978B59E4
:103A20009E4E2A830E94272FF80185898E5F65E6C6
:103A300071E12A81820F0E940516182F81110DC095
:103A40000E94E32280912111811103C00E94AA22C9
:103A500015C086E10E947D2311C08FB78983F89439
:103A600083E08093840189818FBF08C0EE2309F42D
:103A700000CF23CFE13009F053CFFBCE812F0F9041
:103A80000F90DF91CF911F910F91FF90EF90DF90FA
:103A9000CF900895CF93DF931F92CDB7DEB7FC018F
:103AA0008081823020F0853021F091EE03C090E0DB
:103AB00001C099EEA0913D0DB0913E0D9C93E09117
:103AC0003B0DF0913C0DCD010995809121118111A3
:103AD00003C00E94AA2205C00E94E32286E10E9440
:103AE0007D238FB78983F89480913F0D8093840163
:103AF00089818FBF0F90DF91CF9108950F931F930E
:103B0000CF93DF938C01FC01838D90E046960E9459
:103B1000B624EC01892B79F4F5E3FA95F1F700006E
:103B20000E9478238930C1F786E1DF91CF911F9100
:103B30000F910C947D23F8018585888319821A8260
:103B40001B821C821D821E821F821886833049F4CC
:103B500088E07096DE01119601900D928A95E1F74A
:103B600005C0F801808991899A8389838A859B851C
:103B7000F80194838383828189871C861D861E8633
:103B80001F86188A198A1A8A1B8A833049F488E0AA
:103B90003596DE011C9601900D928A95E1F705C0DD
:103BA000F801858196819D878C87F801848D8C8BA7
:103BB000838D8D8B438D50E0618D728DCE01469645
:103BC0000E94272FBE0183E09CE10E9446258111BF
:103BD0000CC0CE010E94F824F5E3FA95F1F700003D
:103BE0000E9478238930C1F79FCFDF91CF911F9139
:103BF0000F9108952F923F924F925F926F927F9212
:103C00008F929F92AF92BF92CF92DF92EF92FF92EC
:103C10000F931F93CF93DF931F92CDB7DEB7FC01B5
:103C2000909184019450923008F0BFC02185328574
:103C30002115310509F4B9C04F0130933E1120938D
:103C40003D11CF010B969093401180933F1183E279
:103C5000809365118CEC809366118091231191E023
:103C6000980F90932311809367119091291180915F
:103C70002A1190936811809369114080518062806D
:103C80007380B481A58136802780A0903311B090D5
:103C90003411C0903511D0903611E0903711F0906A
:103CA00038110091391110913A119201A3016B2F33
:103CB0007A2F832D922D0E94722F41F088E0AAE680
:103CC000B1E101900D928A95E1F724C040926A110A
:103CD00050926B1160926C1170926D11B0936E11D5
:103CE000A0936F11309270112092711110923311C4
:103CF0001092341110923511109236111092371122
:103D0000109238111092391110923A118FEF9FEFE3
:103D10000E9496139091291180912A11909372110B
:103D20008093731180912B118093741180912C11C9
:103D30008093751180912D118093761180912E11B1
:103D40008093771180912F11809378118091301199
:103D5000809379118091311180937A118091321181
:103D600080937B1183E080937C11F40180858093A4
:103D70007D1165E671E18BE10E940516982E811197
:103D80000BC080912111811103C00E94AA220EC094
:103D900086E10E947D230AC08FB78983F8948DE065
:103DA0008093840189818FBF01C0912C892D0F9050
:103DB000DF91CF911F910F91FF90EF90DF90CF9007
:103DC000BF90AF909F908F907F906F905F904F903B
:103DD0003F902F900895CF93DF9300D0CDB7DEB7FB
:103DE000FC018081E0913F11F0914011823010F48C
:103DF000108206C0853011F489EE01C081EE808307
:103E0000E0913D11F0913E1180913F119091401150
:103E100009958091221181110AC00E94AA228FB7B0
:103E20008A83F894109284018A818FBF0BC08FB768
:103E30008983F89485E08093840189818FBF86E12E
:103E40000E947D230F900F90DF91CF9108950F93E3
:103E50001F93CF93DF931F92CDB7DEB78C010E94E3
:103E6000BE14FC01892BE9F0D8019C91992349F0FB
:103E7000953021F0933021F09BEE03C099EE01C004
:103E800091EE9093540D80E49DE009958FB789835E
:103E9000F89485E08093840189818FBF86E10E9438
:103EA0007D230F90DF91CF911F910F9108951F9364
:103EB000CF93DF931F92CDB7DEB7182F8FB78983CB
:103EC000F8941092840189818FBF0E943B22811156
:103ED00004C00E94C52280E034C011110E9450131A
:103EE00081E296E10E94FF238EEF94E10E9411246B
:103EF00023E046E060EC8EE20E947D1024E041E089
:103F00006EE08CE20E947D1023E044E060EF8CE2E2
:103F10000E947D108BE291E10E941B2380913B1156
:103F200090913C110E9409238091291190912A11AE
:103F30000E94F72280912111811102C00E94AA22C1
:103F400081E00F90DF91CF911F91089580918401BE
:103F50008450823078F40E94CB22882359F086E185
:103F60000E947D23811108C080912111811102C01E
:103F70000E94AA2288EE089580E008950F931F936F
:103F8000CF93DF931F92CDB7DEB78C0180914111A3
:103F9000909142110E9482130115110569F0E09180
:103FA0004311F0914411C80109958FB78983F894A2
:103FB0001092840189818FBF0F90DF91CF911F9163
:103FC0000F9108950E94AA2290913712911106C074
:103FD000809136128F5F809336120895A09145111B
:103FE000B091461112968C911297811103C08AEEFE
:103FF0008C9301C01C928091E51124E0829FF00116
:104000001124EA51FE4E2EEB3FE131832083B3832E
:10401000A283833119F41092E51103C08F5F80935E
:10402000E5119150909337128091E4118F5F809346
:10403000E4110895DF92EF92FF920F931F93CF93B5
:10404000DF9300D01F92CDB7DEB7FC0180918401D1
:10405000811113C0309789F083819481892B69F095
:10406000F080E280D1808EE08E1538F08F010E94C2
:10407000CB22811104C00E94AA2280E017C18D2D9D
:104080000E94AA138111F7CFF80183819481909344
:104090004411809343113596F0934611E0934511F6
:1040A000FF2059F3F1E0FF1253C0A1E0B0E002C0DD
:1040B000AA0FBB1FEA94E2F7119620EC33E00E94AE
:1040C0004D2F60933D1170933E1180933F1190935B
:1040D00040118091291190912A119093421180935F
:1040E000411183E08093651188E08093661180918F
:1040F000231191E0980F90932311809367118FEF14
:10410000809368118093691180936A1180936B1179
:1041100087E080936C118FEF9FEF0E9482138111D3
:10412000AACF65E671E18AE00E940516882309F4AA
:10413000A2CF9FB79B83F89492E0909384019B81D8
:104140009FBFE0914511F0914611128291E049C064
:1041500082E0F81248C0A1E0B0E002C0AA0FBB1F85
:10416000EA94E2F7119620EC33E00E944D2F609321
:104170003D1170933E1180933F11909340118091B7
:10418000291190912A1190934211809341118FEF40
:104190009FEF0E94821381116ECF86E10E947D23E2
:1041A000882309F468CF60913D1170913E11809190
:1041B0003F119091401120E030E042EE5FE10E941B
:1041C000842E882309F457CF9FB79A83F89492E0FE
:1041D000909384012A812FBFE0914511F0914611FF
:1041E0001282918363C0E3E0FE1245CF80E098E73E
:1041F000A0E0B0E080933D1190933E11A0933F1159
:10420000B093401113E01093651188EC8093661110
:104210008091231191E0980F90932311809367115F
:104220008FEF809368118093691180936A11809356
:104230006B1180936C1180936D1180912B11809381
:104240006E1180912C1180936F1180912D118093AC
:10425000701180912E118093711180912F11809394
:10426000721180913011809373118091311180937C
:104270007411809132118093751186E080937611CC
:1042800065E671E184E10E940516882309F4F3CE06
:104290009FB79983F89492E09093840199819FBF8E
:1042A000E0914511F0914611128211830F900F9009
:1042B0000F90DF91CF911F910F91FF90EF90DF90C2
:1042C0000895FC018081882321F080E090E00C9427
:1042D000E21F86E10E947D238823B9F360913D119E
:1042E00070913E1180913F119091401120E030E09B
:1042F00042EE5FE10E94842E882339F3089583FF04
:10430000B9C08091590D811150C08091550D909187
:10431000560D892B09F4AEC0289880E28EBD0DB4ED
:1043200007FEFDCF8EB580935A0D8EBD0DB407FEEE
:10433000FDCF8EB58F7780935A0D289A80915A0DB4
:10434000883008F497C0289882E88EBD0DB407FE27
:10435000FDCF8EB58EBD0DB407FEFDCF8EB5289A6C
:10436000289892EC9EBD807E89600DB407FEFDCF3B
:104370009EB58EBD0DB407FEFDCF8EB5289A9091E7
:104380003712992309F452C08091E51124E0829FED
:10439000F0011124EA51FE4E2091550D3091560D39
:1043A000318320832AE53DE053C01092590D2898AF
:1043B00082E88EBD0DB407FEFDCF8EB580938501DA
:1043C0008EBD0DB407FEFDCF8EB580938501289A72
:1043D00080918501829586958770809385012898C4
:1043E00082E88EBD0DB407FEFDCF8EB58EBD0DB437
:1043F00007FEFDCF8EB5289A289892EC9EBD807E50
:1044000083600DB407FEFDCF9EB58EBD0DB407FED3
:10441000FDCF8EB5289A2091570D3091580D21155A
:10442000310541F190913712911106C080913612F9
:104430008F5F8093361208958091E51144E0849F48
:10444000F0011124EA51FE4E3183208325E831E04A
:1044500033832283833119F41092E51103C08F5FF7
:104460008093E5119150909337128091E4118F5F02
:104470008093E4110895CF938FEF8093850110927C
:104480005A0D1092590D1092580D1092570D10920E
:10449000560D1092550D0E941310C82F811102C0A5
:1044A000C0E055C08BEF93E00197F1F700C000002A
:1044B0002E982D982C9890E19A95F1F72D9A8FE5EA
:1044C00099E00197F1F700C000008FE599E00197AE
:1044D000F1F700C0000023E040E06FE182E00E94BD
:1044E0007D108BEF93E00197F1F700C0000040E0F2
:1044F0006FE181E00E946610883091F68DE10E94A4
:104500003010823069F68EE10E9430108F3141F612
:104510008FE791E20E940C1120E043E068E083E025
:104520000E947D1020E040E067E083E00E947D1063
:1045300021E047E060E885E00E947D106CE08EE0BD
:104540000E944B1080916F00806280936F008C2FCF
:10455000CF9108951092590D1C9916C040E06FE15B
:1045600081E00E946610883041F42C9A8FE599E032
:104570000197F1F700C00000089528E040E06FE1E6
:1045800082E00E947D10EACF08950E941E110E94D1
:10459000AA220C942A101092590D1C9B11C02C9821
:1045A0008FE99FE00197F1F700C0000040E06FE164
:1045B00081E00E94661091E0883019F090E001C01F
:1045C00091E0892F08950E94CB2223E040E06FE123
:1045D00082E00E947D1040E06FE181E00E94661061
:1045E000883099F710925A0D1092590D0895CF9373
:1045F000DF931F92CDB7DEB7682F82E299830E94C6
:104600004B109981692F83E20F90DF91CF910C9429
:104610004B10CF93DF931F92CDB7DEB7682F80E2A8
:1046200099830E944B109981692F81E20F90DF914D
:10463000CF910C944B10CF93DF93EC01688184E20F
:104640000E944B10698185E20E944B106A8186E2CC
:104650000E944B106B8187E20E944B106C8188E2B4
:104660000E944B106D8189E20E944B106E818AE29C
:104670000E944B106F818BE2DF91CF910C944B1015
:10468000811102C020E001C021E043E068E08EE239
:104690000C947D10CF93DF931F92CDB7DEB78823A4
:1046A000B9F061157105A1F09FB79983F8949091C5
:1046B000590D992319F089818FBF0AC02C9A2C9823
:1046C00099819FBF0E94A01081E08093590D01C085
:1046D00080E00F90DF91CF910895882339F0611524
:1046E000710521F00E94EB1081E0089580E00895AB
:1046F00040E06FE181E00C946610CF93DF9310925D
:10470000590D98EF980F923038F0982F9F7E963081
:1047100019F0893109F055C01C9953C0C82F40E0E9
:104720006FE181E00E946610D82F8F7E8150823029
:1047300008F447C0CD1709F446C0C83059F42C9886
:1047400080E18A95F1F723E040E06FE182E00E948A
:104750007D102BC0C93161F4D631C1F429E040E0AD
:104760006FE182E00E947D1082E08A95F1F70DC032
:10477000C63161F4D93151F426E040E06FE182E0C6
:104780000E947D1092E09A95F1F700C02C2F40E036
:104790006FE182E00E947D10D83039F487E691E025
:1047A0000197F1F700C0000004C092E09A95F1F77C
:1047B00000C040E06FE181E00E94661091E08C173C
:1047C00019F090E001C091E0892FDF91CF91089519
:1047D000CF9395EF980F903170F4C82F282F40E0B9
:1047E0006FE188E00E947D1040E06FE188E00E9468
:1047F000661091E0C81390E0892FCF910895CF9370
:10480000DF931F92CDB7DEB72FB72983F89490932B
:10481000580D8093570D89818FBF0F90DF91CF91F5
:104820000895CF93DF931F92CDB7DEB72FB72983BB
:10483000F8949093560D8093550D89818FBF0F90FA
:10484000DF91CF91089510925D0D10925C0D109242
:104850005B0D81E00895AF92BF92CF92DF92EF920D
:10486000FF920F931F93CF93DF931F92CDB7DEB7C5
:10487000F901009709F46DC0423008F46AC0623053
:10488000710508F466C02FB72983F8948C01060FD0
:10489000171FDC0120E0E42EF12C670131E0C31A80
:1048A000D108A22EB12CAC14BD044CF411961C936B
:1048B0000E93060F171F2F5FA60FB71FF2CF1D9283
:1048C0001C92718360834283438395838483E69E35
:1048D0009001E79E300DF69E300D112421503109D4
:1048E000280F391F378326839187808780915D0D3C
:1048F000811107C013861286F0935C0DE0935B0D67
:1049000021C040915B0D50915C0D382FDA010D9163
:104910001C9111970617170760F41A962C911A9795
:104920001B969C911B973150AD0129F0A22FB92FF6
:10493000EECF2A2F9B2FDA011B96FC93EE931A974A
:10494000228793878F5F80935D0D89818FBF81E080
:1049500001C080E00F90DF91CF911F910F91FF90E8
:10496000EF90DF90CF90BF90AF900895CF93DF93FB
:104970001F92CDB7DEB7AC01892BA1F180915D0DFF
:10498000882381F18FB78983F894E0915B0DF091D2
:104990005C0D20915D0D90E02223E1F091110FC09C
:1049A000608171816417750718F08381811105C0DA
:1049B0000284F385E02D2150EFCF91E0EDCFA0856B
:1049C000B1858D919C9111979187808783818150CA
:1049D000838304C09111F3CFA0E0B0E089818FBF41
:1049E000CD0102C080E090E00F90DF91CF9108955B
:1049F000CF93DF931F92CDB7DEB70097A9F1209137
:104A00005D0D222389F12FB72983F894E0915B0D86
:104A1000F0915C0D30915D0D20E0332399F0211170
:104A200013C046815781648175818617970718F0F6
:104A30004817590728F40284F385E02D3150EDCF53
:104A400021E0EBCF222371F033812281321760F411
:104A500020853185DC012D933C939187808783816C
:104A60008F5F838389818FBF0F90DF91CF910895EE
:104A70001092E51183E180935E0D1092E41184E1C0
:104A8000809337121092361281E00895CF93DF930E
:104A90001F92CDB7DEB720913712222339F1E09172
:104AA000E51124E0E29FF0011124EA51FE4E9183CA
:104AB0008083738362838FB78983F8948091E51133
:104AC000833119F41092E51103C08F5F8093E511D3
:104AD0008091E4118F5F8093E411809137128150AF
:104AE0008093371289818FBF81E001C080E00F90F1
:104AF000DF91CF910895CF93DF931F92CDB7DEB7AB
:104B00008FB78983F8948091E411811103C0898162
:104B10008FBF26C090915E0D933119F410925E0DF7
:104B200003C09F5F90935E0D81508093E41180914C
:104B300037128F5F8093371289818FBFA0915E0DEE
:104B400084E0A89FD0011124AA51BE4EED91FC91A2
:104B50001197309729F012968D919C911397099592
:104B60000F90DF91CF91089580918601853011F0EB
:104B700080E0089541E06091261180912911909183
:104B80002A110E94BC138111F3CF0E94A61F81112C
:104B9000EFCF60913B1170913C1180912711909162
:104BA00028110E94C62D0E94112E909351128093BD
:104BB000501284E08093860181E080935212089520
:104BC0000895CF93DF93CDB7DEB729970FB6F8944A
:104BD000DEBF0FBECDBFEFB7E983F8941092640D2E
:104BE0001092630D1092620D1092610D1092600D83
:104BF00010925F0DE981EFBF2A833B834C835D8375
:104C00006E837F83888799870E94CC2D0E940D2C0C
:104C10002A813B814C815D816E817F818885998568
:104C20000E94FF138823C1F083ED97E20E9467146E
:104C30008DE49AE20E947E1488EC9BE20E94951417
:104C400080EE95E20E94AC1481EA9AE20E94C314BD
:104C50001092860181E001C080E029960FB6F89499
:104C6000DEBF0FBECDBFDF91CF910895CF93DF930D
:104C70001F92CDB7DEB7809186018130B1F00E94DE
:104C800048148FB78983F8941092640D1092630DC5
:104C90001092620D1092610D1092600D10925F0DD6
:104CA00089818FBF81E0809386010F90DF91CF9142
:104CB00008958091630D9091640D0895CF93DF93D3
:104CC0001F92CDB7DEB72FB72983F8949093640D68
:104CD0008093630D89818FBF0F90DF91CF910895ED
:104CE0008091610D9091620D0895CF93DF931F9293
:104CF000CDB7DEB72FB72983F8949093620D8093D8
:104D0000610D89818FBF0F90DF91CF9108958091C0
:104D10005F0D9091600D0895CF93DF931F92CDB7F3
:104D2000DEB72FB72983F8949093600D80935F0DC1
:104D300089818FBF0F90DF91CF910895CF93DF933B
:104D4000009799F0E091690DF0916A0D309769F044
:104D5000A091670DB091680D109739F0EC01888132
:104D60008C93CD01DF91CF910994DF91CF9108957C
:104D7000CF93DF93009769F0EC010E945926FC0164
:104D8000CE01309711F00995CE01DF91CF910C94AF
:104D9000F824DF91CF9108958091650D9091660D73
:104DA0000E94F8240C94A61FCF93DF93E0913B114F
:104DB000F0913C113097A1F4209150123091511292
:104DC00028173907D8F10197B9010E94302F629F47
:104DD000C001639F900D729F900D112401962EC00B
:104DE000E817F90738F520914E1230914F122E0F27
:104DF0003F1F82179307F0F4C0915012D0915112C7
:104E00009E012E0F3F1F28173907C0F09F012095E4
:104E10003095820F931FBE010E94302F6C9F90012E
:104E20006D9F300D7C9F300D1124CF010196820FB4
:104E3000931F04C08091271190912811DF91CF9189
:104E400008957F928F929F92AF92BF92CF92DF92FE
:104E5000EF92FF920F931F93CF93DF93EC0180911A
:104E600086018350833008F057C0209709F454C05E
:104E70008F819885892B09F44FC089859A85892B64
:104E800009F44AC020913B1130913C1189819A81EB
:104E90002817390709F440C08E819FEF980F9E357F
:104EA000D8F590E008960E94B6248C01892BA1F1D8
:104EB00084E0F8018083118289819A8193838283BF
:104EC00080903B1190903C11958284828B8181115E
:104ED00002C082E001C0F80186838091691291E0EE
:104EE000980F90936912F80187834E8150E06F818B
:104EF0007885C80108960E94272F8E8198E0792E28
:104F0000780E89819A810E94D4268F3FFFEF9F07F8
:104F100029F4C8010E94F824C0E036C022E02C87A2
:104F20008D869E861F86188A198A1A8A1B8A1C8A71
:104F30002D8B2091291130912A113F8B2E8B4C0102
:104F4000888F998E1A8E1B8E1C8E1D8E1E8E1F8E24
:104F500081E088A379A21BA30AA38EE996E29DA310
:104F60008CA389859A8590936A0D8093690DCE01F3
:104F70000B969093680D8093670D01960E94271CF5
:104F8000C82FC8010E94F8248C2FDF91CF911F9168
:104F90000F91FF90EF90DF90CF90BF90AF909F90D8
:104FA0008F907F9008958F929F92AF92BF92CF92F1
:104FB000DF92EF92FF920F931F93CF93DF93FC0149
:104FC0009589983008F494C08F01E18CF12CFE2C67
:104FD000EE24808DE82A20913B1130913C11E2169D
:104FE000F30609F458C08BE190E00E94B624EC016E
:104FF0009093660D8093650D892B51F0C7010E9437
:10500000D4268F3F2FEF920789F4CE010E94F82417
:10501000DF91CF911F910F91FF90EF90DF90CF9094
:10502000BF90AF909F908F900C94A61F22E0288392
:1050300080903B1190903C1189829A821B821C8245
:105040001D821E821F821886298720912911309186
:105050002A113B872A874C018C879D861E861F86D6
:10506000188A198A1A8A1B8A81E08C8BF801858933
:105070008D8B0A5E1F4F1F8B0E8B8CEC96E2998FE7
:10508000888FCE010E94271C8111C2CF8091650DAF
:105090009091660DBBCF892F90E001970E94B624B6
:1050A000EC01892B29F181E08883FA82E982F801F9
:1050B000838D90E0982F8827228D822B9C838B8371
:1050C00084898D83858988508E83458950E0485036
:1050D0005109B801625E7F4FCE0107960E94272FCB
:1050E000BE0188EB96E20E944625811191CF8DCFBB
:1050F000DF91CF911F910F91FF90EF90DF90CF90B4
:10510000BF90AF909F908F90089510928601E0918C
:105110003812F09139120994CF93DF93EC010E9479
:10512000DA1460913A1270913B128881FB01EF5BB7
:10513000FF4F808380914612EB0189938091471243
:105140009091481220E1009769F0FC013496DE014D
:10515000322F01900D923A95E1F76096FC01808123
:105160009181F1CF85E898E2DF91CF910C944625AB
:10517000CF93DF93FC012181223009F04EC0EC0176
:10518000848195810E94F02C892B09F046C00E94F1
:10519000332CFC01892B31F480E090E0DF91CF913A
:1051A0000C94582C8A819B81958384831682178264
:1051B0001086118612861386148615868C8586873E
:1051C0001786108A8D859E85282F2F70218B282F7A
:1051D00022952F70228B97FD02C0138A02C081E0B6
:1051E000838B148A158A168A178A108E118E128E56
:1051F000138E8C819D81958F848F83E0868F178E8F
:1052000080A38FE081A312A281E083A38F8584A372
:10521000CF01DF91CF910C947A2CDF91CF9108953B
:10522000CF93DF9320918601222311F080E02AC0E2
:105230000097E1F3FC012281338121153105B1F39F
:105240003093391220933812049690933B12809336
:105250003A12EF01CA5BDF4F81E088838081898346
:1052600081818A838CE898E29C838B8388EB98E227
:105270000E94EC14CE010E941A208823B9F292E019
:1052800090938601DF91CF9108952091860122238A
:1052900011F080E008950097E1F3FC0141E06081A6
:1052A000818192810E94BC138111F3CF80E090E054
:1052B0000E9496138111EDCF0E94A61F8111E9CFA4
:1052C00010926512109264120E94112E9093511246
:1052D0008093501290934F1280934E1283E08093EC
:1052E000860182E08093521281E00895CF93DF938C
:1052F000FC01C0913C12D0913D1280819181998333
:1053000088838091291190912A119B838A838281BD
:105310008C838281811122C080819181909365125A
:1053200080936412109251121092501260913B11AE
:1053300070913C1180912711909128110E94C62DE7
:1053400081500E94112E90934F1280934E1285E04F
:105350008093860183E0809352120AC080913812B4
:10536000909139120E94F02C009711F00E94AC2C01
:10537000E0913A12F0913B12CE01DF91CF91099466
:10538000CF93DF93009769F0EC010E947026FC0137
:10539000CE01309711F00995CE01DF91CF910C9499
:1053A000F824DF91CF9108958F929F92AF92BF9290
:1053B000CF92DF92EF92FF92FC01892B09F463C038
:1053C000268137812115310509F45DC08281811163
:1053D0005AC080918601811156C0A0914712B091A8
:1053E0004812109709F44FC014968D919C9115970F
:1053F000408151818417950729F453964C91539716
:10540000411104C00D90BC91A02DEBCF1E964C9184
:105410001E97458742E04687908B87875C964D9123
:105420005C915D974A01418B928A138A148A158A8E
:10543000168A178A108E8381811182E094819130BF
:1054400009F48460958191118860818F86E799E2E3
:10545000938F828F30933B1220933A12CF0108969C
:1054600090933D1280933C1250933912409338121E
:105470000596FF90EF90DF90CF90BF90AF909F90F8
:105480008F900C94661680E0FF90EF90DF90CF90A5
:10549000BF90AF909F908F9008950F931F93CF93DD
:1054A000DF93EC018BE090E00E94B6248C01892B05
:1054B00009F442C088E0FE01D80101900D928A955E
:1054C000E1F7888590E090933B1280933A1228810F
:1054D00039814A815B816C817D818E819F810E94AF
:1054E0000A2D0097A1F4888581FD03C00E94802DBC
:1054F00002C00E94572D009751F48FEF9FEFF801E3
:105500009187808781E08287109220110BC0FC0177
:10551000848D958DF80191878087909339128093BF
:1055200038121286C8010E943518C801DF91CF9148
:105530001F910F910C94F824DF91CF911F910F913F
:1055400008950F931F93CF93DF93FC0124892111BA
:105550003FC0EC018BE090E00E94B6248C01892BC7
:10556000B9F18091381290913912D8018D939D93A1
:105570002C9688E0FE0101900D928A95E1F78091CA
:105580003A12F801828780913812909139120E9464
:10559000F02C009779F0DC01549628E0FE01019090
:1055A0000D922A95E1F72091381230913912FC01C1
:1055B000358F248FB80180EC99E20E944625811135
:1055C00007C0C801DF91CF911F910F910C94F8246F
:1055D000DF91CF911F910F910895CF93DF93EC014D
:1055E00090915212933039F40E94CC2D0E940D2CD0
:1055F0001092860107C0913011F483E001C084E06D
:1056000080938601E0913A12F0913B1270913C1226
:1056100060913D1250913E1240913F1230914012E4
:1056200020914112909142128091431270836183C4
:10563000528343833483258396838783A0913A12D0
:10564000B0913B12888118968C931897E09138128C
:10565000F0913912CD01DF91CF910994AF92BF92B1
:10566000CF92DF92EF92FF920F931F93CF93DF932E
:10567000009711F480E081C0FC0124853585232B3F
:10568000C9F3EC018C01095E1F4FA080B180C2807C
:10569000D380E480F580B681F7819501A601B7013A
:1056A0008B2F9F2FA0E0E09152120E947B2FE1F4FC
:1056B000E33001F7809133118F8B80913411888F03
:1056C00080913511898F809136118A8F80913711A1
:1056D0008B8F809138118C8F809139118D8F8091B3
:1056E0003A118E8F82E017C0E150E23018F6950132
:1056F000A601B7018B2F9F2F0E940A2D009709F456
:10570000B9CF0E94AC2C88E0FE01D80101900D9227
:105710008A95E1F781E08F8F8DEE9AE299A388A3B5
:105720008C859D859093391280933812CE010E9608
:1057300090933B1280933A12788169815A814B8110
:105740003C812D819E818F8170933C1260933D122C
:1057500050933E1240933F123093401220934112D7
:105760009093421280934312C8010E94FA1D88232D
:1057700009F480CF96E090938601DF91CF911F913D
:105780000F91FF90EF90DF90CF90BF90AF90089572
:10579000EF92FF920F931F93CF93DF93EC018091D1
:1057A00052128150823088F4288139814A815B818C
:1057B0006C817D818E819F810E940A2D009729F046
:1057C0000E94AC2C81E0809320110E9487267C01EE
:1057D000892BE1F089E090E00E94B6248C01892BAE
:1057E000A9F088E0FE01D80101900D928A95E1F7B9
:1057F000F8011086C801F7010995C801DF91CF9122
:105800001F910F91FF90EF900C94F824DF91CF91AE
:105810001F910F91FF90EF900895109246121092F1
:10582000451210924412109248121092471280E7CB
:105830009DE090936F0D80936E0DFC01CF018596D6
:1058400091838083FC0180E1E83EF807B9F710926C
:10585000E9101092E81089E180936D0D10926C0DA3
:1058600010926B0D0895CF93DF931F92CDB7DEB7E3
:105870008FB78983F89480916D0D811105C089815E
:105880008FBF80E090E010C0E0916E0DF0916F0D41
:105890002081318130936F0D20936E0D8150809364
:1058A0006D0D89818FBFCF010F90DF91CF9108954A
:1058B000CF93DF931F92CDB7DEB7FC018FB78983FB
:1058C000F89490916D0D993179F0309769F02091AD
:1058D0006E0D30916F0D31832083F0936F0DE09347
:1058E0006E0D9F5F90936D0D89818FBF0F90DF913B
:1058F000CF910895CF93DF931F92CDB7DEB7FC0110
:10590000892B31F18FB78983F894A0914412B0911B
:105910004512109759F4F0934512E0934412F09316
:105920004812E09347121382128209C01196FC9329
:10593000EE93B383A283F0934512E0934412118255
:10594000108289818FBF809146128F5F80934612AB
:105950000F90DF91CF910895CF93DF931F92CDB732
:10596000DEB7FC01892BC1F18FB78983F894868D4E
:10597000823031F480916C0D815080936C0D05C0A4
:1059800080916B0D815080936B0D228133818081DA
:1059900091812115310529F4909348128093471283
:1059A00003C0D9018D939C9380819181009729F444
:1059B000309345122093441205C0DC0113963C93AA
:1059C0002E931297CF0129812FBF2091461221508B
:1059D000209346120E94582C0F90DF91CF9108958A
:1059E000AC0120914612222381F0E0914712F09100
:1059F000481290E0648D758D4617570749F0019065
:105A0000F081E02D9F5F9213F5CF80E090E0089544
:105A1000CF0108954F925F926F927F928F929F92E3
:105A2000AF92BF92CF92DF92EF92FF920F931F93AC
:105A3000CF93DF93E901942E852E762E672E582E74
:105A4000492EB0914612BB23E9F0E0914712F09144
:105A50004812A0E0A488B588C688D788E08CF18C6D
:105A6000028D138D9E01492D582D672D762D852D84
:105A7000942D0E94722F49F00190F081E02DAF5FCC
:105A8000AB13E8CF80E090E001C0CF01DF91CF9170
:105A90001F910F91FF90EF90DF90CF90BF90AF904C
:105AA0009F908F907F906F905F904F900895CF93CD
:105AB000DF9320916C0D30916B0D822F90E0830F5E
:105AC000911D4997C4F4211116C00E94332CEC019A
:105AD000892B89F0809164129091651201969D8FB7
