:100000000C94CD000C94EC000C94EC000C94EC00DF
:100010000C94EC000C94EC000C94EC000C94EC00B0
:100020000C94EC000C94EC000C94050E0C94EC0079
:100030000C94EC000C94EC000C94EC000C94EC0090
:100040000C94210B0C94750B0C94E30B0C94EC00AA
:100050000C945E0B0C94EC000C94EC000C94EC00F3
:100060000C94EC000C94EC000C94EC000C94EC0060
:100070000C94EC000C94EC000C94EC000C94EC0050
:100080000C94EC000C94EC000C94EC000C94EC0040
:100090000C94EC000C94EC00B909AB06D406FB07F9
:1000A000FB07FB07FB07A207F107F507F807FB07AC
:1000B000FB07050817081A08C309C309C309C309C0
:1000C000C309C309C309C3092008C309C309C30974
:1000D000C309C309C309C309C3094B089E08C4085F
:1000E000D7081F096B09AB093515D21481150715FF
:1000F00081159A14F11381157E14BB146D15D31854
:10010000C918D718D718CB18D718CB18D718D7189D
:10011000CD18D718CF18D118D518BA26785BCE7459
:10012000B8162AEFF3CC8B4E530AE2D7B73C564CA5
:10013000B566DB1E57EEE6F4431A06DFCD9F863E1A
:100140008A793A04097C1FBB12A0779B40FC00AD62
:10015000316F9AA69E150D6C447035F064D67E48BA
:100160003D50622FC630E760F8DC5C5F08C3B9130E
:10017000A8BEE97A8165BCD22E55E590F7A77BC26F
:10018000C1EA4AAE93F2FFB3C567399849052C3FDF
:10019000388DD3CA2DE0B200000011241FBECFEF6E
:1001A000D0E2DEBFCDBF11E0A0E0B1E0E0E8F7E6CD
:1001B00000E00BBF02C007900D92A039B107D9F73C
:1001C00022E1A0E9B1E001C01D92AA36B207E1F731
:1001D0000E942A010C9436330C9400005D98F89428
:1001E000FFCF8DEE8093640089E88093650080B72F
:1001F000806880BF80EF80937E000E94BD288111BF
:1002000002C080E008950E94A8278823D1F329ED39
:100210003AE045E060E270E089E39AE00E94B027AE
:10022000882379F32DE23AE04FE063E970E080E95A
:1002300091E00E94B027882321F30E94FB3188239C
:1002400001F3579A6F9A6E9A559A5F98779A769AB1
:100250005D9A08950FB6F894A89580916000886122
:1002600080936000109260000FBE0E94F10088230E
:1002700031F00E942210811104C00E9457100E9488
:10028000EE000E94D909811103C00E944D0AF7CFE8
:100290000E945710769878940E9418290E94023381
:1002A0000E94B80C0E94D5020E94740AF5CF0895EE
:1002B00083FF27C01092530C1092520C289882E8AA
:1002C0008EBD0DB407FEFDCF8EB58EBD0DB407FEFD
:1002D000FDCF8EB5289A289892EC9EBD807E8360D3
:1002E0000DB407FEFDCF9EB58EBD0DB407FEFDCF4C
:1002F0008EB5289A82E08A95F1F700C082E080935B
:100300000001089583FF73C08091E90A81110AC03A
:100310008091070B9091080B01969093080B8093A6
:10032000070B0895289880E28EBD8091EC0AE82F93
:10033000F0E0EE0FFF1FE351F54F0190F081E02D4B
:10034000893019F41092EC0A03C08F5F8093EC0A95
:100350008091EA0A8F5F8093EA0A8091E90A8150CE
:100360008093E90A0DB407FEFDCF8EB58EBD80E502
:1003700080838091060B86830DB407FEFDCF8EB57A
:100380008F779AE0980F91838087DF0119968F5FAE
:100390008EBD4091020B5091030B6091040B709144
:1003A000050B42835383648375830DB407FEFDCF31
:1003B0009EB59EBD9D9381500DB407FEFDCF81116A
:1003C000F7CF289A289886E88EBD0DB407FEFDCF9A
:1003D0008EB587838EBD0DB407FEFDCF8EB58783A6
:1003E000289A8781881F8827881F8783089582FF1E
:1003F00027C00E943932DC01CB01B695A7959795AD
:1004000087958093020B9093030BA093040BB093FA
:10041000050B289886E88EBD0DB407FEFDCF8EB57E
:100420008093060B8EBD0DB407FEFDCF8EB5809375
:10043000060B289A8091060B8F718093060B089506
:100440008091010B8F5F8093010B0895CF93DF9311
:1004500010920A0B1092090B1092080B1092070BC6
:100460001092060B1092020B1092030B1092040BC9
:100470001092050B1092010B1092EC0A1092EB0AED
:100480001092EA0A8AE08093E90A1092E80A109230
:10049000E70A1092E60A1092E50A0E940A128BEF10
:1004A00093E00197F1F700C000002E982D982C984A
:1004B00090E19A95F1F72D9A8FE599E00197F1F780
:1004C00000C000008FE599E00197F1F700C000003F
:1004D00023E040E06FE182E00E9474128BEF93E032
:1004E0000197F1F700C0000040E06FE181E00E9459
:1004F0005D12883071F520E043E068E083E00E94FF
:10050000741220E040E067E083E00E94741221E072
:1005100047E060E885E00E9474126CE08EE00E9483
:10052000421280916F00806280936F00CDEEDAE01E
:1005300089E890E00E943B28009759F089939993AD
:100540009BE0C130D907A1F782E08093000181E0F0
:100550000FC00E942112CDEEDAE0888199810E94BD
:100560007D28199219928BE0C130D807B1F780E04D
:10057000DF91CF910895CF93DF9380910001813077
:1005800089F0CDEEDAE0888199810E947D28199268
:1005900019928BE0C130D807B1F70E94211281E097
:1005A00080930001DF91CF910895CF93DF9300D026
:1005B000CDB7DEB780910001843009F0B4C08091DE
:1005C000EA0A882309F4B7C081E08093E9008091AA
:1005D000E80080FFB0C08091E8008E7F8093E80043
:1005E0008091E80A81114FC08091E70A81111FC0F4
:1005F000E091EB0AF0E0EE0FFF1FE351F54F0190A1
:10060000F081E02DF093E60AE093E50A2181209342
:10061000E80A822F90E0CF9636E0969587953A9536
:10062000E1F72F7309F48F5F8093E70A2CC08130C4
:1006300049F58091E8008F778093E8001092E70AEF
:100640008FB78A83F8948091EB0A893019F410925D
:10065000EB0A03C08F5F8093EB0A8091EA0A815016
:100660008093EA0A8091E90A8F5F8093E90A80917A
:10067000090B90910A0B019690930A0B8093090B3A
:100680008A814FC07698E091E50AF091E60A808170
:100690008093F1008091E50A9091E60A019690938B
:1006A000E60A8093E50A8091E80A81508093E80A7F
:1006B000882321F08091E80085FDE5CF8091E70A4D
:1006C00081508093E70A8091E8008F778093E8005B
:1006D0008091E80A81112FC08091E70A81112BC017
:1006E0008FB78983F8948091EB0A893019F41092BE
:1006F000EB0A03C08F5F8093EB0A8091EA0A815076
:100700008093EA0A8091E90A8F5F8093E90A8091D9
:10071000090B90910A0B019690930A0B8093090B99
:1007200089818FBF08C0803131F447E851E068E02B
:1007300081E00E94840D0F900F90DF91CF9108957A
:10074000CF9390910001923051F595EF980F903131
:1007500030F5C82F8FE599E00197F1F700C0000050
:1007600023E040E06FE182E00E9474128BEF93E09F
:100770000197F1F700C0000040E06FE181E00E94C6
:100780005D12883061F42C2F40E06FE10E947412FA
:1007900040E06FE188E00E945D1291E0C81390E0B4
:1007A000892FCF910895CF93DF931F92CDB7DEB7F6
:1007B00080910001823011F080E048C023E040E0E9
:1007C0006FE182E00E9474128BEF93E00197F1F7E2
:1007D00000C0000040E06FE181E00E945D128830BF
:1007E00059F726E040E06FE182E00E94741287E64C
:1007F00091E00197F1F700C0000040E06FE181E077
:100800000E945D128630C1F68FB78983F8941092EA
:10081000EC0A1092EB0A1092EA0A8AE08093E90A45
:100820001092E80A1092E70A1092E60A1092E50A7E
:1008300010920A0B1092090B89818FBF82E891E018
:100840000E94031384E08093000181E00F90DF9108
:10085000CF91089580910001843011F080E00895D7
:100860000E94271323E040E06FE182E00E947412AF
:100870008BEF93E00197F1F700C0000040E06FE1DB
:1008800081E00E945D12883049F782E08093000188
:1008900081E0089587E591E00E9403130E942713E9
:1008A00080E0089580910001803111F080E008958A
:1008B0000E94271323E040E06FE182E00E9474125F
:1008C0008BEF93E00197F1F700C0000040E06FE18B
:1008D00081E00E945D12883049F782E08093000138
:1008E00081E008950F931F93CF93181694F5611527
:1008F000710589F190910001923079F58B01C82F33
:1009000040E06FE181E00E945D12883041F529E00E
:1009100040E06FE182E00E94741287E691E0019767
:10092000F1F700C0000040E06FE181E00E945D123D
:100930008930B9F488E591E00E9403132C9A2C9831
:10094000B8018C2F0E94971280E28093000180E012
:1009500009C081E007C082E005C083E003C084E0F5
:1009600001C085E0CF911F910F910895CF938091A1
:100970000001823059F540E06FE181E00E945D1294
:10098000C82F883019F56AE171E08FE70E94BC1228
:100990006FE086E30E94421260E08DE30E94421203
:1009A0002E9A29E040E06FE182E00E94741287E60F
:1009B00091E00197F1F700C0000040E06FE181E0B5
:1009C0000E945D12893021F00E940A1280E007C067
:1009D00062E082E00E944212C093000181E0CF9168
:1009E000089580910001883011F080E008950E9400
:1009F0000A128823D1F392E0909300010895FC013C
:100A000084E08093E9009091E8009E7F9093E80055
:100A10008081882311F08BE801C080E88093F10089
:100A20008091E8008F778093E8008091250B90916A
:100A3000260B0C947D2824E02093E9002091E80007
:100A40002E7F2093E800FC018085882311F08BE83D
:100A500001C080E88093F1008091E8008F77809357
:100A6000E8008091210B9091220B0C947D2824E0CA
:100A70002093E9002091E8002E7F2093E800FC01FC
:100A8000EF5BFF4F8081882311F08BE801C080E885
:100A90008093F1008091E8008F778093E800809147
:100AA0001F0B9091200B0C947D2824E02093E900EB
:100AB0002091E8002E7F2093E800FC0184818823A8
:100AC00011F08BE806C081E080931E110E94C722BE
:100AD00080E88093F1008091E8008F778093E800B0
:100AE0008091230B9091240B0C947D28892B51F439
:100AF00084E08093E9008091E8008E7F8093E80095
:100B000081E80FC08DE896E00E94E328811112C0B1
:100B100084E08093E9008091E8008E7F8093E80074
:100B200085E98093F1008091E8008F778093E80059
:100B30000C946D0D0895CF93DF931F92CDB7DEB760
:100B4000FC018091110B81110AC080910B0B9091D7
:100B50000C0B019690930C0B80930B0B2FC0A09164
:100B6000140BB0E0AA0FBB1FAB5EB44F0D90BC914D
:100B7000A02D8FB78983F8949091140B943019F4B9
:100B80001092140B03C09F5F9093140B8091120B73
:100B90008F5F8093120B9091110B91509093110BDA
:100BA00089818FBF85E58C938AE011968C9311978C
:100BB000129688E001900D928A95E1F70F90DF91EF
:100BC000CF910895CF93DF931F92CDB7DEB72091D9
:100BD000110B21110AC080910B0B90910C0B019607
:100BE00090930C0B80930B0B35C0E091140BF0E04D
:100BF000EE0FFF1FEB5EF44FA081B1812FB7298369
:100C0000F8942091140B243019F41092140B03C0A3
:100C10002F5F2093140B2091120B2F5F2093120B48
:100C20002091110B21502093110B29812FBF24E516
:100C30002C932CE011962C931197FC0181919191AA
:100C400013969C938E931297149688E001900D92C0
:100C50008A95E1F70F90DF91CF910895CF93DF93BD
:100C60001F92CDB7DEB7FC018091110B81110AC034
:100C700080910B0B90910C0B019690930C0B809331
:100C80000B0B47C0A091140BB0E0AA0FBB1FAB5ECB
:100C9000B44F0D90BC91A02D8FB78983F89490919B
:100CA000140B943019F41092140B03C09F5F9093AF
:100CB000140B8091120B8F5F8093120B8091110B9C
:100CC00081508093110B89818FBF83E58C9386813E
:100CD000885F11968C9311978181928113969C93D2
:100CE0008E9312978381948115969C938E9314977B
:100CF000858116968C931697868117968C931797F5
:100D0000468150E0BF01695F7F4FCD0108960E9488
:100D100039330F90DF91CF9108950F931F93CF93A5
:100D2000DF93EC0184E08093E9009091E8009E7FDE
:100D30009093E8009091E80094609093E800E88137
:100D40004E2F50E04832510508F01DC3FA01E45B14
:100D5000FF4F0C94563384E08093E9008091E800C3
:100D60008E7F8093E80084E88093F1008AE080938E
:100D7000F1008BE48093F10089E48093F1008CE42E
:100D80008093F1008093F10085E48093F10082E587
:100D90008093F10082E48093F10080E38093F1007E
:100DA0008093F10081E3F8C284E08093E9008091B0
:100DB000E8008E7F8093E8008981811108C085E872
:100DC0008093F10081E08093F10089E1E5C28130F8
:100DD00021F495E89093F10006C0823039F485E85B
:100DE0008093F10081E08093F100D6C2803C61F4F1
:100DF00085E88093F10082E08093F10081E08093A8
:100E0000F1001092F100CAC2813C09F04FC185E89F
:100E10008093F100809101018093F1002091010104
:100E2000309102014091030150910401609105014C
:100E300070910601809107019091080108E00E94DD
:100E400068332093F100209101013091020140911B
:100E50000301509104016091050170910601809198
:100E600007019091080100E10E9468332093F1008E
:100E70002091010130910201409103015091040140
:100E80006091050170910601809107019091080120
:100E900008E10E9468332093F10020910101309114
:100EA000020140910301509104016091050170918C
:100EB0000601809107019091080100E20E946833C9
:100EC0002093F10020910101309102014091030132
:100ED0005091040160910501709106018091070114
:100EE0009091080108E20E9468332093F10020915C
:100EF0000101309102014091030150910401609180
:100F0000050170910601809107019091080100E3AD
:100F10000E9468332093F100209101013091020179
:100F20004091030150910401609105017091060107
:100F3000809107019091080108E30E946833209393
:100F4000F1002CC21092140B1092130B1092120B82
:100F500085E08093110B1092100B10920F0B1092E2
:100F60000E0B10920D0B10920C0B10920B0B0E949B
:100F7000BB020E94D32981E08093270B89818111D4
:100F800008C00E942602811102C083E847C082E0A7
:100F900023C0833021F5209101013091020140915D
:100FA0000301509104016091050170910601809147
:100FB0000701909108010E947E29882331F38EE277
:100FC00096E00E940D2A82EE95E00E94362A8BE977
:100FD00095E00E945F2A84E08093270B1EC082E880
:100FE0001DC089810E94A003D2C00E94D303CFC03C
:100FF0000E942A04CCC084E08093E9008091E8003C
:101000008E7F8093E80083E9C7C1BE016E5F7F4F8A
:1010100089810E947204811101C080E894E090935C
:10102000E9009091E8009E7F9093E800B5C10E948E
:10103000B60402C00E94F1048111ABC093E8ACC0B9
:1010400084E08093E9008091E8008E7F8093E8003F
:1010500080E88093F1008091E8008F778093E8002A
:101060000E946D0D2FE788E391E021508040904071
:10107000E1F700C0000065E38FE090E00E94B0332C
:1010800098E088E10FB6F894A895809360000FBEB1
:1010900090936000FFCF8E818F3550F084E0809375
:1010A000E9008091E8008E7F8093E80082E874C1B7
:1010B00087E290E00E943B28FC019093260B8093EE
:1010C000250B892B51F484E08093E9008091E8009E
:1010D0008E7F8093E80080E95FC1108289819A81C8
:1010E000928381838B8183838C8184838E818683A9
:1010F000CE010796908787838D8185838FEF94E05B
:1011000092878187CF010E94F42A81114CC184E02B
:101110008093E9008091E8008E7F8093E8008BE85F
:101120008093F1008091E8008F778093E8008091B0
:10113000250B9091260B0E947D2835C183E090E01D
:101140000E943B288C01892B99F08981F8018083CA
:101150008A819B8192838183C8010E94182D8823F4
:1011600011F0C0E801C0C2E8C8010E947D2801C09A
:10117000C0E984E08093E9008091E8008E7F80934D
:10118000E800C093F1000AC189810E94F0318823F0
:1011900011F090E801C092E884E08093E90080912A
:1011A000E8008E7F8093E8009093F100F7C08FE114
:1011B00090E00E943B289093240B8093230B892B73
:1011C00081F484E08093E9008091E8008E7F809331
:1011D000E80080E98093F1008091E8008F778093A8
:1011E000E800E091230BF091240B89819A8191838F
:1011F00080838B8182838C8183838D8184838E81A4
:10120000858385E595E097838683CF010E94A72D8E
:101210008111C9C084E08093E9008091E8008E7F4D
:101220008093E8008BE88093F1008091E8008F774D
:101230008093E8008091230B9091240B7CCF8FE169
:1012400090E00E943B289093220B8093210B892BE6
:1012500081F484E08093E9008091E8008E7F8093A0
:10126000E80080E98093F1008091E8008F77809317
:10127000E8008091210B9091220BFE01319628E02D
:10128000DC0101900D922A95E1F72985FC01208768
:101290002A8521872B8522872C8523872BE135E022
:1012A000358724870E94012F81117DC084E08093BF
:1012B000E9008091E8008E7F8093E8008BE88093BE
:1012C000F1008091E8008F778093E8008091210BF6
:1012D0009091220B30CF8AE890E00E943B289093B7
:1012E000200B80931F0B892B81F484E08093E9000D
:1012F0008091E8008E7F8093E80080E98093F10080
:101300008091E8008F778093E800E0911F0BF091C7
:10131000200B898180838A81818387E395E0938391
:101320008283CF010E94E32C81113DC084E0809331
:10133000E9008091E8008E7F8093E8008BE880933D
:10134000F1008091E8008F778093E80080911F0B77
:101350009091200BF0CE0E945129882351F084E017
:101360008093E9008091E8008E7F8093E8008BE80D
:1013700013C084E08093E9008091E8008E7F809321
:10138000E80080E809C084E08093E9008091E800EB
:101390008E7F8093E8008DE88093F1008091E800D3
:1013A0008F778093E800DF91CF911F910F910C947C
:1013B0006D0DEF92FF920F931F93CF93DF9300D0A9
:1013C0001F92CDB7DEB71092260B1092250B0E940C
:1013D000B91020930101309302014093030150930F
:1013E00004016093050170930601809307019093B7
:1013F000080110920C0B10920B0B05E11BE0780119
:1014000083E990E00E943B28009759F1F70181930E
:1014100091937F01FFE1EF16FBE0FF0689F7209132
:10142000010130910201409103015091040160914A
:1014300005017091060180910701909108010E94B9
:10144000040C82E0898386E795E09B838A83CE0142
:1014500001960E942E0D811104C081E08093270B1C
:1014600012C0F801808191810E947D28F8011192BB
:1014700011928F01FBE00F311F0799F70E945D0D5C
:101480000E948A0C80E00F900F900F90DF91CF9117
:101490001F910F91FF90EF900895CF93DF9380916C
:1014A000270B8823F1F01092270B8091250B909148
:1014B000260B0E947D281092260B1092250BC5E169
:1014C000DBE0888199810E947D28199219928BE036
:1014D000CF31D807B1F70E945D0DDF91CF910C9409
:1014E0008A0CDF91CF910895CF93DF9300D0CDB7D1
:1014F000DEB78091270B843009F09EC08091120BDB
:10150000882309F499C081E08093E9008091E80084
:1015100080FF92C08091E8008E7F8093E8008091E8
:10152000100B811147C080910F0B81111FC0E091FA
:10153000130BF0E0EE0FFF1FEB5EF44F0190F08114
:10154000E02DF0930E0BE0930D0B21812093100BF7
:10155000822F90E0CF9636E0969587953A95E1F701
:101560002F7309F48F5F80930F0B24C0813011F526
:101570008091E8008F778093E8008FB78A83F89492
:101580008091130B843019F41092130B03C08F5FFA
:101590008093130B8091120B81508093120B8091DA
:1015A000110B8F5F8093110B8A8145C08091E800F9
:1015B00085FF17C0E0910D0BF0910E0B8081809399
:1015C000F10080910D0B90910E0B019690930E0BF4
:1015D00080930D0B8091100B81508093100B811123
:1015E000E5CF80910F0B815080930F0B8091E80025
:1015F0008F778093E8008091100B81111DC080913E
:101600000F0B811119C08FB78983F8948091130B48
:10161000843019F41092130B03C08F5F8093130B67
:101620008091120B81508093120B8091110B8F5F70
:101630008093110B89818FBF0F900F90DF91CF9115
:1016400008951F920F920FB60F9211240BB60F92AE
:101650002F933F934F935F936F937F938F939F93BA
:10166000AF93BF93EF93FF9386B3856086BB2898B3
:101670008FE88EBD0DB407FEFDCF8EB58EBD0DB4C7
:1016800007FEFDCF8EB5289AE091520CF091530CD5
:10169000309709F00995FF91EF91BF91AF919F911C
:1016A0008F917F916F915F914F913F912F910F900B
:1016B0000BBE0F900FBE0F901F9018951F920F92A8
:1016C0000FB60F9211248F939F938091681290917F
:1016D0006912019690936912809368129F918F917D
:1016E0000F900FBE0F901F9018951F920F920FB67C
:1016F0000F9211240BB60F922F933F934F935F934A
:101700006F937F938F939F93AF93BF93EF93FF93C9
:101710008091141190911511892B31F480916F00F3
:101720008D7F80936F003CC08091101190911111BA
:10173000009779F001979093111180931011809187
:101740008400909185000197909389008093880090
:1017500027C080910E1190910F11009779F0209180
:10176000840030918500820F931F909389008093AD
:10177000880010920F1110920E1112C080916F000C
:101780008D7F80936F00E0911411F091151180917D
:1017900012119091131109951092151110921411B4
:1017A000FF91EF91BF91AF919F918F917F916F9139
:1017B0005F914F913F912F910F900BBE0F900FBEF5
:1017C0000F901F9018951F920F920FB60F92112431
:1017D0008F939F9380910C1190910D11019690938E
:1017E0000D1180930C118091840090918500865991
:1017F000974E90938B0080938A009F918F910F90CA
:101800000FBE0F901F9018957F928F929F92AF926C
:10181000BF92CF92DF92EF92FF920F931F93CF93DD
:10182000DF93122FD32EC42EB52EA62E972E882EE0
:10183000792E1092500C10924F0C10924E0C109268
:101840002D0B10922C0B10922B0B10921611109244
:101850002A0B1092290B1092280B809165008F772C
:10186000809365008DE0E82E81E0F82EC0E0D0E0A6
:10187000212F3D2D4C2D5B2D6A2D792D882D972DF7
:101880000C2F0E946833A22FA295AF70AA3010F4DB
:10189000A05D01C0A95CB0E0F701B383A283E22F91
:1018A000EF70EA3010F4E05D01C0E95CF0E0D701D0
:1018B0001596FC93EE9314972896B4E0EB0EF11C6A
:1018C000C033D105A9F68091D7008F7B8093D700D4
:1018D0008091D70080688093D7008091D80080697C
:1018E0008093D8008091D8008F7B8093D80080911E
:1018F000D80081608093D800DF91CF911F910F9124
:10190000FF90EF90DF90CF90BF90AF909F908F901F
:101910007F900895E8EDF0E080818F768083E5E6A2
:10192000F0E080818068808308958091D700816095
:101930008093D7008EE089BD09B400FEFDCF809171
:10194000D8008F7D8093D8008091E20081608093E1
:10195000E2008091E20088608093E2000E947D13A3
:101960008091E0008E7F8093E0001092500C0895EB
:101970008091D90080FF11C08091500C81110DC061
:1019800081E08093500C8091E20088608093E200B7
:101990008091E0008E7F8093E00080914F0C88233F
:1019A00049F081E08093EA001092EA0010924E0C18
:1019B00010924F0C1092E9008091E80083FD0E9484
:1019C000E01380912B0B882309F447C080912A0BE8
:1019D0008093E9008091E80082FF3FC08091E80099
:1019E0008B7F8093E8002091F20080912C0B9091E6
:1019F0002D0B820F911D8132914010F4322F06C0C1
:101A000010922B0B81E0809316110895332389F0F7
:101A100080912C0B90912D0B4091F100FC01E25D27
:101A2000F44F4083019690932D0B80932C0B3150F3
:101A3000EDCF8091E8008F778093E800203450F656
:101A400010922B0BE091280BF091290B6EE27BE0BA
:101A500080912C0B90912D0B09940895CF93DF93D7
:101A60001F92CDB7DEB7FC01892B11F180912B0BB2
:101A700081111CC080818823D9F08FB78983F894A5
:101A8000808180932A0B818192819093290B80938E
:101A9000280B10922D0B10922C0B81E080932B0BB6
:101AA0001092161189818FBF80E003C081E001C0D0
:101AB00082E00F90DF91CF910895CF93DF931F9233
:101AC000CDB7DEB78FB78983F89410922B0B89813D
:101AD0008FBF0F90DF91CF910895CF93DF931F9227
:101AE000CDB7DEB78FB78983F89481E080932B0B55
:101AF0001092161110922D0B10922C0B89818FBF12
:101B00000F90DF91CF9108958093E9008091E800D4
:101B100080FF40C0862F90E0CF9626E0969587956F
:101B20002A95E1F7282F362F3F7319F421E0280F6B
:101B300003C0862F613408F080E49091E8009E7F16
:101B40009093E800982FFA01992329F0319130936E
:101B5000F1009150F9CF480F511D60548091E80079
:101B60008F778093E800603410F4862F01C080E402
:101B70002150EFEFFFEF9091E80090FD07C0309704
:101B800019F4769881E008953197F5CF2111D5CFDA
:101B900080E0089584E008956623A9F18093E90028
:101BA0008FEF9091E80090FD06C0811102C084E0A3
:101BB00008958150F6CF8091E8008E7F8093E800F1
:101BC000FA01460F81918093F1004E13FBCF809173
:101BD000E8008F778093E800603499F48FEF90915C
:101BE000E80090FD04C0882311F38150F8CF809164
:101BF000E8008E7F8093E8008091E8008F778093E3
:101C0000E80080E0089581E008951F920F920FB6DA
:101C10000F9211240BB60F922F933F934F935F9324
:101C20006F937F938F939F93AF93BF93EF93FF93A4
:101C30008091DA0080FF19C08EEF8093DA008091E6
:101C4000D90080FF10C081E08093500C8091E200A9
:101C500088608093E2000E94950C8091E0008E7F66
:101C60008093E00002C01092500C8091DA0081FF56
:101C700005C08DEF8093DA008091D9008091E1005A
:101C800082FF03C08BEF8093E1008091E10080FF31
:101C900010C08EEF8093E1008091E200806180931C
:101CA000E2008FEE8093E1008091D8008062809303
:101CB000D8008091E10084FF0DC08091D8008F7D15
:101CC0008093D8008FEE8093E1008091E2008F7EB8
:101CD0008093E2008091E10085FF0DC08091E200D9
:101CE0008F7E8093E2008FED8093E1008091E2008F
:101CF0008F7D8093E2008091E10083FF08C087EF31
:101D00008093E1000E947D1381E080934F0CFF914E
:101D1000EF91BF91AF919F918F917F916F915F9163
:101D20004F913F912F910F900BBE0F900FBE0F90D0
:101D30001F901895E4E6F0E080818F77808380E241
:101D40008093B800E9EBF0E08081808381E0089522
:101D5000E4E6F0E0808180688083089594EA9093BF
:101D6000BC009FEF2091BC0027FD02C09150D1F72D
:101D70009091B900987F983039F590EA9093BB0024
:101D80009091BC0090689093BC009FEF2091BC00A4
:101D900027FD02C09150D1F79091B900987F9831FA
:101DA00099F48093BB008091BC0080688093BC0054
:101DB0008FEF9091BC0097FD02C08150D1F78091C8
:101DC000B900887F883229F084E98093BC0080E0E4
:101DD00008956093BB008091BC0080688093BC0034
:101DE0008FEF9091BC0097FD02C08150D1F7909188
:101DF000B900987F81E0983209F080E094E99093EF
:101E0000BC00089580E008956115710509F484C04F
:101E100094EA9093BC009FEF91502091BC0027FD65
:101E200002C09111F9CF2091B900287F283011F01C
:101E300080E06BC09923E1F390EA9093BB0094E8B3
:101E40009093BC009FEF91502091BC0027FD02C0F1
:101E50009111F9CF2091B900287F283149F79923B2
:101E600039F38093BB0084E88093BC008FEF8150EE
:101E70009091BC0097FD02C08111F9CF9091B900FB
:101E8000987F9832A9F6882399F284EA8093BC005F
:101E90008FEF81509091BC0097FD02C08111F9CF66
:101EA0009091B900987F903119F6882309F281EA60
:101EB0008093BB0084E88093BC008FEF81509091A9
:101EC000BC0097FD02C08111F9CF9091B900987FB5
:101ED000903409F0ADCF882309F4AACF84E8809329
:101EE000BC008FEF81509091BC0097FD02C0811122
:101EF000F9CF9091B900987F983511F0811198CF62
:101F00008091BB00FB01808381E094E99093BC0049
:101F100090E89093BC00089580E0089561157105E4
:101F200009F48EC04115510509F48AC094EA9093D2
:101F3000BC009FEF91502091BC0027FD02C0911181
:101F4000F9CF2091B900287F283039F084E98093B7
:101F5000BC0080E88093BC0073C09923B9F390EA79
:101F60009093BB0094E89093BC009FEF9150209118
:101F7000BC0027FD02C09111F9CF2091B900287F44
:101F8000283121F7992311F38093BB0084E88093D3
:101F9000BC008FEF81509091BC0097FD02C0811171
:101FA000F9CF9091B900987F983281F6882371F229
:101FB00084EA8093BC008FEF81509091BC0097FD24
:101FC00002C08111F9CF9091B900987F903109F04A
:101FD000BDCF882309F4BACF81EA8093BB0084E89F
:101FE0008093BC008FEF81509091BC0097FD02C0A0
:101FF0008111F9CF9091B900987F903409F0A6CF64
:10200000882309F4A3CF24EC2093BC008FEF8150E8
:102010009091BC0097FD02C08111F9CF9091B90059
:10202000987F903509F092CF882309F48FCF809163
:10203000BB00FA018193AF016150710929F786CF86
:1020400080E008950F931F93CF93DF931F92CDB736
:10205000DEB70E949A0E182F811103C00E94A80EAD
:102060001FC080E090E00E94A833082F8FEF898383
:10207000BE016F5F7F4F80E00E94040F89818F3F18
:1020800011F482E005C00F3F31F40E94A80E81E0F8
:102090008093510C05C00E94A80E1092510C10E0C4
:1020A000812F0F90DF91CF911F910F910895809113
:1020B000510C823011F40E94A80E1092510C089518
:1020C000CF93DF931F92CDB7DEB78FEF89838091D7
:1020D000510C823039F4BE016F5F7F4F81E00E9466
:1020E000040F07C0813029F481E090E00E94A833FA
:1020F000898389810F90DF91CF910895CF93DF93EA
:102100001F92CDB7DEB78FEF89838091510C82305B
:1021100031F4BE016F5F7F4F0E94040F07C0813012
:1021200029F482E090E00E94A833898389810F908E
:10213000DF91CF910895CF93DF931F92CDB7DEB794
:102140008FEF89838091510C823039F4BE016F5F2B
:102150007F4F83E00E94040F07C0813029F483E0A1
:1021600090E00E94A833898389810F90DF91CF91FD
:102170000895CF93DF93CDB7DEB728970FB6F894C5
:10218000DEBF0FBECDBF19821A821B821C821D8248
:102190001E821F8218868091510C823089F5BE0103
:1021A000685F7F4F84E00E94040FBE01695F7F4F2C
:1021B00085E00E94040FBE016A5F7F4F86E00E94A7
:1021C000040FBE016B5F7F4F87E00E94040FBE01CA
:1021D0006C5F7F4F88E00E94040FBE016D5F7F4FF0
:1021E00089E00E94040FBE016E5F7F4F8AE00E946B
:1021F000040FBE016F5F7F4F8BE00E94040F2AC067
:10220000813041F584E090E00E94A833888785E022
:1022100090E00E94A8338F8386E090E00E94A8336C
:102220008E8387E090E00E94A8338D8388E090E061
:102230000E94A8338C8389E090E00E94A8338B83AE
:102240008AE090E00E94A8338A838BE090E00E94AD
:10225000A833898329813A814B815C816D817E819C
:102260008F81988528960FB6F894DEBF0FBECDBF3C
:10227000DF91CF910895CF93DF931F92CDB7DEB753
:102280008FEF89838091510C823039F4BE016F5FEA
:102290007F4F8CE00E94040F07C0813029F48CE04E
:1022A00090E00E94A833898389810F90DF91CF91BC
:1022B0000895CF93DF9300D0CDB7DEB71A8219828D
:1022C0008091510C823069F4BE016F5F7F4F8DE0C9
:1022D0000E94040FBE016E5F7F4F8CE00E94040FCE
:1022E0000CC0813051F48DE090E00E94A8338983C6
:1022F0008CE090E00E94A8338A8389819A810F90B4
:102300000F90DF91CF910895CF93DF931F92CDB7B8
:10231000DEB78FEF89838091510C823039F4BE0192
:102320006F5F7F4F8EE00E94040F07C0813029F459
:102330008EE090E00E94A833898389810F90DF911D
:10234000CF910895EF92FF920F931F93CF93DF9356
:10235000EB01BA012091510C222309F12097F9F0E9
:1023600041155105E1F0223049F4AE01DF91CF91E2
:102370001F910F91FF90EF900C948E0F8E01040F20
:10238000151F7C01EC1AFD0ACE018E0D9F1D0E94C7
:10239000A8338993C017D107B9F781E001C080E065
:1023A000DF91CF911F910F91FF90EF900895EF92E1
:1023B000FF920F931F93CF93DF938A012091510CCB
:1023C000222301F161157105E9F0452BD9F0223086
:1023D00051F4AB01B801DF91CF911F910F91FF90A4
:1023E000EF900C94020FEB017C01E61AF70ACE0184
:1023F0008E0D9F1D69910E94B03301501109B9F7EC
:1024000081E001C080E0DF91CF911F910F91FF909B
:10241000EF9008951092530C1092520C249A259A22
:10242000269AE4E6F0E080818B7F808384B1876028
:1024300084B985B1836085B980E58CBD81E08DBDAF
:102440000895E4E6F0E08081846080830895CF936E
:10245000DF931F92CDB7DEB780689FB79983F8945A
:1024600028988EBD0DB407FEFDCF8EB51EBC0DB4F1
:1024700007FEFDCF8EB5289A99819FBF0F90DF91FF
:10248000CF910895CF93DF931F92CDB7DEB7806CC5
:102490009FB79983F89428988EBD0DB407FEFDCFA1
:1024A0008EB56EBD0DB407FEFDCF8EB5289A89811D
:1024B0008FBF0F90DF91CF910895CF93DF9300D01E
:1024C000CDB7DEB74A8369830E94271269818623CC
:1024D00090E04A8102C0959587954A95E2F70F9062
:1024E0000F90DF91CF9108951F93CF93DF9300D08A
:1024F0001F92CDB7DEB7182F2B834A8369830E94C2
:1025000027126981962F909589232B814A8101C0DA
:10251000220F4A95EAF72623682F622B812F0F900E
:102520000F900F90DF91CF911F910C944212CF9397
:10253000DF931F92CDB7DEB79FB79983F8942898A1
:1025400090E69EBD0DB407FEFDCF9EB58EBD0DB4C9
:1025500007FEFDCF9EB5FB01680F81918EBD0DB4C6
:1025600007FEFDCF8EB56E13F8CF289A89818FBFF5
:102570000F90DF91CF910895CF93DF931F92CDB746
:10258000DEB79FB79983F894289890E69EBD0DB466
:1025900007FEFDCF9EB58EBD0DB407FEFDCF9EB5E7
:1025A000FB01680F84918EBD31960DB407FEFDCFFF
:1025B0008EB56E13F7CF289A89818FBF0F90DF9168
:1025C000CF910895CF93DF931F92CDB7DEB79FB71A
:1025D0009983F894289890E29EBD0DB407FEFDCF34
:1025E0009EB5FB019083860F1EBC0DB407FEFDCF88
:1025F0009EB591938E13F8CF289A89818FBF0F9043
:10260000DF91CF910895CF93DF931F92CDB7DEB7BF
:102610002FB72983F8949093530C8093520C89819F
:102620008FBF0F90DF91CF910895CF93DF931F92CB
:10263000CDB7DEB78FB78983F8948091520C909113
:10264000530C29812FBF0F90DF91CF910895CF9325
:10265000DF931F92CDB7DEB78FB78983F8941092BE
:10266000530C1092520C89818FBF0F90DF91CF9144
:102670000895EBEEF0E09081916090838093EC0000
:10268000EDEEF0E080818270682B60838081826053
:1026900080838091EE00881F8827881F089580918D
:1026A000F40080E008958093E9008091E80085FFC0
:1026B00009C0442339F0FB018191BF018093F100EF
:1026C0004150F3CF842F08958093E9008091E80072
:1026D00085FF09C0442339F08091F100FB0181930B
:1026E000BF014150F3CF842F08958093E900EBEEB2
:1026F000F0E080818062808308958091D8008F7B94
:102700008093D8008091D90081FF0CC01092E9001D
:102710008091EB0080FD06C01092E90060E382E04A
:102720000C94391380E0089580E00895CF93DF93EF
:10273000C9EED0E084E0888360E381E80E94391329
:1027400082E0888360E380E80E94391381E0888317
:1027500064E381E8DF91CF910C943913833021F544
:10276000613089F050F06230A1F06330E9F48CE11F
:1027700080931A118DE091E011C084E080931A11CA
:1027800089E091E00BC08CE080931A118FE391E017
:1027900005C086E180931A1189E291E090931C11A3
:1027A00080931B1181E0089580E00895E6E5FCE048
:1027B0001082118212821092540C109219110895F5
:1027C0008091F1008093550C9091F100492F50E0D9
:1027D0004B30510508F095C1FA01EC58FF4F0C94AD
:1027E0005633803809F088C01092590C6091F1007E
:1027F0008091F100813041F0823081F487E2809352
:102800001A118BE491E005C082E180931A1182E7EE
:1028100091E090931C1180931B1105C00E94AE1390
:10282000882309F473C18091F1008091F1008091B7
:10283000F1002091F10090E0922B2091E800277F99
:102840002093E80020911A11422F50E048175907B1
:1028500048F42F7321F481E08093590C18C0109232
:10286000590C15C080931A1112C08091E80082FDA6
:102870002CC08091E80080FFFCCF81E490911A1178
:1028800091110AC08091E8008E7F8093E8008091CA
:102890001A118111EACF19C08150A1F3E0911B11E7
:1028A000F0911C1190819093F10020911B113091B7
:1028B0001C112F5F3F4F30931C1120931B119091DF
:1028C0001A11915090931A11D9CF8091E8008E7F00
:1028D0008093E8008091E80082FDF4C08091590C5B
:1028E000882329F08091E8008E7F8093E800809112
:1028F000E80082FFFCCFE6C066E001C18038C1F489
:102900008091E800877F8093E8008091191180937F
:10291000F1008091E8008E7F8093E8008091E800CC
:102920008F778093E8008091E80082FFFCCFCAC0D7
:1029300068E0E5C081111DC09091F1008091E30035
:102940009F778078892B8093E3008091E800877FD0
:102950008093E8008091E8008E7F8093E80080916A
:10296000E80080FFFCCF8091E30080688093E30063
:10297000089565E0C4C0811113C09091F1009230B8
:1029800008F0C4C08091E800877F8093E8009093AE
:1029900019118091E8008E7F8093E8000C949613C3
:1029A00069E0ADC0833088F5882309F4AFC0813079
:1029B00009F4ACC08091F1008111A8C0E091F10050
:1029C000EF77E093E9008091EB0080FF9FC0EE235A
:1029D000A9F08091EB0080618093EB0081E090E0B2
:1029E0000E2E01C0880F0A94EAF78093EA00109235
:1029F000EA008091EB0088608093EB001092E90080
:102A0000F0E0EA5AF34F108225C061E078C08330CD
:102A100050F5813009F47AC0823009F081C080918C
:102A2000F100811173C0E091F100EF7709F46EC0FD
:102A3000E093E9008091EB0080FF68C08091EB009B
:102A400080628093EB001092E900F0E0EA5AF34FC5
:102A500081E080838091E800877F8093E800809107
:102A6000E8008E7F5BC063E04AC090E8980F933027
:102A700090F59091F1009091F100E091F100813892
:102A800011F0823841F08091E800877F8093E80060
:102A90001092F1000CC08091E800877F8093E800DD
:102AA000EF77F0E0EA5AF34F80818093F1001092C3
:102AB000F1008091E8008E7F8093E8008091E8002B
:102AC00082FFFCCF8091E8008B7F8093E8008091AB
:102AD000E8008F7723C060E012C0813879F48091DC
:102AE000F1008091F1008091F1002091F10090E0DF
:102AF000922B909318118093171108C06AE00C94E0
:102B00009413692F0E94941381110AC08091EB00E5
:102B100080628093EB008091E800877F8093E800DB
:102B2000089510921D1110923011109231111092CF
:102B300032111092331110923411109235111092FB
:102B40003611109237118FEF9FEF909325118093DC
:102B50002411209128112093201190932711809304
:102B60002611909339118093381110921E1184EF21
:102B700091E090932211809321118BE08093231197
:102B800010921F110895CF93DF93EC010E94F72557
:102B9000882349F0D0932711C0932611CE010E94BB
:102BA000262680E001C088EEDF91CF910895CF9373
:102BB000DF93EC010E94F725882349F0D093391167
:102BC000C0933811CE010E943B2680E001C088EE00
:102BD000DF91CF910895CF93C82F0E94F7258111DF
:102BE00002C088EE08C08C2F0E9425278823C9F3D5
:102BF000C093231180E0CF9108950F931F93CF933B
:102C0000DF9300D0CDB7DEB79C01042F90918401F3
:102C10009B7F31F52F3F8FEF380711F185EF860F3E
:102C20008031F0F4C9016A830E94C315182F6A81AC
:102C3000811116C0862F0E942527882389F00093D2
:102C40001F11802F0E947B2681E080931E118FB779
:102C50008983F89485E08093840189818FBF03C0C4
:102C60000E94D62518EE812F0F900F90DF91CF9103
:102C70001F910F9108950E940F2686E10C94B826AB
:102C8000CF93DF9300D0CDB7DEB7EFB7EA83F894E8
:102C9000E1E0E0938401EA81EFBF209328113093B3
:102CA000291140932A1150932B1160932C1170938A
:102CB0002D1180932E1190932F111092030D1092CD
:102CC000020D1092010D1092000D1092FF0C109247
:102CD000FE0C1092FD0C1092FC0C1092FB0C10924A
:102CE000FA0C1092F90C1092F80C81E00E947822F4
:102CF000882349F08FB78983F894109284018981E1
:102D00008FBF81E001C080E00F900F90DF91CF91E5
:102D100008950E94F1251092030D1092020D109259
:102D2000010D1092000D1092FF0C1092FE0C1092EB
:102D3000FD0C1092FC0C1092FB0C1092FA0C81E02E
:102D40008093840108958091020D9091030D089560
:102D5000CF93DF931F92CDB7DEB78FB78983F894F7
:102D60001092030D1092020D89818FBF0F90DF9199
:102D7000CF910895CF93DF931F92CDB7DEB72FB7D2
:102D80002983F8949093030D8093020D89818FBF5E
:102D90000F90DF91CF9108958091000D9091010DDA
:102DA0000895CF93DF931F92CDB7DEB78FB7898396
:102DB000F8941092010D1092000D89818FBF0F9031
:102DC000DF91CF910895CF93DF931F92CDB7DEB7F8
:102DD0002FB72983F8949093010D8093000D89817A
:102DE0008FBF0F90DF91CF9108958091FE0C90914D
:102DF000FF0C0895CF93DF931F92CDB7DEB78FB747
:102E00008983F8941092FF0C1092FE0C89818FBF79
:102E10000F90DF91CF910895CF93DF931F92CDB79D
:102E2000DEB72FB72983F8949093FF0C8093FE0CA4
:102E300089818FBF0F90DF91CF9108958091FC0C15
:102E40009091FD0C0895CF93DF931F92CDB7DEB71D
:102E50008FB78983F8941092FD0C1092FC0C898135
:102E60008FBF0F90DF91CF910895CF93DF931F9283
:102E7000CDB7DEB72FB72983F8949093FD0C8093DC
:102E8000FC0C89818FBF0F90DF91CF9108958091C5
:102E9000FA0C9091FB0C0895CF93DF931F92CDB75E
:102EA000DEB78FB78983F8941092FB0C1092FA0C5E
:102EB00089818FBF0F90DF91CF910895CF93DF93DA
:102EC0001F92CDB7DEB72FB72983F8949093FB0CF0
:102ED0008093FA0C89818FBF0F90DF91CF91089575
:102EE0008091F80C9091F90C0895CF93DF931F9285
:102EF000CDB7DEB78FB78983F8941092F90C109292
:102F0000F80C89818FBF0F90DF91CF910895CF93F7
:102F1000DF931F92CDB7DEB72FB72983F894909334
:102F2000F90C8093F80C89818FBF0F90DF91CF91BE
:102F30000895CF93FC01C08167E77CE082E08C0FAD
:102F40000E94A826811103C0CF910C943B16EC2F50
:102F5000F0E0E958F34F81818093760C2091780C52
:102F60008091790C30E0382B23FDEECF922F9770B3
:102F7000933011F0923040F790935A0C832F86953E
:102F80008695837080935C0CA90144E0549F412D89
:102F9000552711244093670C811103C04115510539
:102FA00099F260917A0C60935B0C10925F0C109216
:102FB000600C1092610C1092620C1092630C1092D3
:102FC000640C1092650C1092660C882309F441C0C1
:102FD000823091F460917B0C70917C0C70935E0C4C
:102FE00060935D0C60917D0C70917E0C7093600C11
:102FF00060935F0C88E02EC0833009F0A5CF60910C
:103000007B0C70917C0C70935E0C60935D0C8091D6
:103010007D0C80935F0C80917E0C8093600C80917E
:103020007F0C8093610C8091800C8093620C809166
:10303000810C8093630C8091820C8093640C80914E
:10304000830C8093650C8091840C8093660C8EE0D9
:1030500001C084E010926A0C10926B0C10926C0C00
:1030600010926D0C10926E0C10926F0C1092700CEE
:103070001092710C41155105A9F126FD0BC0E82FE6
:10308000F0E0E958F34F208131813093690C2093AF
:10309000680C8E5FE82FF0E0E958F34F423051059D
:1030A00041F42081318130936B0C20936A0C8E5F48
:1030B00019C0208120936A0C218120936B0C2281FE
:1030C00020936C0C238120936D0C248120936E0C33
:1030D000258120936F0C26812093700C27812093EB
:1030E000710C885F933049F4E82FF0E0E958F34F12
:1030F00020812093720C8F5F02C01092720C282FD7
:1031000030E02958334F3093740C2093730CC15026
:10311000C81BC093750C913041F0933019F482E6CE
:103120009DE105C08FED9BE102C089E190E26AE577
:103130007CE00E94E328882309F406CFCF9108950C
:103140000F931F93CF93DF93D82F8B010E94F72506
:10315000811102C0C0E00AC089E10E94B826C82FD0
:103160008823C1F3B8018D2F0E9485268C2FDF9113
:10317000CF911F910F910895E09184014E2F50E05F
:10318000FA013297EE30F10590F4E158FF4F0C94BC
:1031900056330C94E51F0C94171A0C94C11B0C9415
:1031A00086210C9448220C948D240C94431D80910C
:1031B0001E1181110C943B160C94D6251F93CF93AE
:1031C000DF931F92CDB7DEB7182F0E944717FC017F
:1031D000892B91F01093180D84E09DE009950E94D1
:1031E0000F2686E10E94B8268FB78983F89485E080
:1031F0008093840189818FBF0F90DF91CF911F91C0
:1032000008950F931F93CF93DF9300D0CDB7DEB710
:10321000209184012111CEC0009709F4CBC0FC019C
:10322000258536852115310509F4C4C0AC01415FFF
:103230005F4F5093370D4093360D3093350D2093EB
:10324000340D20812B50203108F0B4C0228133810D
:103250002F3F3F4F09F4AEC0FC0121813EEF320FFA
:10326000323008F0A7C0223041F444815581509398
:1032700025114093241138EC1AC0FC01A481B581BA
:10328000168177816085518542853385A093301101
:10329000B093311110933211709333116093341144
:1032A0005093351140933611309337113CEC43E283
:1032B00040936211309363113091201141E0430F2C
:1032C0004093201130936411FC014281538150934B
:1032D000661140936511223041F424813581309389
:1032E00068112093671127E00AC028E0FC0134969A
:1032F000A7E6B1E101900D922A95E1F72DE08C014E
:10330000E22FF0E0EE59FE4E8FEF8083E1E0E20F16
:10331000F0E0EE59FE4E8083E2E0E20FF0E0EE597D
:10332000FE4E8091281180838091291181838091A4
:103330002A11828380912B11838380912C118483A5
:1033400080912D11858380912E11868380912F117C
:103350008783EAE0E20FF0E0EE59FE4E81E08083E1
:10336000F8018485EBE0E20FF0E0EE59FE4E808339
:10337000F801828193812A830E94C315811118C0AC
:10338000F80180810E9425272A81882389F062E63E
:1033900071E18EE0820F0E94A018882349F09FB748
:1033A0009983F89496E09093840199819FBF03C01C
:1033B0000E94D62580E00F900F90DF91CF911F9152
:1033C0000F9108950F931F93CF93DF9300D01F9217
:1033D000CDB7DEB78B019FB7882331F09A83F8947D
:1033E000109284019A8106C09983F89494E0909396
:1033F000840199819FBF8B830E94D625A091360DB1
:10340000B091370D8B8112968C93129711961C9365
:103410000E93E091340DF091350DCD0109950F908B
:103420000F900F90DF91CF911F910F910895CF933F
:10343000DF9300D01F92CDB7DEB7FC0180818230D0
:1034400040F580918401883079F486E10E94B826A5
:10345000811102C081EE24C08FB78A83F89489E07D
:10346000809384018A8107C08FB78983F89487E0AD
:103470008093840189818FBF20E030E04EE55AE1DE
:1034800060E070EF80E090E00E946032882311F3EA
:103490000FC0853021F08330E9F28BEE01C089EE58
:1034A0008B830E94B5326FEF7FEF8B810E94E21910
:1034B0000F900F900F90DF91CF910895CF93DF93EE
:1034C00000D0CDB7DEB780918401873009F04CC0C1
:1034D00083E28093621180EC8093631180912011CC
:1034E00091E0980F90932011809364119091261190
:1034F0008091271190936511809366118091281116
:1035000080936711809129118093681180912A110D
:103510008093691180912B1180936A1180912C11F5
:1035200080936B1180912D1180936C1180912E11DD
:1035300080936D1180912F1180936E1184E08093A0
:103540006F1162E671E180E10E94A018811104C050
:103550006FEF7FEF81EF0DC08FB78983F89488E01C
:1035600080938401898116C0893031F46FEF7FEF39
:1035700089EE0E94E2190FC08C3021F480EF0E9486
:10358000DE1809C00E94D6258FB78A83F89410925E
:1035900084018A818FBF0F900F90DF91CF910895A2
:1035A000DF92EF92FF920F931F93CF93DF931F92BF
:1035B000CDB7DEB720918401253009F0AAC000976D
:1035C00009F4A7C023E62093190D2CEC20931A0DC3
:1035D0002091201131E0320F3093201120931B0DE8
:1035E000009126111091271110931D0D00931C0DB1
:1035F00028E0FC01AEE1BDE001900D922A95E1F7D3
:10360000D0902811F0912911E0912A1170912B117D
:1036100060912C1150912D1140912E1130912F114C
:10362000D092260DF093270DE093280D7093290D6D
:1036300060932A0D50932B0D40932C0D30932D0D3C
:1036400022E020932E0DDC011896ED90FC90199746
:10365000F092300DE0922F0D1A962C911A9720932C
:10366000310D1093050D0093040D23E02093060DFA
:10367000D092070DF093080DE093090D70930A0D99
:1036800060930B0D50930C0D40930D0D30930E0D68
:1036900020930F0DEC9111967C91119712966C91DD
:1036A000129713965C91139714964C911497159654
:1036B0003C91159716962C91169717968C91E0933E
:1036C000100D7093110D6093120D5093130D4093D4
:1036D000140D3093150D2093160D8093170D8FB791
:1036E0008983F8948CE08093840189818FBF20E0E6
:1036F00030E04EE55AE160E070EE81E090E00E943B
:103700006032182F811106C080E090E00E945E1A9E
:1037100001C010E0812F0F90DF91CF911F910F9189
:10372000FF90EF90DF9008951F93CF93DF931F9248
:10373000CDB7DEB71FEF85E38A95F1F70000115092
:103740000E94B326893019F01111F5CF02C0111172
:1037500004C081EE0E94DE180FC069E17DE08BE1BC
:103760000E94A0188823A9F38FB78983F8948BE06F
:103770008093840189818FBF0F90DF91CF911F913A
:103780000895FC018081882349F0853021F0833041
:1037900021F08BEE03C089EE01C081EE0C94DE189F
:1037A000CF93DF93EC010E947017FC01CE0130979C
:1037B00011F00995CE01DF91CF910C947D282F92C5
:1037C0003F924F925F926F927F928F929F92AF92B1
:1037D000BF92CF92DF92EF92FF920F931F93CF93FE
:1037E000DF93CDB7DEB729970FB6F894DEBF0FBED3
:1037F000CDBF99878887FC017584709262114684D9
:1038000057845092641140926311709688E0A5E647
:10381000B1E101900D928A95E1F7F0912311FF83B8
:10382000F0936D11E885F985A18DB28D10926F111D
:1038300010926E1111968C91119790E0982F882715
:1038400090936F1180936E112C91822B90936F1136
:1038500080936E11848D80937011809184018230E9
:1038600009F064C08090421190904311D4011396E6
:10387000F401F281F983E0916511F0916611FB8307
:10388000F0916711FC8360906811F0916911FD83DC
:10389000F0916A11FE8330906B1120906C11F0E072
:1038A0008981F817B1F111968D919C911297481664
:1038B000590661F58C91781229C01396AC90139734
:1038C0001496BC9014971596CC9015971696DC908C
:1038D00016971796EC9017971896FC9018971996CC
:1038E0000C9119971A961C911A972E2F3B814C8197
:1038F000562D6D817E81832D922D0E94843331F46B
:103900001B968C911B979F81981781F0FF5F1F96E4
:10391000C7CFF43058F48FE0E2E6F1E101900D9268
:103920008A95E1F7F40182818F5F8283E885F985CA
:10393000838D8823E9F08F0180E190E00E943B288D
:103940004C01892BA9F0F8018181D4018D938FE07E
:10395000E2E6F1E101900D928A95E1F7B40180ED84
:103960009BE10E94E328811103C0C4010E947D28CD
:1039700080911E11811104C0809184018230D9F49C
:1039800086E129960FB6F894DEBF0FBECDBFDF915A
:10399000CF911F910F91FF90EF90DF90CF90BF904C
:1039A000AF909F908F907F906F905F904F903F90DF
:1039B0002F900C94B82629960FB6F894DEBF0FBE50
:1039C000CDBFDF91CF911F910F91FF90EF90DF90CE
:1039D000CF90BF90AF909F908F907F906F905F90AF
:1039E0004F903F902F900895CF93DF931F92CDB7C4
:1039F000DEB780913811909139118F3F2FEF9207E8
:103A000009F43DC01092621120E8209363112091C7
:103A1000201131E0320F3093201120936411309146
:103A20002611209127113093651120936611809300
:103A300067119093681180911F11882319F08FEFFF
:103A40009FE602C08FEF9FE220911D112111906827
:103A500090936A118093691110926B1110926C11FE
:103A600062E671E18DE00E94A018882341F08FB7D3
:103A70008983F8948FE08093840189818FBF0F90B0
:103A8000DF91CF910895CF93DF931F92CDB7DEB72B
:103A900086E10E94B8268FB78983F89485E08093E9
:103AA000840189818FBF0F90DF91CF91089585E3C5
:103AB0008A95F1F700000E94B3268930C1F786E1AC
:103AC0000C94B826DF92EF92FF920F931F93CF933F
:103AD000DF931F92CDB7DEB78C01DC0158968C9135
:103AE000813029F5809184018530F1F480911D1198
:103AF0008823D1F00E94CC169C01892BA9F0F801F3
:103B0000709688E0A4E4B1E101900D928A95E1F706
:103B1000D8015996ED91FC915A97808180934C1170
:103B200084E491E1F90109950E94571DFEC083309C
:103B300009F044C08091840184508230A8F70E942B
:103B4000F5169C01892B81F3F801709688E0A4E4B6
:103B5000B1E101900D928A95E1F7D8015996ED9166
:103B6000FC915A97808180934C1184E491E1F90192
:103B7000099580918401843009F0D7C00E94D62530
:103B800010923011109231111092321110923311A3
:103B90001092341110923511109236111092371183
:103BA0008FEF9FEF90932511809324118FB7898316
:103BB000F8941092840189818FBFB7C0843051F48A
:103BC000809184018C3009F0AFCF0E94B5320E9401
:103BD000941BABC08630C9F480918401853009F014
:103BE000A3CF0E941E179C01892B09F49DCFF801D9
:103BF000709688E0A4E4B1E101900D928A95E1F716
:103C000084E491E1F901099590C0873041F48091F5
:103C10008401853009F088CF0E94F41C86C088306A
:103C200009F04DC080918401823009F07DCF0E945F
:103C3000B53228E040E06FE182E00E947412D801C2
:103C40005B968C91873011F4F12C02C058EEF52E62
:103C5000F801018D128DD80111968C91119790E089
:103C6000982F88272C91822B0E94C315F8018381FD
:103C700090E0982F88272281822B909325118093A2
:103C80002411868190E0982F88272581822B8F3FF1
:103C9000FFEF9F0711F00E94C315D80114968C9175
:103CA0000E94EB156091421170914311FB01F0826B
:103CB0008AEE92E20E94E328811137C035CF82302C
:103CC00009F032CF80918401893009F02DCF0E9414
:103CD000B532D8015996ED91FC915A97E180F12CBB
:103CE000FE2CEE248081E82AD280C7010E94D715DD
:103CF000F801808980933011818980933111828904
:103D00008093321183898093331184898093341195
:103D100085898093351186898093361187898093B0
:103D20003711B7018D2D0E94E2190F90DF91CF91CD
:103D30001F910F91FF90EF90DF9008950F931F93C5
:103D4000CF93DF93EC010E94A3168C0185E38A9543
:103D5000F1F700000E94B3268930C1F70115110563
:103D600039F486E1DF91CF911F910F910C94B82621
:103D7000CE01F8010995CE01DF91CF911F910F91EE
:103D80000C947D28CF92DF92EF92FF920F931F93B6
:103D9000CF93DF9300D0CDB7DEB78C01D0908401F4
:103DA0008CEF8D0D823010F010E003C1011511056C
:103DB000D9F3D80156968D919C915797892BA1F3F1
:103DC0005896ED90FC905997E114F10469F3EC9149
:103DD000EE2321F08EEF8E0F823030F7D801199646
:103DE000FC91FF2309F4DDC08EEF8F0F8230E0F6E7
:103DF000D80154968C91B82FB170CB2E80FF25C07E
:103E0000F23019F5D8011C962C911C971D963C9107
:103E10001D971E964C911E971F965C911F9750966A
:103E20006C91509751967C91519752968C915297E4
:103E300053969C912F3F3F4F4105510561057105F8
:103E40008105910509F0B1C0AFCFE13009F4ACCFE5
:103E5000F13009F4A9CFF092390DE092380DC80184
:103E60004A9690933B0D80933A0DD0923C0DD80129
:103E700055968C918150863608F096CFCC2019F05B
:103E800041E250E002C041E050E08E2F90E090E42B
:103E9000899F902D882711242F2F30E0322F222741
:103EA000330F330F822B932B8064842B952B8093BD
:103EB0006211909363118091201191E0980F90937B
:103EC000201180936411FF2301F1D8011A969C916F
:103ED0001A971B968C919093651180936611F3301D
:103EE00059F488E0F8013C96A7E6B1E101900D9203
:103EF0008A95E1F72DE00AC0F801848595859093B5
:103F000068118093671127E001C023E0D8018C91EC
:103F10008823A9F0A22FB0E0AE59BE4E833049F4F9
:103F200088E0F801319601900D928A95E1F7285FBB
:103F300006C0F801818192818D939C932E5F822F20
:103F400090E0D80155964C91559750E056966D915A
:103F50007C9157978E599E4E2A830E943933F801DF
:103F600085898E5F62E671E12A81820F0E94A01826
:103F7000182F81110DC00E940F2680911E118111F2
:103F800003C00E94D62515C086E10E94B82611C044
:103F90008FB78983F89483E08093840189818FBFF0
:103FA00008C0EE2309F400CF23CFE13009F053CF4E
:103FB000FBCE812F0F900F90DF91CF911F910F912A
:103FC000FF90EF90DF90CF900895CF93DF931F92F3
:103FD000CDB7DEB7FC018081823020F0853021F042
:103FE00091EE03C090E001C099EEA0913A0DB0911E
:103FF0003B0D9C93E091380DF091390DCD01099561
:1040000080911E11811103C00E94D62505C00E9417
:104010000F2686E10E94B8268FB78983F894809195
:104020003C0D8093840189818FBF0F90DF91CF91E8
:1040300008950F931F93CF93DF938C01FC01838D21
:1040400090E046960E943B28EC01892B79F4F5E339
:10405000FA95F1F700000E94B3268930C1F786E196
:10406000DF91CF911F910F910C94B826F8018585AF
:10407000888319821A821B821C821D821E821F82E3
:104080001886833049F488E07096DE01119601901D
:104090000D928A95E1F705C0F801808991899A838C
:1040A00089838A859B85F8019483838382818987AC
:1040B0001C861D861E861F86188A198A1A8A1B8AE4
:1040C000833049F488E03596DE011C9601900D920C
:1040D0008A95E1F705C0F801858196819D878C87D7
:1040E000F801848D8C8B838D8D8B438D50E0618D99
:1040F000728DCE0146960E943933BE018EE99EE153
:104100000E94E32881110CC0CE010E947D28F5E3B6
:10411000FA95F1F700000E94B3268930C1F79FCFCE
:10412000DF91CF911F910F9108952F923F924F925F
:104130005F926F927F928F929F92AF92BF92CF9237
:10414000DF92EF92FF920F931F93CF93DF931F9213
:10415000CDB7DEB7FC01909184019450923008F005
:10416000BFC0218532852115310509F4B9C04F0141
:1041700030933B1120933A11CF010B9690933D1150
:1041800080933C1183E2809362118CEC80936311E5
:104190008091201191E0980F9093201180936411E9
:1041A000909126118091271190936511809366114B
:1041B0004080518062807380B481A58136802780E1
:1041C000A0903011B0903111C0903211D0903311C5
:1041D000E0903411F09035110091361110913711A3
:1041E0009201A3016B2F7A2F832D922D0E9484338D
:1041F00041F088E0A7E6B1E101900D928A95E1F7E0
:1042000024C04092671150926811609269117092B7
:104210006A11B0936B11A0936C1130926D112092C2
:104220006E111092301110923111109232111092C1
:1042300033111092341110923511109236111092E0
:1042400037118FEF9FEF0E94D71590912611809123
:10425000271190936F118093701180912811809392
:104260007111809129118093721180912A1180938C
:10427000731180912B118093741180912C11809374
:10428000751180912D118093761180912E1180935C
:10429000771180912F118093781183E080937911A9
:1042A000F401808580937A1162E671E18BE10E94CE
:1042B000A018982E81110BC080911E11811103C08E
:1042C0000E94D6250EC086E10E94B8260AC08FB78C
:1042D0008983F8948DE08093840189818FBF01C028
:1042E000912C892D0F90DF91CF911F910F91FF900D
:1042F000EF90DF90CF90BF90AF909F908F907F9086
:104300006F905F904F903F902F900895CF93DF93E1
:1043100000D0CDB7DEB7FC018081E0913C11F09177
:104320003D11823010F4108206C0853011F489EE00
:1043300001C081EE8083E0913A11F0913B118091B0
:104340003C1190913D11099580911F1181110AC076
:104350000E94D6258FB78A83F894109284018A81AF
:104360008FBF0BC08FB78983F89485E08093840159
:1043700089818FBF86E10E94B8260F900F90DF9150
:10438000CF9108951F93CF93DF931F92CDB7DEB7E0
:1043900020918401253009F074C023E2209362113A
:1043A0002CEC209363112091201131E0320F3093D7
:1043B0002011209364112FEF209365112093661133
:1043C00028E0FC01A7E6B1E101900D922A95E1F702
:1043D000309126112091271130936F112093701185
:1043E000409128114093711140912911409372110D
:1043F00040912A114093731140912B1140937411F5
:1044000040912C114093751140912D1140937611DC
:1044100040912E114093771140912F1140937811C4
:1044200048E04093791130937A1120937B113091B9
:1044300038112091391130937C1120937D112091F6
:10444000231120937E11FC01208520937F1181850B
:104450008093801162E671E181E20E94A018182F1A
:10446000811106C00E940F2686E10E94B8260AC06C
:104470008FB78983F8948EE08093840189818FBF00
:1044800001C010E0812F0F90DF91CF911F9108950F
:104490000F931F93CF93DF931F92CDB7DEB78C019D
:1044A0000E944717FC01892BE9F0D8019C919923C0
:1044B00049F0953021F0933021F09BEE03C099EE46
:1044C00001C091EE9093510D8DE39DE009958FB75A
:1044D0008983F89485E08093840189818FBF86E188
:1044E0000E94B8260F90DF91CF911F910F910895F0
:1044F0001F93CF93DF931F92CDB7DEB7182F8FB7DF
:104500008983F8941092840189818FBF0E94672566
:10451000811104C00E94F12580E034C011110E9475
:1045200091158CEB98E10E943C2789E997E10E9464
:10453000722723E046E060EC8EE20E94741224E0D1
:1045400041E06EE08CE20E94741223E044E060EFF0
:104550008CE20E94741288E291E10E9456268091BA
:104560003811909139110E943B268091261190912B
:1045700027110E94262680911E11811102C00E94DF
:10458000D62581E00F90DF91CF911F910895809102
:1045900084018450823078F40E94F725882359F0F2
:1045A00086E10E94B826811108C080911E118111F8
:1045B00002C00E94D62588EE089580E0089580917B
:1045C0001E11811103C00E94D62502C00E940F2631
:1045D00080E008950F931F93CF93DF931F92CDB781
:1045E000DEB78C0180913E1190913F110E94C3155E
:1045F0000115110569F0E0914011F0914111C801D8
:1046000009958FB78983F8941092840189818FBFAF
:104610000F90DF91CF911F910F9108950E94D625A1
:1046200090913412911106C0809133128F5F809364
:1046300033120895A0914211B091431112968C91BA
:104640001297811103C08AEE8C9301C01C92809155
:10465000E21124E0829FF0011124ED51FE4E2AEE7A
:1046600032E231832083B383A283833119F4109221
:10467000E21103C08F5F8093E21191509093341246
:104680008091E1118F5F8093E1110895DF92EF92A5
:10469000FF920F931F93CF93DF9300D01F92CDB75C
:1046A000DEB7FC0180918401811113C0309789F03D
:1046B00083819481892B69F0F080E280D1808EE043
:1046C0008E1538F08F010E94F725811104C00E94D9
:1046D000D62580E017C18D2D0E94EB158111F7CFF3
:1046E000F801838194819093411180934011359614
:1046F000F0934311E0934211FF2059F3F1E0FF12D0
:1047000053C0A1E0B0E002C0AA0FBB1FEA94E2F7D9
:10471000119620EC33E00E945F3360933A1170935E
:104720003B1180933C1190933D1180912611909103
:10473000271190933F1180933E1183E08093621183
:1047400088E0809363118091201191E0980F9093FD
:104750002011809364118FEF80936511809366110F
:10476000809367118093681187E0809369118FEFC0
:104770009FEF0E94C3158111AACF62E671E18AE022
:104780000E94A018882309F4A2CF9FB79B83F894B6
:1047900092E0909384019B819FBFE0914211F09140
:1047A0004311128291E049C082E0F81248C0A1E0B2
:1047B000B0E002C0AA0FBB1FEA94E2F7119620EC0A
:1047C00033E00E945F3360933A1170933B11809302
:1047D0003C1190933D118091261190912711909357
:1047E0003F1180933E118FEF9FEF0E94C3158111FF
:1047F0006ECF86E10E94B826882309F468CF6091C5
:104800003A1170913B1180913C1190913D1120E043
:1048100030E04EE053E20E946032882309F457CF23
:104820009FB79A83F89492E0909384012A812FBFD6
:10483000E0914211F09143111282918363C0E3E051
:10484000FE1245CF80E098E7A0E0B0E080933A11F7
:1048500090933B11A0933C11B0933D1113E0109342
:10486000621188EC809363118091201191E0980F80
:1048700090932011809364118FEF80936511809342
:1048800066118093671180936811809369118093FA
:104890006A118091281180936B1180912911809366
:1048A0006C1180912A1180936D1180912B1180934E
:1048B0006E1180912C1180936F1180912D11809336
:1048C000701180912E118093711180912F1180931E
:1048D000721186E08093731162E671E184E10E94B7
:1048E000A018882309F4F3CE9FB79983F89492E037
:1048F0009093840199819FBFE0914211F0914311FF
:10490000128211830F900F900F90DF91CF911F9122
:104910000F91FF90EF90DF900895FC018081882334
:1049200021F080E090E00C940E2386E10E94B826EE
:104930008823B9F360913A1170913B1180913C1139
:1049400090913D1120E030E04EE053E20E94603251
:10495000882339F3089583FFB9C08091560D8111E2
:1049600050C08091520D9091530D892B09F4AEC027
:10497000289880E28EBD0DB407FEFDCF8EB58093E2
:10498000570D8EBD0DB407FEFDCF8EB58F7780938A
:10499000570D289A8091570D883008F497C02898B1
:1049A00082E88EBD0DB407FEFDCF8EB58EBD0DB471
:1049B00007FEFDCF8EB5289A289892EC9EBD807E8A
:1049C00089600DB407FEFDCF9EB58EBD0DB407FE08
:1049D000FDCF8EB5289A90913412992309F452C0D4
:1049E0008091E21124E0829FF0011124ED51FE4EEE
:1049F0002091520D3091530D3183208327E53DE006
:104A000053C01092560D289882E88EBD0DB407FE53
:104A1000FDCF8EB5809385018EBD0DB407FEFDCF11
:104A20008EB580938501289A80918501829586951F
:104A3000877080938501289882E88EBD0DB407FEAB
:104A4000FDCF8EB58EBD0DB407FEFDCF8EB5289A75
:104A5000289892EC9EBD807E83600DB407FEFDCF4A
:104A60009EB58EBD0DB407FEFDCF8EB5289A209160
:104A7000540D3091550D2115310541F190913412AD
:104A8000911106C0809133128F5F80933312089585
:104A90008091E21144E0849FF0011124ED51FE4E1B
:104AA0003183208325E831E033832283833119F475
:104AB0001092E21103C08F5F8093E21191509093A6
:104AC00034128091E1118F5F8093E1110895CF93AB
:104AD0008FEF809385011092570D1092560D109212
:104AE000550D1092540D1092530D1092520D0E94BC
:104AF0000A12C82F811102C0C0E055C08BEF93E0AD
:104B00000197F1F700C000002E982D982C9890E1A5
:104B10009A95F1F72D9A8FE599E00197F1F700C08A
:104B200000008FE599E00197F1F700C0000023E055
:104B300040E06FE182E00E9474128BEF93E00197F6
:104B4000F1F700C0000040E06FE181E00E945D12DB
:104B5000883091F68DE10E942712823069F68EE14D
:104B60000E9427128F3141F68BEA94E20E940313D0
:104B700020E043E068E083E00E94741220E040E01F
:104B800067E083E00E94741221E047E060E885E07E
:104B90000E9474126CE08EE00E94421280916F00BD
:104BA000806280936F008C2FCF9108951092560DE4
:104BB0001C9916C040E06FE181E00E945D128830D0
:104BC00041F42C9A8FE599E00197F1F700C00000BD
:104BD000089528E040E06FE182E00E947412EACF7D
:104BE00008950E9427130E94D6250C94211210923A
:104BF000560D1C9B11C02C988FE99FE00197F1F78F
:104C000000C0000040E06FE181E00E945D1291E091
:104C1000883019F090E001C091E0892F08950E943A
:104C2000F72523E040E06FE182E00E94741240E04B
:104C30006FE181E00E945D12883099F71092570D64
:104C40001092560D089580E090E00895CF93DF9381
:104C50001F92CDB7DEB7682F82E299830E9442127D
:104C60009981692F83E20F90DF91CF910C944212CA
:104C700080E090E00895CF93DF931F92CDB7DEB729
:104C8000682F80E299830E9442129981692F81E204
:104C90000F90DF91CF910C94421220E030E040E081
:104CA00050E060E070E080E090E00895CF93DF9303
:104CB000EC01688184E20E944212698185E20E94CF
:104CC00042126A8186E20E9442126B8187E20E9450
:104CD00042126C8188E20E9442126D8189E20E9438
:104CE00042126E818AE20E9442126F818BE2DF9152
:104CF000CF910C944212811102C020E001C021E04A
:104D000043E068E08EE20C947412CF93DF931F921D
:104D1000CDB7DEB78823B9F061157105A1F09FB753
:104D20009983F8949091560D992319F089818FBF3A
:104D30000AC02C9A2C9899819FBF0E94971281E0FB
:104D40008093560D01C080E00F90DF91CF910895C0
:104D5000882339F06115710521F00E94E21281E08B
:104D6000089580E0089540E06FE181E00C945D12C9
:104D7000CF93DF931092560D98EF980F923038F042
:104D8000982F9F7E963019F0893109F055C01C99F3
:104D900053C0C82F40E06FE181E00E945D12D82F20
:104DA0008F7E8150823008F447C0CD1709F446C089
:104DB000C83059F42C9880E18A95F1F723E040E05F
:104DC0006FE182E00E9474122BC0C93161F4D631C8
:104DD000C1F429E040E06FE182E00E94741282E0B9
:104DE0008A95F1F70DC0C63161F4D93151F426E04E
:104DF00040E06FE182E00E94741292E09A95F1F730
:104E000000C02C2F40E06FE182E00E947412D83085
:104E100039F487E691E00197F1F700C0000004C083
:104E200092E09A95F1F700C040E06FE181E00E94C6
:104E30005D1291E08C1719F090E001C091E0892F8C
:104E4000DF91CF91089580E00895CF9395EF980F6B
:104E5000903170F4C82F282F40E06FE188E00E9465
:104E6000741240E06FE188E00E945D1291E0C81387
:104E700090E0892FCF910895CF93DF931F92CDB704
:104E8000DEB72FB72983F8949093550D8093540D76
:104E900089818FBF0F90DF91CF910895CF93DF93DA
:104EA0001F92CDB7DEB78FB78983F8948091540DE8
:104EB0009091550D29812FBF0F90DF91CF910895CB
:104EC000CF93DF931F92CDB7DEB78FB78983F89466
:104ED0001092550D1092540D89818FBF0F90DF9164
:104EE000CF910895CF93DF931F92CDB7DEB72FB741
:104EF0002983F8949093530D8093520D89818FBF2D
:104F00000F90DF91CF910895CF93DF931F92CDB78C
:104F1000DEB78FB78983F8948091520D9091530D2D
:104F200029812FBF0F90DF91CF910895CF93DF9309
:104F30001F92CDB7DEB78FB78983F8941092530DC7
:104F40001092520D89818FBF0F90DF91CF910895FC
:104F500010925A0D1092590D1092580D81E008953B
:104F6000AF92BF92CF92DF92EF92FF920F931F9377
:104F7000CF93DF931F92CDB7DEB7F901009709F405
:104F80006DC0423008F46AC06230710508F466C032
:104F90002FB72983F8948C01060F171FDC0120E03E
:104FA000E42EF12C670131E0C31AD108A22EB12CF6
:104FB000AC14BD044CF411961C930E93060F171FEE
:104FC0002F5FA60FB71FF2CF1D921C9271836083D3
:104FD0004283438395838483E69E9001E79E300D50
:104FE000F69E300D112421503109280F391F3783C7
:104FF00026839187808780915A0D811107C013867F
:105000001286F093590DE093580D21C04091580D30
:105010005091590D382FDA010D911C9111970617F7
:10502000170760F41A962C911A971B969C911B9760
:105030003150AD0129F0A22FB92FEECF2A2F9B2F8F
:10504000DA011B96FC93EE931A97228793878F5F62
:1050500080935A0D89818FBF81E001C080E00F905D
:10506000DF91CF911F910F91FF90EF90DF90CF9044
:10507000BF90AF900895CF93DF931F92CDB7DEB767
:10508000AC01892BA1F180915A0D882381F18FB752
:105090008983F894E091580DF091590D20915A0DA3
:1050A00090E02223E1F091110FC0608171816417BB
:1050B000750718F08381811105C00284F385E02D06
:1050C0002150EFCF91E0EDCFA085B1858D919C91DE
:1050D00011979187808783818150838304C09111C8
:1050E000F3CFA0E0B0E089818FBFCD0102C080E0A6
:1050F00090E00F90DF91CF910895CF93DF931F92AF
:10510000CDB7DEB70097A9F120915A0D222389F17E
:105110002FB72983F894E091580DF091590D3091F3
:105120005A0D20E0332399F0211113C04681578195
:10513000648175818617970718F04817590728F476
:105140000284F385E02D3150EDCF21E0EBCF222317
:1051500071F033812281321760F420853185DC01C2
:105160002D933C939187808783818F5F838389818F
:105170008FBF0F90DF91CF9108951092E21183E1DC
:1051800080935B0D1092E11184E1809334121092B0
:10519000331281E00895CF93DF931F92CDB7DEB72E
:1051A0008FB78983F8941092E21183E180935B0DAD
:1051B0001092E11184E18093341289818FBF0F90A6
:1051C000DF91CF910895CF93DF931F92CDB7DEB7D4
:1051D00020913412222339F1E091E21124E0E29F80
:1051E000F0011124ED51FE4E91838083738362831D
:1051F0008FB78983F8948091E211833119F410926A
:10520000E21103C08F5F8093E2118091E1118F5F03
:105210008093E111809134128150809334128981FE
:105220008FBF81E001C080E00F90DF91CF910895A2
:10523000CF93DF931F92CDB7DEB78FB78983F894F2
:105240008091E111811103C089818FBF26C09091A7
:105250005B0D933119F410925B0D03C09F5F909327
:105260005B0D81508093E111809134128F5F8093A8
:10527000341289818FBFA0915B0D84E0A89FD0017B
:105280001124AD51BE4EED91FC911197309729F04C
:1052900012968D919C91139709950F90DF91CF9164
:1052A000089580918601853011F080E0089541E0F5
:1052B0006091231180912611909127110E94FD1574
:1052C0008111F3CF0E94C7228111EFCF6091381175
:1052D0007091391180912411909125110E9499317A
:1052E0000E94E43190934E1280934D1284E080939B
:1052F000860181E080934F1208950895CF93DF9344
:10530000CDB7DEB729970FB6F894DEBF0FBECDBF7D
:10531000EFB7E983F8941092610D1092600D10922E
:105320005F0D10925E0D10925D0D10925C0DE98183
:10533000EFBF2A833B834C835D836E837F838887A3
:1053400099870E949F310E94E02F2A813B814C81E6
:105350005D816E817F81888599850E9440168823B2
:10536000C1F086EA9BE20E94BA1680E29EE20E94A9
:10537000E3168BE99FE20E940C178DE799E20E94E9
:10538000351784E79EE20E945E171092860181E045
:1053900001C080E029960FB6F894DEBF0FBECDBFE6
:1053A000DF91CF910895CF93DF931F92CDB7DEB7F2
:1053B000809186018130B1F00E9489168FB7898370
:1053C000F8941092610D1092600D10925F0D109282
:1053D0005E0D10925D0D10925C0D89818FBF81E092
:1053E000809386010F90DF91CF9108958091600D99
:1053F0009091610D0895CF93DF931F92CDB7DEB7E3
:105400008FB78983F8941092610D1092600D898195
:105410008FBF0F90DF91CF910895CF93DF931F92AD
:10542000CDB7DEB72FB72983F8949093610D8093A1
:10543000600D89818FBF0F90DF91CF91089580918A
:105440005E0D90915F0D0895CF93DF931F92CDB7BE
:10545000DEB78FB78983F89410925F0D10925E0DBE
:1054600089818FBF0F90DF91CF910895CF93DF9304
:105470001F92CDB7DEB72FB72983F89490935F0DB5
:1054800080935E0D89818FBF0F90DF91CF9108953A
:1054900080915C0D90915D0D0895CF93DF931F92E5
:1054A000CDB7DEB78FB78983F89410925D0D109257
:1054B0005C0D89818FBF0F90DF91CF910895CF93BD
:1054C000DF931F92CDB7DEB72FB72983F89490935F
:1054D0005D0D80935C0D89818FBF0F90DF91CF911F
:1054E0000895CF93DF93009799F0E091660DF091C6
:1054F000670D309769F0A091640DB091650D10971C
:1055000039F0EC0188818C93CD01DF91CF91099422
:10551000DF91CF910895CF93DF93009769F0EC016D
:105520000E94F629FC01CE01309711F00995CE01B9
:10553000DF91CF910C947D28DF91CF9108958091D8
:10554000620D9091630D0E947D280C94C722CF9329
:10555000DF93E0913811F09139113097A1F4209147
:105560004D1230914E1228173907D8F10197B90121
:105570000E944233629FC001639F900D729F900D05
:10558000112401962EC0E817F90738F520914B1227
:1055900030914C122E0F3F1F82179307F0F4C091E9
:1055A0004D12D0914E129E012E0F3F1F2817390722
:1055B000C0F09F0120953095820F931FBE010E947D
:1055C00042336C9F90016D9F300D7C9F300D1124F4
:1055D000CF010196820F931F04C0809124119091F6
:1055E0002511DF91CF9108957F928F929F92AF9274
:1055F000BF92CF92DF92EF92FF920F931F93CF93C0
:10560000DF93EC01809186018350833008F057C00E
:10561000209709F454C08F819885892B09F44FC0D5
:1056200089859A85892B09F44AC0209138113091D7
:10563000391189819A812817390709F440C08E8170
:105640009FEF980F9E35D8F590E008960E943B2872
:105650008C01892BA1F184E0F8018083118289817A
:105660009A8193838283809038119090391195822A
:1056700084828B81811102C082E001C0F80186839F
:105680008091661291E0980F90936612F8018783DB
:105690004E8150E06F817885C80108960E943933A9
:1056A0008E8198E0792E780E89819A810E94A72AAE
:1056B0008F3FFFEF9F0729F4C8010E947D28C0E0BB
:1056C00036C022E02C878D869E861F86188A198A0E
:1056D0001A8A1B8A1C8A2D8B209126113091271142
:1056E0003F8B2E8B4C01888F998E1A8E1B8E1C8EB1
:1056F0001D8E1E8E1F8E81E088A379A21BA30AA394
:1057000081E79AE29DA38CA389859A859093670D82
:105710008093660DCE010B969093650D8093640D7A
:1057200001960E94C21EC82FC8010E947D288C2F9E
:10573000DF91CF911F910F91FF90EF90DF90CF906D
:10574000BF90AF909F908F907F9008958F929F927F
:10575000AF92BF92CF92DF92EF92FF920F931F937F
:10576000CF93DF93FC019589983008F494C08F01A2
:10577000E18CF12CFE2CEE24808DE82A209138114A
:1057800030913911E216F30609F458C08BE190E02C
:105790000E943B28EC019093630D8093620D892B4E
:1057A00051F0C7010E94A72A8F3F2FEF920789F47B
:1057B000CE010E947D28DF91CF911F910F91FF9024
:1057C000EF90DF90CF90BF90AF909F908F900C9410
:1057D000C72222E028838090381190903911898265
:1057E0009A821B821C821D821E821F821886298734
:1057F00020912611309127113B872A874C018C87F5
:105800009D861E861F86188A198A1A8A1B8A81E03D
:105810008C8BF80185898D8B0A5E1F4F1F8B0E8B39
:105820008FE99AE2998F888FCE010E94C21E811162
:10583000C2CF8091620D9091630DBBCF892F90E014
:1058400001970E943B28EC01892B29F181E0888394
:10585000FA82E982F801838D90E0982F8827228DC3
:10586000822B9C838B8384898D83858988508E834A
:10587000458950E048505109B801625E7F4FCE0122
:1058800007960E943933BE018BE89AE20E94E32812
:10589000811191CF8DCFDF91CF911F910F91FF900B
:1058A000EF90DF90CF90BF90AF909F908F90089532
:1058B00010928601E0913512F09136120994CF933F
:1058C000DF93EC010E9475176091371270913812C6
:1058D0008881FB01EF5BFF4F808380914312EB01D6
:1058E0008993809144129091451220E1009769F0CC
:1058F000FC013496DE01322F01900D923A95E1F7CA
:105900006096FC0180819181F1CF88E59CE2DF9176
:10591000CF910C94E328CF93DF93FC0121812230B7
:1059200009F04EC0EC01848195810E94C330892B1F
:1059300009F046C00E940630FC01892B31F480E05A
:1059400090E0DF91CF910C942B308A819B819583DD
:105950008483168217821086118612861386148617
:1059600015868C8586871786108A8D859E85282FBB
:105970002F70218B282F22952F70228B97FD02C02C
:10598000138A02C081E0838B148A158A168A178ACB
:10599000108E118E128E138E8C819D81958F848F27
:1059A00083E0868F178E80A38FE081A312A281E00F
:1059B00083A38F8584A3CF01DF91CF910C944D30C9
:1059C000DF91CF910895CF93DF9320918601222319
:1059D00011F080E02AC00097E1F3FC0122813381BD
:1059E00021153105B1F33093361220933512049608
:1059F0009093381280933712EF01CA5BDF4F81E03A
:105A000088838081898381818A838FE59CE29C835E
:105A10008B838BE89CE20E948717CE010E9446236D
:105A20008823B9F292E090938601DF91CF91089597
:105A300020918601222311F080E008950097E1F380
:105A4000FC0141E06081818192810E94FD158111FC
:105A5000F3CF80E090E00E94D7158111EDCF0E9436
:105A6000C7228111E9CF10926212109261120E9436
:105A7000E43190934E1280934D1290934C12809388
:105A80004B1283E08093860182E080934F1281E085
:105A90000895CF93DF93FC01C0913912D0913A124F
:105AA000808191819983888380912611909127111B
:105AB0009B838A8382818C838281811122C0808131
:105AC0009181909362128093611210924E12109203
:105AD0004D1260913811709139118091241190917B
