:100000000C94B4000C94D3000C94D3000C94D30043
:100010000C94D3000C94D3000C94D3000C94D30014
:100020000C94D3000C94D3000C94220E0C94D300A7
:100030000C94D3000C94D3000C94D3000C94D300F4
:100040000C943D0B0C94910B0C94FC0B0C94D30072
:100050000C947A0B0C94D3000C94D3000C94D30022
:100060000C94D3000C94D3000C94D3000C94D300C4
:100070000C94D3000C94D3000C94D3000C94D300B4
:100080000C94D3000C94D3000C94D3000C94D300A4
:100090000C94D3000C94D300E409FC062507220835
:1000A000220822082208C90718081C081F0822086D
:1000B00022082C083E084108EE09EE09EE09EE0977
:1000C000EE09EE09EE09EE094808EE09EE09EE091F
:1000D000EE09EE09EE09EE09EE097408C608EE080D
:1000E000010947099609D609BA26785BCE74B81675
:1000F0002AEFF3CC8B4E530AE2D7B73C564CB56689
:10010000DB1E57EEE6F4431A06DFCD9F863E8A7962
:100110003A04097C1FBB12A0779B40FC00AD316FF5
:100120009AA69E150D6C447035F064D67E483D50FD
:10013000622FC630E760F8DC5C5F08C3B913A8BE65
:10014000E97A8165BCD22E55E590F7A77BC2C1EA5A
:100150004AAE93F2FFB3C567399849052C3F388DF5
:10016000D3CA2DE0B200000011241FBECFEFD0E2B1
:10017000DEBFCDBF11E0A0E0B1E0ECE2F8E600E0C8
:100180000BBF02C007900D92A639B107D9F712E153
:10019000A6E9B1E001C01D92A037B107E1F70E94C6
:1001A00085010C94BF330C9400000F93DF93CF9321
:1001B000CDB7DEB760970FB6F894DEBF0FBECDBFE8
:1001C000002309F459C029833A834B835C836D83F0
:1001D0007E838F839887E0E2E01B2D813E814F81F3
:1001E00058851E16BCF01D861E861F86188A8E2F07
:1001F000992787FD9095909581959F4F04C05695BE
:100200004795379527958A95D2F729873A874B875F
:100210005C872AC0CA01B901002E04C09695879553
:10022000779567950A94D2F76D877E878F87988B2D
:10023000DA01C90104C0880F991FAA1FBB1FEA95E4
:10024000D2F729813A814B815C8104C0569547954C
:10025000379527950A95D2F7822B932BA42BB52B94
:1002600089879A87AB87BC8729853A854B855C85CA
:100270006D857E858F85988960960FB6F894DEBF70
:100280000FBECDBFCF91DF910F9108955D98F89487
:10029000FFCF8DEE8093640089E88093650080B77E
:1002A000806880BF80EF80937E000E945F29882352
:1002B00041F10E943F28882321F186E991E060E224
:1002C00070E045E026E332E00E9447288823C9F029
:1002D00082E492E063E970E04FE02FED3AE00E94A3
:1002E0004728882371F00E948F32882361F0579A43
:1002F0006F9A6E9A559A5F98779A769A5D9A81E08E
:10030000089580E0089580E0089588E10FB6F8949C
:1003100080936000109260000FBE0E944901882304
:1003200069F00E944010882319F40E94741006C0DE
:100330000E940C0A882321F40E94800A0E94460130
:100340000E947410769878940E94BB290E948D3385
:100350000E94CA0C0E942B030E94A50AF5CF0895A3
:1003600083FF27C01092590C1092580C289882E8ED
:100370008EBD0DB407FEFDCF8EB58EBD0DB407FE4C
:10038000FDCF8EB5289A289892EC9EBD807E836022
:100390000DB407FEFDCF9EB58EBD0DB407FEFDCF9B
:1003A0008EB5289A82E08A95F1F700C082E08093AA
:1003B00009010895CF93DF9383FF75C09091EE0AF2
:1003C000992351F48091F50A9091F60A0196909341
:1003D000F60A8093F50A8DC0289880E28EBD809140
:1003E000EB0AE82FF0E0EE0FFF1FE950F54F019008
:1003F000F081E02D893019F41092EB0A03C08F5F71
:100400008093EB0A8091ED0A8F5F8093ED0A915003
:100410009093EE0A0DB407FEFDCF8EB58EBD80E53C
:10042000808380910B0B86830DB407FEFDCF2EB524
:100430002F77822F865F81832087EF01299689504D
:100440008EBD80910C0B90910D0BA0910E0BB09175
:100450000F0B82839383A483B5830DB407FEFDCF76
:10046000CE010196820F911D2EB52EBD29930DB49C
:1004700007FEFDCFC817D907B9F7289A289886E84C
:100480008EBD0DB407FEFDCF8EB587838EBD0DB436
:1004900007FEFDCF8EB58783289A8781881F88271E
:1004A000881F878326C082FF1FC00E94CD32969589
:1004B00087957795679560930C0B70930D0B8093E0
:1004C0000E0B90930F0B289886E88EBD0DB407FE97
:1004D000FDCF8EB58EBD0DB407FEFDCF8EB5289A2B
:1004E0008F7180930B0B05C08091100B8F5F8093F1
:1004F000100BDF91CF910895CF93DF931092F40A00
:100500001092F30A1092F60A1092F50A10920B0B51
:1005100010920C0B10920D0B10920E0B10920F0BF1
:100520001092100B1092EB0A1092EC0A1092ED0A46
:100530008AE08093EE0A1092EF0A1092F00A10926D
:10054000F20A1092F10A0E9426128BEF93E00197B3
:10055000F1F700C000002E982D982C9890E19A9504
:10056000F1F72D9A8FE599E00197F1F700C00000AF
:100570008FE599E00197F1F700C0000082E06FE19C
:1005800040E023E00E9490128BEF93E00197F1F797
:1005900000C0000081E06FE140E00E9479128830E5
:1005A00071F583E068E043E020E00E94901283E070
:1005B00067E040E020E00E94901285E060E847E0BC
:1005C00021E00E9490128EE06CE00E945E12809109
:1005D0006F00806280936F00C7EFDAE089E890E0F7
:1005E0000E94CF28009759F0899399939BE0CB30D4
:1005F000D907A1F782E08093090181E00FC00E9432
:100600003D12C7EFDAE0888199810E941D29199275
:1006100019928BE0CB30D807B1F780E0DF91CF9112
:100620000895CF93DF9380910901813089F0C7EF5E
:10063000DAE0888199810E941D29199219928BE034
:10064000CB30D807B1F70E943D1281E080930901B9
:10065000DF91CF910895DF93CF930F92CDB7DEB79F
:1006600080910901843009F095C08091ED0A8823BA
:1006700009F498C081E08093E9008091E80080FF50
:1006800091C08091E8008E7F8093E8008091EF0A0E
:10069000882371F58091F00A882309F5E091EC0A2E
:1006A000F0E0EE0FFF1FE950F54F0190F081E02DD3
:1006B000F093F20AE093F10A21812093EF0A822F4E
:1006C00090E0CF9646E0969587954A95E1F780931E
:1006D000F00A2F7369F48F5F8093F00A09C08130AC
:1006E00031F48091E8008F778093E80030C07698ED
:1006F0008091EF0A8150E091F10AF091F20A01C075
:10070000822F91919093F100882339F4E093F10ABC
:10071000F093F20A1092EF0A0CC09091E800282F93
:10072000215095FDEDCFE093F10AF093F20A80930A
:10073000EF0A9091F00A91509093F00A2091E8000E
:100740002F772093E800882369F5992359F58FB70F
:100750008983F8948091EC0A893019F41092EC0A9C
:1007600003C08F5F8093EC0A8091ED0A81508093E3
:10077000ED0A8091EE0A8F5F8093EE0A8091F30A72
:100780009091F40A01969093F40A8093F30A898178
:100790008FBF08C0803131F481E068E040E051E073
:1007A0000E949D0D0F90CF91DF9108951F93182FF8
:1007B00080910901823049F5812F8B50803128F5D5
:1007C0008FE599E00197F1F700C0000082E06FE14A
:1007D00040E023E00E9490128BEF93E00197F1F745
:1007E00000C0000081E06FE140E00E947912883093
:1007F00061F46FE140E0212F0E94901288E06FE1E8
:1008000040E00E94791291E0181390E0892F1F9127
:100810000895DF93CF930F92CDB7DEB78091090192
:10082000823009F048C06FE140E023E00E9490125E
:100830008BEF93E00197F1F700C0000081E06FE1DA
:1008400040E00E9479128830B1F582E06FE140E02B
:1008500026E00E94901287E691E00197F1F700C030
:10086000000081E06FE140E00E947912863019F5C6
:100870008FB78983F8941092EB0A1092EC0A1092C9
:10088000ED0A8AE08093EE0A1092EF0A1092F00AC5
:100890001092F20A1092F10A1092F40A1092F30ADE
:1008A00089818FBF8AED91E00E94201384E08093BC
:1008B000090181E001C080E00F90CF91DF910895A0
:1008C000809109018430D1F40E94441382E06FE1E9
:1008D00040E023E00E9490128BEF93E00197F1F744
:1008E00000C0000081E06FE140E00E947912883092
:1008F00039F482E08093090181E0089580E0089551
:1009000080E008958FEA91E00E9420130E94441332
:1009100080E00895809109018031D1F40E94441350
:1009200082E06FE140E023E00E9490128BEF93E0C1
:100930000197F1F700C0000081E06FE140E00E9404
:100940007912883039F482E08093090181E00895BA
:1009500080E0089580E008951F93CF93DF93182FD0
:10096000EB0118167CF5209779F18091090182300E
:1009700069F581E06FE140E00E947912883041F52D
:1009800082E06FE140E029E00E94901287E691E06A
:100990000197F1F700C0000081E06FE140E00E94A4
:1009A00079128930B9F480EB91E00E9420132C9ADF
:1009B0002C98812FBE010E94B41280E2809309011D
:1009C00080E009C081E007C082E005C083E003C089
:1009D00084E001C085E0DF91CF911F9108951F93BE
:1009E000809109018230A1F581E06FE140E00E9431
:1009F0007912182F883061F58FE768EE70E00E9459
:100A0000D91286E36FE00E945E128DE360E00E94DF
:100A10005E122E9A82E06FE140E029E00E9490127F
:100A200087E691E00197F1F700C0000081E06FE1F7
:100A300040E00E947912893019F00E94261208C005
:100A400082E062E00E945E121093090181E001C021
:100A500080E01F91089580910901883049F40E9437
:100A60002612882339F082E08093090181E00895FD
:100A700080E0089580E0089524E02093E90020912B
:100A8000E8002E7F2093E800FC018081882311F08C
:100A90008BE801C080E88093F1008091E8008F77B7
:100AA0008093E8008091230B9091240B0E941D29D4
:100AB000089524E02093E9002091E8002E7F209300
:100AC000E800FC018085882311F08BE801C080E8F4
:100AD0008093F1008091E8008F778093E800809107
:100AE0002A0B90912B0B0E941D29089524E020933E
:100AF000E9002091E8002E7F2093E800FC01EF5BE5
:100B0000FF4F8081882311F08BE801C080E880933B
:100B1000F1008091E8008F778093E80080912C0BA2
:100B200090912D0B0E941D290895009799F484E05F
:100B30008093E9008091E8008E7F8093E80081E84F
:100B40008093F1008091E8008F778093E8000E9405
:100B5000860D089585ED96E00E948529882391F4FD
:100B600084E08093E9008091E8008E7F8093E80024
:100B700085E98093F1008091E8008F778093E80009
:100B80000E94860D0895DF93CF930F92CDB7DEB705
:100B90002091220B222351F48091250B9091260B5A
:100BA00001969093260B8093250B2EC0E091270B86
:100BB000F0E0EE0FFF1FEA5EF44F0190F081E02DB0
:100BC0002FB72983F8942091270B243019F4109221
:100BD000270B03C02F5F2093270B2091120B2F5F51
:100BE0002093120B2091220B21502093220B29815C
:100BF0002FBF25E520832AE021833296DC0188E09F
:100C00000D9001928150E1F70F90CF91DF910895FF
:100C1000DF93CF930F92CDB7DEB72091220B222323
:100C200051F48091250B9091260B01969093260B01
:100C30008093250B32C0E091270BF0E0EE0FFF1FF1
:100C4000EA5EF44F0190F081E02D2FB72983F894EC
:100C50002091270B243019F41092270B03C02F5F2B
:100C60002093270B2091120B2F5F2093120B2091C2
:100C7000220B21502093220B29812FBF24E52083B2
:100C80002CE02183DC018D919D91938382833496A6
:100C900088E00D9001928150E1F70F90CF91DF91A4
:100CA0000895DF93CF930F92CDB7DEB7FC0180910B
:100CB000220B882351F48091250B9091260B0196ED
:100CC0009093260B8093250B4AC0A091270BB0E090
:100CD000AA0FBB1FAA5EB44F0D90BC91A02D8FB779
:100CE0008983F8948091270B843019F41092270B94
:100CF00003C08F5F8093270B8091120B8F5F8093CF
:100D0000120B8091220B81508093220B89818FBF1F
:100D100083E58C938681885F11968C9311978181EE
:100D2000928113969C938E9312978381948115964A
:100D30009C938E931497858116968C931697868133
:100D400017968C931797BD01685F7F4F46819F016F
:100D5000295F3F4FCB01B90150E00E94C2330F9091
:100D6000CF91DF91089524E02093E9002091E800DD
:100D70002E7F2093E800FC018481882311F08BE80A
:100D800006C081E0809324110E94062380E88093AE
:100D9000F1008091E8008F778093E8008091280B24
:100DA0009091290B0E941D2908959F92AF92BF92A6
:100DB000CF92DF92EF92FF920F931F93CF93DF9327
:100DC000EC0184E08093E9008091E8008E7F8093BD
:100DD000E8008091E80084608093E800E881F0E01A
:100DE000E832F10508F0FAC2E45BFF4FEE0FFF1F97
:100DF0000590F491E02D099484E08093E9008091BE
:100E0000E8008E7F8093E80084E88093F1008AE018
:100E10008093F1008BE48093F10089E48093F100EA
:100E20008CE48093F1008093F10085E48093F100DD
:100E300082E58093F10082E48093F10080E3809367
:100E4000F1008093F10081E3D2C284E08093E90055
:100E50008091E8008E7F8093E8008981882341F4A7
:100E600085E88093F10081E08093F10089E1BFC2C1
:100E7000813021F495E89093F10006C0823039F476
:100E800085E88093F10081E08093F100B0C2803C5E
:100E900061F485E88093F10082E08093F10081E0C5
:100EA0008093F1001092F100A4C2813C09F027C1A7
:100EB00085E88093F10010910A01F0900B01E09019
:100EC0000C01D0900D01C0900E01B0900F01A090C8
:100ED0001001909011011093F100212F3F2D4E2D04
:100EE0005D2D6C2D7B2D8A2D992D08E00E94D5005B
:100EF0002093F100212F3F2D4E2D5D2D6C2D7B2D4C
:100F00008A2D992D00E10E94D5002093F100212F18
:100F10003F2D4E2D5D2D6C2D7B2D8A2D992D08E1B9
:100F20000E94D5002093F100212F3F2D4E2D5D2DE5
:100F30006C2D7B2D8A2D992D00E20E94D5002093E7
:100F4000F100212F3F2D4E2D5D2D6C2D7B2D8A2DF7
:100F5000992D08E20E94D5002093F100212F3F2D0A
:100F60004E2D5D2D6C2D7B2D8A2D992D00E30E9439
:100F7000D5002093F100212F3F2D4E2D5D2D6C2D9E
:100F80007B2D8A2D992D08E30E94D5002093F10036
:100F900030C21092270B1092150B1092120B85E0A5
:100FA0008093220B1092130B1092140B1092210BB2
:100FB0001092200B1092260B1092250B0E94110309
:100FC0000E94792A81E08093110B8981882331F472
:100FD0000E947C02882351F182E023C0833021F5F6
:100FE00020910A0130910B0140910C0150910D01AB
:100FF00060910E0170910F0180911001909111018B
:101000000E94242A882391F081E596E00E94B32A69
:1010100088E096E00E94DC2A83EC95E00E94052B94
:1010200084E08093110B20C082E81FC083E81DC0BC
:1010300089810E94D603D5C00E940904D2C00E94B3
:101040006004CFC084E08093E9008091E8008E7F47
:101050008093E80083E9CBC1BE016E5F7F4F898139
:101060000E94AC04882309F480E894E09093E9009E
:101070009091E8009E7F9093E800B9C10E94EF0430
:1010800002C00E942B05882309F0AFC093E8AEC0D0
:1010900084E08093E9008091E8008E7F8093E800EF
:1010A00080E88093F1008091E8008F778093E800DA
:1010B0000E94860D8FE798E3A1E081509040A04008
:1010C000E1F700C000008FE090E065E30E94D333B9
:1010D00028E088E190E00FB6F894A895809360002E
:1010E0000FBE20936000FFCF8E818F3550F084E0DB
:1010F0008093E9008091E8008E7F8093E80082E889
:1011000076C187E290E00E94CF28FC019093240BE7
:101110008093230B009751F484E08093E900809141
:10112000E8008E7F8093E80080E961C110828981A8
:101130009A81928381838B8183838C8184838E8146
:101140008683CE010796908787838D8185838CE384
:1011500095E092878187CF010E94952B882309F023
:101160004DC184E08093E9008091E8008E7F8093F8
:10117000E8008BE88093F1008091E8008F778093FE
:10118000E8008091230B9091240B0DC183E090E047
:101190000E94CF287C010097A9F08981D7018C9308
:1011A0008A819B8112969C938E931197C7010E940E
:1011B000D92D882311F412E801C010E8C7010E945C
:1011C0001D2901C010E984E08093E9008091E800C6
:1011D0008E7F8093E8001093F1000BC189810E94FB
:1011E0008432882311F492E801C090E884E080936F
:1011F000E9008091E8008E7F8093E8009093F100F1
:10120000F8C08FE190E00E94CF28FC019093290B59
:101210008093280B009781F484E08093E90080910B
:10122000E8008E7F8093E80080E98093F100809150
:10123000E8008F778093E80089819A819183808389
:101240008B8182838C8183838D8184838E8185834E
:1012500083EB96E097838683CF010E94692E8823D3
:1012600009F0CCC084E08093E9008091E8008E7F93
:101270008093E8008BE88093F1008091E8008F77FD
:101280008093E8008091280B9091290B8CC08FE10E
:1012900090E00E94CF28FC0190932B0B80932A0BA7
:1012A000009781F484E08093E9008091E8008E7FCC
:1012B0008093E80080E98093F1008091E8008F77C7
:1012C0008093E800CF01AE014F5F5F4F28E0DA0165
:1012D0000D90AD01DC010D92CD012150C1F7898542
:1012E00080878A8581878B8582878C85838789E53E
:1012F00095E095878487CF010E94B02F882309F05D
:101300007DC084E08093E9008091E8008E7F809327
:10131000E8008BE88093F1008091E8008F7780935C
:10132000E80080912A0B90912B0B3DC08AE890E059
:101330000E94CF28FC0190932D0B80932C0B0097DB
:1013400081F484E08093E9008091E8008E7F8093AF
:10135000E80080E98093F1008091E8008F77809326
:10136000E800898180838A81818386E795E0938381
:101370008283CF010E949B2D882309F03FC084E027
:101380008093E9008091E8008E7F8093E8008BE8ED
:101390008093F1008091E8008F778093E80080913E
:1013A0002C0B90912D0B0E941D2928C00E94F5291D
:1013B000882351F084E08093E9008091E8008E7FDB
:1013C0008093E8008BE813C084E08093E90080916B
:1013D000E8008E7F8093E80080E809C084E0809375
:1013E000E9008091E8008E7F8093E8008DE880938B
:1013F000F1008091E8008F778093E8000E94860DCD
:10140000DF91CF911F910F91FF90EF90DF90CF90E0
:10141000BF90AF909F900895EF92FF920F931F930C
:10142000DF93CF9300D00F92CDB7DEB71092240B8D
:101430001092230B0E94D61020930A0130930B01C7
:1014400040930C0150930D0160930E0170930F01B6
:1014500080931001909311011092260B1092250B8E
:1014600006E11BE0780183E990E00E94CF28009715
:1014700059F1F701819391937F01F0E2EF16FBE0C0
:10148000FF0689F720910A0130910B0140910C0170
:1014900050910D0160910E0170910F01809110012A
:1014A000909111010E941D0C82E0898385E995E0ED
:1014B0009B838A83CE0101960E94470D882321F4E5
:1014C00081E08093110B12C0F801808191810E940C
:1014D0001D29F801119211928F01FBE000321F07C4
:1014E00099F70E94760D0E949C0C80E00F900F905F
:1014F0000F90CF91DF911F910F91FF90EF90089582
:10150000CF93DF938091110B8823E1F01092110BA0
:101510008091230B9091240B0E941D291092240B83
:101520001092230BC6E1DBE0888199810E941D297E
:10153000199219928BE0C032D807B1F70E94760D4C
:101540000E949C0CDF91CF910895DF93CF930F926F
:10155000CDB7DEB78091110B843009F08AC080913D
:10156000120B882309F485C081E08093E900809103
:10157000E80080FF7EC08091E8008E7F8093E800C5
:101580008091130B882369F58091140B882309F54A
:10159000E091150BF0E0EE0FFF1FEA5EF44F0190B3
:1015A000F081E02DF093210BE093200B218120931B
:1015B000130B822F90E0CF9656E0969587955A951B
:1015C000E1F78093140B2F7361F48F5F8093140BFA
:1015D00008C0813031F48091E8008F778093E80073
:1015E0002FC08091130B8150E091200BF091210BC3
:1015F00001C0822F91919093F100882339F4E093F8
:10160000200BF093210B1092130B0CC09091E8006B
:10161000282F215095FDEDCFE093200BF093210B67
:101620008093130B9091140B91509093140B209175
:10163000E8002F772093E8008823D9F49923C9F490
:101640008FB78983F8948091150B843019F4109228
:10165000150B03C08F5F8093150B8091120B815087
:101660008093120B8091220B8F5F8093220B8981D4
:101670008FBF0F90CF91DF9108951F920F920FB6F9
:101680000F920BB60F9211242F933F934F935F93BA
:101690006F937F938F939F93AF93BF93EF93FF933A
:1016A00086B3856086BB28988FE88EBD0DB407FE93
:1016B000FDCF8EB58EBD0DB407FEFDCF8EB5289A39
:1016C000E091580CF091590C309709F00995FF9171
:1016D000EF91BF91AF919F918F917F916F915F91AA
:1016E0004F913F912F910F900BBE0F900FBE0F9017
:1016F0001F9018951F920F920FB60F9211248F937F
:101700009F9380916E1290916F12019690936F1239
:1017100080936E129F918F910F900FBE0F901F902C
:1017200018951F920F920FB60F920BB60F921124BD
:101730002F933F934F935F936F937F938F939F93D9
:10174000AF93BF93EF93FF93E0911011F0911111BC
:10175000309731F480916F008D7F80936F0039C096
:101760008091141190911511009779F00197909341
:101770001511809314118091840090918500019738
:10178000909389008093880024C020911611309195
:1017900017112115310579F0809184009091850011
:1017A000820F931F909389008093880010921711E5
:1017B000109216110EC080916F008D7F80936F0084
:1017C000809112119091131109951092111110929C
:1017D0001011FF91EF91BF91AF919F918F917F91E8
:1017E0006F915F914F913F912F910F900BBE0F9092
:1017F0000FBE0F901F9018951F920F920FB60F9269
:1018000011248F939F938091181190911911019633
:101810009093191180931811809184009091850004
:101820008659974E90938B0080938A009F918F9159
:101830000F900FBE0F901F9018957F928F929F92DE
:10184000AF92BF92CF92DF92EF92FF920F931F93CE
:10185000CF93DF93122FD32EC42EB52EA62E972E04
:10186000882E792E10922E0B10922F0B1092360B81
:101870001092320B1092310B1092300B10921C11FF
:101880001092330B1092350B1092340B809165003F
:101890008F7780936500CFE6D1E0EE24FF24212FDF
:1018A0003D2D4C2D5B2D6A2D792D882D972D0E2DDC
:1018B0000E94D500822F82958F708A3010F4805D4F
:1018C00001C0895C888319822F702A3010F4205D52
:1018D00001C0295C2A831B8288E090E0E80EF91E93
:1018E000249690E3E916F104D1F68091D7008F7B1E
:1018F0008093D7008091D70080688093D700809133
:10190000D80080698093D8008091D8008F7B809325
:10191000D8008091D80081608093D800DF91CF916A
:101920001F910F91FF90EF90DF90CF90BF90AF90FD
:101930009F908F907F900895E8EDF0E080818F7602
:101940008083E5E6F0E0808180688083089580915F
:10195000D70081608093D7008EE089BD09B400FE76
:10196000FDCF8091D8008F7D8093D8008091E200D8
:1019700081608093E2008091E20088608093E200C1
:101980000E94A4138091E0008E7F8093E00010926B
:101990002E0B08958091D90080FF11C080912E0BED
:1019A000882369F481E080932E0B8091E2008860A7
:1019B0008093E2008091E0008E7F8093E000809130
:1019C0002F0B882349F081E08093EA001092EA000F
:1019D0001092360B10922F0B1092E9008091E800C4
:1019E00083FF02C00E9410148091300B882309F4F9
:1019F0004DC08091330B8093E9008091310B909121
:101A0000320B3CC02091E8002B7F2093E8006091CE
:101A1000F200262F30E0AC01420F531F71E041323B
:101A2000570728F4FC01E95CF44F462F0EC0909351
:101A3000320B8093310B1092300B81E080931C119C
:101A400008955091F100519341504423D1F7820FF2
:101A5000931F2091E8002F772093E800603470F402
:101A60009093320B8093310B1092300BE091340B3A
:101A7000F091350B67E37BE0099508952091E8002C
:101A800022FDC0CF9093320B8093310B0895DF93EA
:101A9000CF930F92CDB7DEB7FC01009711F1809183
:101AA000300B8823E1F480818823D9F08FB78983B4
:101AB000F89480818093330B818192819093350BD0
:101AC0008093340B1092320B1092310B81E0809393
:101AD000300B10921C1189818FBF80E003C081E020
:101AE00001C082E00F90CF91DF910895DF93CF93F3
:101AF0000F92CDB7DEB78FB78983F8941092300B71
:101B000089818FBF0F90CF91DF910895DF93CF939D
:101B10000F92CDB7DEB78FB78983F89481E08093B9
:101B2000300B10921C111092320B1092310B8981E4
:101B30008FBF0F90CF91DF9108958093E90080913E
:101B4000E80080FF41C0862F90E0CF9626E0969572
:101B500087952A95E1F7962F9F7311F48F5F02C046
:101B6000613410F090E401C0962F242F352F40915E
:101B7000E8004E7F4093E800492FF90104C05191DD
:101B80005093F10041504423D1F7290F311D605487
:101B90009091E8009F779093E800603410F090E413
:101BA00001C0962F4FEF5FEF08C04115510519F4A2
:101BB000769881E00895415050407091E80070FFA0
:101BC000F4CF8150A1F6089584E00895FA016623C8
:101BD00089F18093E9008FEF03C0882369F1815078
:101BE0009091E80090FFF9CF8091E8008E7F80937C
:101BF000E800862F91919093F1008150D9F7809160
:101C0000E8008F778093E8006034C1F48FEF03C061
:101C10008823B1F081509091E80090FFF9CF809136
:101C2000E8008E7F8093E8008091E8008F778093B2
:101C3000E80004C081E0089584E0089580E00895FC
:101C400084E008951F920F920FB60F920BB60F9279
:101C500011242F933F934F935F936F937F938F93B1
:101C60009F93AF93BF93EF93FF938091DA0080FF30
:101C700019C08EEF8093DA008091D90080FF10C0E8
:101C800081E080932E0B8091E20088608093E200D7
:101C90000E94A70C8091E0008E7F8093E00002C03C
:101CA00010922E0B8091DA0081FF05C08DEF80939A
:101CB000DA008091D9008091E10082FF03C08BEFB0
:101CC0008093E1008091E10080FF10C08EEF80934F
:101CD000E1008091E20080618093E2008FEE8093CA
:101CE000E1008091D80080628093D8008091E1006B
:101CF00084FF0DC08091D8008F7D8093D8008FEE37
:101D00008093E1008091E2008F7E8093E2008091D9
:101D1000E10085FF0DC08091E2008F7E8093E2009C
:101D20008FED8093E1008091E2008F7D8093E2004F
:101D30008091E10083FF08C087EF8093E1000E945B
:101D4000A41381E080932F0BFF91EF91BF91AF918E
:101D50009F918F917F916F915F914F913F912F91C3
:101D60000F900BBE0F900FBE0F901F901895E4E6DA
:101D7000F0E080818F77808380E28093B800E9EB88
:101D8000F0E08081808381E00895E4E6F0E08081E6
:101D900080688083089594EA9093BC009FEF20911F
:101DA000BC0027FD02C09150D1F79091B900987FF7
:101DB000983039F590EA9093BB009091BC00906800
:101DC0009093BC009FEF2091BC0027FD02C0915072
:101DD000D1F79091B900987F983199F48093BB0026
:101DE0008091BC0080688093BC008FEF9091BC0014
:101DF00097FD02C08150D1F78091B900887F883269
:101E000029F084E98093BC0080E008956093BB00D2
:101E10008091BC0080688093BC008FEF9091BC00E3
:101E200097FD02C08150D1F79091B900987F81E071
:101E3000983209F080E094E99093BC00089580E026
:101E400008956115710509F488C094EA9093BC0067
:101E50009FEF91502091BC0027FD02C09923C9F744
:101E60002091B900287F283009F06FC0992309F428
:101E70006CC090EA9093BB0094E89093BC009FEFF5
:101E800091502091BC0027FD02C09923C9F72091F1
:101E9000B900287F283109F058C0992309F455C0AA
:101EA0008093BB0084E88093BC008FEF81509091B9
:101EB000BC0097FD02C08823C9F79091B900987FB4
:101EC000983209F042C0882309F43FC084EA809325
:101ED000BC008FEF81509091BC0097FD02C0882319
:101EE000C9F79091B900987F903179F5882369F10D
:101EF00081EA8093BB0084E88093BC008FEF81501F
:101F00009091BC0097FD02C08823C9F79091B90059
:101F1000987F9034D1F48823C1F084E88093BC008A
:101F20008FEF81509091BC0097FD02C08823C9F7C4
:101F30009091B900987F983511F0882331F4809101
:101F4000BB00FB01808381E001C080E094E99093B5
:101F5000BC0090E89093BC00089580E0089561155E
:101F6000710509F48BC04115510509F487C094EA45
:101F70009093BC009FEF91502091BC0027FD02C0C0
:101F80009923C9F72091B900287F283009F070C043
:101F9000992309F46DC090EA9093BB0094E8909364
:101FA000BC009FEF91502091BC0027FD02C09923F7
:101FB000C9F72091B900287F283109F059C0992329
:101FC00009F456C08093BB0084E88093BC008FEF77
:101FD00081509091BC0097FD02C08823C9F7909171
:101FE000B900987F983209F043C0882309F440C0B3
:101FF00084EA8093BC008FEF81509091BC0097FDE4
:1020000002C08823C9F79091B900987F903181F57B
:10201000882371F181EA8093BB0084E88093BC003F
:102020008FEF81509091BC0097FD02C08823C9F7C3
:102030009091B900987F9034D9F48823C9F0FA01BF
:1020400024EC2093BC008FEF81509091BC0097FD51
:1020500002C08823C9F79091B900987F903541F468
:10206000882331F08091BB0081936150704049F723
:1020700084E98093BC0080E88093BC0080E00895F0
:102080001F93DF93CF930F92CDB7DEB70E94B70EA9
:10209000882319F40E94C50E21C080E090E00E94C0
:1020A000CB33182F8FEF898380E0BE016F5F7F4FA6
:1020B0000E94210F89818F3F29F482E08093570C81
:1020C00081E00DC01F3F31F40E94C50E81E0809376
:1020D000570C05C00E94C50E1092570C80E00F905F
:1020E000CF91DF911F9108958091570C823011F4A8
:1020F0000E94C50E1092570C0895DF93CF930F9254
:10210000CDB7DEB78FEF89838091570C823039F4D9
:1021100081E0BE016F5F7F4F0E94210F07C08130B9
:1021200029F481E090E00E94CB33898389810F906C
:10213000CF91DF910895DF93CF930F92CDB7DEB7A4
:102140008FEF89838091570C823031F4BE016F5F2D
:102150007F4F0E94210F07C0813029F482E090E078
:102160000E94CB33898389810F90CF91DF910895AD
:10217000DF93CF930F92CDB7DEB78FEF8983809136
:10218000570C823039F483E0BE016F5F7F4F0E94AD
:10219000210F07C0813029F483E090E00E94CB3307
:1021A000898389810F90CF91DF910895DF93CF9339
:1021B000CDB7DEB728970FB6F894DEBF0FBECDBF00
:1021C00019821A821B821C821D821E821F8218861F
:1021D0008091570C823089F584E0BE01685F7F4FA3
:1021E0000E94210F85E0BE01695F7F4F0E94210F91
:1021F00086E0BE016A5F7F4F0E94210F87E0BE012B
:102200006B5F7F4F0E94210F88E0BE016C5F7F4FA4
:102210000E94210F89E0BE016D5F7F4F0E94210F58
:102220008AE0BE016E5F7F4F0E94210F8BE0BE01EE
:102230006F5F7F4F0E94210F2AC0813041F584E0FB
:1022400090E00E94CB33888785E090E00E94CB33FA
:102250008F8386E090E00E94CB338E8387E090E00E
:102260000E94CB338D8388E090E00E94CB338C8337
:1022700089E090E00E94CB338B838AE090E00E945B
:10228000CB338A838BE090E00E94CB338983298112
:102290003A814B815C816D817E818F819885289602
:1022A0000FB6F894DEBF0FBECDBFCF91DF9108957A
:1022B000DF93CF930F92CDB7DEB78FEF89838091F5
:1022C000570C823039F48CE0BE016F5F7F4F0E9463
:1022D000210F07C0813029F48CE090E00E94CB33BD
:1022E000898389810F90CF91DF910895DF93CF93F8
:1022F00000D0CDB7DEB71A8219828091570C823098
:1023000069F48DE0BE016F5F7F4F0E94210F8CE06A
:10231000BE016E5F7F4F0E94210F0CC0813051F4CF
:102320008DE090E00E94CB3389838CE090E00E94A6
:10233000CB338A8389819A810F900F90CF91DF915F
:102340000895DF93CF930F92CDB7DEB78FEF8983D8
:102350008091570C823039F48EE0BE016F5F7F4F61
:102360000E94210F07C0813029F48EE090E00E9486
:10237000CB33898389810F90CF91DF910895EF92BC
:10238000FF920F931F93CF93DF938C01EB017A01A0
:102390008091570C8823D9F02097C9F04115510539
:1023A000B1F0823031F4802FBA01AE010E94AF0F3C
:1023B0000FC0C8010E94CB3389930F5F1F4F089451
:1023C000E108F108E114F104A1F781E001C080E027
:1023D000DF91CF911F910F91FF90EF900895CF92D1
:1023E000DF92EF92FF920F931F93CF93DF936C01D5
:1023F0007B018A018091570C8823F1F061157105EA
:10240000D9F041155105C1F0823031F48C2DBA015B
:10241000A7010E941F0F11C0C0E0D0E0CE018C0DBB
:102420009D1DF70161917F010E94D33321960C1706
:102430001D07A1F781E001C080E0DF91CF911F91DE
:102440000F91FF90EF90DF90CF9008951092590C6C
:102450001092580C249A259A269AE4E6F0E080819E
:102460008B7F808384B1876084B985B1836085B9AF
:1024700080E58CBD81E08DBD0895E4E6F0E08081CB
:10248000846080830895DF93CF930F92CDB7DEB73A
:1024900080689FB79983F89428988EBD0DB407FE85
:1024A000FDCF8EB51EBC0DB407FEFDCF8EB5289AAC
:1024B00099819FBF0F90CF91DF910895DF93CF93C4
:1024C0000F92CDB7DEB7806C9FB79983F8942898A8
:1024D0008EBD0DB407FEFDCF8EB56EBD0DB407FEEB
:1024E000FDCF8EB5289A89818FBF0F90CF91DF9154
:1024F0000895DF93CF9300D0CDB7DEB74A836983C9
:102500000E9443126981862390E04A8102C095951A
:1025100087954A95E2F70F900F90CF91DF9108953C
:102520000F931F93DF93CF9300D0CDB7DEB7182F53
:10253000062F2A8349830E944312602F60956823E7
:102540002A8130E0498102C0220F331F4A95E2F709
:102550002023622B812F0E945E120F900F90CF914B
:10256000DF911F910F910895DF93CF930F92CDB715
:10257000DEB7FB019FB79983F894289890E69EBD3B
:102580000DB407FEFDCF9EB58EBD0DB407FEFDCF89
:102590009EB591919EBD81500DB407FEFDCF9EB5B5
:1025A0008823B9F7289A89818FBF0F90CF91DF9147
:1025B0000895DF93CF930F92CDB7DEB79FB799837E
:1025C000F894289890E69EBD0DB407FEFDCF9EB509
:1025D0008EBD0DB407FEFDCF9EB5FB0194919EBD4F
:1025E0006F5F7F4F81500DB407FEFDCF9EB58823EE
:1025F000A1F7289A89818FBF0F90CF91DF9108951D
:10260000DF93CF930F92CDB7DEB7FB019FB79983CE
:10261000F894289890E29EBD0DB407FEFDCF9EB5BC
:1026200090831EBC0DB407FEFDCF9EB591938150E3
:10263000C1F7289A89818FBF0F90CF91DF910895BC
:10264000DF93CF930F92CDB7DEB72FB72983F894DE
:102650009093590C8093580C89818FBF0F90CF9124
:10266000DF910895DF93CF930F92CDB7DEB78FB789
:102670008983F8948091580C9091590C29812FBF2F
:102680000F90CF91DF910895DF93CF930F92CDB745
:10269000DEB78FB78983F8941092590C1092580CBA
:1026A00089818FBF0F90CF91DF910895EBEEF0E01D
:1026B0009081916090838093EC00EDEEF0E080815A
:1026C0008270682B60838081826080838091EE00BD
:1026D000881F8827881F08958091F40091E088233F
:1026E00009F490E080E001C090E0992321F48F5F2D
:1026F0008930D1F780E00895FB018093E900842FB1
:1027000004C091919093F10081509091E80095FF61
:1027100002C08823B1F70895FB018093E900842F5C
:1027200004C09091F100919381509091E80095FF41
:1027300002C08823B1F708958093E900EBEEF0E042
:1027400080818062808308958091D8008F7B809300
:10275000D8008091D90081FF08C01092E9008091D3
:10276000EB0080FF04C080E0089580E0089510929F
:10277000E90082E060E30E945613089580E0089526
:10278000CF93DF93C9EED0E084E0888381E860E3F3
:102790000E94561382E0888380E860E30E9456130B
:1027A00081E0888381E864E30E945613DF91CF9132
:1027B0000895833031F5613069F0613028F062307E
:1027C00079F0633001F512C084E08093201189E82C
:1027D00091E011C08CE0809320118BE491E00BC05C
:1027E00086E18093201187E591E005C08CE180931C
:1027F00020118DE691E0909322118093211181E0C8
:10280000089580E0089580E0089510925C0C109285
:102810005D0C10925E0C10925F0C10921F110895C7
:102820008091F10080935A0C6091F100653009F4B9
:10283000C0C0663050F4613009F4F4C0613008F46F
:1028400057C1633009F0AEC124C1683009F495C0A6
:10285000693020F4663009F0A5C107C0693009F479
:10286000C9C06A3009F09EC17BC1803809F083C0BD
:1028700010925B0C6091F1008091F100813019F0B1
:10288000823089F406C082E18093201182E191E0D8
:1028900005C087E28093201184E291E09093221199
:1028A0008093211105C00E94D913882309F46BC1BC
:1028B0008091F1008091F1008091F1009091F10000
:1028C000392F20E090E0822B932B2091E800277F86
:1028D0002093E80040912011242F30E02817390779
:1028E00048F44F7321F481E080935B0C25C0109273
:1028F0005B0C22C0809320111FC08091E80080FFF4
:10290000FCCF81E410C0815091F0E0912111F09151
:10291000221121912093F100F0932211E0932111D3
:1029200091509093201190912011992361F78091FB
:10293000E8008E7F8093E80080912011882321F0A9
:102940008091E80082FFD9CF8091E8008E7F80934C
:10295000E8008091E80082FDF8C080915B0C88233C
:1029600029F08091E8008E7F8093E8008091E80054
:1029700082FFFCCFEAC066E012C18038C1F48091CA
:10298000E800877F8093E80080911F118093F10019
:102990008091E8008E7F8093E8008091E8008F7737
:1029A0008093E8008091E80082FFFCCFCEC068E011
:1029B000F6C08823E9F48091F1009091E3008F77CD
:1029C0009078892B8093E3008091E800877F809343
:1029D000E8008091E8008E7F8093E8008091E80015
:1029E00080FFFCCF8091E30080688093E30008952E
:1029F00065E0D5C08823A1F49091F100923008F0F1
:102A0000C2C08091E800877F8093E80090931F11F7
:102A10008091E8008E7F8093E8000E94C0130895A3
:102A200069E0BDC0833098F5882309F4ACC08130DB
:102A300009F4A9C08091F100882309F0A4C0E091B5
:102A4000F100EF77E093E9008091EB0080FF9BC0FD
:102A5000EE23B1F08091EB0080618093EB0081E088
:102A600090E00E2E02C0880F991F0A94E2F780931F
:102A7000EA001092EA008091EB0088608093EB00FE
:102A80001092E900F0E0E45AF34F108226C061E0B2
:102A900086C0833058F5813009F475C0823009F062
:102AA0008FC08091F100882309F06DC0E091F100A2
:102AB000EF7709F468C0E093E9008091EB0080FFB4
:102AC00062C08091EB0080628093EB001092E9007D
:102AD000F0E0E45AF34F81E080838091E800877F43
:102AE0008093E8008091E8008E7F55C063E057C076
:102AF000982F9058933090F59091F1009091F100BB
:102B0000E091F100813811F0823841F08091E800C5
:102B1000877F8093E8001092F1000CC08091E8005C
:102B2000877F8093E800EF77F0E0E45AF34F8081ED
:102B30008093F1001092F1008091E8008E7F8093E5
:102B4000E8008091E80082FFFCCF8091E8008B7F55
:102B50008093E8008091E8008F771DC060E01FC07F
:102B60008138E1F48091F1008091F1008091F100D1
:102B70009091F100392F20E090E0822B932B9093DD
:102B80001E1180931D118091EB0080628093EB00F9
:102B90008091E800877F8093E80008956AE00E94B2
:102BA000BE1308950E94BE13882351F48091EB0058
:102BB00080628093EB008091E800877F8093E8003B
:102BC000089510922311109236111092371110921D
:102BD00038111092391110923A1110923B11109243
:102BE0003C1110923D118FEF9FEF90932B1180932A
:102BF0002A1120912E112093261190932D1180934C
:102C00002C1190933F1180933E111092241184EF68
:102C100091E090932811809327118BE080932911E4
:102C2000109225110895CF93DF93EC010E945E2648
:102C3000882349F0D0932D11C0932C11CE010E940E
:102C40008D2680E001C088EEDF91CF910895CF936B
:102C5000DF93EC010E945E26882349F0D0933F1158
:102C6000C0933E11CE010E94A32680E001C088EEF1
:102C7000DF91CF9108951F93182F0E945E2688231D
:102C800049F0812F0E94BD27882321F0109329113C
:102C900080E001C088EE1F9108951F93DF93CF93CA
:102CA00000D0CDB7DEB79C01142F80918D01843008
:102CB00011F0882331F58FEF2F3F380711F1862F60
:102CC0008B508031F0F4C9016A830E9413166A8127
:102CD0008823B9F4862F0E94BD27882391F0109392
:102CE0002511812F0E94072781E0809324118FB73F
:102CF0008983F89485E080938D0189818FBF80E07E
:102D000003C00E943D2688EE0F900F90CF91DF9177
:102D10001F9108950E94762686E10E944B27089510
:102D2000DF93CF930F92CDB7DEB7EFB7E983F89477
:102D3000E1E0E0938D01E981EFBF20932E11309304
:102D40002F114093301150933111609332117093D1
:102D5000331180933411909335111092090D109214
:102D6000080D1092070D1092060D1092050D10928D
:102D7000040D1092030D1092020D1092010D10928D
:102D8000000D1092FF0C1092FE0C81E00E94B62202
:102D9000882349F08FB78983F89410928D01898137
:102DA0008FBF81E001C080E00F90CF91DF91089547
:102DB0000E9457261092090D1092080D1092070DCF
:102DC0001092060D1092050D1092040D1092030D35
:102DD0001092020D1092010D1092000D81E080936F
:102DE0008D0108958091080D9091090D0895DF934C
:102DF000CF930F92CDB7DEB78FB78983F894109237
:102E0000090D1092080D89818FBF0F90CF91DF912E
:102E10000895DF93CF930F92CDB7DEB72FB72983F5
:102E2000F8949093090D8093080D89818FBF0F90BE
:102E3000CF91DF9108958091060D9091070D08952F
:102E4000DF93CF930F92CDB7DEB78FB78983F89416
:102E50001092070D1092060D89818FBF0F90CF91B0
:102E6000DF910895DF93CF930F92CDB7DEB72FB7E1
:102E70002983F8949093070D8093060D89818FBF65
:102E80000F90CF91DF9108958091040D9091050DE1
:102E90000895DF93CF930F92CDB7DEB78FB78983B5
:102EA000F8941092050D1092040D89818FBF0F9038
:102EB000CF91DF910895DF93CF930F92CDB7DEB717
:102EC0002FB72983F8949093050D8093040D898181
:102ED0008FBF0F90CF91DF9108958091020D909157
:102EE000030D0895DF93CF930F92CDB7DEB78FB761
:102EF0008983F8941092030D1092020D89818FBF7F
:102F00000F90CF91DF910895DF93CF930F92CDB7BC
:102F1000DEB72FB72983F8949093030D8093020DA9
:102F200089818FBF0F90CF91DF9108958091000D1F
:102F30009091010D0895DF93CF930F92CDB7DEB737
:102F40008FB78983F8941092010D1092000D89813A
:102F50008FBF0F90CF91DF910895DF93CF930F92A2
:102F6000CDB7DEB72FB72983F8949093010D8093E6
:102F7000000D89818FBF0F90CF91DF9108958091CF
:102F8000FE0C9091FF0C0895DF93CF930F92CDB775
:102F9000DEB78FB78983F8941092FF0C1092FE0C65
:102FA00089818FBF0F90CF91DF910895DF93CF93E9
:102FB0000F92CDB7DEB72FB72983F8949093FF0C0B
:102FC0008093FE0C89818FBF0F90CF91DF91089580
:102FD0001F93FC011081812F8E5F60E67CE00E94D0
:102FE0003827882309F4F0C0E12FF0E0E05AF34FCE
:102FF00081818093FD0C8091610C90E03091620C96
:1030000020E0822B932B83FDDFC0282F27702130F7
:1030100029F0233019F0222309F0D6C02093E10CC7
:10302000292F2695269523702093E30C492F42954E
:103030004695469543704093EE0C222319F44423A1
:1030400009F4C2C03091630C3093E20CE6EEFCE070
:103050001092E60C1182128213821482158216825B
:1030600017822223D1F1223091F42091640C309107
:10307000650C3093E50C2093E40C2091660C3091A4
:10308000670C3093E70C2093E60C28E027C0233030
:1030900009F09AC02091640C3091650C3093E50CD6
:1030A0002093E40C2091660C2093E60C2091670C91
:1030B00021832091680C22832091690C2383209125
:1030C0006A0C248320916B0C258320916C0C268341
:1030D00020916D0C27832EE001C024E01092F10CAA
:1030E0001092F20C1092F30C1092F40C1092F50C5A
:1030F0001092F60C1092F70C1092F80C4423B1F1D8
:1031000086FD0BC0E22FF0E0E05AF34F8081918101
:103110009093F00C8093EF0C2E5FE22FF0E04230A2
:1031200051F4E05AF34F808191819093F20C809397
:10313000F10C2E5F1BC0E05AF34F80818093F10C9D
:1031400081818093F20C82818093F30C8381809340
:10315000F40C84818093F50C85818093F60C868134
:103160008093F70C87818093F80C285FE091E10C45
:10317000E33049F4A22FB0E0A05AB34F8C91809372
:10318000F90C2F5F02C01092F90C822F90E0805A48
:10319000934F9093FB0C8093FA0C2095210F209372
:1031A000FC0CE150E33040F4F0E0EE0FFF1FE0577D
:1031B000FE4F8081918102C086E49CE161EE7CE05B
:1031C0000E948529882311F40E948A161F91089570
:1031D0001F93CF93DF93182FEB010E945E26882365
:1031E00059F089E10E944B27882331F0812FBE01DD
:1031F0000E94152781E001C080E0DF91CF911F91EF
:10320000089520918D012830C1F0293038F4233001
:1032100089F0263091F0223011F51BC02D3099F045
:103220002E3018F42B30D9F40BC02E3079F02F301B
:10323000B1F412C00E94252008950E94B71B089582
:103240000E94261C08950E94C22108950E94862291
:1032500008950E94E62408950E94781D08958091A3
:103260002411882319F00E948A1608950E943D2691
:1032700008951F93DF93CF930F92CDB7DEB7182F2A
:103280000E949617FC01009791F010931E0D8AE0A2
:103290009DE009950E94762686E10E944B278FB714
:1032A0008983F89485E080938D0189818FBF0F9089
:1032B000CF91DF911F9108950F931F93DF93CF93C9
:1032C00000D0CDB7DEB78C0180918D01882309F045
:1032D000E7C00115110509F4E3C0D8011D968D91D1
:1032E0009C911E97009709F4DBC09801215F3F4F26
:1032F00030933B0D20933A0D90933D0D80933C0D00
:103300008C918B50803108F0CBC012968D919C919E
:103310001397BFEF8F3F9B0709F4C2C0F8012181CB
:10332000822F8250823008F0BBC0223049F4848161
:10333000958190932B1180932A1183E298EC2BC0F6
:10334000D80114968C9114978093361115968C9110
:1033500015978093371116968C9116978093381194
:1033600017968C9117978093391118968C9118970E
:1033700080933A1119968C91199780933B111A9664
:103380008C911A9780933C111B968C911B9780937C
:103390003D1183E29CEC33E2309368119093691104
:1033A0008091261180936A118F5F80932611F80116
:1033B0008281938190936C1180936B11223041F440
:1033C0008481958190936E1180936D1127E00AC0DE
:1033D000ADE6B1E1F801349688E001900D9281509C
:1033E000E1F72DE0E22FF0E0E859FE4E8FEF808309
:1033F000E22FEF5FAE2FB0E0A859BE4E8C93EF5F87
:10340000F0E0E859FE4E80912E11808380912F11BB
:1034100081838091301182838091311183838091E7
:103420003211848380913311858380913411868396
:10343000809135118783E22FE65FF0E0E859FE4E78
:1034400081E08083E22FE55FF0E0E859FE4ED8018D
:103450001C968C911C97808312968D919C9113974A
:103460002A830E9413168823C9F4F80180810E94E0
:10347000BD272A81882391F0822F825F68E671E15F
:103480000E94E818882351F08FB78983F89486E06A
:1034900080938D0189818FBF81E003C00E943D260A
:1034A00080E00F900F90CF91DF911F910F910895C1
:1034B0000F931F93DF93CF9300D0CDB7DEB78B016F
:1034C000882331F09FB79983F89410928D0106C03C
:1034D0009FB79983F89494E090938D0199819FBF51
:1034E0008A830E943D26A0913A0DB0913B0D8A81BE
:1034F00012968C93129711961C930E93E0913C0DAB
:10350000F0913D0DCD0109950F900F90CF91DF9176
:103510001F910F910895DF93CF930F92CDB7DEB730
:1035200080918D01873009F044C083E28093681157
:1035300080EC809369118091261180936A118F5FCE
:103540008093261190912C1180912D1190936B11E5
:1035500080936C11EDE6F1E180912E1180936D1155
:1035600080912F118183809130118283809131115C
:10357000838380913211848380913311858380917C
:103580003411868380913511878384E0809375118F
:1035900080E1BF01655070400E94E818882311F453
:1035A00081EF0AC08FB78983F89488E080938D01FA
:1035B00015C0893031F489EE6FEF7FEF0E94581A01
:1035C0000FC08C3021F480EF0E94391909C00E948D
:1035D0003D268FB78983F89410928D0189818FBF22
:1035E0000F90CF91DF910895EF92FF920F931F9369
:1035F000DF93CF930F92CDB7DEB7FC0180918D01A1
:10360000853009F0A9C0309709F4A6C083E68093FD
:103610001F0D8CEC8093200D809126118093210D3D
:103620008F5F8093261180912C1190912D11909392
:10363000230D8093220D24E23DE0BF0148E0DB0131
:103640000D90BD01D9010D929D014150C1F7E0904F
:103650002E11F0902F1100913011109131117091B5
:103660003211609133115091341140913511E09233
:103670002C0DF0922D0D00932E0D10932F0D7093A5
:10368000300D6093310D5093320D4093330D22E095
:103690002093340D208531853093360D2093350DE0
:1036A00022852093370D90930B0D80930A0D83E0B4
:1036B00080930C0DADE0BDE0E0920D0D1196FC92F3
:1036C000119712960C93129713961C9313971496B6
:1036D0007C93149715966C93159716965C93169792
:1036E00017964C9317978093150D199680818093A8
:1036F000160D818111968C931197828112968C936D
:103700001297838113968C931397848114968C93CC
:103710001497858115968C931597868116968C93B0
:103720001697878117968C938FB78983F8948CE0CE
:1037300080938D0189818FBF60E070EE81E090E021
:103740004BE85AE120E030E00E94EE32882331F469
:1037500080E090E00E948B1A80E001C081E00F9031
:10376000CF91DF911F910F91FF90EF900895DF931C
:10377000CF9300D0CDB7DEB7FC018081823018F541
:1037800080918D01883051F486E10E944B27882377
:10379000F1F08FB78983F89489E004C08FB78983EB
:1037A000F89487E080938D0189818FBF60E070EF8E
:1037B00080E090E04BE85AE120E030E00E94EE32F9
:1037C000882329F011C0853021F0833021F481EE67
:1037D00003C089EE01C08BEE8A830E9440338A8148
:1037E0006FEF7FEF0E94581A0F900F90CF91DF91EB
:1037F00008951F93DF93CF930F92CDB7DEB71FEFDE
:1038000085E38A95F1F7000011500E944527893021
:1038100019F01123A9F709C0112339F08BE16FE1E9
:103820007DE00E94E818882321F481EE0E94391976
:1038300008C08FB78983F8948BE080938D018981CC
:103840008FBF0F90CF91DF911F910895FC01808170
:10385000882349F0853021F0833021F481EE03C0C4
:1038600089EE01C08BEE0E9439190895CF93DF9342
:10387000EC010E94BF17FC01009711F0CE010995E1
:10388000CE010E941D29DF91CF910895EF92FF9202
:103890000F931F93CF93DF938C01DC011D968C91C6
:1038A0001D97809368111E968D919C911F97909300
:1038B0006A118093691110926B1110926C11109221
:1038C0006D1110926E1110926F1110927011109272
:1038D000711110927211ABE6B1E1F801709688E0B7
:1038E00001900D928150E1F760912911609373115D
:1038F000D8015996ED91FC915A971092751110923A
:103900007411918180E090937511809374112081DE
:1039100030E0282B392B30937511209374115C966D
:103920008C915C978093761180918D01823009F0A3
:1039300057C0A0914811B0914911FD0133961296DC
:103940005C91129740E03BC02091691130916A115F
:10395000818192812817390781F5909168118081C2
:10396000981759F590916B118381981731F59091C3
:103970006C118481981709F590916D1185819817C4
:10398000E1F490916E1186819817B9F490916F11BE
:103990008781981791F4909170118085981769F438
:1039A000909171118185981741F4909172118285DF
:1039B000981719F48385681799F04F5F3F9645175C
:1039C00018F23FC0C8E6D1E18FE009900192815022
:1039D000E1F712968C9112978F5F12968C93129743
:1039E000F801838D882309F180E190E00E94CF28BF
:1039F000E82EE7017E01F92EE7012097B1F0D8010A
:103A000011968C91F7018193A8E6B1E18FE00D90BA
:103A100001928150E1F786E39CE1BE010E94852975
:103A2000882319F4CE010E941D2980912411882336
:103A300021F480918D01823039F486E10E944B2778
:103A400003C0543068F6BECFDF91CF911F910F9124
:103A5000FF90EF900895DF93CF930F92CDB7DEB72D
:103A600080913E1190913F112FEF8F3F9207E1F12E
:103A70001092681120E8209369112091261120935B
:103A80006A112F5F2093261130912C1120912D1156
:103A900030936B1120936C1180936D1190936E1184
:103AA00080912511882319F48FEF9FE202C08FEFD8
:103AB0009FE62091231121119068909370118093BB
:103AC0006F1110927111109272118DE068E671E120
:103AD0000E94E818882341F08FB78983F8948FE01B
:103AE00080938D0189818FBF0F90CF91DF910895D1
:103AF000DF93CF930F92CDB7DEB786E10E944B27BD
:103B00008FB78983F89485E080938D0189818FBF79
:103B10000F90CF91DF91089585E38A95F1F700002A
:103B20000E9445278930C1F786E10E944B270895FE
:103B3000DF92EF92FF920F931F93DF93CF930F9239
:103B4000CDB7DEB78C01DC0158968C915897813047
:103B500031F580918D01853009F023C180912311C9
:103B6000882309F41EC10E941B17AC01009709F4B9
:103B700018C18AE491E1D801509628E00D90FC012B
:103B80000192CF012150D1F7F801A18DB28D8C9116
:103B9000809352118AE491E1FA01099502C18330C0
:103BA00009F046C080918D018450823008F0F9C040
:103BB0000E944417AC01009709F4F3C08AE491E134
:103BC000D801509628E00D90FC010192CF012150C0
:103BD000D1F7F801A18DB28D8C91809352118AE4B6
:103BE00091E1FA01099580918D01843009F0DBC0E3
:103BF0000E943D2610923611109237111092381102
:103C00001092391110923A1110923B1110923C11FE
:103C100010923D118FEF9FEF90932B1180932A11FB
:103C20008FB78983F89410928D0189818FBFBBC0B3
:103C3000843051F480918D018C3009F0B2C00E9423
:103C400040330E94F91BAFC08630D9F480918D01BA
:103C5000853009F0A6C00E946D17AC01009709F4E9
:103C6000A0C08AE491E1D801509628E00D90FC01B3
:103C70000192CF012150D1F78AE491E1FA0109952F
:103C800092C0873041F480918D01853009F089C060
:103C90000E942B1D88C0883009F04EC080918D0194
:103CA000823009F07EC00E94403382E06FE140E044
:103CB00028E00E949012D8015B968C915B97873028
:103CC00019F088EEE82E01C0EE24F801018D128D66
:103CD000D80111963C91119720E08C9190E0822BB5
:103CE000932B0E941316F801338120E0828190E02B
:103CF000822B932B90932B1180932A11368120E0F5
:103D0000858190E0822B932BFFEF8F3F9F0711F06F
:103D10000E941316D80114968C910E943B16609154
:103D2000481170914911FB01E0828BE293E20E94FD
:103D300085298823C1F535C0823099F580918D01A0
:103D4000893079F50E944033D8015996ED91FC9164
:103D50005A97918180E0E080FF24E82AF92AD280F6
:103D6000C7010E942716F801808980933611818946
:103D70008093371182898093381183898093391118
:103D8000848980933A11858980933B118689809339
:103D90003C11878980933D118D2DB7010E94581ADF
:103DA00002C00E948C1D0F90CF91DF911F910F9147
:103DB000FF90EF90DF9008950F931F93CF93DF93C1
:103DC000EC010E94F2168C0185E38A95F1F7000060
:103DD0000E9445278930C1F70115110521F486E1BC
:103DE0000E944B2706C0CE01F8010995CE010E9422
:103DF0001D29DF91CF911F910F910895FF920F938D
:103E00001F93DF93CF930F92CDB7DEB78C01E09174
:103E10008D018E2F8450823008F00FC101151105DD
:103E200009F40BC1D80156968D919C915797009734
:103E300009F403C158968D919C915997009709F404
:103E4000FCC07C91772329F0723019F0733009F0AF
:103E5000F4C0D80119966C911997662329F0623045
:103E600019F0633009F0E9C0772319F4662309F4E7
:103E7000E4C0D80154962C91549730E0A9014170C8
:103E8000507020FF2BC0623049F51C962C911C9776
:103E90002F3F21F51D962C911D972F3FF9F41E966B
:103EA0002C911E972223D1F41F962C911F97222329
:103EB000A9F450962C915097222381F451962C917D
:103EC0005197222359F452962C915297222331F480
:103ED00053962C915397222309F4AFC0713009F403
:103EE000ACC0613009F4A9C09093410D8093400D9E
:103EF000C8014A9690933F0D80933E0DE093420D8A
:103F0000F8018589882309F498C0873608F095C0A0
:103F10004115510519F441E050E002C041E250E082
:103F2000372F3295330F330F307C20E0962F990FC7
:103F3000990F80E0822B932B8064842B952B8093A8
:103F40006811909369118091261180936A118F5F97
:103F500080932611662319F1D8011A969C911A971D
:103F60001B968C911B9790936B1180936C1163300F
:103F700061F4ADE6B1E1F8013C9688E001900D9264
:103F80008150E1F72DE0F22E0CC0F8018485958573
:103F900090936E1180936D1197E0F92E02C083E02B
:103FA000F82ED8018C918823D1F02F2D30E083306A
:103FB00061F4D901A859BE4EF801319688E001900C
:103FC0000D928150E1F7B8E009C028593E4EF80142
:103FD00081819281D9018D939C93B2E0FB0E2F2DAC
:103FE00030E028593E4EF801458966897789C90134
:103FF00050E00E94C233D80155968C918E5F8F0D90
:1040000068E671E10E94E818882369F40E94762628
:1040100080912411882319F40E943D260EC086E168
:104020000E944B270AC08FB78983F89483E080935E
:104030008D0189818FBF81E001C080E00F90CF9119
:10404000DF911F910F91FF900895DF93CF930F920F
:10405000CDB7DEB7FC018081823020F0853021F4BD
:1040600029EE03C020E001C021EE80913E0D909129
:104070003F0DFC012083E091400DF091410D099529
:1040800080912411882319F40E943D2605C00E94C6
:10409000762686E10E944B278FB78983F89480911A
:1040A000420D80938D0189818FBF0F90CF91DF9159
:1040B0000895EF92FF920F931F93CF93DF938C019C
:1040C000FC01838D90E046960E94CF28E82EE70100
:1040D0007E01F92EE701209749F435E33A95F1F78F
:1040E00000000E9445278930C1F75BC0F801858533
:1040F000888319821A821B821C821D821E821F8263
:104100001886833049F4D7011196709688E00190A3
:104110000D928150E1F705C0F801808991899A8359
:1041200089838A859B85F80194838383828189872B
:104130001C861D861E861F86188A198A1A8A1B8A63
:10414000833049F4DE011C96359688E001900D928B
:104150008150E1F705C0F801858196819D878C87A4
:10416000F801848D8C8B838D8D8B9E012A5E3F4F51
:10417000438D618D728DC90150E00E94C2338CED78
:104180009EE1BE010E948529882371F4CE010E9420
:104190001D29F5E3FA95F1F700000E9445278930C3
:1041A000C1F786E10E944B27DF91CF911F910F91BC
:1041B000FF90EF9008950F931F93DF93CF930F928B
:1041C000CDB7DEB78C0180918D018450823008F02C
:1041D000D2C0D80119968D919C911A97009709F435
:1041E000CAC09093411180934011C8010B969093DF
:1041F00043118093421183E2809368118CEC809389
:1042000069118091261180936A118F5F8093261126
:1042100090912C1180912D1190936B1180936C11C2
:104220007C9111966C91119712965C91129713964E
:104230004C91139714963C91149715962C911597C1
:1042400016969C91169717968C911797E0913611B8
:10425000E717E1F4E0913711E617C1F4E091381166
:10426000E517A1F4E0913911E41781F4E0913A11D6
:10427000E31761F4E0913B11E21741F4E0913C1146
:10428000E91721F4E0913D11E81749F0ADE6B1E1FD
:10429000F80188E001900D928150E1F724C07093FD
:1042A0006D1160936E1150936F11409370113093A4
:1042B0007111209372119093731180937411109265
:1042C0003611109237111092381110923911109244
:1042D0003A1110923B1110923C1110923D118FEF48
:1042E0009FEF0E94271690912C1180912D11909391
:1042F000751180937611E7E7F1E180912E1180939B
:10430000771180912F118183809130118283809168
:10431000311183838091321184838091331185839D
:1043200080913411868380913511878383E0809357
:104330007F11D80118968C91809380118BE1BF0179
:104340006F5070400E94E818882359F4809124111E
:10435000882319F40E943D260EC086E10E944B2757
:104360000AC08FB78983F8948DE080938D0189818D
:104370008FBF81E001C080E00F90CF91DF911F914E
:104380000F910895DF93CF930F92CDB7DEB7FC0165
:104390008081823030F4E0914211F091431110821B
:1043A0000AC0E0914211F0914311853011F489EE79
:1043B00001C081EE8083E0914011F0914111809124
:1043C000421190914311099580912511882351F450
:1043D0000E943D268FB78983F89410928D018981C0
:1043E0008FBF0BC08FB78983F89485E080938D01D0
:1043F00089818FBF86E10E944B270F90CF91DF917B
:104400000895DF93CF930F92CDB7DEB7DC01809193
:104410008D01853009F075C083E2809368118CECC2
:10442000809369118091261180936A118F5F809328
:1044300026118FEF80936B1180936C118DE691E1C3
:10444000AD0128E0FA010190AF01FC010192CF011A
:104450002150C1F790912C1180912D1190937511DD
:1044600080937611E7E7F1E120912E1120937711E7
:1044700020912F112183209130112283209131111D
:10448000238320913211248320913311258320919D
:104490003411268320913511278328E020937F1142
:1044A000909380118093811190913E1180913F11E2
:1044B00090938211809383118091291180938411AC
:1044C00018968C9118978093851119968C918093EA
:1044D000861181E2BF016F5070400E94E818882366
:1044E00031F40E94762686E10E944B270AC08FB7DE
:1044F0008983F8948EE080938D0189818FBF81E05C
:1045000001C080E00F90CF91DF9108950F931F932A
:10451000DF93CF930F92CDB7DEB78C010E94961731
:10452000FC010097E9F0D8018C91882349F085308F
:1045300021F0833021F481EE03C089EE01C08BEEBF
:104540008093570D83E49DE009958FB78983F89494
:1045500085E080938D0189818FBF86E10E944B2782
:104560000F90CF91DF911F910F9108951F93DF93CB
:10457000CF930F92CDB7DEB7182F8FB78983F894FA
:1045800010928D0189818FBF0E94CE25882321F44E
:104590000E94572680E035C0112311F00E94E115DA
:1045A00081E099E10E94D32788EE97E10E940928D3
:1045B0008EE260EC46E023E00E9490128CE26EE016
:1045C00041E024E00E9490128CE260EF44E023E09E
:1045D0000E9490128EE291E10E94BF2680913E11CE
:1045E00090913F110E94A32680912C1190912D1142
:1045F0000E948D2680912411882311F40E943D266B
:1046000081E00F90CF91DF911F91089580918D01EE
:104610008450823078F40E945E26882359F086E127
:104620000E944B27882341F480912411882331F480
:104630000E943D2688EE089580E0089588EE089552
:1046400080912411882319F40E943D2602C00E9403
:10465000762680E008950F931F93DF93CF930F92F8
:10466000CDB7DEB78C0180914411909145110E9425
:1046700013160115110569F0E0914611F0914711EB
:10468000C80109958FB78983F89410928D018981AB
:104690008FBF0F90CF91DF911F910F9108950E94CE
:1046A0003D2680913A12882331F4809139128F5F30
:1046B000809339120895A0914811B0914911129632
:1046C0008C911297882319F48AEE8C9301C01C9266
:1046D0002091E811E22FF0E0EE0FFF1FEE0FFF1F19
:1046E000E751FE4E8BE293E291838083B383A283F2
:1046F000233119F41092E81103C02F5F2093E811C1
:1047000080913A12815080933A128091E7118F5F25
:104710008093E7110895DF92EF92FF920F931F931A
:10472000DF93CF930F92CDB7DEB78C0180918D01CF
:10473000882309F041C10115110509F43DC1F801B3
:1047400083819481009709F437C1F080E280D180A1
:10475000FE2DFF3008F030C10E945E26882309F448
:1047600029C18D2D0E943B16882309F023C1F80131
:104770008381948190934711809346110B5F1F4F63
:104780001093491100934811FF2009F415C1FF2D22
:10479000F13009F05BC061E070E002C0660F771F86
:1047A000EA94E2F76F5F7F4F882777FD8095982F17
:1047B00020EC33E040E050E00E94E1336093401190
:1047C00070934111809342119093431180912C1169
:1047D00090912D11909345118093441183E0809323
:1047E000681188E0809369118091261180936A1185
:1047F0008F5F809326118FEF80936B1180936C11E4
:1048000080936D1180936E1187E080936F118FEF0D
:104810009FEF0E941316882309F0CCC08AE068E657
:1048200071E10E94E818882309F4C4C08FB7898316
:10483000F89482E080938D0189818FBFE0914811C7
:10484000F0914911128281E08183B7C08F2D8230AF
:1048500009F050C061E070E002C0660F771FEA9473
:10486000E2F76F5F7F4F882777FD8095982F20ECC8
:1048700033E040E050E00E94E133609340117093D8
:104880004111809342119093431180912C1190918A
:104890002D1190934511809344118FEF9FEF0E944B
:1048A0001316882309F086C086E10E944B278823CF
:1048B00009F480C0609140117091411180914211C2
:1048C000909143114FE453E220E030E00E94EE3239
:1048D000882309F46FC08FB78983F89482E08093AE
:1048E0008D0199819FBFE0914811F0914911128289
:1048F00081835EC0EF2DE33009F05CC080E098E773
:10490000A0E0B0E08093401190934111A093421138
:10491000B093431103E00093681188EC8093691110
:104920008091261180936A118F5F809326118FEFFB
:1049300080936B1180936C1180936D1180936E1135
:1049400080936F1180937011E1E7F1E180912E1156
:104950008093711180912F11818380913011828316
:10496000809131118383809132118483809133113E
:10497000858380913411868380913511878386E009
:104980008093791184E1BF01695070400E94E8185A
:10499000882381F08FB78983F89482E080938D011A
:1049A00089818FBFE0914811F091491112820183F2
:1049B00081E003C00E943D2680E00F90CF91DF91FF
:1049C0001F910F91FF90EF90DF900895FC0180817F
:1049D0008823A9F486E10E944B27882381F0609107
:1049E00040117091411180914211909143114FE417
:1049F00053E220E030E00E94EE32882321F480E090
:104A000090E00E944F23089583FFC7C080915C0D02
:104A1000882309F05EC08091580D9091590D009740
:104A200009F4BBC0289820E22EBD0DB407FEFDCFCF
:104A30002EB520935D0D2EBD0DB407FEFDCF2EB516
:104A40002F7720935D0D289A283008F4A6C0289867
:104A500022E82EBD0DB407FEFDCF2EB52EBD0DB440
:104A600007FEFDCF2EB5289A289832EC3EBD207E59
:104A700029600DB407FEFDCF3EB52EBD0DB407FE77
:104A8000FDCF2EB5289A30913A12332309F45FC036
:104A90002091E811E22FF0E0EE0FFF1FEE0FFF1F55
:104AA000E751FE4E918380838DE59DE09383828361
:104AB000233119F41092E81103C02F5F2093E811FD
:104AC000315030933A128091E7118F5F8093E71154
:104AD000089510925C0D289882E88EBD0DB407FEF3
:104AE000FDCF8EB580938E018EBD0DB407FEFDCF38
:104AF0008EB580938E01289A8295869587708093D3
:104B00008E01289882E88EBD0DB407FEFDCF8EB5CC
:104B10008EBD0DB407FEFDCF8EB5289A289892EC75
:104B20009EBD807E83600DB407FEFDCF9EB58EBD19
:104B30000DB407FEFDCF8EB5289A80915A0D909145
:104B40005B0D009751F130913A12332331F480918B
:104B500039128F5F8093391208952091E811E22F66
:104B6000F0E0EE0FFF1FEE0FFF1FE751FE4E9183A7
:104B700080838EE891E093838283233119F410922D
:104B8000E81103C02F5F2093E811315030933A129F
:104B90008091E7118F5F8093E71108958FEF8093E5
:104BA0008E0110925D0D10925C0D10925B0D1092B3
:104BB0005A0D1092590D1092580D0E9426128823FA
:104BC00009F457C08BEF93E00197F1F700C00000A4
:104BD0002E982D982C9890E19A95F1F72D9A8FE5C3
:104BE00099E00197F1F700C000008FE599E0019787
:104BF000F1F700C0000082E06FE140E023E00E9496
:104C000090128BEF93E00197F1F700C0000081E074
:104C10006FE140E00E947912883059F58DE10E94E1
:104C20004312823031F58EE10E9443128F3119F523
:104C300084E095E20E94201383E068E043E020E0F6
:104C40000E94901283E067E040E020E00E94901212
:104C500085E060E847E021E00E9490128EE06CE081
:104C60000E945E1280916F00806280936F0081E0ED
:104C7000089580E0089580E0089510925C0D1C99DD
:104C800015C081E06FE140E00E947912883039F070
:104C900082E06FE140E028E00E949012F2CF2C9A6F
:104CA0008FE599E00197F1F700C0000008950E9498
:104CB00044130E943D260E943D12089510925C0DFF
:104CC0001C9B11C02C988FE99FE00197F1F700C061
:104CD000000081E06FE140E00E94791291E08830AD
:104CE00019F090E001C091E0892F08950E945E269E
:104CF00082E06FE140E023E00E94901281E06FE1EA
:104D000040E00E947912883099F710925D0D109260
:104D10005C0D089580E090E00895DF93CF930F92AB
:104D2000CDB7DEB7682F82E299830E945E1283E2DC
:104D30009981692F0E945E120F90CF91DF910895A3
:104D400080E090E00895DF93CF930F92CDB7DEB768
:104D5000682F80E299830E945E1281E29981692F17
:104D60000E945E120F90CF91DF91089520E030E015
:104D700040E050E060E070E080E090E00895CF9285
:104D8000DF92EF92FF920F931F93CF93DF93EC018B
:104D90008C010F5F1F4F84E268810E945E127801D0
:104DA0000894E11CF11C85E269810E945E12E70112
:104DB000219686E2F80161810E945E126E010894DC
:104DC000C11CD11C87E2F70161810E945E1286013D
:104DD0000F5F1F4F88E269810E945E12E8012196F1
:104DE00089E2F60161810E945E128AE2F801618126
:104DF0000E945E128BE269810E945E12DF91CF9168
:104E00001F910F91FF90EF90DF90CF90089588232E
:104E100029F48EE268E043E020E004C08EE268E01E
:104E200043E021E00E9490120895DF93CF930F9208
:104E3000CDB7DEB78823B9F061157105A1F09FB732
:104E40009983F89490915C0D992319F089818FBF13
:104E50000AC02C9A2C9899819FBF0E94B41281E0BD
:104E600080935C0D01C080E00F90CF91DF91089599
:104E7000882339F06115710531F00E94001381E03B
:104E8000089580E0089580E0089581E06FE140E0BA
:104E90000E94791208950F931F93182F10925C0DA2
:104EA000883049F0863039F0893029F0863119F0A0
:104EB000893109F059C01C9957C081E06FE140E089
:104EC0000E947912082F8150823008F44DC00131C0
:104ED00009F44AC0023109F447C0101709F446C06A
:104EE000183059F42C9880E18A95F1F782E06FE14F
:104EF00040E023E00E9490122BC0193161F406318A
:104F0000C1F482E06FE140E029E00E94901282E06B
:104F10008A95F1F70DC0163161F4093151F482E040
:104F20006FE140E026E00E94901292E09A95F1F73E
:104F300000C082E06FE140E0212F0E949012083013
:104F400039F487E691E00197F1F700C0000004C052
:104F500092E09A95F1F700C081E06FE140E00E9495
:104F6000791291E0811719F090E001C091E0892F4A
:104F70001F910F91089580E008951F93182F8B5073
:104F8000803168F488E06FE140E0212F0E949012A8
:104F900088E06FE140E00E94791291E0181390E000
:104FA000892F1F910895DF93CF930F92CDB7DEB76E
:104FB0002FB72983F89490935B0D80935A0D8981C4
:104FC0008FBF0F90CF91DF910895DF93CF930F9212
:104FD000CDB7DEB78FB78983F89480915A0D909141
:104FE0005B0D29812FBF0F90CF91DF910895DF9343
:104FF000CF930F92CDB7DEB78FB78983F894109215
:105000005B0D10925A0D89818FBF0F90CF91DF9168
:105010000895DF93CF930F92CDB7DEB72FB72983D3
:10502000F8949093590D8093580D89818FBF0F90FC
:10503000CF91DF910895DF93CF930F92CDB7DEB775
:105040008FB78983F8948091580D9091590D2981DB
:105050002FBF0F90CF91DF910895DF93CF930F92E1
:10506000CDB7DEB78FB78983F8941092590D10929F
:10507000580D89818FBF0F90CF91DF9108951092C5
:105080005E0D1092600D10925F0D81E00895CF9239
:10509000DF92EF92FF920F931F93DF93CF930F92C4
:1050A000CDB7DEB7F901009709F46EC0423008F4BD
:1050B0006BC06230710508F467C02FB72983F8947C
:1050C000DC019C01260F371F50E0042F10E068011F
:1050D0000894C108D10806C02D933C93D901260F2E
:1050E000371F5F5FE52EFF24EC14FD04ACF311962F
:1050F0001C921E92718360834283438395838483D1
:10510000069F9001079F300D169F300D11242150EE
:105110003040280F391F378326839187808740913D
:105120005E0D442339F413861286F093600DE093EC
:105130005F0D23C0A0915F0DB091600D542FCD0184
:1051400003C0CD01A32FB22F2D913C9111972617AB
:10515000370750F41A963C911A971B962C911B977F
:10516000515079F7CD0102C03A2F2B2FDC011B964D
:10517000FC93EE931A97328723874F5F40935E0D1F
:1051800089818FBF81E001C080E00F90CF91DF91D6
:105190001F910F91FF90EF90DF90CF900895DF93D4
:1051A000CF930F92CDB7DEB7009709F43FC020919F
:1051B0005E0D2223D9F12FB72983F894A0915F0DBA
:1051C000B091600D50915E0D40E012C02D913C9168
:1051D00011972817390728F013962C91139722233B
:1051E00031F41A960D90BC91A02D515001C041E0B0
:1051F000552319F0442351F302C0442391F018962B
:10520000ED91FC9119978081918119969C938E93D1
:10521000189713968C911397815013968C9313972C
:1052200002C0E0E0F0E089818FBF02C0E0E0F0E082
:10523000CF010F90CF91DF910895DF93CF930F921D
:10524000CDB7DEB70097B9F120915E0D222399F119
:105250002FB72983F894E0915F0DF091600D709164
:105260005E0D60E010C0268137814481558184172E
:10527000950718F02817390728F40284F385E02DE4
:10528000715001C061E0772319F0662361F302C019
:10529000662379F033812281321768F420853185C5
:1052A000DC0111963C932E939187808783818F5FD9
:1052B000838389818FBF0F90CF91DF9108951092E2
:1052C000E81183E18093610D1092E71184E18093EE
:1052D0003A121092391281E00895DF93CF930F9222
:1052E000CDB7DEB78FB78983F8941092E81183E1C8
:1052F0008093610D1092E71184E180933A128981C5
:105300008FBF0F90CF91DF910895DF93CF930F92CE
:10531000CDB7DEB720913A12222341F1E091E81196
:10532000F0E0EE0FFF1FEE0FFF1FE751FE4E9183DF
:105330008083738362838FB78983F8948091E811A7
:10534000833119F41092E81103C08F5F8093E81144
:105350008091E7118F5F8093E71180913A1281501D
:1053600080933A1289818FBF81E001C080E00F9065
:10537000CF91DF910895DF93CF930F92CDB7DEB732
:105380008FB78983F8948091E711882319F4898174
:105390008FBF27C09091610D933119F41092610D68
:1053A00003C09F5F9093610D81508093E7118091BE
:1053B0003A128F5F80933A1289818FBFA091610D5D
:1053C000B0E0AA0FBB1FAA0FBB1FA751BE4EED91A5
:1053D000FC911197309729F012968D919C9113971B
:1053E00009950F90CF91DF91089580918F018530BD
:1053F00031F580912C1190912D116091291141E08E
:105400000E944D168823D9F40E9406238823C9F4EC
:1054100060913E1170913F1180912A1190912B1152
:105420000E9426320E94713290935412809353123C
:1054300084E080938F0181E080935512089580E08D
:10544000089580E008950895DF93CF93CDB7DEB738
:1054500029970FB6F894DEBF0FBECDBFEFB7E98333
:10546000F8941092670D1092660D1092650D1092CF
:10547000640D1092630D1092620DE981EFBF2A83D3
:105480003B834C835D836E837F83888799870E94EB
:105490002C320E9470302A813B814C815D816E816B
:1054A0007F81888599850E9490168823C1F084E6C3
:1054B0009CE20E94091781ED9EE20E94321782E36E
:1054C00090E30E945B1783E29AE20E9484178FE1C7
:1054D0009FE20E94AD1710928F0181E001C080E031
:1054E00029960FB6F894DEBF0FBECDBFCF91DF91E6
:1054F0000895DF93CF930F92CDB7DEB780918F01E0
:105500008130B1F00E94D8168FB78983F894109239
:10551000670D1092660D1092650D1092640D109239
:10552000630D1092620D89818FBF81E080938F019E
:105530000F90CF91DF9108958091660D9091670D46
:105540000895DF93CF930F92CDB7DEB78FB78983DE
:10555000F8941092670D1092660D89818FBF0F909D
:10556000CF91DF910895DF93CF930F92CDB7DEB740
:105570002FB72983F8949093670D8093660D8981E6
:105580008FBF0F90CF91DF9108958091640D90911E
:10559000650D0895DF93CF930F92CDB7DEB78FB728
:1055A0008983F8941092650D1092640D89818FBFE4
:1055B0000F90CF91DF910895DF93CF930F92CDB7E6
:1055C000DEB72FB72983F8949093650D8093640D0F
:1055D00089818FBF0F90CF91DF9108958091620DE7
:1055E0009091630D0895DF93CF930F92CDB7DEB7FF
:1055F0008FB78983F8941092630D1092620D8981A0
:105600008FBF0F90CF91DF910895DF93CF930F92CB
:10561000CDB7DEB72FB72983F8949093630D8093AD
:10562000620D89818FBF0F90CF91DF910895DC01CA
:10563000009781F0E0916A0DF0916B0D309751F079
:1056400080916C0D90916D0D009721F02C91DC01F3
:105650002C9309950895AC0180913E1190913F11D2
:105660000097B1F4E0915312F0915412E417F5074A
:10567000F0F1CA010197BF010E9400346E9F9001B2
:105680006F9F300D7E9F300D11242F5F3F4F30C034
:105690008417950738F52091511230915212280F36
:1056A000391F42175307F0F4E0915312F09154124E
:1056B0009F01280F391F24173507C8F09C012F5F61
:1056C0003F4F80959095840F951FBF010E94003435
:1056D0006E9FC0016F9F900D7E9F900D1124280F2B
:1056E000391F06C020912A1130912B1101C09A0157
:1056F000C90108958091680D9091690D0E941D293E
:105700000E9406230895CF93DF93EC01009751F098
:105710000E949C2AFC01009711F0CE010995CE0150
:105720000E941D29DF91CF910895CF92DF92EF92D1
:10573000FF920F931F93DF93CF930F92CDB7DEB7F6
:105740006C0180918F018350833008F0B1C0C11487
:10575000D10409F4ADC0D60117968D919C9118978C
:10576000009709F4A5C019968D919C911A970097FE
:1057700009F49EC020913E1130913F1111968D91F8
:105780009C9112972817390709F492C016968C91AC
:105790001697882309F48CC08F3508F089C090E0F3
:1057A00008960E94CF288C01009709F481C084E0FC
:1057B000F80180831182D60111968D919C911297E8
:1057C0009383828380913E1190913F1195838483CE
:1057D00013968C911397882311F482E001C0F8018D
:1057E000868380916C12D80117968C938F5F80937B
:1057F0006C129801285F3F4FF601468167817085E2
:10580000C90150E00E94C233D6011696FC9016974B
:1058100011968D919C9112970E942B2B9C01BFEFAA
:105820008F3F9B0721F4C8010E941D2941C082E0DF
:10583000E82EF601E48640913E1150913F114587D4
:1058400056871786108A118A128A138A148AE58A63
:1058500080912C1190912D11978B868B208F318FF9
:10586000128E138E148E158E168E178E81E080A3E5
:105870008F2D885F81A313A302A387E19BE295A3E9
:1058800084A38185928590936B0D80936A0DC601E8
:105890000B9690936D0D80936C0DC6010C960E9433
:1058A000FE1E282FC80129830E941D29298101C0BD
:1058B00020E0822F0F90CF91DF911F910F91FF90E9
:1058C000EF90DF90CF900895CF92DF92EF92FF920A
:1058D0000F931F93CF93DF937C01FC018589883060
:1058E00008F493C0318D20E0008D10E0022B132BC3
:1058F00020913E1130913F110217130709F44DC05A
:105900008BE190E00E94CF28C82EE6016E01D92ECF
:10591000E601D092690DC092680D209709F473C01A
:10592000C8010E942B2B9C018FEF2F3F380709F4F1
:1059300067C0E2E0E88340913E1150913F114983F6
:105940005A831B821C821D821E821F821886E98751
:1059500080912C1190912D119B878A872C873D87F0
:105960001E861F86188A198A1A8A1B8A81E08C8BE8
:10597000F70185898D8BC70146969F8B8E8B8AE7B1
:105980009BE2998F888FC6010E94FE1E8823D9F55D
:105990008091680D9091690D34C090E001970E944C
:1059A000CF28C82EE6016E01D92EE601209769F1B5
:1059B00081E088831A830983F701338D20E0828D8B
:1059C00090E0822B932B9C838B8384898D838589A4
:1059D00088508E83B601695F7F4F258930E028505B
:1059E0003040A701425E5F4FCB01BA01A9010E947E
:1059F000C23383E89BE2B6010E948529882319F40B
:105A0000CE010E941D290E940623DF91CF911F9194
:105A10000F91FF90EF90DF90CF90089510928F013B
:105A2000E0913B12F0913C1209950895CF93DF93DA
:105A3000EC018981823009F04AC08C819D810E94ED
:105A40005431009709F043C00E949630FC01009742
:105A500029F480E090E00E94BB3039C08A819B81AC
:105A60009583848316821782108611861286138688
:105A7000148615868C8586871786108A8D859E8567
:105A8000282F2F70218B282F22952F70228B97FD86
:105A900002C0138A02C081E0838B148A158A168A99
:105AA000178A108E118E128E138E8C819D81958F88
:105AB000848F83E0868F178E80A38FE081A312A24C
:105AC00081E083A38F8584A3CF010E94DD30DF9125
:105AD000CF910895CF93DF93EC010E94C41760919A
