:100000000C94CD000C94EC000C94EC000C94EC00DF
:100010000C94EC000C94EC000C94EC000C94EC00B0
:100020000C94EC000C94EC000C944E0E0C94EC0030
:100030000C94EC000C94EC000C94EC000C94EC0090
:100040000C94690B0C94BD0B0C942B0C0C94EC00D1
:100050000C94A60B0C94EC000C94EC000C94EC00AB
:100060000C94EC000C94EC000C94EC000C94EC0060
:100070000C94EC000C94EC000C94EC000C94EC0050
:100080000C94EC000C94EC000C94EC000C94EC0040
:100090000C94EC000C94EC00010AF3061C074308D6
:1000A000430843084308EA0739083D084008430865
:1000B00043084D085F0862080B0A0B0A0B0A0B0A7B
:1000C0000B0A0B0A0B0A0B0A68080B0A0B0A0B0A2D
:1000D0000B0A0B0A0B0A0B0A0B0A9308E6080C0919
:1000E0001F096709B309F3097E151B15CA155015B9
:1000F000CA15E3143A14CA15C7140415B6151C1909
:10010000121920192019141920191419201920194D
:100110001619201918191A191E197EBA26785BCEDD
:1001200074B8162AEFF3CC8B4E530AE2D7B73C567D
:100130004CB566DB1E57EEE6F4431A06DFCD9F860C
:100140003E8A793A04097C1FBB12A0779B40FC00D1
:10015000AD316F9AA69E150D6C447035F064D67E55
:10016000483D50622FC630E760F8DC5C5F08C3B9D9
:1001700013A8BEE97A8165BCD22E55E590F7A77B1E
:10018000C2C1EA4AAE93F2FFB3C567399849052C5C
:100190003F388DD3CA2DE000000011241FBECFEFE1
:1001A000D0E2DEBFCDBF11E0A0E0B1E0E2E1F8E6D1
:1001B00000E00BBF02C007900D92A039B107D9F73C
:1001C00022E1A0E9B1E001C01D92AE36B207E1F72D
:1001D0000E942A010C947F330C9400005D98F894DF
:1001E000FFCF8DEE8093640089E88093650080B72F
:1001F000806880BF80EF80937E000E940629811175
:1002000002C080E008950E94F1278823D1F32BEDEE
:100210003AE045E060E270E08BE39AE00E94F92763
:10022000882379F32FE23AE04FE063E970E082E956
:1002300091E00E94F927882321F30E944432882309
:1002400001F3579A6F9A6E9A559A5F98779A769AB1
:100250005D9A08950FB6F894A89580916000886122
:1002600080936000109260000FBE0E94F10088230E
:1002700031F00E946B10811104C00E94A0100E94F6
:10028000EE000E94210A811103C00E94950AF7CF57
:100290000E94A0107894C0E40E9461290E944B3310
:1002A0000E94000D0E9402030E94BC0A8091E70A8E
:1002B000882351F080919001909191019F71892B39
:1002C00019F48EB18C278EB98091E70A811101C093
:1002D00076988091E80A882351F08091900190915E
:1002E00091019F71892B19F48BB180588BB9809142
:1002F00090019091910101969093910180939001CA
:10030000CBCF089583FF74C08091ED0A81110AC09C
:1003100080910B0B90910C0B019690930C0B80939A
:100320000B0B64C0289880E28EBD8091F00AE82F04
:10033000F0E0EE0FFF1FEF50F54F0190F081E02D40
:10034000893019F41092F00A03C08F5F8093F00A8D
:100350008091EE0A8F5F8093EE0A8091ED0A8150C2
:100360008093ED0A0DB407FEFDCF8EB58EBD80E5FE
:10037000808380910A0B86830DB407FEFDCF8EB576
:100380008F779AE0980F91838087DF0119968F5FAE
:100390008EBD4091060B5091070B6091080B709138
:1003A000090B42835383648375830DB407FEFDCF2D
:1003B0009EB59EBD9D9381500DB407FEFDCF81116A
:1003C000F7CF289A289886E88EBD0DB407FEFDCF9A
:1003D0008EB587838EBD0DB407FEFDCF8EB58783A6
:1003E000289A8781881F8827881F8783779A08958E
:1003F00082FF28C077980E948232DC01CB01B6953B
:10040000A795979587958093060B9093070BA093DC
:10041000080BB093090B289886E88EBD0DB407FE33
:10042000FDCF8EB580930A0B8EBD0DB407FEFDCFB8
:100430008EB580930A0B289A80910A0B8F71809356
:100440000A0B08958091050B8F5F8093050B08952B
:1004500083FF28C01092570C1092560C289882E8FF
:100460008EBD0DB407FEFDCF8EB58EBD0DB407FE5B
:10047000FDCF8EB5289A289892EC9EBD807E836031
:100480000DB407FEFDCF9EB58EBD0DB407FEFDCFAA
:100490008EB5289A82E08A95F1F700C082E08093B9
:1004A00000015D9A0895CF93DF9310920E0B109286
:1004B0000D0B10920C0B10920B0B10920A0B10925A
:1004C000060B1092070B1092080B1092090B10925A
:1004D000050B1092F00A1092EF0A1092EE0A8AE0D1
:1004E0008093ED0A1092EC0A1092EB0A1092EA0A3D
:1004F0001092E90A0E9453128BEF93E00197F1F7F3
:1005000000C000002E982D982C9890E19A95F1F754
:100510002D9A8FE599E00197F1F700C000008FE573
:1005200099E00197F1F700C0000023E040E06FE19F
:1005300082E00E94BD128BEF93E00197F1F700C0BB
:10054000000040E06FE181E00E94A612883071F562
:1005500020E043E068E083E00E94BD1220E040E03C
:1005600067E083E00E94BD1221E047E060E885E09B
:100570000E94BD126CE08EE00E948B1280916F0091
:10058000806280936F00C1EFDAE089E890E00E941A
:100590008428009759F0899399939BE0C530D90737
:1005A000A1F782E08093000181E00FC00E946A12EF
:1005B000C1EFDAE0888199810E94C62819921992C8
:1005C0008BE0C530D807B1F780E0DF91CF91089577
:1005D000CF93DF9380910001813089F0C1EFDAE0A1
:1005E000888199810E94C628199219928BE0C530A2
:1005F000D807B1F70E946A1281E080930001DF9171
:10060000CF910895CF93DF9300D0CDB7DEB780911F
:100610000001843009F0B4C08091EE0A882309F407
:10062000B7C081E08093E9008091E80080FFB0C00E
:100630008091E8008E7F8093E8008091EC0A811120
:100640004FC08091EB0A81111FC0E091EF0AF0E0EA
:10065000EE0FFF1FEF50F54F0190F081E02DF0936A
:10066000EA0AE093E90A21812093EC0A822F90E0C4
:10067000CF9636E0969587953A95E1F72F7309F472
:100680008F5F8093EB0A2CC0813049F58091E800A0
:100690008F778093E8001092EB0A8FB78A83F894E3
:1006A0008091EF0A893019F41092EF0A03C08F5F2E
:1006B0008093EF0A8091EE0A81508093EE0A809138
:1006C000ED0A8F5F8093ED0A80910D0B90910E0BD8
:1006D000019690930E0B80930D0B8A814FC05F9A09
:1006E000E091E90AF091EA0A80818093F10080911B
:1006F000E90A9091EA0A01969093EA0A8093E90A3E
:100700008091EC0A81508093EC0A882321F080913B
:10071000E80085FDE5CF8091EB0A81508093EB0ADC
:100720008091E8008F778093E8008091EC0A811136
:100730002FC08091EB0A81112BC08FB78983F89469
:100740008091EF0A893019F41092EF0A03C08F5F8D
:100750008093EF0A8091EE0A81508093EE0A809197
:10076000ED0A8F5F8093ED0A80910D0B90910E0B37
:10077000019690930E0B80930D0B89818FBF08C05B
:10078000803131F447E851E068E081E00E94CC0D0F
:100790000F900F90DF91CF910895CF93909100012A
:1007A000923051F595EF980F903130F5C82F8FE5C5
:1007B00099E00197F1F700C0000023E040E06FE10D
:1007C00082E00E94BD128BEF93E00197F1F700C029
:1007D000000040E06FE181E00E94A612883061F4E1
:1007E0002C2F40E06FE10E94BD1240E06FE188E0F5
:1007F0000E94A61291E0C81390E0892FCF9108952E
:10080000CF93DF931F92CDB7DEB780910001823086
:1008100011F080E04AC023E040E06FE182E00E94F6
:10082000BD128BEF93E00197F1F700C0000040E0AC
:100830006FE181E00E94A612883059F726E040E07F
:100840006FE182E00E94BD1287E691E00197F1F727
:1008500000C0000040E06FE181E00E94A6128630F7
:10086000C1F68FB78983F8941092F00A1092EF0ABC
:100870001092EE0A8AE08093ED0A1092EC0A109230
:10088000EB0A1092EA0A1092E90A10920E0B1092EB
:100890000D0B89818FBF82E891E00E944C1384E0A8
:1008A0008093000181E08093E70A0F90DF91CF9160
:1008B000089580910001843011F080E008950E9435
:1008C000701323E040E06FE182E00E94BD128BEFE5
:1008D00093E00197F1F700C0000040E06FE181E094
:1008E0000E94A612883049F782E08093000110929E
:1008F000E70A81E0089581E891E00E944C130E948C
:10090000701380E0089580910001803111F080E043
:1009100008950E94701323E040E06FE182E00E949E
:10092000BD128BEF93E00197F1F700C0000040E0AB
:100930006FE181E00E94A612883049F782E080933F
:10094000000181E008950F931F93CF9318169CF533
:100950006115710591F190910001923081F58B0143
:10096000C82F40E06FE181E00E94A612883049F56F
:1009700029E040E06FE182E00E94BD1287E691E04D
:100980000197F1F700C0000040E06FE181E00E94B4
:10099000A6128930C1F488E292E00E944C132C9A8E
:1009A0002C98B8018C2F0E94E01280E28093000105
:1009B0005D9880E009C081E007C082E005C083E067
:1009C00003C084E001C085E0CF911F910F9108958D
:1009D000CF93809100018230E9F561E08EE00E94C2
:1009E0008B1263E082E00E948B1260E085E00E943F
:1009F0008B1260E183E00E948B1240E06FE181E0A6
:100A00000E94A612C82F883029F56AE171E08FE7AD
:100A10000E9405136FE086E30E948B1260E08DE375
:100A20000E948B122E9A29E040E06FE182E00E9442
:100A3000BD1287E691E00197F1F700C0000040E0A9
:100A40006FE181E00E94A612893011F41E9904C062
:100A50000E94531280E009C062E082E00E948B1283
:100A6000C09300015D98779881E0CF9108958091BF
:100A70000001883011F080E008950E94531288230D
:100A8000D1F392E0909300015D9A779A0895FC016A
:100A900084E08093E9009091E8009E7F9093E800C5
:100AA0008081882311F08BE801C080E88093F100F9
:100AB0008091E8008F778093E8008091290B9091D6
:100AC0002A0B0C94C62824E02093E9002091E8002A
:100AD0002E7F2093E800FC018085882311F08BE8AD
:100AE00001C080E88093F1008091E8008F778093C7
:100AF000E8008091250B9091260B0C94C62824E0E9
:100B00002093E9002091E8002E7F2093E800FC016B
:100B1000EF5BFF4F8081882311F08BE801C080E8F4
:100B20008093F1008091E8008F778093E8008091B6
:100B3000230B9091240B0C94C62824E02093E90009
:100B40002091E8002E7F2093E800FC018481882317
:100B500011F08BE806C081E0809322110E941023DF
:100B600080E88093F1008091E8008F778093E8001F
:100B70008091270B9091280B0C94C628892B51F457
:100B800084E08093E9008091E8008E7F8093E80004
:100B900081E80FC085ED96E00E942C29811112C0DA
:100BA00084E08093E9008091E8008E7F8093E800E4
:100BB00085E98093F1008091E8008F778093E800C9
:100BC0000C94B50D0895CF93DF931F92CDB7DEB788
:100BD000FC018091150B81110AC080910F0B90913F
:100BE000100B01969093100B80930F0B2FC0A091C8
:100BF000180BB0E0AA0FBB1FA75EB44F0D90BC91BD
:100C0000A02D8FB78983F8949091180B943019F424
:100C10001092180B03C09F5F9093180B8091160BD6
:100C20008F5F8093160B9091150B91509093150B3D
:100C300089818FBF85E58C938AE011968C931197FB
:100C4000129688E001900D928A95E1F70F90DF915E
:100C5000CF910895CF93DF931F92CDB7DEB7209148
:100C6000150B21110AC080910F0B9091100B01966A
:100C70009093100B80930F0B35C0E091180BF0E0B0
:100C8000EE0FFF1FE75EF44FA081B1812FB72983DC
:100C9000F8942091180B243019F41092180B03C00B
:100CA0002F5F2093180B2091160B2F5F2093160BAC
:100CB0002091150B21502093150B29812FBF24E57E
:100CC0002C932CE011962C931197FC01819191911A
:100CD00013969C938E931297149688E001900D9230
:100CE0008A95E1F70F90DF91CF910895CF93DF932D
:100CF0001F92CDB7DEB7FC018091150B81110AC0A0
:100D000080910F0B9091100B01969093100B809394
:100D10000F0B47C0A091180BB0E0AA0FBB1FA75E36
:100D2000B44F0D90BC91A02D8FB78983F89490910A
:100D3000180B943019F41092180B03C09F5F909316
:100D4000180B8091160B8F5F8093160B8091150BFB
:100D500081508093150B89818FBF83E58C938681A9
:100D6000885F11968C9311978181928113969C9341
:100D70008E9312978381948115969C938E931497EA
:100D8000858116968C931697868117968C93179764
:100D9000468150E0BF01695F7F4FCD0108960E94F8
:100DA00082330F90DF91CF9108950F931F93CF93CC
:100DB000DF93EC0184E08093E9009091E8009E7F4E
:100DC0009093E8009091E80094609093E800E881A7
:100DD0004E2F50E04832510508F01DC3FA01E45B84
:100DE000FF4F0C949F3384E08093E9008091E800EA
:100DF0008E7F8093E80084E88093F1008AE08093FE
:100E0000F1008BE48093F10089E48093F1008CE49D
:100E10008093F1008093F10085E48093F10082E5F6
:100E20008093F10082E48093F10080E38093F100ED
:100E30008093F10081E3F8C284E08093E90080911F
:100E4000E8008E7F8093E8008981811108C085E8E1
:100E50008093F10081E08093F10089E1E5C2813067
:100E600021F495E89093F10006C0823039F485E8CA
:100E70008093F10081E08093F100D6C2803C61F460
:100E800085E88093F10082E08093F10081E0809317
:100E9000F1001092F100CAC2813C09F04FC185E80F
:100EA0008093F100809101018093F1002091010174
:100EB00030910201409103015091040160910501BC
:100EC00070910601809107019091080108E00E944D
:100ED000B1332093F1002091010130910201409142
:100EE0000301509104016091050170910601809108
:100EF00007019091080100E10E94B1332093F100B5
:100F000020910101309102014091030150910401AF
:100F1000609105017091060180910701909108018F
:100F200008E10E94B1332093F1002091010130913A
:100F300002014091030150910401609105017091FB
:100F40000601809107019091080100E20E94B133EF
:100F50002093F100209101013091020140910301A1
:100F60005091040160910501709106018091070183
:100F70009091080108E20E94B1332093F100209182
:100F800001013091020140910301509104016091EF
:100F9000050170910601809107019091080100E31D
:100FA0000E94B1332093F1002091010130910201A0
:100FB0004091030150910401609105017091060177
:100FC000809107019091080108E30E94B1332093BA
:100FD000F1002CC21092180B1092170B1092160BE6
:100FE00085E08093150B1092140B1092130B109246
:100FF000120B1092110B1092100B10920F0B0E94FB
:10100000E8020E941C2A81E080932B0B89818111C8
:1010100008C00E945302811102C083E847C082E0E9
:1010200023C0833021F520910101309102014091CC
:1010300003015091040160910501709106018091B6
:101040000701909108010E94C729882331F386E7A0
:1010500096E00E94562A8AE296E00E947F2A83EE5A
:1010600095E00E94A82A84E080932B0B1EC082E8A2
:101070001DC089810E94CD03D2C00E940004CFC050
:101080000E945904CCC084E08093E9008091E8007C
:101090008E7F8093E80083E9C7C1BE016E5F7F4FFA
:1010A00089810E94A304811101C080E894E090939B
:1010B000E9009091E8009E7F9093E800B5C10E94FE
:1010C000E80402C00E9437058111ABC093E8ACC0B0
:1010D00084E08093E9008091E8008E7F8093E800AF
:1010E00080E88093F1008091E8008F778093E8009A
:1010F0000E94B50D2FE788E391E021508040904099
:10110000E1F700C0000065E38FE090E00E94F93352
:1011100098E088E10FB6F894A895809360000FBE20
:1011200090936000FFCF8E818F3550F084E08093E4
:10113000E9008091E8008E7F8093E80082E874C126
:1011400087E290E00E948428FC0190932A0B809310
:10115000290B892B51F484E08093E9008091E80009
:101160008E7F8093E80080E95FC1108289819A8137
:10117000928381838B8183838C8184838E81868318
:10118000CE010796908787838D81858387E495E0DC
:1011900092878187CF010E943D2B81114CC184E051
:1011A0008093E9008091E8008E7F8093E8008BE8CF
:1011B0008093F1008091E8008F778093E800809120
:1011C000290B90912A0B0E94C62835C183E090E03C
:1011D0000E9484288C01892B99F08981F8018083F1
:1011E0008A819B8192838183C8010E94612D88231B
:1011F00011F0C0E801C0C2E8C8010E94C62801C0C1
:10120000C0E984E08093E9008091E8008E7F8093BC
:10121000E800C093F1000AC189810E943932882315
:1012200011F090E801C092E884E08093E900809199
:10123000E8008E7F8093E8009093F100F7C08FE183
:1012400090E00E9484289093280B8093270B892B91
:1012500081F484E08093E9008091E8008E7F8093A0
:10126000E80080E98093F1008091E8008F77809317
:10127000E800E091270BF091280B89819A819183F6
:1012800080838B8182838C8183838D8184838E8113
:1012900085838DE995E097838683CF010E94F02DA9
:1012A0008111C9C084E08093E9008091E8008E7FBD
:1012B0008093E8008BE88093F1008091E8008F77BD
:1012C0008093E8008091270B9091280B7CCF8FE1D1
:1012D00090E00E9484289093260B8093250B892B05
:1012E00081F484E08093E9008091E8008E7F809310
:1012F000E80080E98093F1008091E8008F77809387
:10130000E8008091250B9091260BFE01319628E094
:10131000DC0101900D922A95E1F72985FC012087D7
:101320002A8521872B8522872C85238723E635E094
:10133000358724870E944A2F81117DC084E08093E5
:10134000E9008091E8008E7F8093E8008BE880932D
:10135000F1008091E8008F778093E8008091250B61
:101360009091260B30CF8AE890E00E9484289093D9
:10137000240B8093230B892B81F484E08093E90074
:101380008091E8008E7F8093E80080E98093F100EF
:101390008091E8008F778093E800E091230BF09133
:1013A000240B898180838A8181838FE795E09383F1
:1013B0008283CF010E942C2D81113DC084E0809357
:1013C000E9008091E8008E7F8093E8008BE88093AD
:1013D000F1008091E8008F778093E8008091230BE3
:1013E0009091240BF0CE0E949A29882351F084E03A
:1013F0008093E9008091E8008E7F8093E8008BE87D
:1014000013C084E08093E9008091E8008E7F809390
:10141000E80080E809C084E08093E9008091E8005A
:101420008E7F8093E8008DE88093F1008091E80042
:101430008F778093E800DF91CF911F910F910C94EB
:10144000B50DEF92FF920F931F93CF93DF9300D0D0
:101450001F92CDB7DEB710922A0B1092290B0E9473
:101460000211209301013093020140930301509334
:101470000401609305017093060180930701909326
:1014800008011092100B10920F0B09E11BE078017C
:1014900083E990E00E948428009759F1F701819335
:1014A00091937F01F3E2EF16FBE0FF0689F72091AD
:1014B00001013091020140910301509104016091BA
:1014C00005017091060180910701909108010E9429
:1014D0004C0C82E089838EEB95E09B838A83CE015E
:1014E00001960E94760D811104C081E080932B0B40
:1014F00012C0F801808191810E94C628F8011192E2
:1015000011928F01FBE003321F0799F70E94A50D8E
:101510000E94D20C80E00F900F900F90DF91CF913E
:101520001F910F91FF90EF900895CF93DF938091DB
:101530002B0B8823F1F010922B0B8091290B9091AB
:101540002A0B0E94C62810922A0B1092290BC9E17F
:10155000DBE0888199810E94C628199219928BE05C
:10156000C332D807B1F70E94A50DDF91CF910C943B
:10157000D20CDF91CF910895CF93DF9300D0CDB7F8
:10158000DEB780912B0B843009F09EC08091160B42
:10159000882309F499C081E08093E9008091E800F4
:1015A00080FF92C08091E8008E7F8093E800809158
:1015B000140B811147C08091130B81111FC0E09162
:1015C000170BF0E0EE0FFF1FE75EF44F0190F08184
:1015D000E02DF093120BE093110B21812093140B5B
:1015E000822F90E0CF9636E0969587953A95E1F771
:1015F0002F7309F48F5F8093130B24C0813011F592
:101600008091E8008F778093E8008FB78A83F89401
:101610008091170B843019F41092170B03C08F5F61
:101620008093170B8091160B81508093160B80913D
:10163000150B8F5F8093150B8A8145C08091E80060
:1016400085FF17C0E091110BF091120B8081809300
:10165000F1008091110B9091120B01969093120B57
:101660008093110B8091140B81508093140B811186
:10167000E5CF8091130B81508093130B8091E8008C
:101680008F778093E8008091140B81111DC08091A9
:10169000130B811119C08FB78983F8948091170BB0
:1016A000843019F41092170B03C08F5F8093170BCF
:1016B0008091160B81508093160B8091150B8F5FD4
:1016C0008093150B89818FBF0F900F90DF91CF9181
:1016D00008951F920F920FB60F9211240BB60F921E
:1016E0002F933F934F935F936F937F938F939F932A
:1016F000AF93BF93EF93FF9386B3856086BB289823
:101700008FE88EBD0DB407FEFDCF8EB58EBD0DB436
:1017100007FEFDCF8EB5289AE091560CF091570C3C
:10172000309709F00995FF91EF91BF91AF919F918B
:101730008F917F916F915F914F913F912F910F907A
:101740000BBE0F900FBE0F901F9018951F920F9217
:101750000FB60F9211248F939F9380916C129091EA
:101760006D12019690936D1280936C129F918F91E0
:101770000F900FBE0F901F9018951F920F920FB6EB
:101780000F9211240BB60F922F933F934F935F93B9
:101790006F937F938F939F93AF93BF93EF93FF9339
:1017A0008091181190911911892B31F480916F005B
:1017B0008D7F80936F003CC0809114119091151122
:1017C000009779F0019790931511809314118091EF
:1017D0008400909185000197909389008093880000
:1017E00027C08091121190911311009779F02091E8
:1017F000840030918500820F931F9093890080931D
:101800008800109213111092121112C080916F0073
:101810008D7F80936F00E0911811F09119118091E4
:101820001611909117110995109219111092181113
:10183000FF91EF91BF91AF919F918F917F916F91A8
:101840005F914F913F912F910F900BBE0F900FBE64
:101850000F901F9018951F920F920FB60F921124A0
:101860008F939F93809110119091111101969093F5
:1018700011118093101180918400909185008659F8
:10188000974E90938B0080938A009F918F910F9039
:101890000FBE0F901F9018957F928F929F92AF92DC
:1018A000BF92CF92DF92EF92FF920F931F93CF934D
:1018B000DF93122FD32EC42EB52EA62E972E882E50
:1018C000792E1092540C1092530C1092520C1092CC
:1018D000310B1092300B10922F0B10921A111092A4
:1018E0002E0B10922D0B10922C0B809165008F7790
:1018F000809365008DE0E82E81E0F82EC0E0D0E016
:10190000212F3D2D4C2D5B2D6A2D792D882D972D66
:101910000C2F0E94B133A22FA295AF70AA3010F401
:10192000A05D01C0A95CB0E0F701B383A283E22F00
:10193000EF70EA3010F4E05D01C0E95CF0E0D7013F
:101940001596FC93EE9314972896B4E0EB0EF11CD9
:10195000C033D105A9F68091D7008F7B8093D70043
:101960008091D70080688093D7008091D8008069EB
:101970008093D8008091D8008F7B8093D80080918D
:10198000D80081608093D800DF91CF911F910F9193
:10199000FF90EF90DF90CF90BF90AF909F908F908F
:1019A0007F900895E8EDF0E080818F768083E5E612
:1019B000F0E080818068808308958091D700816005
:1019C0008093D7008EE089BD09B400FEFDCF8091E1
:1019D000D8008F7D8093D8008091E2008160809351
:1019E000E2008091E20088608093E2000E94C613CA
:1019F0008091E0008E7F8093E0001092540C089557
:101A00008091D90080FF11C08091540C81110DC0CC
:101A100081E08093540C8091E20088608093E20022
:101A20008091E0008E7F8093E0008091530C8823AA
:101A300049F081E08093EA001092EA001092520C83
:101A40001092530C1092E9008091E80083FD0E94EF
:101A5000291480912F0B882309F447C080912E0B05
:101A60008093E9008091E80082FF3FC08091E80008
:101A70008B7F8093E8002091F2008091300B909151
:101A8000310B820F911D8132914010F4322F06C02C
:101A900010922F0B81E080931A110895332389F05F
:101AA0008091300B9091310B4091F100FC01EE5C84
:101AB000F44F408301969093310B8093300B31505B
:101AC000EDCF8091E8008F778093E800203450F6C6
:101AD00010922F0BE0912C0BF0912D0B62E37BE029
:101AE0008091300B9091310B09940895CF93DF933F
:101AF0001F92CDB7DEB7FC01892B11F180912F0B1E
:101B000081111CC080818823D9F08FB78983F89414
:101B1000808180932E0B8181928190932D0B8093F5
:101B20002C0B1092310B1092300B81E080932F0B15
:101B300010921A1189818FBF80E003C081E001C03B
:101B400082E00F90DF91CF910895CF93DF931F92A2
:101B5000CDB7DEB78FB78983F89410922F0B8981A8
:101B60008FBF0F90DF91CF910895CF93DF931F9296
:101B7000CDB7DEB78FB78983F89481E080932F0BC0
:101B800010921A111092310B1092300B89818FBF75
:101B90000F90DF91CF9108958093E9008091E80044
:101BA00080FF41C0862F90E0CF9626E096958795DE
:101BB0002A95E1F7282F362F3F7319F421E0280FDB
:101BC00003C0862F613408F080E49091E8009E7F86
:101BD0009093E800982FFA01992329F031913093DE
:101BE000F1009150F9CF480F511D60548091E800E9
:101BF0008F778093E800603410F4862F01C080E472
:101C00002150EFEFFFEF9091E80090FD08C0309772
:101C100021F481E08093E80A08953197F4CF2111EF
:101C2000D4CF80E0089584E008956623A9F18093DD
:101C3000E9008FEF9091E80090FD06C0811102C08D
:101C400084E008958150F6CF8091E8008E7F8093E4
:101C5000E800FA01460F81918093F1004E13FBCF0B
:101C60008091E8008F778093E800603499F48FEFDB
:101C70009091E80090FD04C0882311F38150F8CFC3
:101C80008091E8008E7F8093E8008091E8008F7754
:101C90008093E80080E0089581E008951F920F92FC
:101CA0000FB60F9211240BB60F922F933F934F93C1
:101CB0005F936F937F938F939F93AF93BF93EF93B4
:101CC000FF938091DA0080FF19C08EEF8093DA00D5
:101CD0008091D90080FF10C081E08093540C8091E6
:101CE000E20088608093E2000E94DD0C8091E000B9
:101CF0008E7F8093E00002C01092540C8091DA0035
:101D000081FF05C08DEF8093DA008091D90080912A
:101D1000E10082FF03C08BEF8093E1008091E1003E
:101D200080FF10C08EEF8093E1008091E20080611F
:101D30008093E2008FEE8093E1008091D800806272
:101D40008093D8008091E10084FF0DC08091D8007D
:101D50008F7D8093D8008FEE8093E1008091E20028
:101D60008F7E8093E2008091E10085FF0DC080911D
:101D7000E2008F7E8093E2008FED8093E1008091FE
:101D8000E2008F7D8093E2008091E10083FF08C034
:101D900087EF8093E1000E94C61381E08093530C8B
:101DA000FF91EF91BF91AF919F918F917F916F9133
:101DB0005F914F913F912F910F900BBE0F900FBEEF
:101DC0000F901F901895E4E6F0E080818F77808374
:101DD00080E28093B800E9EBF0E08081808381E0CD
:101DE0000895E4E6F0E0808180688083089594EAB5
:101DF0009093BC009FEF2091BC0027FD02C0915042
:101E0000D1F79091B900987F983039F590EA909386
:101E1000BB009091BC0090689093BC009FEF209114
:101E2000BC0027FD02C09150D1F79091B900987F76
:101E3000983199F48093BB008091BC0080688093B6
:101E4000BC008FEF9091BC0097FD02C08150D1F78C
:101E50008091B900887F883229F084E98093BC00A2
:101E600080E008956093BB008091BC0080688093FF
:101E7000BC008FEF9091BC0097FD02C08150D1F75C
:101E80009091B900987F81E0983209F080E094E960
:101E90009093BC00089580E008956115710509F4E0
:101EA00084C094EA9093BC009FEF91502091BC00B5
:101EB00027FD02C09111F9CF2091B900287F283069
:101EC00011F080E06BC09923E1F390EA9093BB009E
:101ED00094E89093BC009FEF91502091BC0027FDA7
:101EE00002C09111F9CF2091B900287F283149F71C
:101EF000992339F38093BB0084E88093BC008FEF73
:101F000081509091BC0097FD02C08111F9CF909152
:101F1000B900987F9832A9F6882399F284EA8093D1
:101F2000BC008FEF81509091BC0097FD02C08111E1
:101F3000F9CF9091B900987F903119F6882309F272
:101F400081EA8093BB0084E88093BC008FEF8150CE
:101F50009091BC0097FD02C08111F9CF9091B9001A
:101F6000987F903409F0ADCF882309F4AACF84E894
:101F70008093BC008FEF81509091BC0097FD02C010
:101F80008111F9CF9091B900987F983511F08111A6
:101F900098CF8091BB00FB01808381E094E990930E
:101FA000BC0090E89093BC00089580E0089561150E
:101FB000710509F48EC04115510509F48AC094EAEF
:101FC0009093BC009FEF91502091BC0027FD02C070
:101FD0009111F9CF2091B900287F283039F084E998
:101FE0008093BC0080E88093BC0073C09923B9F350
:101FF00090EA9093BB0094E89093BC009FEF9150BF
:102000002091BC0027FD02C09111F9CF2091B900A9
:10201000287F283121F7992311F38093BB0084E8AE
:102020008093BC008FEF81509091BC0097FD02C05F
:102030008111F9CF9091B900987F983281F6882369
:1020400071F284EA8093BC008FEF81509091BC00C4
:1020500097FD02C08111F9CF9091B900987F90311E
:1020600009F0BDCF882309F4BACF81EA8093BB0081
:1020700084E88093BC008FEF81509091BC0097FD65
:1020800002C08111F9CF9091B900987F903409F086
:10209000A6CF882309F4A3CF24EC2093BC008FEFB4
:1020A00081509091BC0097FD02C08111F9CF9091B1
:1020B000B900987F903509F092CF882309F48FCF2B
:1020C0008091BB00FA018193AF016150710929F73A
:1020D00086CF80E008950F931F93CF93DF931F92D5
:1020E000CDB7DEB70E94E30E182F811103C00E9406
:1020F000F10E1FC080E090E00E94F133082F8FEFB7
:102100008983BE016F5F7F4F80E00E944D0F898100
:102110008F3F11F482E005C00F3F31F40E94F10EB1
:1021200081E08093550C05C00E94F10E1092550C71
:1021300010E0812F0F90DF91CF911F910F910895A3
:102140008091550C823011F40E94F10E1092550CC2
:102150000895CF93DF931F92CDB7DEB78FEF8983BA
:102160008091550C823039F4BE016F5F7F4F81E062
:102170000E944D0F07C0813029F481E090E00E9459
:10218000F133898389810F90DF91CF910895CF93A7
:10219000DF931F92CDB7DEB78FEF89838091550C07
:1021A000823031F4BE016F5F7F4F0E944D0F07C038
:1021B000813029F482E090E00E94F13389838981A3
:1021C0000F90DF91CF910895CF93DF931F92CDB7FA
:1021D000DEB78FEF89838091550C823039F4BE01D0
:1021E0006F5F7F4F83E00E944D0F07C0813029F45D
:1021F00083E090E00E94F133898389810F90DF9121
:10220000CF910895CF93DF93CDB7DEB728970FB660
:10221000F894DEBF0FBECDBF19821A821B821C82CA
:102220001D821E821F8218868091550C823089F58E
:10223000BE01685F7F4F84E00E944D0FBE01695F61
:102240007F4F85E00E944D0FBE016A5F7F4F86E0A1
:102250000E944D0FBE016B5F7F4F87E00E944D0FC4
:10226000BE016C5F7F4F88E00E944D0FBE016D5F25
:102270007F4F89E00E944D0FBE016E5F7F4F8AE065
:102280000E944D0FBE016F5F7F4F8BE00E944D0F8C
:102290002AC0813041F584E090E00E94F1338887C4
:1022A00085E090E00E94F1338F8386E090E00E9409
:1022B000F1338E8387E090E00E94F1338D8388E0D4
:1022C00090E00E94F1338C8389E090E00E94F1332A
:1022D0008B838AE090E00E94F1338A838BE090E068
:1022E0000E94F133898329813A814B815C816D8120
:1022F0007E818F81988528960FB6F894DEBF0FBE39
:10230000CDBFDF91CF910895CF93DF931F92CDB7CB
:10231000DEB78FEF89838091550C823039F4BE018E
:102320006F5F7F4F8CE00E944D0F07C0813029F412
:102330008CE090E00E94F133898389810F90DF91D6
:10234000CF910895CF93DF9300D0CDB7DEB71A8237
:1023500019828091550C823069F4BE016F5F7F4F06
:102360008DE00E944D0FBE016E5F7F4F8CE00E949A
:102370004D0F0CC0813051F48DE090E00E94F1339C
:1023800089838CE090E00E94F1338A8389819A816D
:102390000F900F90DF91CF910895CF93DF931F920D
:1023A000CDB7DEB78FEF89838091550C823039F439
:1023B000BE016F5F7F4F8EE00E944D0F07C08130DE
:1023C00029F48EE090E00E94F133898389810F9097
:1023D000DF91CF910895EF92FF920F931F93CF93C8
:1023E000DF93EB01BA012091550C222309F12097CC
:1023F000F9F041155105E1F0223049F4AE01DF91C9
:10240000CF911F910F91FF90EF900C94D70F8E01F9
:10241000040F151F7C01EC1AFD0ACE018E0D9F1DC5
:102420000E94F1338993C017D107B9F781E001C049
:1024300080E0DF91CF911F910F91FF90EF90089571
:10244000EF92FF920F931F93CF93DF938A01209116
:10245000550C222301F161157105E9F0452BD9F0E6
:10246000223051F4AB01B801DF91CF911F910F9150
:10247000FF90EF900C944B0FEB017C01E61AF70AEA
:10248000CE018E0D9F1D69910E94F93301501109F3
:10249000B9F781E001C080E0DF91CF911F910F91EA
:1024A000FF90EF9008951092570C1092560C249ABA
:1024B000259A269AE4E6F0E080818B7F808384B1C0
:1024C000876084B985B1836085B980E58CBD81E082
:1024D0008DBD0895E4E6F0E08081846080830895F6
:1024E000CF93DF931F92CDB7DEB780689FB79983F4
:1024F000F89428988EBD0DB407FEFDCF8EB51EBC96
:102500000DB407FEFDCF8EB5289A99819FBF0F901D
:10251000DF91CF910895CF93DF931F92CDB7DEB7B0
:10252000806C9FB79983F89428988EBD0DB407FEF0
:10253000FDCF8EB56EBD0DB407FEFDCF8EB5289ACA
:1025400089818FBF0F90DF91CF910895CF93DF9353
:1025500000D0CDB7DEB74A8369830E9470126981CB
:10256000862390E04A8102C0959587954A95E2F7C7
:102570000F900F90DF91CF9108951F93CF93DF932A
:1025800000D01F92CDB7DEB7182F2B834A83698303
:102590000E9470126981962F909589232B814A8120
:1025A00001C0220F4A95EAF72623682F622B812F5C
:1025B0000F900F900F90DF91CF911F910C948B1281
:1025C000CF93DF931F92CDB7DEB79FB79983F8946F
:1025D000289890E69EBD0DB407FEFDCF9EB58EBD3A
:1025E0000DB407FEFDCF9EB5FB01680F81918EBD36
:1025F0000DB407FEFDCF8EB56E13F8CF289A8981F2
:102600008FBF0F90DF91CF910895CF93DF931F92EB
:10261000CDB7DEB79FB79983F894289890E69EBD12
:102620000DB407FEFDCF9EB58EBD0DB407FEFDCFE8
:102630009EB5FB01680F84918EBD31960DB407FEE7
:10264000FDCF8EB56E13F7CF289A89818FBF0F907B
:10265000DF91CF910895CF93DF931F92CDB7DEB76F
:102660009FB79983F894289890E29EBD0DB407FE19
:10267000FDCF9EB5FB019083860F1EBC0DB407FEF7
:10268000FDCF9EB591938E13F8CF289A89818FBF85
:102690000F90DF91CF910895CF93DF931F92CDB725
:1026A000DEB72FB72983F8949093570C8093560C7C
:1026B00089818FBF0F90DF91CF910895CF93DF93E2
:1026C0001F92CDB7DEB78FB78983F8948091560CEF
:1026D0009091570C29812FBF0F90DF91CF910895D2
:1026E000CF93DF931F92CDB7DEB78FB78983F8946E
:1026F0001092570C1092560C89818FBF0F90DF916A
:10270000CF910895EBEEF0E09081916090838093FB
:10271000EC00EDEEF0E080818270682B60838081B8
:10272000826080838091EE00881F8827881F08952B
:102730008091F40080E008958093E9008091E800A2
:1027400085FF09C0442339F0FB018191BF018093CB
:10275000F1004150F3CF842F08958093E9008091D8
:10276000E80085FF09C0442339F08091F100FB01A6
:102770008193BF014150F3CF842F08958093E900E6
:10278000EBEEF0E080818062808308958091D80034
:102790008F7B8093D8008091D90081FF0CC010926C
:1027A000E9008091EB0080FD06C01092E90060E333
:1027B00082E00C94821380E0089580E00895CF9326
:1027C000DF93C9EED0E084E0888360E381E80E9473
:1027D000821382E0888360E380E80E94821381E0B4
:1027E000888364E381E8DF91CF910C948213833076
:1027F00021F5613089F050F06230A1F06330E9F4E6
:102800008CE180931E118DE091E011C084E08093F3
:102810001E1189E091E00BC08CE080931E118FE3C4
:1028200091E005C086E180931E1189E291E09093CA
:10283000201180931F1181E0089580E00895EAE55A
:10284000FCE01082118212821092580C10921D111D
:1028500008958091F1008093590C9091F100492FD7
:1028600050E04B30510508F095C1FA01EC58FF4F8C
:102870000C949F33803809F088C010925D0C6091F1
:10288000F1008091F100813041F0823081F487E2E3
:1028900080931E118BE491E005C082E180931E11AC
:1028A00082E791E09093201180931F1105C00E9450
:1028B000F713882309F473C18091F1008091F1002E
:1028C0008091F1002091F10090E0922B2091E8009E
:1028D000277F2093E80020911E11422F50E04817D7
:1028E000590748F42F7321F481E080935D0C18C0E0
:1028F00010925D0C15C080931E1112C08091E800EB
:1029000082FD2CC08091E80080FFFCCF81E4909193
:102910001E1191110AC08091E8008E7F8093E8001B
:1029200080911E118111EACF19C08150A1F3E0916D
:102930001F11F091201190819093F10020911F11AF
:10294000309120112F5F3F4F3093201120931F11A2
:1029500090911E11915090931E11D9CF8091E80053
:102960008E7F8093E8008091E80082FDF4C0809122
:102970005D0C882329F08091E8008E7F8093E80029
:102980008091E80082FFFCCFE6C066E001C180389C
:10299000C1F48091E800877F8093E80080911D1149
:1029A0008093F1008091E8008E7F8093E800809111
:1029B000E8008F778093E8008091E80082FFFCCFE9
:1029C000CAC068E0E5C081111DC09091F1008091FE
:1029D000E3009F778078892B8093E3008091E80063
:1029E000877F8093E8008091E8008E7F8093E800E5
:1029F0008091E80080FFFCCF8091E30080688093A5
:102A0000E300089565E0C4C0811113C09091F10006
:102A1000923008F0C4C08091E800877F8093E8007E
:102A200090931D118091E8008E7F8093E8000C94B4
:102A3000DF1369E0ADC0833088F5882309F4AFC0A7
:102A4000813009F4ACC08091F1008111A8C0E091FF
:102A5000F100EF77E093E9008091EB0080FF9FC0E9
:102A6000EE23A9F08091EB0080618093EB0081E080
:102A700090E00E2E01C0880F0A94EAF78093EA00D6
:102A80001092EA008091EB0088608093EB00109236
:102A9000E900F0E0E65AF34F108225C061E078C00B
:102AA000833050F5813009F47AC0823009F081C05A
:102AB0008091F100811173C0E091F100EF7709F48A
:102AC0006EC0E093E9008091EB0080FF68C08091C8
:102AD000EB0080628093EB001092E900F0E0E65A90
:102AE000F34F81E080838091E800877F8093E80046
:102AF0008091E8008E7F5BC063E04AC090E8980F49
:102B0000933090F59091F1009091F100E091F100F7
:102B1000813811F0823841F08091E800877F8093FE
:102B2000E8001092F1000CC08091E800877F80934C
:102B3000E800EF77F0E0E65AF34F80818093F100F0
:102B40001092F1008091E8008E7F8093E8008091E0
:102B5000E80082FFFCCF8091E8008B7F8093E80043
:102B60008091E8008F7723C060E012C0813879F44B
:102B70008091F1008091F1008091F1002091F100AD
:102B800090E0922B90931C1180931B1108C06AE077
:102B90000C94DD13692F0E94DD1381110AC080910E
:102BA000EB0080628093EB008091E800877F809348
:102BB000E8000895109221111092341110923511ED
:102BC000109236111092371110923811109239115B
:102BD00010923A1110923B118FEF9FEF90932911B1
:102BE0008093281120912C112093241190932B1164
:102BF00080932A1190933D1180933C1110922211E1
:102C000084EF91E090932611809325118BE08093BF
:102C10002711109223110895CF93DF93EC010E94A6
:102C20004026882349F0D0932B11C0932A11CE015E
:102C30000E946F2680E001C088EEDF91CF91089559
:102C4000CF93DF93EC010E944026882349F0D09374
:102C50003D11C0933C11CE010E94842680E001C04A
:102C600088EEDF91CF910895CF93C82F0E94402620
:102C7000811102C088EE08C08C2F0E946E27882325
:102C8000C9F3C093271180E0CF9108950F931F934C
:102C9000CF93DF9300D0CDB7DEB79C01042F909186
:102CA00084019B7F31F52F3F8FEF380711F185EFBE
:102CB000860F8031F0F4C9016A830E940C16182F28
:102CC0006A81811116C0862F0E946E27882389F0A1
:102CD00000932311802F0E94C42681E0809322114B
:102CE0008FB78983F89485E08093840189818FBFB1
:102CF00003C00E941F2618EE812F0F900F90DF91C6
:102D0000CF911F910F9108950E94582686E10C944F
:102D10000127CF93DF9300D0CDB7DEB7EFB7EA83BB
:102D2000F894E1E0E0938401EA81EFBF20932C1155
:102D300030932D1140932E1150932F116093301129
:102D40007093311180933211909333111092070DCB
:102D50001092060D1092050D1092040D1092030DA5
:102D60001092020D1092010D1092000D1092FF0CA6
:102D70001092FE0C1092FD0C1092FC0C81E00E944F
:102D8000C122882349F08FB78983F8941092840177
:102D900089818FBF81E001C080E00F900F90DF91AB
:102DA000CF9108950E943A261092070D1092060DB9
:102DB0001092050D1092040D1092030D1092020D49
:102DC0001092010D1092000D1092FF0C1092FE0C4B
:102DD00081E08093840108958091060D9091070D04
:102DE0000895CF93DF931F92CDB7DEB78FB7898356
:102DF000F8941092070D1092060D89818FBF0F90E5
:102E0000DF91CF910895CF93DF931F92CDB7DEB7B7
:102E10002FB72983F8949093070D8093060D89812D
:102E20008FBF0F90DF91CF9108958091040D909105
:102E3000050D0895CF93DF931F92CDB7DEB78FB7FF
:102E40008983F8941092050D1092040D89818FBF2B
:102E50000F90DF91CF910895CF93DF931F92CDB75D
:102E6000DEB72FB72983F8949093050D8093040D56
:102E700089818FBF0F90DF91CF9108958091020DCE
:102E80009091030D0895CF93DF931F92CDB7DEB7D6
:102E90008FB78983F8941092030D1092020D8981E7
:102EA0008FBF0F90DF91CF910895CF93DF931F9243
:102EB000CDB7DEB72FB72983F8949093030D809395
:102EC000020D89818FBF0F90DF91CF91089580917E
:102ED000000D9091010D0895CF93DF931F92CDB710
:102EE000DEB78FB78983F8941092010D1092000D10
:102EF00089818FBF0F90DF91CF910895CF93DF939A
:102F00001F92CDB7DEB72FB72983F8949093010DA8
:102F10008093000D89818FBF0F90DF91CF9108952D
:102F20008091FE0C9091FF0C0895CF93DF931F9238
:102F3000CDB7DEB78FB78983F8941092FF0C10924B
:102F4000FE0C89818FBF0F90DF91CF910895CF93B1
:102F5000DF931F92CDB7DEB72FB72983F8949093F4
:102F6000FF0C8093FE0C89818FBF0F90DF91CF9172
:102F700008958091FC0C9091FD0C0895CF93DF9300
:102F80001F92CDB7DEB78FB78983F8941092FD0CEE
:102F90001092FC0C89818FBF0F90DF91CF91089523
:102FA000CF93DF931F92CDB7DEB72FB72983F89465
:102FB0009093FD0C8093FC0C89818FBF0F90DF9163
:102FC000CF910895CF93FC01C0816BE77CE082E054
:102FD0008C0F0E94F126811103C0CF910C948416AE
:102FE000EC2FF0E0E558F34F818180937A0C20912B
:102FF0007C0C80917D0C30E0382B23FDEECF922F9E
:103000009770933011F0923040F790935E0C832FBD
:103010008695869583708093600CA90144E0549F47
:10302000412D5527112440936B0C811103C041158C
:10303000510599F260917E0C60935F0C1092630CC5
:103040001092640C1092650C1092660C1092670C32
:103050001092680C1092690C10926A0C882309F483
:1030600041C0823091F460917F0C7091800C70931C
:10307000620C6093610C6091810C7091820C709372
:10308000640C6093630C88E02EC0833009F0A5CFF8
:1030900060917F0C7091800C7093620C6093610C56
:1030A0008091810C8093630C8091820C8093640CDE
:1030B0008091830C8093650C8091840C8093660CC6
:1030C0008091850C8093670C8091860C8093680CAE
:1030D0008091870C8093690C8091880C80936A0C96
:1030E0008EE001C084E010926E0C10926F0C109272
:1030F000700C1092710C1092720C1092730C109252
:10310000740C1092750C41155105A9F126FD0BC0E8
:10311000E82FF0E0E558F34F2081318130936D0CBA
:1031200020936C0C8E5FE82FF0E0E558F34F4230AF
:10313000510541F42081318130936F0C20936E0C46
:103140008E5F19C0208120936E0C218120936F0C1B
:1031500022812093700C23812093710C2481209371
:10316000720C25812093730C26812093740C278187
:103170002093750C885F933049F4E82FF0E0E55810
:10318000F34F20812093760C8F5F02C01092760C53
:10319000282F30E02558334F3093780C2093770C4C
:1031A000C150C81BC093790C913041F0933019F491
:1031B0008BEA9DE105C088E29CE102C082E690E2D4
:1031C0006EE57CE00E942C29882309F406CFCF917C
:1031D00008950F931F93CF93DF93D82F8B010E94F5
:1031E0004026811102C0C0E00AC089E10E94012787
:1031F000C82F8823C1F3B8018D2F0E94CE268C2FB3
:10320000DF91CF911F910F910895E09184014E2F8E
:1032100050E0FA013297EE30F10590F4E158FF4F9B
:103220000C949F330C942E200C94601A0C940A1C5E
:103230000C94CF210C9491220C94D6240C948C1DC8
:103240008091221181110C9484160C941F261F93D7
:10325000CF93DF931F92CDB7DEB7182F0E94901740
:10326000FC01892B91F010931C0D88E09DE00995DD
:103270000E94582686E10E9401278FB78983F8941F
:1032800085E08093840189818FBF0F90DF91CF917A
:103290001F9108950F931F93CF93DF9300D0CDB765
:1032A000DEB7209184012111CEC0009709F4CBC074
:1032B000FC01258536852115310509F4C4C0AC0112
:1032C000415F5F4F50933B0D40933A0D3093390D62
:1032D0002093380D20812B50203108F0B4C022817A
:1032E00033812F3F3F4F09F4AEC0FC0121813EEFF7
:1032F000320F323008F0A7C0223041F444815581AA
:10330000509329114093281138EC1AC0FC01A48174
:10331000B581168177816085518542853385A0937B
:103320003411B093351110933611709337116093A7
:1033300038115093391140933A1130933B113CECC2
:1033400043E240936611309367113091241141E0BC
:10335000430F4093241130936811FC014281538143
:1033600050936A1140936911223041F424813581D0
:1033700030936C1120936B1127E00AC028E0FC0108
:103380003496ABE6B1E101900D922A95E1F72DE07C
:103390008C01E22FF0E0EA59FE4E8FEF8083E1E0EE
:1033A000E20FF0E0EA59FE4E8083E2E0E20FF0E047
:1033B000EA59FE4E80912C11808380912D118183DA
:1033C00080912E11828380912F11838380913011FF
:1033D000848380913111858380913211868380911D
:1033E00033118783EAE0E20FF0E0EA59FE4E81E014
:1033F0008083F8018485EBE0E20FF0E0EA59FE4EAD
:103400008083F801828193812A830E940C168111A6
:1034100018C0F80180810E946E272A81882389F0D4
:1034200066E671E18EE0820F0E94E918882349F078
:103430009FB79983F89496E09093840199819FBFF8
:1034400003C00E941F2680E00F900F90DF91CF9164
:103450001F910F9108950F931F93CF93DF9300D087
:103460001F92CDB7DEB78B019FB7882331F09A83C7
:10347000F894109284019A8106C09983F89494E09C
:103480009093840199819FBF8B830E941F26A091F6
:103490003A0DB0913B0D8B8112968C931297119639
:1034A0001C930E93E091380DF091390DCD010995E3
:1034B0000F900F900F90DF91CF911F910F91089572
:1034C000CF93DF9300D01F92CDB7DEB7FC01808190
:1034D000823040F580918401883079F486E10E9441
:1034E0000127811102C081EE24C08FB78A83F8942E
:1034F00089E0809384018A8107C08FB78983F8941B
:1035000087E08093840189818FBF20E030E047EA23
:103510005AE160E070EF80E090E00E94A9328823D9
:1035200011F30FC0853021F08330E9F28BEE01C03A
:1035300089EE8B830E94FE326FEF7FEF8B810E94BA
:103540002B1A0F900F900F90DF91CF910895CF938A
:10355000DF9300D0CDB7DEB780918401873009F0CA
:103560004CC083E28093661180EC80936711809158
:10357000241191E0980F90932411809368119091F9
:103580002A1180912B119093691180936A11809177
:103590002C1180936B1180912D1180936C1180916F
:1035A0002E1180936D1180912F1180936E11809157
:1035B000301180936F11809131118093701180913F
:1035C000321180937111809133118093721184E0D4
:1035D0008093731166E671E180E10E94E918811120
:1035E00004C06FEF7FEF81EF0DC08FB78983F89430
:1035F00088E080938401898116C0893031F46FEFAF
:103600007FEF89EE0E942B1A0FC08C3021F480EFDF
:103610000E94271909C00E941F268FB78A83F89439
:10362000109284018A818FBF0F900F90DF91CF910C
:103630000895DF92EF92FF920F931F93CF93DF9342
:103640001F92CDB7DEB720918401253009F0AAC0C2
:10365000009709F4A7C023E620931D0D2CEC2093BE
:103660001E0D2091241131E0320F3093241120934C
:103670001F0D00912A1110912B111093210D009311
:10368000200D28E0FC01A2E2BDE001900D922A95F8
:10369000E1F7D0902C11F0912D11E0912E11709145
:1036A0002F116091301150913111409132113091B0
:1036B0003311D0922A0DF0932B0DE0932C0D7093C3
:1036C0002D0D60932E0D50932F0D4093300D3093A0
:1036D000310D22E02093320DDC011896ED90FC9024
:1036E0001997F092340DE092330D1A962C911A9797
:1036F0002093350D1093090D0093080D23E02093BE
:103700000A0DD0920B0DF0930C0DE0930D0D7093FC
:103710000E0D60930F0D5093100D4093110D3093CB
:10372000120D2093130DEC9111967C911197129626
:103730006C91129713965C91139714964C91149771
:1037400015963C91159716962C91169717968C9175
:10375000E093140D7093150D6093160D5093170D93
:103760004093180D3093190D20931A0D80931B0D63
:103770008FB78983F8948CE08093840189818FBF0F
:1037800020E030E047EA5AE160E070EE81E090E04E
:103790000E94A932182F811106C080E090E00E949B
:1037A000A71A01C010E0812F0F90DF91CF911F91D8
:1037B0000F91FF90EF90DF9008951F93CF93DF93C9
:1037C0001F92CDB7DEB71FEF85E38A95F1F70000B2
:1037D00011500E94FC26893019F01111F5CF02C05A
:1037E000111104C081EE0E9427190FC06DE17DE028
:1037F0008BE10E94E9188823A9F38FB78983F89495
:103800008BE08093840189818FBF0F90DF91CF91EE
:103810001F910895FC018081882349F0853021F0B3
:10382000833021F08BEE03C089EE01C081EE0C9451
:103830002719CF93DF93EC010E94B917FC01CE0149
:10384000309711F00995CE01DF91CF910C94C628E5
:103850002F923F924F925F926F927F928F929F92A0
:10386000AF92BF92CF92DF92EF92FF920F931F938E
:10387000CF93DF93CDB7DEB729970FB6F894DEBFAD
:103880000FBECDBF99878887FC0175847092661141
:10389000468457845092681140926711709688E070
:1038A000A9E6B1E101900D928A95E1F7F091271117
:1038B000FF83F0937111E885F985A18DB28D109287
:1038C00073111092721111968C91119790E0982FAC
:1038D000882790937311809372112C91822B90936F
:1038E000731180937211848D80937411809184017F
:1038F000823009F064C08090461190904711D40145
:103900001396F401F281F983E0916911F0916A1143
:10391000FB83F0916B11FC8360906C11F0916D1141
:10392000FD83F0916E11FE8330906F112090701125
:10393000F0E08981F817B1F111968D919C91129761
:103940004816590661F58C91781229C01396AC90EF
:1039500013971496BC9014971596CC9015971696BD
:10396000DC9016971796EC9017971896FC9018977E
:1039700019960C9119971A961C911A972E2F3B8124
:103980004C81562D6D817E81832D922D0E94CD33E9
:1039900031F41B968C911B979F81981781F0FF5FE4
:1039A0001F96C7CFF43058F48FE0E6E6F1E10190BE
:1039B0000D928A95E1F7F40182818F5F8283E88519
:1039C000F985838D8823E9F08F0180E190E00E94E2
:1039D00084284C01892BA9F0F8018181D4018D93B1
:1039E0008FE0E6E6F1E101900D928A95E1F7B401EE
:1039F00089E19CE10E942C29811103C0C4010E942D
:103A0000C62880912211811104C0809184018230E6
:103A1000D9F486E129960FB6F894DEBF0FBECDBF6C
:103A2000DF91CF911F910F91FF90EF90DF90CF909A
:103A3000BF90AF909F908F907F906F905F904F90CE
:103A40003F902F900C94012729960FB6F894DEBF73
:103A50000FBECDBFDF91CF911F910F91FF90EF90DF
:103A6000DF90CF90BF90AF909F908F907F906F909E
:103A70005F904F903F902F900895CF93DF931F92C8
:103A8000CDB7DEB780913C1190913D118F3F2FEF64
:103A9000920709F43DC01092661120E82093671147
:103AA0002091241131E0320F3093241120936811BA
:103AB00030912A1120912B113093691120936A11B2
:103AC00080936B1190936C1180912311882319F0CE
:103AD0008FEF9FE602C08FEF9FE22091211121110D
:103AE000906890936E1180936D1110926F111092E7
:103AF000701166E671E18DE00E94E918882341F0BB
:103B00008FB78983F8948FE08093840189818FBF78
:103B10000F90DF91CF910895CF93DF931F92CDB790
:103B2000DEB786E10E9401278FB78983F89485E08C
:103B30008093840189818FBF0F90DF91CF91089589
:103B400085E38A95F1F700000E94FC268930C1F7D1
:103B500086E10C940127DF92EF92FF920F931F935F
:103B6000CF93DF931F92CDB7DEB78C01DC0158965F
:103B70008C91813029F5809184018530F1F4809118
:103B800021118823D1F00E9415179C01892BA9F0DF
:103B9000F801709688E0A8E4B1E101900D928A9551
:103BA000E1F7D8015996ED91FC915A978081809365
:103BB000501188E491E1F90109950E94A01DFEC011
:103BC000833009F044C08091840184508230A8F78A
:103BD0000E943E179C01892B81F3F801709688E0C2
:103BE000A8E4B1E101900D928A95E1F7D8015996C8
:103BF000ED91FC915A9780818093501188E491E176
:103C0000F901099580918401843009F0D7C00E94A0
:103C10001F26109234111092351110923611109205
:103C20003711109238111092391110923A111092E6
:103C30003B118FEF9FEF90932911809328118FB73D
:103C40008983F8941092840189818FBFB7C0843032
:103C500051F4809184018C3009F0AFCF0E94FE3284
:103C60000E94DD1BABC08630C9F480918401853091
:103C700009F0A3CF0E9467179C01892B09F49DCFFF
:103C8000F801709688E0A8E4B1E101900D928A9560
:103C9000E1F788E491E1F901099590C0873041F49A
:103CA00080918401853009F088CF0E943D1D86C037
:103CB000883009F04DC080918401823009F07DCFB9
:103CC0000E94FE3228E040E06FE182E00E94BD12D7
:103CD000D8015B968C91873011F4F12C02C058EE1C
:103CE000F52EF801018D128DD80111968C91119746
:103CF00090E0982F88272C91822B0E940C16F801B7
:103D0000838190E0982F88272281822B909329111C
:103D100080932811868190E0982F88272581822B17
:103D20008F3FFFEF9F0711F00E940C16D8011496E9
:103D30008C910E9434166091461170914711FB01DD
:103D4000F08283E393E20E942C29811137C035CFA2
:103D5000823009F032CF80918401893009F02DCF73
:103D60000E94FE32D8015996ED91FC915A97E1805C
:103D7000F12CFE2CEE248081E82AD280C7010E941B
:103D80002016F80180898093341181898093351140
:103D90008289809336118389809337118489809337
:103DA0003811858980933911868980933A118789E2
:103DB00080933B11B7018D2D0E942B1A0F90DF913C
:103DC000CF911F910F91FF90EF90DF9008950F9387
:103DD0001F93CF93DF93EC010E94EC168C0185E3D7
:103DE0008A95F1F700000E94FC268930C1F7011581
:103DF000110539F486E1DF91CF911F910F910C9459
:103E00000127CE01F8010995CE01DF91CF911F91D5
:103E10000F910C94C628CF92DF92EF92FF920F93EE
:103E20001F93CF93DF9300D0CDB7DEB78C01D09036
:103E300084018CEF8D0D823010F010E003C101156C
:103E40001105D9F3D80156968D919C915797892BDE
:103E5000A1F35896ED90FC905997E114F10469F3A1
:103E6000EC91EE2321F08EEF8E0F823030F7D801E7
:103E70001996FC91FF2309F4DDC08EEF8F0F82307D
:103E8000E0F6D80154968C91B82FB170CB2E80FFFC
:103E900025C0F23019F5D8011C962C911C971D965F
:103EA0003C911D971E964C911E971F965C911F97F3
:103EB00050966C91509751967C91519752968C9157
:103EC000529753969C912F3F3F4F410551056105F5
:103ED00071058105910509F0B1C0AFCFE13009F45A
:103EE000ACCFF13009F4A9CFF0923D0DE0923C0D3A
:103EF000C8014A9690933F0D80933E0DD092400D9D
:103F0000D80155968C918150863608F096CFCC20FA
:103F100019F041E250E002C041E050E08E2F90E005
:103F200090E4899F902D882711242F2F30E0322F85
:103F30002227330F330F822B932B8064842B952BF6
:103F400080936611909367118091241191E0980FEE
:103F50009093241180936811FF2301F1D8011A96E0
:103F60009C911A971B968C919093691180936A117A
:103F7000F33059F488E0F8013C96ABE6B1E10190EA
:103F80000D928A95E1F72DE00AC0F80184859585A8
:103F900090936C1180936B1127E001C023E0D8014E
:103FA0008C918823A9F0A22FB0E0AA59BE4E83308D
:103FB00049F488E0F801319601900D928A95E1F775
:103FC000285F06C0F801818192818D939C932E5FBA
:103FD000822F90E0D80155964C91559750E0569617
:103FE0006D917C9157978A599E4E2A830E94823305
:103FF000F80185898E5F66E671E12A81820F0E9451
:10400000E918182F81110DC00E94582680912211A5
:10401000811103C00E941F2615C086E10E9401275E
:1040200011C08FB78983F89483E0809384018981DC
:104030008FBF08C0EE2309F400CF23CFE13009F091
:1040400053CFFBCE812F0F900F90DF91CF911F9117
:104050000F91FF90EF90DF90CF900895CF93DF9373
:104060001F92CDB7DEB7FC018081823020F0853011
:1040700021F091EE03C090E001C099EEA0913E0DB9
:10408000B0913F0D9C93E0913C0DF0913D0DCD0121
:10409000099580912211811103C00E941F2605C03D
:1040A0000E94582686E10E9401278FB78983F894E1
:1040B0008091400D8093840189818FBF0F90DF91A3
:1040C000CF9108950F931F93CF93DF938C01FC0141
:1040D000838D90E046960E948428EC01892B79F428
:1040E000F5E3FA95F1F700000E94FC268930C1F74C
:1040F00086E1DF91CF911F910F910C940127F80178
:104100008585888319821A821B821C821D821E82E9
:104110001F821886833049F488E07096DE0111967C
:1041200001900D928A95E1F705C0F8018089918987
:104130009A8389838A859B85F8019483838382810E
:1041400089871C861D861E861F86188A198A1A8AE8
:104150001B8A833049F488E03596DE011C96019075
:104160000D928A95E1F705C0F801858196819D87BA
:104170008C87F801848D8C8B838D8D8B438D50E0E3
:10418000618D728DCE0146960E948233BE0187EE0C
:104190009EE10E942C2981110CC0CE010E94C628EC
:1041A000F5E3FA95F1F700000E94FC268930C1F78B
:1041B0009FCFDF91CF911F910F9108952F923F9242
:1041C0004F925F926F927F928F929F92AF92BF9227
:1041D000CF92DF92EF92FF920F931F93CF93DF93D3
:1041E0001F92CDB7DEB7FC019091840194509230BC
:1041F00008F0BFC0218532852115310509F4B9C009
:104200004F0130933F1120933E11CF010B969093B5
:1042100041118093401183E2809366118CEC80936E
:1042200067118091241191E0980F9093241180934D
:10423000681190912A1180912B11909369118093AC
:104240006A114080518062807380B481A58136807C
:104250002780A0903411B0903511C0903611D090C5
:104260003711E0903811F090391100913A11109106
:104270003B119201A3016B2F7A2F832D922D0E9467
:10428000CD3341F088E0ABE6B1E101900D928A9523
:10429000E1F724C040926B1150926C1160926D1145
:1042A00070926E11B0936F11A093701130927111D2
:1042B0002092721110923411109235111092361111
:1042C00010923711109238111092391110923A1140
:1042D00010923B118FEF9FEF0E94201690912A11B0
:1042E00080912B11909373118093741180912C11F4
:1042F0008093751180912D118093761180912E11EC
:104300008093771180912F118093781180913011D3
:10431000809379118091311180937A1180913211BB
:1043200080937B118091331180937C1183E0809383
:104330007D11F401808580937E1166E671E18BE149
:104340000E94E918982E81110BC0809122118111D1
:1043500003C00E941F260EC086E10E9401270AC0EA
:104360008FB78983F8948DE08093840189818FBF12
:1043700001C0912C892D0F90DF91CF911F910F914A
:10438000FF90EF90DF90CF90BF90AF909F908F9075
:104390007F906F905F904F903F902F900895CF93B4
:1043A000DF9300D0CDB7DEB7FC018081E0914011F2
:1043B000F0914111823010F4108206C0853011F462
:1043C00089EE01C081EE8083E0913E11F0913F11B2
:1043D0008091401190914111099580912311811193
:1043E0000AC00E941F268FB78A83F8941092840116
:1043F0008A818FBF0BC08FB78983F89485E0809343
:10440000840189818FBF86E10E9401270F900F9060
:10441000DF91CF9108951F93CF93DF931F92CDB774
:10442000DEB720918401253009F074C023E2209387
:1044300066112CEC209367112091241131E0320F8A
:1044400030932411209368112FEF2093691120934A
:104450006A1128E0FC01ABE6B1E101900D922A95CA
:10446000E1F730912A1120912B1130937311209391
:10447000741140912C114093751140912D1140936E
:10448000761140912E114093771140912F11409356
:10449000781140913011409379114091311140933E
:1044A0007A114091321140937B1140913311409326
:1044B0007C1148E040937D1130937E1120937F1151
:1044C00030913C1120913D11309380112093811146
:1044D0002091271120938211FC01208520938311C4
:1044E00081858093841166E671E181E20E94E9187A
:1044F000182F811106C00E94582686E10E940127CC
:104500000AC08FB78983F8948EE0809384018981F3
:104510008FBF01C010E0812F0F90DF91CF911F91CD
:1045200008950F931F93CF93DF931F92CDB7DEB7FC
:104530008C010E949017FC01892BE9F0D8019C9115
:10454000992349F0953021F0933021F09BEE03C080
:1045500099EE01C091EE9093550D81E49DE009958F
:104560008FB78983F89485E08093840189818FBF18
:1045700086E10E9401270F90DF91CF911F910F914B
:1045800008951F93CF93DF931F92CDB7DEB7182FF7
:104590008FB78983F8941092840189818FBF0E941C
:1045A000B025811104C00E943A2680E034C0111168
:1045B0000E94DA1585E099E10E94852782EE97E155
:1045C0000E94BB2723E046E060EC8EE20E94BD1211
:1045D00024E041E06EE08CE20E94BD1223E044E062
:1045E00060EF8CE20E94BD128CE291E10E949F2656
:1045F00080913C1190913D110E94842680912A1156
:1046000090912B110E946F2680912211811102C07E
:104610000E941F2681E00F90DF91CF911F91089596
:10462000809184018450823078F40E94402688234F
:1046300059F086E10E940127811108C08091221162
:10464000811102C00E941F2688EE089580E008951F
:1046500080912211811103C00E941F2602C00E9476
:10466000582680E008950F931F93CF93DF931F92F6
:10467000CDB7DEB78C0180914211909143110E9419
:104680000C160115110569F0E0914411F0914511E6
:10469000C80109958FB78983F894109284018981A4
:1046A0008FBF0F90DF91CF911F910F9108950E94BE
:1046B0001F2690913812911106C0809137128F5F9A
:1046C000809337120895A0914611B0914711129628
:1046D0008C911297811103C08AEE8C9301C01C92B9
:1046E0008091E61124E0829FF0011124E951FE4EF1
:1046F00023E333E231832083B383A283833119F42C
:104700001092E61103C08F5F8093E6119150909351
:1047100038128091E5118F5F8093E5110895DF9243
:10472000EF92FF920F931F93CF93DF9300D01F92CE
:10473000CDB7DEB7FC0180918401811113C03097A1
:1047400089F083819481892B69F0F080E280D180A7
:104750008EE08E1538F08F010E944026811104C032
:104760000E941F2680E017C18D2D0E9434168111F2
:10477000F7CFF80183819481909345118093441180
:104780003596F0934711E0934611FF2059F3F1E07D
:10479000FF1253C0A1E0B0E002C0AA0FBB1FEA9411
:1047A000E2F7119620EC33E00E94A83360933E11AB
:1047B00070933F11809340119093411180912A1181
:1047C00090912B11909343118093421183E0809339
:1047D000661188E0809367118091241191E0980F11
:1047E00090932411809368118FEF809369118093C7
:1047F0006A1180936B1180936C1187E080936D1127
:104800008FEF9FEF0E940C168111AACF66E671E12F
:104810008AE00E94E918882309F4A2CF9FB79B83FE
:10482000F89492E0909384019B819FBFE0914611A0
:10483000F0914711128291E049C082E0F81248C01D
:10484000A1E0B0E002C0AA0FBB1FEA94E2F7119604
:1048500020EC33E00E94A83360933E1170933F1127
:10486000809340119093411180912A1190912B11C6
:1048700090934311809342118FEF9FEF0E940C168B
:1048800081116ECF86E10E940127882309F468CF49
:1048900060913E1170913F118091401190914111B2
:1048A00020E030E047E553E20E94A932882309F472
:1048B00057CF9FB79A83F89492E0909384012A810E
:1048C0002FBFE0914611F09147111282918363C08E
:1048D000E3E0FE1245CF80E098E7A0E0B0E08093EF
:1048E0003E1190933F11A0934011B093411113E0FA
:1048F0001093661188EC809367118091241191E0E8
:10490000980F90932411809368118FEF8093691111
:1049100080936A1180936B1180936C1180936D1159
:1049200080936E1180912C1180936F1180912D11C5
:104930008093701180912E118093711180912F11AD
:104940008093721180913011809373118091311195
:10495000809374118091321180937511809133117D
:104960008093761186E08093771166E671E184E1A9
:104970000E94E918882309F4F3CE9FB79983F8942D
:1049800092E09093840199819FBFE0914611F0914C
:104990004711128211830F900F900F90DF91CF91EA
:1049A0001F910F91FF90EF90DF900895FC0180819F
:1049B000882321F080E090E00C94572386E10E9448
:1049C00001278823B9F360913E1170913F118091C6
:1049D00040119091411120E030E047E553E20E9400
:1049E000A932882339F3089583FFB9C080915A0D05
:1049F000811150C08091560D9091570D892B09F46B
:104A0000AEC0289880E28EBD0DB407FEFDCF8EB5F6
:104A100080935B0D8EBD0DB407FEFDCF8EB58F77F5
:104A200080935B0D289A80915B0D883008F497C0C5
:104A3000289882E88EBD0DB407FEFDCF8EB58EBDE1
:104A40000DB407FEFDCF8EB5289A289892EC9EBD36
:104A5000807E89600DB407FEFDCF9EB58EBD0DB47E
:104A600007FEFDCF8EB5289A90913812992309F44C
:104A700052C08091E61124E0829FF0011124E95197
:104A8000FE4E2091560D3091570D318320832BE53A
:104A90003DE053C010925A0D289882E88EBD0DB4A7
:104AA00007FEFDCF8EB5809385018EBD0DB407FE48
:104AB000FDCF8EB580938501289A809185018295DE
:104AC0008695877080938501289882E88EBD0DB405
:104AD00007FEFDCF8EB58EBD0DB407FEFDCF8EB5A2
:104AE000289A289892EC9EBD807E83600DB407FEC4
:104AF000FDCF9EB58EBD0DB407FEFDCF8EB5289AB5
:104B00002091580D3091590D2115310541F19091A9
:104B10003812911106C0809137128F5F809337123F
:104B200008958091E61144E0849FF0011124E95139
:104B3000FE4E3183208325E831E0338322838331A5
:104B400019F41092E61103C08F5F8093E611915023
:104B5000909338128091E5118F5F8093E51108954D
:104B6000CF938FEF8093850110925B0D10925A0DB9
:104B70001092590D1092580D1092570D1092560D1B
:104B80000E945312C82F811102C0C0E055C08BEFA4
:104B900093E00197F1F700C000002E982D982C9813
:104BA00090E19A95F1F72D9A8FE599E00197F1F749
:104BB00000C000008FE599E00197F1F700C0000008
:104BC00023E040E06FE182E00E94BD128BEF93E0B2
:104BD0000197F1F700C0000040E06FE181E00E9422
:104BE000A612883091F68DE10E947012823069F62B
:104BF0008EE10E9470128F3141F684EF94E20E94A0
:104C00004C1320E043E068E083E00E94BD1220E006
:104C100040E067E083E00E94BD1221E047E060E8E9
:104C200085E00E94BD126CE08EE00E948B128091A4
:104C30006F00806280936F008C2FCF910895109247
:104C40005A0D1C9916C040E06FE181E00E94A61247
:104C5000883041F42C9A8FE599E00197F1F700C074
:104C60000000089528E040E06FE182E00E94BD125C
:104C7000EACF08950E9470130E941F260C946A12B6
:104C800010925A0D1C9B11C02C988FE99FE0019740
:104C9000F1F700C0000040E06FE181E00E94A61241
:104CA00091E0883019F090E001C091E0892F0895DB
:104CB0000E94402623E040E06FE182E00E94BD12A6
:104CC00040E06FE181E00E94A612883099F71092CF
:104CD0005B0D10925A0D089580E090E00895CF93F7
:104CE000DF931F92CDB7DEB7682F82E299830E94CF
:104CF0008B129981692F83E20F90DF91CF910C94F1
:104D00008B1280E090E00895CF93DF931F92CDB790
:104D1000DEB7682F80E299830E948B129981692FF8
:104D200081E20F90DF91CF910C948B1220E030E064
:104D300040E050E060E070E080E090E00895CF93C4
:104D4000DF93EC01688184E20E948B12698185E225
:104D50000E948B126A8186E20E948B126B8187E22D
:104D60000E948B126C8188E20E948B126D8189E215
:104D70000E948B126E818AE20E948B126F818BE2FD
:104D8000DF91CF910C948B12811102C020E001C001
:104D900021E043E068E08EE20C94BD12CF93DF93F4
:104DA0001F92CDB7DEB78823B9F061157105A1F068
:104DB0009FB79983F89490915A0D992319F089819E
:104DC0008FBF0AC02C9A2C9899819FBF0E94E01235
:104DD00081E080935A0D01C080E00F90DF91CF9168
:104DE0000895882339F06115710521F00E942B1375
:104DF00081E0089580E0089540E06FE181E00C9447
:104E0000A612CF93DF9310925A0D98EF980F92301D
:104E100038F0982F9F7E963019F0893109F055C0EF
:104E20001C9953C0C82F40E06FE181E00E94A61298
:104E3000D82F8F7E8150823008F447C0CD1709F4F7
:104E400046C0C83059F42C9880E18A95F1F723E0E8
:104E500040E06FE182E00E94BD122BC0C93161F4D5
:104E6000D631C1F429E040E06FE182E00E94BD123A
:104E700082E08A95F1F70DC0C63161F4D93151F461
:104E800026E040E06FE182E00E94BD1292E09A9538
:104E9000F1F700C02C2F40E06FE182E00E94BD12CC
:104EA000D83039F487E691E00197F1F700C00000AF
:104EB00004C092E09A95F1F700C040E06FE181E014
:104EC0000E94A61291E08C1719F090E001C091E0C9
:104ED000892FDF91CF91089580E00895CF9395EFCA
:104EE000980F903170F4C82F282F40E06FE188E0D0
:104EF0000E94BD1240E06FE188E00E94A61291E09E
:104F0000C81390E0892FCF910895CF93DF931F921C
:104F1000CDB7DEB72FB72983F8949093590D8093BE
:104F2000580D89818FBF0F90DF91CF910895CF9356
:104F3000DF931F92CDB7DEB78FB78983F894809146
:104F4000580D9091590D29812FBF0F90DF91CF916E
:104F50000895CF93DF931F92CDB7DEB78FB78983C4
:104F6000F8941092590D1092580D89818FBF0F90AF
:104F7000DF91CF910895CF93DF931F92CDB7DEB726
:104F80002FB72983F8949093570D8093560D8981FC
:104F90008FBF0F90DF91CF910895CF93DF931F9232
:104FA000CDB7DEB78FB78983F8948091560D909175
:104FB000570D29812FBF0F90DF91CF910895CF9387
:104FC000DF931F92CDB7DEB78FB78983F894109225
:104FD000570D1092560D89818FBF0F90DF91CF91A1
:104FE000089510925E0D10925D0D10925C0D81E09F
:104FF0000895AF92BF92CF92DF92EF92FF920F93FC
:105000001F93CF93DF931F92CDB7DEB7F9010097BF
:1050100009F46DC0423008F46AC06230710508F4CA
:1050200066C02FB72983F8948C01060F171FDC0187
:1050300020E0E42EF12C670131E0C31AD108A22E42
:10504000B12CAC14BD044CF411961C930E93060FB6
:10505000171F2F5FA60FB71FF2CF1D921C927183EF
:1050600060834283438395838483E69E9001E79E19
:10507000300DF69E300D112421503109280F391FB3
:10508000378326839187808780915E0D811107C0C9
:1050900013861286F0935D0DE0935C0D21C0409164
:1050A0005C0D50915D0D382FDA010D911C91119717
:1050B0000617170760F41A962C911A971B969C9165
:1050C0001B973150AD0129F0A22FB92FEECF2A2F17
:1050D0009B2FDA011B96FC93EE931A9722879387F6
:1050E0008F5F80935E0D89818FBF81E001C080E07A
:1050F0000F90DF91CF911F910F91FF90EF90DF9074
:10510000CF90BF90AF900895CF93DF931F92CDB70C
:10511000DEB7AC01892BA1F180915E0D882381F16E
:105120008FB78983F894E0915C0DF0915D0D20912B
:105130005E0D90E02223E1F091110FC0608171813A
:105140006417750718F08381811105C00284F38507
:10515000E02D2150EFCF91E0EDCFA085B1858D916D
:105160009C9111979187808783818150838304C0AC
:105170009111F3CFA0E0B0E089818FBFCD0102C0D3
:1051800080E090E00F90DF91CF910895CF93DF936F
:105190001F92CDB7DEB70097A9F120915E0D2223B3
:1051A00089F12FB72983F894E0915C0DF0915D0DA2
:1051B00030915E0D20E0332399F0211113C0468118
:1051C0005781648175818617970718F0481759072A
:1051D00028F40284F385E02D3150EDCF21E0EBCFB0
:1051E000222371F033812281321760F420853185CA
:1051F000DC012D933C939187808783818F5F83832C
:1052000089818FBF0F90DF91CF9108951092E611A1
:1052100083E180935F0D1092E51184E18093381251
:105220001092371281E00895CF93DF931F92CDB78C
:10523000DEB78FB78983F8941092E61183E18093EB
:105240005F0D1092E51184E18093381289818FBF40
:105250000F90DF91CF910895CF93DF931F92CDB739
:10526000DEB720913812222339F1E091E61124E0D3
:10527000E29FF0011124E951FE4E918380837383F4
:1052800062838FB78983F8948091E611833119F492
:105290001092E61103C08F5F8093E6118091E511B3
:1052A0008F5F8093E511809138128150809338127E
:1052B00089818FBF81E001C080E00F90DF91CF91A5
:1052C0000895CF93DF931F92CDB7DEB78FB7898351
:1052D000F8948091E511811103C089818FBF26C0A8
:1052E00090915F0D933119F410925F0D03C09F5F91
:1052F00090935F0D81508093E511809138128F5FFC
:105300008093381289818FBFA0915F0D84E0A89FA0
:10531000D0011124A951BE4EED91FC911197309707
:1053200029F012968D919C91139709950F90DF911A
:10533000CF91089580918601853011F080E0089525
:1053400041E06091271180912A1190912B110E94C8
:1053500046168111F3CF0E9410238111EFCF609187
:105360003C1170913D1180912811909129110E945A
:10537000E2310E942D32909352128093511284E0B8
:105380008093860181E08093531208950895CF930E
:10539000DF93CDB7DEB729970FB6F894DEBF0FBE07
:1053A000CDBFEFB7E983F8941092650D1092640DAC
:1053B0001092630D1092620D1092610D1092600DAB
:1053C000E981EFBF2A833B834C835D836E837F83B8
:1053D000888799870E94E8310E9429302A813B8181
:1053E0004C815D816E817F81888599850E948916B7
:1053F0008823C1F08FEE9BE20E94031789E69EE2AC
:105400000E942C1784EE9FE20E94551786EC99E2C9
:105410000E947E178DEB9EE20E94A71710928601D4
:1054200081E001C080E029960FB6F894DEBF0FBE80
:10543000CDBFDF91CF910895CF93DF931F92CDB76A
:10544000DEB7809186018130B1F00E94D2168FB70D
:105450008983F8941092650D1092640D1092630D7B
:105460001092620D1092610D1092600D89818FBFB4
:1054700081E0809386010F90DF91CF910895809114
:10548000640D9091650D0895CF93DF931F92CDB772
:10549000DEB78FB78983F8941092650D1092640D72
:1054A00089818FBF0F90DF91CF910895CF93DF93C4
:1054B0001F92CDB7DEB72FB72983F8949093650D6F
:1054C0008093640D89818FBF0F90DF91CF910895F4
:1054D0008091620D9091630D0895CF93DF931F9299
:1054E000CDB7DEB78FB78983F8941092630D109211
:1054F000620D89818FBF0F90DF91CF910895CF9377
:10550000DF931F92CDB7DEB72FB72983F89490931E
:10551000630D8093620D89818FBF0F90DF91CF91D2
:1055200008958091600D9091610D0895CF93DF9360
:105530001F92CDB7DEB78FB78983F8941092610DB3
:105540001092600D89818FBF0F90DF91CF910895E8
:10555000CF93DF931F92CDB7DEB72FB72983F8948F
:105560009093610D8093600D89818FBF0F90DF91C3
:10557000CF910895CF93DF93009799F0E0916A0D52
:10558000F0916B0D309769F0A091680DB091690DA5
:10559000109739F0EC0188818C93CD01DF91CF9188
:1055A0000994DF91CF910895CF93DF93009769F02D
:1055B000EC010E943F2AFC01CE01309711F00995C1
:1055C000CE01DF91CF910C94C628DF91CF91089541
:1055D0008091660D9091670D0E94C6280C9410234F
:1055E000CF93DF93E0913C11F0913D113097A1F4FE
:1055F000209151123091521228173907D8F1019792
:10560000B9010E948B33629FC001639F900D729F0E
:10561000900D112401962EC0E817F90738F5209156
:105620004F12309150122E0F3F1F82179307F0F444
:10563000C0915112D09152129E012E0F3F1F281778
:105640003907C0F09F0120953095820F931FBE014E
:105650000E948B336C9F90016D9F300D7C9F300DAD
:105660001124CF010196820F931F04C0809128114D
:1056700090912911DF91CF9108957F928F929F92FF
:10568000AF92BF92CF92DF92EF92FF920F931F9350
:10569000CF93DF93EC01809186018350833008F033
:1056A00057C0209709F454C08F819885892B09F43D
:1056B0004FC089859A85892B09F44AC020913C11F5
:1056C00030913D1189819A812817390709F440C02A
:1056D0008E819FEF980F9E35D8F590E008960E9436
:1056E00084288C01892BA1F184E0F8018083118248
:1056F00089819A819383828380903C1190903D119F
:10570000958284828B81811102C082E001C0F80100
:10571000868380916A1291E0980F90936A12F80143
:1057200087834E8150E06F817885C80108960E947A
:1057300082338E8198E0792E780E89819A810E9439
:10574000F02A8F3FFFEF9F0729F4C8010E94C62867
:10575000C0E036C022E02C878D869E861F86188A80
:10576000198A1A8A1B8A1C8A2D8B20912A11309142
:105770002B113F8B2E8B4C01888F998E1A8E1B8E8E
:105780001C8E1D8E1E8E1F8E81E088A379A21BA306
:105790000AA38AEB9AE29DA38CA389859A859093AC
:1057A0006B0D80936A0DCE010B969093690D8093DB
:1057B000680D01960E940B1FC82FC8010E94C628C1
:1057C0008C2FDF91CF911F910F91FF90EF90DF9081
:1057D000CF90BF90AF909F908F907F9008958F92C1
:1057E0009F92AF92BF92CF92DF92EF92FF920F9370
:1057F0001F93CF93DF93FC019589983008F494C0F0
:105800008F01E18CF12CFE2CEE24808DE82A209172
:105810003C1130913D11E216F30609F458C08BE1BA
:1058200090E00E948428EC019093670D8093660DB0
:10583000892B51F0C7010E94F02A8F3F2FEF92076A
:1058400089F4CE010E94C628DF91CF911F910F915C
:10585000FF90EF90DF90CF90BF90AF909F908F9090
:105860000C94102322E0288380903C1190903D11ED
:1058700089829A821B821C821D821E821F82188648
:10588000298720912A1130912B113B872A874C01BF
:105890008C879D861E861F86188A198A1A8A1B8AFB
:1058A00081E08C8BF80185898D8B0A5E1F4F1F8BE1
:1058B0000E8B88EE9AE2998F888FCE010E940B1F83
:1058C0008111C2CF8091660D9091670DBBCF892F5A
:1058D00090E001970E948428EC01892B29F181E056
:1058E0008883FA82E982F801838D90E0982F8827D7
:1058F000228D822B9C838B8384898D83858988501C
:105900008E83458950E048505109B801625E7F4F4F
:10591000CE0107960E948233BE0184ED9AE20E9476
:105920002C29811191CF8DCFDF91CF911F910F91B4
:10593000FF90EF90DF90CF90BF90AF909F908F90AF
:10594000089510928601E0913912F0913A1209946B
:10595000CF93DF93EC010E94BE1760913B127091D0
:105960003C128881FB01EF5BFF4F808380914712DF
:10597000EB018993809148129091491220E10097A0
:1059800069F0FC013496DE01322F01900D923A95B8
:10599000E1F76096FC0180819181F1CF81EA9CE280
:1059A000DF91CF910C942C29CF93DF93FC012181BF
:1059B000223009F04EC0EC01848195810E940C31A7
:1059C000892B09F046C00E944F30FC01892B31F42D
:1059D00080E090E0DF91CF910C9474308A819B81BC
:1059E0009583848316821782108611861286138609
:1059F000148615868C8586871786108A8D859E85E8
:105A0000282F2F70218B282F22952F70228B97FD06
:105A100002C0138A02C081E0838B148A158A168A19
:105A2000178A108E118E128E138E8C819D81958F08
:105A3000848F83E0868F178E80A38FE081A312A2CC
:105A400081E083A38F8584A3CF01DF91CF910C9454
:105A50009630DF91CF910895CF93DF932091860107
:105A6000222311F080E02AC00097E1F3FC0122819B
:105A7000338121153105B1F330933A122093391255
:105A8000049690933C1280933B12EF01CA5BDF4F68
:105A900081E088838081898381818A8388EA9CE28E
:105AA0009C838B8384ED9CE20E94D017CE010E94E0
:105AB0008F238823B9F292E090938601DF91CF91F2
:105AC000089520918601222311F080E00895009727
:105AD000E1F3FC0141E06081818192810E944616E0
